:1000000056C200009CC60000C7C6000078C20000AF
:1000100076C2000074C2000072C2000070C200000C
:100020006EC200006CC200006AC200000C94740C26
:1000300066C2000064C2000062C2000060C200002C
:10004000D8C600005CC200000C943B0A0C946D0AF8
:1000500056C2000054C2000052C2000050C200004C
:100060000C940A1B4CC20000240FDA0FDA0F410F68
:10007000690F870FDA0F770FDA0FB40FDA0FA10FBE
:10008000BA0F084AD73B3BCE016E84BCBFFDC12FDF
:100090003D6C74319ABD56833DDA3D00C77F11BE79
:1000A000D9E4BB4C3E916BAAAABE000000803F0081
:1000B000416461667275697420426C75656672751B
:1000C0006974204C6F7720456E65726779206E5297
:1000D0004638303031205072696E74206563686F25
:1000E0002064656D6F00000000080002010000033D
:1000F00004070000000000000000010204081020B6
:1001000040800102040810200102040810200404A9
:1001100004040404040402020202020203030303AF
:100120000303000000002300260029000000000057
:10013000250028002B0000000000240027002A00D2
:10014000202050697065204572726F7220436F6481
:10015000653A203078004143492045767420506943
:100160007065204572726F723A2050697065202365
:100170003A0045767420436D6420726573706F6E2B
:10018000653A204572726F722E2041726475696EF5
:100190006F20697320696E20616E207768696C65D5
:1001A0002831293B206C6F6F700041434920436F19
:1001B0006D6D616E6420004572726F7220696E20F1
:1001C0004143492053657475700009577269746919
:1001D0006E67206F6E65206279746520307800004C
:1001E00007060000030241D70000000000000000E5
:1001F00000000000000000000000000000000000FF
:10020000001F0610000000000000000400040101AF
:100210000000060000900000000000000000000048
:1002200000001F06101C010200000000000000007A
:100230000000000000000000001400000014039003
:100240000164001F06103802FF025800050000007C
:10025000000000000000000010000000000000008E
:10026000000000000506105400000000000000001F
:10027000000000000000000000000000000000007E
:1002800000000000001F06200004040202000128F4
:10029000000100180404050500022803010E0300F4
:1002A000002A041407001F06201C0400032A000172
:1002B0005541525469637304040505000428030181
:1002C000020500012A06001F06203804030200056B
:1002D0002A010100000404050500062803010207A5
:1002E00000042A06040908001F06205400072A04F7
:1002F000010600120000000A00040402020008289F
:100300000001011804041010001F062070000928C5
:1003100000019ECADC240EE5A9E093F3A3B5010019
:10032000406E04041313000A28001F06208C0301EA
:10033000040B009ECADC240EE5A9E093F3A3B502EA
:1003400000406E44101400000B00001F0620A8029D
:10035000020000000000000000000000000000009B
:10036000000000000004041313000C001F0620C44A
:10037000280301100D009ECADC240EE5A9E093F3CA
:10038000A3B50300406E14001400000D001F0620EA
:10039000E000030200000000000000000000000078
:1003A00000000000000000004614030200001F06C9
:1003B00020FC0E290201000004040202000F2800A4
:1003C000010A180404050500102803010211001990
:1003D00006211800272A0404090100112A27010A0E
:1003E000000000000000000000000000000000000D
:1003F0001F0640002A0001008004000300000002E4
:1004000002000804000B0000000302000204000DBB
:10041000000F06401C000E2A270100800400110076
:1004200000000000000000000000000000000000CC
:100430000000130650009ECADC240EE5A9E093F3E9
:10044000A3B50000406E00000000000000000000A6
:100450000000000F06600000000000000000000027
:10046000000000000000000000000000000000008C
:10047000000000000606F00003D388000000000022
:10048000000000000000000000000000000000006C
:1004900000000000436D6420517565756520467548
:1004A0006C6C00002C200000F1039B0A291A112417
:1004B0001FBECFEFD8E0DEBFCDBF12E0A0E0B1E0BD
:1004C000E6EFFEE302C005900D92AE31B107D9F719
:1004D00027E0AEE1B2E001C01D92A035B207E1F71E
:1004E00014E0CEEAD4E004C02297FE010E948F1CE3
:1004F000C83AD107C9F70E94680C0C94791F80CDC7
:1005000065E271E086E892E00C946B0B26E040E82F
:1005100055E260E070E086E892E04BD760EB70E077
:1005200086E892E00E945B0B8FE492E00E94E71560
:1005300040E550E060E070E08EE192E00E9415102E
:1005400061E088E063D560E083E060D564E070E05E
:1005500089E492E00E94C70D67E070E086E492E0D3
:100560000E94C70D65E070E08CE492E00E94C70D28
:1005700065E570E08CE492E00E94FF0D68EB7BE0A3
:1005800080E090E0AFD443E050E060E872E081E0CA
:10059000A6D363E371E086E892E00C94410B61E03E
:1005A00086E034D560E086E06AD582E090E0BFD492
:1005B00061E086E064D585E090E0B9D460E086E053
:1005C00025D520E432E44FE050E061E086E08CD5B0
:1005D0002AE330E040E050E00E94711CCA01B901FA
:1005E00008954F925F926F927F928F929F92AF92F7
:1005F000BF92CF92DF92EF92FF92CF93DF9300D022
:1006000000D0CDB7DEB7CBDF69837A838B839C8341
:100610006CE271E080E090E065D4C1DF2B013C0129
:100620006CE271E080E090E05DD4B9DF4B015C01E9
:100630006CE271E080E090E055D4B1DF6B017C01A9
:100640006CE271E080E090E04DD469817A818B8129
:100650009C81640D751D861D971D680D791D8A1D71
:100660009B1D6C0D7D1D8E1D9F1D24E030E040E024
:1006700050E00E94711CCA01B9010F900F900F90B9
:100680000F90DF91CF91FF90EF90DF90CF90BF90D0
:10069000AF909F908F907F906F905F904F90089554
:1006A000CF92DF92EF92FF9267EA70E08CE492E0E3
:1006B0000E94FF0D6CE271E080E090E013D491DFC6
:1006C0006B017C0166E970E080E090E00BD465E5A9
:1006D00070E08CE492E00E94FF0DC701B601FF902C
:1006E000EF90DF90CF900895CF92DF92EF92FF923C
:1006F00061E070E08CE492E00E94FF0D6CE271E03A
:1007000080E090E0EFD36DDF6B017C0166E970E083
:1007100080E090E0E7D365E570E08CE492E00E9431
:10072000FF0DC701B601FF90EF90DF90CF900895C5
:10073000865A9F4F883621E092071CF088569140D8
:10074000F9CF08958A55910997FF03C088599E4FA4
:10075000FBCF0895CF93DF93EB01BC0186E492E0D9
:100760000E94CC0DBE0189E492E0DF91CF910C9400
:10077000CC0D8EE192E00E940B0F8EE192E00E9480
:10078000DA0E909345028093440220910F0130913C
:1007900010018217930721F18538910589F4809122
:1007A0003C0290913D02A0913E02B0913F028093A5
:1007B000380290933902A0933A02B0933B0208C0EA
:1007C0008638910529F46CED75E08CED95E0C2DF7B
:1007D00080914402909145029093100180930F0103
:1007E000089588E792E00E9480184DE556E760E0A2
:1007F00070E085E692E00E94E7144EE556E760E07F
:1008000070E08FE492E00E94F1148CE492E00E9488
:100810002E0D89E492E00E942E0D86E492E00E9463
:100820002E0D31D360933C0270933D0280933E02C3
:1008300090933F0229E042E06AE08EE192E00C945E
:10084000DE0E0F931F9380913C0290913D02A09188
:100850003E02B0913F0240913802509139026091BE
:100860003A0270913B028C019D01041B150B260B73
:10087000370B40910B0150910C0160910D0170916B
:100880000E014017510762077307F0F48093380296
:1008900090933902A0933A02B0933B0288EB9BE01D
:1008A000A0E0B0E080930B0190930C01A0930D01A8
:1008B000B0930E0186E990E090934102809340024C
:1008C00090934302809342028EE192E00E94630E75
:1008D000029709F043C08EE192E00E94700E90935F
:1008E00041028093400280913C0290913D02A09190
:1008F0003E02B0913F028093380290933902A09358
:100900003A02B0933B028EE192E00E94700E909307
:1009100043028093420240913C0250913D0260911B
:100920003E0270913F024093380250933902609327
:100930003A0270933B022AE0289FB001299F700D74
:1009400011248091400290914102AC01249FC0018A
:10095000259F900D11241F910F91FCCE1F910F9197
:100960000895CF93DF93CDB7DEB7E4970FB6F89431
:10097000DEBF0FBECDBFBE016F5F7F4F8FE492E041
:100980000E9468179E012B5D3F4FAE014F5F5F4F86
:1009900063E070E088E792E00E948118882341F0CC
:1009A0006DA57EA58FA598A90E94DF1DCB0102C071
:1009B0008FEF9FEFE4960FB6F894DEBF0FBECDBF6A
:1009C000DF91CF9108956F927F928F929F92AF9215
:1009D000BF92CF92DF92EF92FF920F931F93CF932C
:1009E000DF93EC017B0108EC10E06C018AE0C81A8F
:1009F000D1085E018AE0A80EB11C4E0182E0881A7F
:100A000091083E0182E0680E711C81E0E816F10455
:100A100029F460EB74E088E097E008C087EAE81604
:100A2000F10481F468E077E080EB94E093DEB801B4
:100A3000882777FD8095982F55D26CED75E08CED69
:100A400095E088DE8EDF8C159D0534F08ADFA816D0
:100A5000B90614F004E610E06AE471E086E892E07A
:100A600010D67FDF4AE050E0BC0186E892E0E2D693
:100A70006DE871E086E892E004D64AE050E0BE01FD
:100A800086E892E0D7D66CE271E080E090E02AD26E
:100A900068DF881599050CF4B8CF63DF681679060E
:100AA0000CF4B3CFDF91CF911F910F91FF90EF9096
:100AB000DF90CF90BF90AF909F908F907F906F907E
:100AC00008958F929F92AF92BF92CF92DF92EF9252
:100AD000FF92E6DD4B015C016BE571E086E892E098
:100AE000D0D52AE030E0B501A40186E892E0B8D67E
:100AF00064EF71E080E090E0F5D1F6DD6B017C0100
:100B000063E671E086E892E0BCD52AE030E0B70108
:100B1000A60186E892E0A4D68FE1C816D104E104CC
:100B2000F1043CF48FE188169104A104B10484F42B
:100B30002DC08C149D04AE04BF042CF412DFF8DD2C
:100B400061E070E009C0C814D904EA04FB046CF445
:100B500008DFF8DD67EA70E0FF90EF90DF90CF905C
:100B6000BF90AF909F908F902ECF3BDD6233710589
:100B700081059105E4F468E775E088E795E0EADD32
:100B80006EE170E080E090E0ADD1EFCF2ADD62331E
:100B90007105810591055CF468E775E088E795E0EB
:100BA000D9DD6EE170E080E090E09CD1EFCFFF9066
:100BB000EF90DF90CF90BF90AF909F908F9008956F
:100BC00062D160933C0270933D0280933E02909309
:100BD0003F0207DD6E3171058105910524F561E065
:100BE00088E04DD2DCDC683271058105910584F422
:100BF0006AE671E086E892E06ED564E175E084E132
:100C000095E0A8DD6EE170E080E090E06BD1EACF86
:100C10006CED75E08CED95E09DDD80910A018823F7
:100C200071F04FDF0CC080910A01882329F060E445
:100C300076E080E496E08EDD60E088E020D299DD09
:100C400080914402909145028538910509F045C094
:100C500080910A01811101C0F4CD8EE192E00E94E1
:100C6000630E892BD1F18EE192E00E94700E909379
:100C70004102809340028639910511F010920A01D9
:100C800080913C0290913D02A0913E02B0913F02C2
:100C90008093380290933902A0933A02B0933B02BA
:100CA0008EE192E00E94700E909343028093420284
:100CB0008639910511F010920A0180913C029091C1
:100CC0003D02A0913E02B0913F0280933802909382
:100CD0003902A0933A02B0933B02089571CF82305B
:100CE000E8F4E82FF0E0EE0FFF1FE758FD4F7183A7
:100CF0006083813041F0809169008C7F842B8093E8
:100D00006900E89A089580916900440F551F440FC7
:100D1000551F837F842B80936900E99A0895823060
:100D200068F4813011F0E89801C0E998E82FF0E00C
:100D3000EE0FFF1FE758FD4F1182108208951F929A
:100D40000F920FB60F9211242F933F934F935F93FF
:100D50006F937F938F939F93AF93BF93EF93FF9383
:100D60008091790290917A02892B29F0E0917902A1
:100D7000F0917A020995FF91EF91BF91AF919F9108
:100D80008F917F916F915F914F913F912F910F9034
:100D90000FBE0F901F9018951F920F920FB60F92D3
:100DA00011242F933F934F935F936F937F938F9370
:100DB0009F93AF93BF93EF93FF9380917B029091AA
:100DC0007C02892B29F0E0917B02F0917C0209954D
:100DD000FF91EF91BF91AF919F918F917F916F9113
:100DE0005F914F913F912F910F900FBE0F901F90E9
:100DF00018951F920F920FB60F9211242F933F93C5
:100E00008F939F93AF93BF9380917E0290917F02C7
:100E1000A0918002B091810230917D0223E0230FE6
:100E20002D3720F40196A11DB11D05C026E8230F22
:100E30000296A11DB11D20937D0280937E029093A6
:100E40007F02A0938002B0938102809182029091F0
:100E50008302A0918402B09185020196A11DB11D6B
:100E60008093820290938302A0938402B0938502C0
:100E7000BF91AF919F918F913F912F910F900FBE96
:100E80000F901F9018952FB7F89460917E02709183
:100E90007F0280918002909181022FBF08953FB719
:100EA000F8948091820290918302A0918402B09183
:100EB000850226B5A89B05C02F3F19F00196A11DFC
:100EC000B11D3FBF6627782F892F9A2F620F711DA2
:100ED000811D911D42E0660F771F881F991F4A955B
:100EE000D1F70895CF92DF92EF92FF92CF93DF93E5
:100EF0006B017C01D4DFEB01C114D104E104F104E6
:100F000079F0F1D4CCDF6C1B7D0B683E7340A0F30D
:100F100081E0C81AD108E108F108C851DC4FECCFD4
:100F2000DF91CF91FF90EF90DF90CF9008950197E0
:100F3000009739F0880F991F880F991F0297019722
:100F4000F1F70895789484B5826084BD84B581609A
:100F500084BD85B5826085BD85B5816085BDEEE6C1
:100F6000F0E0808181608083E1E8F0E010828081A0
:100F700082608083808181608083E0E8F0E080810E
:100F800081608083E1EBF0E0808184608083E0EB2E
:100F9000F0E0808181608083EAE7F0E08081846016
:100FA0008083808182608083808181608083808172
:100FB000806880831092C1000895833081F028F406
:100FC000813099F08230A1F008958730A9F08830FF
:100FD000B9F08430D1F4809180008F7D03C080917E
:100FE00080008F7780938000089584B58F7702C04A
:100FF00084B58F7D84BD08958091B0008F7703C044
:101000008091B0008F7D8093B0000895CF93DF93DF
:1010100090E0FC01E650FF4F2491FC01E25FFE4F9F
:101020008491882349F190E0880F991FFC01EA5CC4
:10103000FE4FA591B491845D9E4FFC01C591D49162
:101040009FB7611108C0F8948C91209582238C93EE
:10105000888182230AC0623051F4F8948C91322F37
:10106000309583238C938881822B888304C0F894E5
:101070008C91822B8C939FBFDF91CF9108950F931A
:101080001F93CF93DF931F92CDB7DEB7282F30E0A9
:10109000F901EA51FF4F8491F901E650FF4F149195
:1010A000F901E25FFE4F04910023C1F0882319F09B
:1010B000698383DF6981E02FF0E0EE0FFF1FE45DBD
:1010C000FE4FA591B4919FB7F8948C91611103C024
:1010D0001095812301C0812B8C939FBF0F90DF91CE
:1010E000CF911F910F910895CF92DF92EF92FF92CF
:1010F0000F931F93CF93DF9390E0FC01E650FF4FD7
:10110000D491FC01E25FFE4F7491611102C0C0E016
:1011100001C0CD2FDA01C901BF70672F70E0660FE3
:10112000771F6E5D7E4F00E010E09801FB01E590B7
:10113000F490F70140814D234C131EC068017901E2
:101140004FEFC41AD40AE40AF40A081719072A0749
:101150003B0709F442C097018601E8CF6801790195
:10116000FFEFCF1ADF0AEF0AFF0A081719072A074D
:101170003B0799F197018601FB01E590F490F70197
:1011800040814D234C13EACF801B910BA20BB30B74
:1011900020E030E0A901FB01E590F490F701F08038
:1011A000FD22FC120AC0281739074A075B07A9F07D
:1011B0002F5F3F4F4F4F5F4FEECFA8E1B0E00E944F
:1011C000A21C605F7F4F8F4F9F4F24E096958795BD
:1011D000779567952A95D1F703C060E070E0CB0161
:1011E000DF91CF911F910F91FF90EF90DF90CF9003
:1011F0000895FC01818D228D90E0805C9F4F821BC1
:1012000091098F7399270895FC01918D828D98170C
:1012100031F0828DE80FF11D858D90E008958FEFFC
:101220009FEF0895FC01918D828D981761F0828D5A
:10123000DF01A80FB11D5D968C91928D9F5F9F730A
:10124000928F90E008958FEF9FEF089582E99AE0E2
:10125000892B41F080E090E0892B21F063D181114E
:101260000C9400000895FC01848DDF01A80FB11DCE
:10127000A35ABF4F2C91848D90E001968F739927CC
:10128000848FA689B7892C93A089B1898C918064B9
:101290008C93938D848D981306C00288F389E02D7A
:1012A00080818F7D80830895CF93DF93EC01888DBB
:1012B0008823C1F0EA89FB89808185FD05C0A88962
:1012C000B9898C9186FD0EC00FB607FCF5CF8081E1
:1012D00085FFF2CFA889B9898C9185FFEDCFCE012A
:1012E000C2DFE8CFDF91CF910895CF92DF92FF92D6
:1012F0000F931F93CF93DF931F92CDB7DEB76C018F
:10130000DC015B969C915B975C968C915C97981343
:1013100007C05096ED91FC915197808185FD31C0B9
:10132000F601038D10E00F5F1F4F0F731127F02E92
:10133000F601848DF81210C00FB607FCF9CFD60164
:101340005096ED91FC915197808185FFF1CFC601B8
:10135000698389DF6981ECCF838DE80FF11DE35A42
:10136000FF4F6083D6015B960C935B975296ED918D
:10137000FC91539780818062808381E058968C93A2
:101380000DC0D6015696ED91FC915797608350960B
:10139000ED91FC91519780818064808381E090E0A1
:1013A0000F90DF91CF911F910F91FF90DF90CF9021
:1013B0000895BF92CF92DF92EF92FF92CF93DF9387
:1013C000EC016A017B01B22EE889F98982E0808311
:1013D000411581EE580761057105A1F060E079E0E3
:1013E0008DE390E0A70196010E944F1C2150310926
:1013F000410951095695479537952795211580E163
:10140000380798F0E889F989108260E874E88EE17D
:1014100090E0A70196010E944F1C2150310941091B
:1014200051095695479537952795EC85FD8530836D
:10143000EE85FF852083188EEC89FD89B082EA89CC
:10144000FB89808180618083EA89FB898081886053
:101450008083EA89FB89808180688083EA89FB89AF
:1014600080818F7D8083DF91CF91FF90EF90DF901F
:10147000CF90BF9008951F920F920FB60F92112434
:101480002F938F939F93EF93FF93E0919602F091A8
:1014900097028081E0919C02F0919D0282FD12C032
:1014A000908180919F028F5F8F732091A00282179D
:1014B00051F0E0919F02F0E0EA57FD4F958F809345
:1014C0009F0201C08081FF91EF919F918F912F9199
:1014D0000F900FBE0F901F9018951F920F920FB68E
:1014E0000F9211242F933F934F935F936F937F93AA
:1014F0008F939F93AF93BF93EF93FF9386E892E010
:10150000B2DEFF91EF91BF91AF919F918F917F914B
:101510006F915F914F913F912F910F900FBE0F9060
:101520001F90189586E892E064DE21E0892B09F48B
:1015300020E0822F0895109289021092880288EE8E
:1015400093E0A0E0B0E080938A0290938B02A09396
:101550008C02B0938D028EEC91E090938702809381
:10156000860285EC90E0909393028093920284EC43
:1015700090E0909395028093940280EC90E0909399
:1015800097028093960281EC90E090939902809369
:10159000980282EC90E090939B0280939A0286ECF2
:1015A00090E090939D0280939C0210929F02109273
:1015B000A0021092A1021092A2020895CF92DF928F
:1015C000EF92FF920F931F93CF93DF936C017A01F9
:1015D000EB01E60EF71E00E010E0CE15DF0561F02E
:1015E0006991D601ED91FC910190F081E02DC60149
:1015F0000995080F191FF1CFC801DF91CF911F91F5
:101600000F91FF90EF90DF90CF90089561157105D5
:1016100081F0DB010D900020E9F7AD014150510947
:10162000461B570BDC01ED91FC910280F381E02D0C
:10163000099480E090E00895EF92FF920F931F933A
:10164000CF93DF938C01FB01C0E0D0E064917F0178
:101650008FEFE81AF80A662361F0D801ED91FC914A
:101660000190F081E02DC8010995C80FD91FF7013D
:10167000EDCFCE01DF91CF911F910F91FF90EF90B1
:101680000895C4CFDC01ED91FC910190F081E02D33
:1016900009940F931F93CF93DF93EC016DE0F2DF7A
:1016A0008C016AE0CE01EEDF800F911FDF91CF91B8
:1016B0001F910F9108950F931F93CF93DF93EC0128
:1016C000BBDF8C01CE01E5DF800F911FDF91CF9151
:1016D0001F910F9108950F931F93CF93DF93EC0108
:1016E00095DF8C01CE01D5DF800F911FDF91CF9167
:1016F0001F910F9108958F929F92AF92BF92CF92B8
:10170000DF92EF92FF920F931F93CF93DF93CDB7AA
:10171000DEB7A1970FB6F894DEBF0FBECDBF7C0138
:10172000C42EE52FCB01D22E19A221E02D1510F0E9
:101730002AE0D22E8E010F5D1F4F8D2C912CA12CF3
:10174000B12C6C2D7E2FA50194010E944F1C8C2D75
:10175000D29E80191124015011098A3014F4805D41
:1017600001C0895CF80180832115310541055105CF
:1017700021F0C22EE32FCA01E4CFB801C70146DF32
:10178000A1960FB6F894DEBF0FBECDBFDF91CF910B
:101790001F910F91FF90EF90DF90CF90BF90AF908F
:1017A0009F908F900895CF92DF92EF92FF920F93C8
:1017B0001F93CF93DF93EC016A017B012115310563
:1017C00079F4E881F9810190F081E02D642FDF91B7
:1017D000CF911F910F91FF90EF90DF90CF900994E0
:1017E0002A303105D9F477FF18C06DE24BDF8C0148
:1017F00044275527BA014C195D096E097F092AE073
:10180000CE0179DF800F911FDF91CF911F910F9152
:10181000FF90EF90DF90CF9008952AE0B701A601E6
:10182000CE01DF91CF911F910F91FF90EF90DF904C
:10183000CF9061CF0F931F93CF93DF93EC019A0169
:10184000AB01662757FD6095762FADDF8C01CE0189
:1018500020DF800F911FDF91CF911F910F9108958D
:101860000F931F93CF93DF93EC019DDF8C01CE018B
:1018700010DF800F911FDF91CF911F910F9108957D
:101880002115310541F4DC01ED91FC910190F081CD
:10189000E02D642F09942FCF9A01462F50E060E08D
:1018A00070E0EECF0F931F93CF93DF93EC019A017B
:1018B000462F50E060E070E0E3DF8C01CE01E9DE0E
:1018C000800F911FDF91CF911F910F91089508957F
:1018D00039DBFDDF0E948602C6E2D9E0FFD92097FE
:1018E000E9F3B4DCFBCF08951F920F920FB60F926D
:1018F00011242F933F934F935F936F937F938F9315
:101900009F93AF93BF93EF93FF938091240387FF3F
:1019100005C010928500109284001AC02091240303
:10192000332727FD30958091230390E0281739074E
:101930007CF480912403992787FD9095FC01EE0F9C
:10194000FF1FE80FF91FEB5DFC4F808186FD15C07E
:10195000809124038F5F80932403209124033327F5
:1019600027FD30958091230390E028173907B4F4C0
:10197000809124038C3054F111C080912403992765
:1019800087FD9095FC01EE0FFF1FE80FF91FEB5D3F
:10199000FC4F808160E08F7372DBDACF809184002E
:1019A00090918500049680349C4918F480E49CE969
:1019B00005C08091840090918500049690938900E1
:1019C000809388008FEF8093240337C02091840098
:1019D0003091850080912403992787FD9095FC0123
:1019E000EE0FFF1FE80FF91FEB5DFC4F8181928125
:1019F000820F931F90938900809388008091240325
:101A0000992787FD9095FC01EE0FFF1FE80FF91F46
:101A1000EB5DFC4F808186FF10C0809124039927E5
:101A200087FD9095FC01EE0FFF1FE80FF91FEB5D9E
:101A3000FC4F808161E08F7322DBFF91EF91BF91BA
:101A4000AF919F918F917F916F915F914F913F9156
:101A50002F910F900FBE0F901F9018952091230388
:101A60002C30A0F431E0320F30932303FC012083AB
:101A7000822F90E0FC01EE0FFF1FE80FF91FEB5DD6
:101A8000FC4F88EB9BE09283818308952FEFFC014C
:101A900020830895DF92EF92FF920F931F93CF93CD
:101AA000DF93EC01D62E7A01890188818C3008F011
:101AB00065C061E08D2DAADA8881A82FB0E0FD0114
:101AC000EE0FFF1FEA0FFB1FEB5DFC4F2D2D2F7359
:101AD0009081907C922B908360E272E06E197F0976
:101AE00077FF02C06D5F7F4F759567957595679518
:101AF000698340E659E0401B510B57FF02C04D5F20
:101B00005F4F55954795559547954A836CE00E94E0
:101B1000431C9CE0899FB001112420E030E0A90122
:101B2000460F571FFA01EE0FFF1FE40FF51FEB5D85
:101B3000FC4F908196FD16C02F5F3F4F2C30310532
:101B400071F781110FC01092800082E080938100B4
:101B50001092850010928400B19A80916F0082608B
:101B600080936F00888190E0FC01EE0FFF1FE80F6B
:101B7000F91FEB5DFC4F8081806480838881DF9159
:101B8000CF911F910F91FF90EF90DF90089520E685
:101B900039E040E252E07ECFFC0180818C3070F56C
:101BA000918128E830E0291B310997FD3395220FF8
:101BB000331F220F331F621773077CF0928128E5D1
:101BC00032E0291B310997FD3395220F331F220F75
:101BD000331F621773070CF49B0122503109220F47
:101BE000331F4FB7F89490E0FC01EE0FFF1FE80F92
:101BF000F91FEB5DFC4F328321834FBF08954F9255
:101C00005F926F927F92AF92BF92CF92DF92EF92EC
:101C1000FF920F931F93CF93DF93EC01603282E02A
:101C200078070CF040C077FD06C0653B71052CF0CD
:101C300064EB70E002C060E070E0898128E830E089
:101C4000281B310987FD3395220F331F220F331FC5
:101C50005901CC24B7FCC094DC2C882777FD8095F3
:101C6000982F2A8148E552E0421B510927FD5395E0
:101C7000440F551F440F551F2A01662457FC6094DA
:101C8000762C7F926F925F924F9214EBE12EF12CA3
:101C900000E010E020E030E0A9010E94E4180F907D
:101CA0000F900F900F90CE01DF91CF911F910F9168
:101CB000FF90EF90DF90CF90BF90AF907F906F90AC
:101CC0005F904F9069CF80914F0390915003209186
:101CD0004D0330914E03821B930B8F739927089508
:101CE00020914F033091500380914D0390914E030A
:101CF00028173907E9F0E0914D03F0914E03EF5AB0
:101D0000FC4F808120914D0330914E032F5F3F4F58
:101D100030934E0320934D0320914D0330914E0399
:101D20002F73332730934E0320934D0390E0089593
:101D30008FEF9FEF089520914F03309150038091D2
:101D40004D0390914E032817390749F0E0914D0358
:101D5000F0914E03EF5AFC4F808190E008958FEF91
:101D60009FEF0895089520E030E050E024173507F4
:101D700004F580914F039091500301968F7399273A
:101D8000E0914D03F0914E038E179F0779F0E0919B
:101D90004F03F0915003DB01A20FB31FAC91EF5A38
:101DA000FC4FA0839093500380934F032F5F3F4FCE
:101DB000DDCF0895FC018589968908950F931F93BF
:101DC000FC01522F1382128208EE13E020E030E073
:101DD00004831583268337838EED91E0918380837E
:101DE00081E0808B60934B0340934A0350934C03F4
:101DF000178616861586148610924E0310924D0390
:101E00001092500310924F0386E890E0968B858BDA
:101E10001F910F910895CF93DF93EC0162E973E076
:101E200084EB93E0BFD4882309F4C4C040919403A9
:101E300050E0FA01E158F109ED30F10508F0BAC0BF
:101E4000EC5CFF4F0C948D1C809197038093BB0337
:101E500080919503823021F0833009F461C0AAC0DB
:101E600084EB93E052D1029709F4A4C088898823B7
:101E700009F4A0C067EB71E086E892E0DF91CF91B2
:101E80001ACC809196038823B1F08889811101C012
:101E9000FFCF6AEA71E086E892E0CEDB40E150E0F5
:101EA0006091950386E892E0FDDC62E771E086E8E8
:101EB00092E001DCEDCF80919503893009F07AC082
:101EC00029E047E953E064E084EB93E0DF91CF91B0
:101ED000D1C38091BB038093BE03C6D385E890E055
:101EE0009E8B8D8BEC85FD85309709F0099563E01D
:101EF00084EB93E061D3882309F45CC08091910363
:101F0000811158C049D481E08093910353C086E881
:101F100090E09E8B8D8BEC85FD85309709F00995BF
:101F20006B897C8989899A89DED381E890E09E8BD0
:101F30008D8BEC85FD85309709F43CC0DF91CF9106
:101F4000099440919303425066E973E0CE010BDFA0
:101F5000EE85FF85309771F160919303625086E9B9
:101F600093E0DF91CF910994809195039091BE0306
:101F7000890F1EC088898823C1F066E571E086E874
:101F800092E05ADB4AE050E06091950386E892E0E7
:101F900083DC60E471E086E892E04EDB40E150E0F3
:101FA0006091960386E892E07DDC8091BE038F5FAE
:101FB0008093BE03DF91CF9108950F931F93CF932A
:101FC000DF931F92CDB7DEB78C0169836AEC71E0B5
:101FD00086E892E031DB40E150E0698186E892E0FA
:101FE00061DC63E084EB93E0E7D28823A1F041E079
:101FF000BE016F5F7F4F83E090D38091BE0381501D
:102000008093BE0363E270E080E090E00E9472077C
:1020100081E090E004C0C801FEDE80E090E00F9017
:10202000DF91CF911F910F910895FC01728B618B0D
:10203000548B438B81E191E09093B5038093B4037B
:1020400084E08093B6038FED91E09093B803809382
:10205000B70385E18093B90384EB93E0BED281E0BE
:102060000895CF92DF92EF92FF920F931F93CF9339
:10207000DF938C01C62E81E2489F70011124C0E0DD
:10208000D0E0D12CDC1401F1CE018E0D9F1DF801A2
:1020900063817481680F791FFB013196449150E090
:1020A0004E5F5F4F86ED93E00E94581F86ED93E0F0
:1020B0006ED1A196811106C064E974E086E892E0D1
:1020C000FADA18C0D394DECFC0E067EF73E0C8013E
:1020D00069D38823D1F3CF5F8091F903843851F419
:1020E0008091FB039FEF980F923010F4CC12EDCF4C
:1020F00090E002C081E890E0DF91CF911F910F91B5
:10210000FF90EF90DF90CF9008950F931F93CF93A0
:10211000DF93EC016D81693028F000E010E088E881
:1021200090E002C040E014C06D81262F26952695D0
:102130002695121738F4402F68E0CE0192DF1F5F1A
:10214000085FF2CF677051F0412F440F440F440FE6
:10215000CE01DF91CF911F910F9183CFDF91CF916E
:102160001F910F91089510922D06FC01E85FFE4F1C
:10217000108231961082E5E2F5E0DF0111971C92A2
:102180001082B19686E0ED32F807B9F708950F9303
:102190001F93CF93DF93EC0109814AE050E0602F59
:1021A00086E892E079DB6AEE71E086E892E069DA2F
:1021B00010E0FE01E10FF11D40E150E0618186E891
:1021C00092E06ADB64EA74E086E892E035DA1F5F49
:1021D000011778F763EA74E086E892E0DF91CF9127
:1021E0001F910F9168CA8EBD00000DB407FEFDCF90
:1021F0008EB5089590914A03923019F0933019F0FA
:102200001BC020E001C021E03DB3882351F081E0F4
:1022100090E0022E01C0880F0A94EAF7382B3DBBEC
:10222000089581E090E0022E01C0880F0A94EAF739
:10223000809583238DBB0895FFCF0F931F93CF937A
:10224000DF93EC01F8940091220510912105789418
:10225000E091210580912205E81749F191E29E9FC6
:10226000F0011124E75EFB4FDE0101900D929A957B
:10227000E1F72091210530E02F5F3F4F2770332792
:102280002093210580912D06882339F06DEE71E0B1
:1022900086E892E0F6D9CE017ADF802F90E00196B1
:1022A00087709927181305C081E0A4DF02C080E081
:1022B00001C081E0DF91CF911F910F91089510929D
:1022C0002F06C7D78CB580628CBD8CB58C7F8160A2
:1022D0008CBD8DB581608DBD8CB5837F8CBD83E257
:1022E00095E041DF89E194E03EDF61E080914C03BD
:1022F0000E94060862E080914A030E94060861E09D
:1023000080914B030E94060861E080914C030E947B
:102310003F0864E670E080E090E00E94720760E0B1
:1023200080914C030E943F0861E080914C030E9421
:102330003F0860E08DE00E943F0860E08BE00E9473
:102340003F0861E080914B030E943F0860E08DE010
:102350000E943F088FEF8093490380914A038230A7
:1023600019F41092490305C0833019F481E0809379
:1023700049036EE170E080E090E00E94720740E067
:1023800050E06AE972E1809149030C946F060F9363
:102390001F93CF93DF938C01FC0141814032B0F554
:1023A00020912C0630E0E9012196C770DD2780914D
:1023B0002B068C17C1F051E2529FC001539F900D24
:1023C0001124FC01ED5DFA4F108250E04F5F5F4F2A
:1023D000B8016F5F7F4F8C5D9A4F0E94611FC09361
:1023E0002C06C1E001C0C0E080912D06882339F0A1
:1023F00060EF71E086E892E044D9C801C8DE60E091
:1024000080914B030E943F088C2F01C080E0DF9138
:10241000CF911F910F910895CF92DF92EF92FF928B
:102420000F931F93CF93DF93CDB7DEB7A2970FB66D
:10243000F894DEBF0FBECDBF60E080914B030E94D9
:102440003F0880912B0690912C06891709F45FC0F4
:1024500090E021E2289FF001299FF00D1124ED5D0D
:10246000FA4FDE01119601900D922A95E1F701963F
:102470008770992780932B061A81812FB4DE809371
:102480002E068B81B0DE80932F06112349F0412F59
:1024900050E0282F30E02417350714F48FEF810F18
:1024A000982F803208F09FE17E0184E0E80EF11C55
:1024B00080E3C82E86E0D82E8601802F8C198917DC
:1024C00050F4F70181917F019AA38DDEF801819389
:1024D0008F019AA1F2CF61E080914B030E943F08E7
:1024E00083B7816083BF40E050E06AE972E1809188
:1024F00049030E946F0690912B0680912C06981735
:1025000041F060E080914B030E943F0802C01A82B4
:10251000B3CF8EE296E0A2960FB6F894DEBF0FBE60
:10252000CDBFDF91CF911F910F91FF90EF90DF9082
:10253000CF900895CF93DF9383B78E7F83BF809131
:1025400049030E948F0668DFFC014181442389F121
:102550006091220570E0EB012196C770DD27209184
:1025600021052C1729F151E2569F9001579F300DFC
:102570001124F901E75EFB4F108250E04F5F5F4F7F
:10258000BC016F5F7F4FC901865E9B4F0E94611F38
:10259000C0932205F894809122058F5F87709091F7
:1025A00021057894891305C080E0DF91CF9122CE78
:1025B000FFCFDF91CF910895262F2695269526955A
:1025C000820F911DFC01818990E0677002C0959592
:1025D00087956A95E2F781700895CF93DF93FC01A8
:1025E000A0E5B6E080E090E0EF01C80FD91F198A9E
:1025F000198E1D92019688309105B1F710925D06F3
:1026000010925C0610925B0610925A068FEF809330
:1026100065068093640680936306109261061092AB
:10262000600610925F0610925E0610925906109294
:10263000580610924F061092670610926606808127
:10264000918190938E0680938D06828180938C0673
:102650008381948190938B0680938A0685818093F1
:102660008906DF91CF912BCE89E696E0E5D088E60A
:1026700096E08DCECF93DF93CDB7DEB766970FB6DA
:10268000F894DEBF0FBECDBFCA01E0918D06F09178
:102690008E0633E0639FE00DF11D112433973081E6
:1026A0003130B9F42531A8F46983422F50E0BC01E0
:1026B000CE0102962E8B0E94611F2E89422FBE01F1
:1026C0006F5F7F4F89E696E0BDD088E696E05FDEDB
:1026D00001C080E066960FB6F894DEBF0FBECDBF96
:1026E000DF91CF910895CF93DF9300D000D0CDB785
:1026F000DEB79A8389837C836B83BE016F5F7F4FD4
:1027000089E696E0B0D088E696E041DE0F900F9023
:102710000F900F90DF91CF9108951F93CF93DF9388
:10272000CDB7DEB765970FB6F894DEBF0FBECDBF4D
:10273000142FE0918D06F0918E0693E0899FE00DB5
:10274000F11D11243397218132812230310519F096
:1027500024303105B1F41531A0F48983412F50E0C4
:10276000CE0102960E94611F412FBE016F5F7F4F15
:1027700089E696E08CD01092620688E696E007DE45
:1027800001C080E065960FB6F894DEBF0FBECDBFE6
:10279000DF91CF911F91089589E696E089D088E670
:1027A00096E0F5CD0F931F93CF93DF93EC018B0150
:1027B000CB0143DDF8019281983839F0993851F115
:1027C0009638A9F520E030E017C020E030E00F5F38
:1027D0001F4FD801A20FB31F12969C911297FE01B2
:1027E000E20FF31F918B1A969C91918F2F5F3F4FB1
:1027F0002830310571F71BC0FE01E20FF31F118A6B
:10280000118E2F5F3F4F28303105B1F719A29F81FC
:102810009A870DC0F801238134813C872B8725815D
:1028200036813E872D8727813085388B2F87DF9132
:10283000CF911F910F91089521E0FC01208329E0A1
:102840002183089522E0240FDC012C932DE01196C2
:102850002C931197FB01219112962C9350E0BF010C
:1028600003960C94611FFC01DB0185E080838FE0FF
:10287000818311968C91119783838C918283139617
:102880008C911397858312968C918483089522E00E
:10289000240FDC012C9325E111962C931197FB0159
:1028A000219112962C9350E0BF0103960C94611F66
:1028B00021E0FC01208323E1218308950895FC0198
:1028C000658B08950F931F93CF93DF938C01EB01DA
:1028D00088E2FB0111928A95E9F74BE050E062EF44
:1028E00071E0CE010E946A1F1B8641E050E060E06B
:1028F00070E04C875D876E877F87F80107851089B8
:1029000021893289088B198B2A8B3B8B4C8B5D8BF1
:102910006E8B7F8B1CA21DA21EA21FA2188E198E69
:102920001A8E1B8E1C8E1D8E1E8E1F8E18A219A233
:102930001AA21BA2DF91CF911F910F9108950F93BF
:102940001F93CF93DF938C01EB0188E2FB0111927F
:102950008A95E9F74BE050E062EF71E0CE010E940A
:102960006A1F1B8641E050E060E070E04C875D87A5
:102970006E877F87F8014189528963897489488B02
:10298000598B6A8B7B8B42E050E060E070E04C8BAF
:102990005D8B6E8B7F8B1CA21DA21EA21FA2188EA8
:1029A000198E1A8E1B8E1C8E1D8E1E8E1F8E18A2C7
:1029B00019A21AA21BA2DF91CF911F910F91089526
:1029C000DC01ED91FC910190F081E02D09942DEF57
:1029D00031E0FC01318320834787508B618B728B00
:1029E0000895FC0187E092E091838083418B528BB4
:1029F000638B748B158A0895CF93DF9300D0CDB786
:102A0000DEB780E996E02A83498305D54981642FA2
:102A100080E996E0ABD42A81622F80E996E0A6D4C3
:102A200080E996E00F900F90DF91CF9110C50F9342
:102A30001F93CF93DF938C01EB01262F41E06EE1D2
:102A4000DBDFF801D483C383C038D10509F45BC050
:102A5000DCF4C034D105A9F1C036D10509F442C077
:102A6000A09709F08AC080E090E8A9E8B4E48093D8
:102A7000210190932201A0932301B093240180E0CF
:102A800090E0A5E7B4E471C0C03CD10509F44CC0A6
:102A9000C03ED10509F459C0C03AD10509F06DC056
:102AA00080E090E0A8ECB3E48093210190932201B0
:102AB000A0932301B093240180E090E8A1EBB3E45C
:102AC00054C080E090ECA5E5B4E48093210190939C
:102AD0002201A0932301B093240180E090E0AEE3B3
:102AE000B4E443C080E090E8A7E2B4E4809321011D
:102AF00090932201A0932301B093240180E090E001
:102B0000A6E1B4E432C080E090E0A1EEB3E48093AB
:102B1000210190932201A0932301B093240180E02E
:102B200090E0A8ECB3E421C080E090E0A5EAB3E433
:102B30008093210190932201A0932301B09324015B
:102B400080E090E8A3E9B3E410C080E090E0A6E65E
:102B5000B3E48093210190932201A0932301B093C9
:102B6000240180E090E0ADE4B3E480931D019093F4
:102B70001E01A0931F01B0932001DF91CF911F91FF
:102B80000F9108951F93CF93DF931F92CDB7DEB7B8
:102B9000162F80E996E049833ED44981642F80E96D
:102BA00096E0E4D380E996E052D441E0612F80E9D9
:102BB00096E02FD480E996E08AD3182F80E996E03A
:102BC00046D4812F0F90DF91CF911F910895CF931D
:102BD000DF93EC0180E996E007D420E042E06EE16B
:102BE000CE010ADF40E06EE1CE01CCDF803131F46E
:102BF00060E270E0CE011BDF81E001C080E0DF9188
:102C0000CF9108956F927F928F929F92AF92BF92D1
:102C1000CF92DF92EF92FF920F931F93CF93DF93A8
:102C2000EC0169E180E996E0F6D368EA70E080E9BA
:102C300096E0C6DE80E996E00AD446E069E180E9E4
:102C400096E0E7D380E996E03AD30697DCF380E993
:102C500096E03DD3782E80E996E039D3682E80E95E
:102C600096E035D3982E80E996E031D3882E80E91E
:102C700096E02DD3D82E80E996E029D3C82EB62C25
:102C8000A12CA72884E0B594A7948A95E1F7B50113
:102C9000882777FD8095982FC5D76B837C838D839C
:102CA0009E83F82CE12CE92894E0F594E7949A951A
:102CB000E1F7B701882777FD8095982FB3D76F8309
:102CC000788789879A871C2D00E00D2924E01595C7
:102CD00007952A95E1F7B801882777FD8095982F09
:102CE000A1D76B877C878D879E87DF91CF911F91BE
:102CF0000F91FF90EF90DF90CF90BF90AF909F909B
:102D00008F907F906F9008950F931F93CF93DF93D1
:102D10008C01EB0184E2FB0111928A95E9F7C8016D
:102D200071DF84E290E0A0E0B0E088839983AA8319
:102D3000BB83F80187859089A189B2898C839D83A3
:102D4000AE83BF8381E090E0A0E0B0E08887998700
:102D5000AA87BB870E944307688B798B8A8B9B8BE2
:102D60002FE632E143E85AE3F801638174818581FB
:102D700096810E94F21E2AE038EE4CE151E40E9456
:102D8000F21E6C8B7D8B8E8B9F8B2FE632E143E89E
:102D90005AE3F80167817085818592850E94F21E51
:102DA0002AE038EE4CE151E40E94F21E688F798FE0
:102DB0008A8F9B8F2FE632E143E85AE3F80163855F
:102DC0007485858596850E94F21E2AE038EE4CE1D6
:102DD00051E40E94F21E6C8F7D8F8E8F9F8F81E059
:102DE000DF91CF911F910F9108956F927F928F92F3
:102DF0009F92AF92BF92CF92DF92EF92FF920F938A
:102E00001F93CF93DF93EC016EE180E996E003D34B
:102E100063E070E080E996E0D3DD80E996E017D3C7
:102E200046E06EE180E996E0F4D280E996E047D290
:102E30000697DCF380E996E04AD2682E80E996E0B6
:102E400046D2782E80E996E042D2C82E80E996E0FC
:102E50003ED2D82E80E996E03AD2882E80E996E0DC
:102E600036D2982EB62CA12CA728B501882777FD3D
:102E70008095982FD7D66D837E838F839887F82C83
:102E8000E12CE928B701882777FD8095982FCAD6CD
:102E900069877A878B879C871C2D00E00D29B801F4
:102EA000882777FD8095982FBDD66D877E878F8781
:102EB000988BDF91CF911F910F91FF90EF90DF9052
:102EC000CF90BF90AF909F908F907F906F9008951C
:102ED0002F923F924F925F926F927F928F929F922A
:102EE000AF92BF92CF92DF92EF92FF920F931F9318
:102EF000CF93DF93EC018B0184E2FB0111928A9561
:102F0000E9F749E06EE1CE013DDE80FFE5C0CE018C
:102F10006CDF8D89882309F47CC04D805E806F80D2
:102F2000788489849A84AB84BC84CD84DE84EF84E5
:102F3000F8882224239420E030E04FEF54ECC301C2
:102F4000B201D1D518160CF4212C3324339420E08F
:102F500030E04FEF54E4C301B20139D787FD312C83
:102F600032286624639420E030E04FEF54E4C5013A
:102F7000B4012DD787FD612C63287724739420E05A
:102F800030E04FEF54ECC501B401ADD518160CF488
:102F9000712C7628BB24B39420E030E04FEF54E44A
:102FA000C701B60114D787FDB12C7B2849F420E076
:102FB00030E04FEF54ECC701B60195D518164CF12F
:102FC0008B819C8180369105E1F04CF48032910533
:102FD000D9F080349105E9F460E670E017C0803ADA
:102FE000910561F0803C910531F08038910589F4BC
:102FF00060EA70E00BC060EE70E008C060EC70E06A
:1030000005C060E870E002C060E470E0CE010FDD52
:1030100078CF84E290E0A0E0B0E0F8018083918373
:10302000A283B38389899A89AB89BC898483958378
:10303000A683B78382E090E0A0E0B0E0808791872C
:10304000A287B3870E944307F801608B718B828B44
:10305000938BC0902101D0902201E0902301F09049
:103060002401A70196016D817E818F8198853FD5CE
:1030700020E030E048EC52E4B5D6F801648B758B63
:10308000868B978BA701960169857A858B859C85B0
:103090002ED520E030E048EC52E4A4D6F801608F51
:1030A000718F828F938F20911D0130911E0140916D
:1030B0001F01509120016D857E858F85988917D5D8
:1030C00020E030E048EC52E48DD6F801648F758F33
:1030D000868F978F81E001C080E0DF91CF911F91B3
:1030E0000F91FF90EF90DF90CF90BF90AF909F90A7
:1030F0008F907F906F905F904F903F902F900895AA
:103100000895CF92DF92EF92FF92CF93DF93FA016F
:10311000E901309709F44EC0209709F44BC06230A2
:10312000710581F063307105B1F06130710509F00E
:1031300041C0208D318D428D538D648D758D868D6E
:10314000978D11C0248D358D468D578D6489758975
:103150008689978908C02489358946895789608D71
:10316000718D828D938D6CD420E030E044E353E484
:1031700039D62BED3FE049E450E4B9D4688779872C
:103180008A879B87C884D984EA84FB8420E030E066
:10319000A901C701B601A7D487FF0EC020E030E027
:1031A00044EB53E4C701B601D8D3688779878A878F
:1031B0009B8702C080E001C081E0DF91CF91FF904A
:1031C000EF90DF90CF9008954F925F926F927F9231
:1031D000AF92BF92CF92DF92EF92FF920F931F9325
:1031E000CF93DF93CDB7DEB729013A01621B730B92
:1031F000840B950B29893A894B895C892A193B09EB
:103200004C095D09298B3A8B4B8B5C8B9B01AC0184
:1032100069897A898B899C8927D3E418F50806097E
:103220001709A80197015DD32A0D3B1D4C1D5D1D9B
:10323000CA01B901DF91CF911F910F91FF90EF90DB
:10324000DF90CF90BF90AF907F906F905F904F9046
:103250000895CF93CFB7F89480918F06811127C03E
:10326000E8E1F1E08491E4E0F1E09491E82FF0E00E
:10327000EE0FFF1FEA5CFE4FA591B4918C9189235C
:1032800021F461E08AE00E943F0861E08AE00E9448
:1032900006088CB580618CBD8CB580648CBD61E006
:1032A0008DE00E94060861E08BE00E940608809194
:1032B0008F068F5F80938F06CFBFCF910895809147
:1032C000C00690E02091C106821B910908952091CB
:1032D000C1068091C006281750F4E22FF0E0EE53AB
:1032E000F94F808190E02F5F2093C10608958FEF02
:1032F0009FEF0895E091C1068091C006E81730F471
:10330000F0E0EE53F94F808190E008958FEF9FEF4A
:1033100008950895CF92DF92EF92FF920F931F933B
:10332000CF93DF937C01CB018A0120919C0622235D
:1033300089F0EB016B01C40ED51ECC15DD0561F0E3
:103340006991D701ED91FC910190F081E02DC701C9
:103350000995F3CF642F35D1C801DF91CF911F912B
:103360000F91FF90EF90DF90CF900895CF93DF9370
:103370001F92CDB7DEB7698320919C062223D1F03E
:1033800020919D06203240F021E030E0FC013383A3
:10339000228380E090E014C080919E06E82FF0E048
:1033A000E156F94F998190838F5F80939E068093B9
:1033B0009D0604C061E0CE01019603D181E090E05A
:1033C0000F90DF91CF910895FC011382128248EE95
:1033D00053E060E070E0448355836683778381E146
:1033E00092E09183808308951092C1061092C006E6
:1033F00010929E0610929D062FC0862F413208F033
:1034000040E262EC76E046D01092C1068093C0069E
:10341000089521E0F2CF81E080939C066093BF067F
:1034200010929E0610929D0608950F93062F21E09C
:1034300040919D066FE976E08091BF066FD01092B3
:103440009E0610929D0610929C060F91089561E0D1
:10345000ECCF80E996E0B8CF10924F0781E08093DF
:103460004D0710924C0761E082E10E943F0861E045
:1034700083E10E943F08E9EBF0E080818E7F80834A
:1034800080818D7F808388E48093B80085E4809379
:10349000BC000895413208F03FC090914F07911150
:1034A000FCCF91E090934F0720934D072FEF20938F
:1034B000E20610922707240F2093260790934E07C9
:1034C00090914E07880F892B80934E0780914C076F
:1034D000813041F410924C0780914E078093BB00DD
:1034E00085EC01C085EE8093BC0080914F07813050
:1034F000E1F380912707841710F44091270728E211
:1035000037E0FB01D9018A2F821B841718F48D91B3
:103510008193F9CF842F089580E008950F9341326D
:1035200008F046C090914F079111FCCF92E0909324
:103530004F0700934D079FEF9093E20610922707E5
:1035400040932607FB0168E277E0DB019A2F961B88
:10355000941718F491919D93F9CF10924E07909182
:103560004E07880F892B80934E0780914C0781303E
:1035700041F410924C0780914E078093BB0085EC7C
:1035800001C085EE8093BC00222321F080914F077B
:103590008230E1F38091E2068F3F61F08091E20694
:1035A000803251F08091E206803341F483E007C01D
:1035B00081E005C080E003C082E001C084E00F919B
:1035C0000895613298F420914F07243089F4609374
:1035D0000407FC0186E097E0DC012A2F281B261750
:1035E00018F421912D93F9CF80E0089581E008959A
:1035F00082E0089585ED8093BC008091BC0084FD3D
:10360000FCCF10924F07089585EC8093BC00109278
:103610004F0708951F920F920FB60F9211242F9308
:103620003F934F935F936F937F938F939F93AF934A
:10363000BF93EF93FF938091B900887F803609F4A0
:103640009CC068F5883209F45BC090F4803109F4BD
:1036500054C038F4882309F4F3C0883009F44DC00D
:10366000F2C0883109F44CC0803209F45DC0EBC06F
:10367000803409F468C048F4803309F455C08833B5
:1036800009F0E1C08093E206A7C0803509F44FC07D
:10369000883509F45DC0883409F0D5C0D3C08839B5
:1036A00009F4C4C0A8F4883709F467C038F4883630
:1036B00009F463C0803709F460C0C5C0883809F4D4
:1036C000B5C0803909F45FC0803809F0BCC05BC068
:1036D000803B09F483C038F4803A09F466C0883A24
:1036E00009F47CC0B0C0803C09F4A4C0883C09F453
:1036F000A1C0883B09F487C0A6C080914E0710C0C6
:103700009091270780912607981770F5E091270779
:1037100081E08E0F80932707F0E0E85DF84F80810D
:103720008093BB0085EC83C08093E2068BC0E09160
:10373000270781E08E0F809327078091BB00F0E080
:10374000E85DF84F808390912707809126076BC032
:10375000E091270781E08E0F809327078091BB00BF
:10376000F0E0E85DF84F808380914D0781116AC0D9
:1037700081E080934C0784EA5EC083E080934F072A
:103780001092E306CFCF8091E306803208F04EC05E
:10379000E091E30681E08E0F8093E3068091BB0009
:1037A000F0E0EC51F94F8083BDCF8091E306803289
:1037B00030F4E091E306F0E0EC51F94F10821ADFAB
:1037C0006091E30670E0E0914807F091490784EECC
:1037D00096E009951092E30617DF35C084E08093E8
:1037E0004F071092050710920407E0914A07F091E5
:1037F0004B07099580910407811105C081E08093F2
:10380000040710920607E091050781E08E0F809370
:103810000507F0E0EA5FF84F80818093BB0090914C
:10382000050780910407981708F47CCF85E88093FA
:10383000BC0009C085EC8093BC0010924F0703C008
:103840001092E206D7DEFF91EF91BF91AF919F9169
:103850008F917F916F915F914F913F912F910F9039
:103860000FBE0F901F901895DB018F939F936AD026
:10387000BF91AF91A29F800D911DA39F900DB29F0C
:10388000900D11240895991B79E004C0991F961793
:1038900008F0961B881F7A95C9F780950895A1E2D4
:1038A0001A2EAA1BBB1BFD010DC0AA1FBB1FEE1FBA
:1038B000FF1FA217B307E407F50720F0A21BB30B05
:1038C000E40BF50B661F771F881F991F1A9469F781
:1038D00060957095809590959B01AC01BD01CF01DD
:1038E0000895052E97FB16F400940FD057FD05D0D0
:1038F000D6DF07FC02D046F408C0509540953095BD
:1039000021953F4F4F4F5F4F08959095809570954B
:1039100061957F4F8F4F9F4F0895EE0FFF1F0590CA
:10392000F491E02D0994A29FB001B39FC001A39F21
:10393000700D811D1124911DB29F700D811D1124E8
:10394000911D0895F0DFA59F900DB49F900DA49F49
:10395000800D911D112408955058BB27AA270ED021
:10396000FCC1EDD130F0F2D120F031F49F3F11F4E1
:103970001EF4BDC10EF4E095E7FBB3C1E92FFED103
:1039800080F3BA17620773078407950718F071F47C
:103990009EF516C20EF4E0950B2EBA2FA02D0B014A
:1039A000B90190010C01CA01A0011124FF27591B84
:1039B00099F0593F50F4503E68F11A16F040A22F8A
:1039C000232F342F4427585FF3CF469537952795FB
:1039D000A795F0405395C9F77EF41F16BA0B620BFA
:1039E000730B840BBAF09150A1F0FF0FBB1F661F41
:1039F000771F881FC2F70EC0BA0F621F731F841F84
:103A000048F4879577956795B795F7959E3F08F0A9
:103A1000B3CF9395880F08F09927EE0F9795879568
:103A200008958DD158F080E891E009F49EEF8ED191
:103A300028F040E851E059F45EEF09C058C1C0C118
:103A4000E92FE0789BD168F3092E052AC1F32617E8
:103A500037074807590738F00E2E07F8E02569F0B8
:103A6000E025E0640AC0EF6307F8009407FADB0181
:103A7000B9019D01DC01CA01AD01EF9347D06DD1C1
:103A80000AD05F91552331F02BED3FE049E450FD22
:103A900049EC63CF0895DF93DD27B92FBF7740E866
:103AA0005FE31616170648075B0710F4D92F93D16A
:103AB0009F938F937F936F93F8D1E2E8F0E01AD150
:103AC0004CD12F913F914F915F9198D1DD2349F0D7
:103AD0009058A2EA2AED3FE049EC5FE3D0785D27F9
:103AE0004DDFDF913AC1D9D008F481E008950CD0C0
:103AF00034C12CD140F023D130F021F45F3F19F0D4
:103B0000F0C051115EC1F3C039D198F39923C9F3C4
:103B10005523B1F3951B550BBB27AA2762177307D3
:103B2000840738F09F5F5F4F220F331F441FAA1F87
:103B3000A9F333D00E2E3AF0E0E830D09150504047
:103B4000E695001CCAF729D0FE2F27D0660F771FF5
:103B5000881FBB1F261737074807AB07B0E809F0D7
:103B6000BB0B802DBF01FF2793585F4F2AF09E3F6C
:103B7000510568F0B6C025C15F3FECF3983EDCF319
:103B8000869577956795B795F7959F5FC9F7880FE5
:103B9000911D9695879597F90895E1E0660F771F37
:103BA000881FBB1F621773078407BA0720F0621BC8
:103BB000730B840BBA0BEE1F88F7E095089504D0C1
:103BC0006894B111FEC00895E1D088F09F5790F03D
:103BD000B92F9927B751A0F0D1F0660F771F881F32
:103BE000991F1AF0BA95C9F712C0B13081F0E8D028
:103BF000B1E00895E5C0672F782F8827B85F39F0C6
:103C0000B93FCCF3869577956795B395D9F73EF490
:103C100090958095709561957F4F8F4F9F4F089538
:103C2000E89409C097FB3EF4909580957095619556
:103C30007F4F8F4F9F4F9923A9F0F92F96E9BB270C
:103C40009395F695879577956795B795F111F8CF88
:103C5000FAF4BB0F11F460FF1BC06F5F7F4F8F4FF3
:103C60009F4F16C0882311F096E911C0772321F0E9
:103C70009EE8872F762F05C0662371F096E8862F81
:103C800070E060E02AF09A95660F771F881FDAF7D8
:103C9000880F9695879597F90895990F0008550F05
:103CA000AA0BE0E8FEEF16161706E807F907C0F0C2
:103CB00012161306E407F50798F0621B730B840BCA
:103CC000950B39F40A2661F0232B242B252B21F4A4
:103CD00008950A2609F4A140A6958FEF811D811D44
:103CE000089597F99F6780E870E060E008959FEF7E
:103CF00080EC0895DF93CF931F930F93FF92EF9281
:103D0000DF927B018C01689405C0DA2EEF0176D03A
:103D1000FE01E894A5912591359145915591AEF319
:103D2000EF012CDEFE019701A801DA9479F7DF900C
:103D3000EF90FF900F911F91CF91DF910895002494
:103D40000A941616170618060906089500240A9400
:103D500012161306140605060895092E0394000C86
:103D600011F4882352F0BB0F40F4BF2B11F460FF15
:103D700004C06F5F7F4F8F4F9F4F089557FD90583E
:103D8000440F551F59F05F3F71F04795880F97FB1F
:103D9000991F61F09F3F79F08795089512161306D9
:103DA0001406551FF2CF4695F1DF08C01616170608
:103DB0001806991FF1CF869571056105089408953D
:103DC000E894BB2766277727CB0197F9089565DF2D
:103DD00008F48FEF08959B01AC0160E070E080E88B
:103DE0009FE385CE0BD0B9CFAADF28F0AFDF18F064
:103DF000952309F076CF7BCF1124E3CFBFDFA0F36B
:103E0000959FD1F3950F50E0551F629FF001729F6F
:103E1000BB27F00DB11D639FAA27F00DB11DAA1F8E
:103E2000649F6627B00DA11D661F829F2227B00DDB
:103E3000A11D621F739FB00DA11D621F839FA00D66
:103E4000611D221F749F3327A00D611D231F849FB6
:103E5000600D211D822F762F6A2F11249F5750400D
:103E60008AF0E1F088234AF0EE0FFF1FBB1F661FA8
:103E7000771F881F91505040A9F79E3F510570F061
:103E800030CF9FCF5F3FECF3983EDCF3869577957C
:103E90006795B795F795E7959F5FC1F7FE2B880F5C
:103EA000911D9695879597F908959B01AC019ACF3E
:103EB000FB01DC0102C005900D9241505040D8F743
:103EC0000895FB01DC0102C001900D924150504069
:103ED000D8F70895FB01DC014150504048F00190B3
:103EE0000D920020C9F701C01D9241505040E0F7EB
:063EF0000895F894FFCFD5
:103EF6000000500720000100000001B80B000086FA
:103F06000001800001080001020001800000007528
:103F16004400808944427574746F6E507265737381
:103F2600656400446F6E6520776974682053657414
:103F36007570007B002C007D200043757272656EE3
:103F46007448656164696E673A20005269676874EF
:103F56003A20004C6566743A20003C3330204261BA
:103F6600636B696E67207570005475726E696E6753
:103F7600546F6F3A20005455524E494E474865617A
:103F860064696E673A20005475726E4C65667448B3
:103F9600656164696E673A20007475726E696E6752
:103FA60020616761696E005475726E526967687444
:103FB60048656164696E673A200000000000750973
:103FC600DE0AF90812090409540900000000DD0F91
:103FD600DE0A630E700E9B0EB20E203A00204500DC
:103FE60043004C534D33303300000000005E148410
:103FF600166214000000005F1468179F140000008A
:0E40060000B6198A195F1967197A198919000D
:00000001FF
