:100000000C9452020C94F1140C941E150C947A0268
:100010000C947A020C947A020C947A020C947A0270
:100020000C947A020C947A020C947A020C943F0895
:100030000C947A020C947A020C947A020C947A0250
:100040000C9458030C947A020C9411060C944306F9
:100050000C947A020C947A020C947A020C947A0230
:100060000C946A170C947A02F10AB60BB60B100BBB
:100070003C0B5D0BB60B4B0BB60B8C0BB60B780B1E
:10008000920B084AD73B3BCE016E84BCBFFDC12F0B
:100090003D6C74319ABD56833DDA3D00C77F11BE79
:1000A000D9E4BB4C3E916BAAAABE000000803F0081
:1000B000416461667275697420426C75656672751B
:1000C0006974204C6F7720456E65726779206E5297
:1000D0004638303031205072696E74206563686F25
:1000E0002064656D6F00000000080002010000033D
:1000F00004070000000000000000010204081020B6
:1001000040800102040810200102040810200404A9
:1001100004040404040402020202020203030303AF
:10012000030300000000250028002B000000000051
:10013000240027002A002020506970652045727233
:100140006F7220436F64653A203078004143492044
:100150004576742050697065204572726F723A203E
:100160005069706520233A0045767420436D642001
:10017000726573706F6E653A204572726F722E20D1
:1001800041726475696E6F20697320696E20616EBB
:10019000207768696C652831293B206C6F6F70008F
:1001A00041434920436F6D6D616E6420004572725A
:1001B0006F7220696E204143492053657475700049
:1001C0000957726974696E67206F6E652062797471
:1001D00065203078000007060000030241D70000C8
:1001E000000000000000000000000000000000000F
:1001F000000000000000001F0610000000000000CA
:10020000000400040101000006000090000000004E
:1002100000000000000000001F06101C010200008A
:1002200000000000000000000000000000000014BA
:100230000000001403900164001F06103802FF0242
:100240005800050000000000000000000000100041
:10025000000000000000000000000506105400002F
:10026000000000000000000000000000000000008E
:1002700000000000000000000000001F0620000435
:100280000402020001280001001804040505000210
:100290002803010E0300002A041407001F06201C77
:1002A0000400032A00015541525469637304040594
:1002B000050004280301020500012A06001F06208C
:1002C0003804030200052A010100000404050500AA
:1002D00006280301020700042A06040908001F0675
:1002E000205400072A04010600120000000A00043E
:1002F0000402020008280001011804041010001F65
:1003000006207000092800019ECADC240EE5A9E041
:1003100093F3A3B50100406E04041313000A2800F0
:100320001F06208C0301040B009ECADC240EE5A9E5
:10033000E093F3A3B50200406E44101400000B00DC
:10034000001F0620A80202000000000000000000BC
:10035000000000000000000000000004041313006F
:100360000C001F0620C4280301100D009ECADC24C7
:100370000EE5A9E093F3A3B50300406E140014004A
:10038000000D001F0620E000030200000000000036
:100390000000000000000000000000000000461403
:1003A000030200001F0620FC0E29020100000404C5
:1003B0000202000F2800010A180404050500102895
:1003C00003010211001906211800272A040409015B
:1003D00000112A27010A00000000000000000000B0
:1003E0000000000000001F0640002A0001008004F9
:1003F00000030000000202000804000B00000003DC
:1004000002000204000D000F06401C000E2A270106
:100410000080040011000000000000000000000047
:100420000000000000000000130650009ECADC24FB
:100430000EE5A9E093F3A3B50000406E00000000B4
:100440000000000000000000000F06600000000037
:10045000000000000000000000000000000000009C
:10046000000000000000000000000606F00003D3BA
:1004700088000000000000000000000000000000F4
:1004800000000000000000000000436D6420517572
:100490006575652046756C6C00002C200000C80254
:1004A0007306881611241FBECFEFD8E0DEBFCDBF84
:1004B00011E0A0E0B1E0E6ECF7E302C005900D9298
:1004C000AC36B107D9F726E0ACE6B1E001C01D9229
:1004D000A439B207E1F714E0C4EAD4E004C02297DB
:1004E000FE010E94F618CE39D107C9F70E942F08E5
:1004F0000C94E11B0C94000026E040E855E260E01B
:1005000070E086EC91E00E94AF0560EB70E086EC55
:1005100091E00E94360783E991E00E94F71140E5DF
:1005200050E060E070E08CE691E00E94F60B61E044
:1005300088E00E945D0464E070E08DE891E00E9434
:10054000950967E070E08AE891E00E94950965E00E
:1005500070E080E991E00E9495096AE570E080E929
:1005600091E00E94CE0968EB7BE080E090E00C9483
:10057000D103CF93DF93EB01BC018AE891E00E94A5
:100580009B09BE018DE891E0DF91CF910C949B090E
:100590008CEB91E00E94C0144DE556E760E070E0FE
:1005A00089EA91E00E94EC104EE556E760E070E0C9
:1005B00083E991E00E94F61080E991E00E94FB0837
:1005C0008DE891E00E94FB088AE891E00E94FB0818
:1005D0000E94A20360938601709387018093880133
:1005E0009093890129E042E06AE08CE691E00C9466
:1005F000AA0ACF92DF92EF92FF92CF93DF93CDB70B
:10060000DEB7A4970FB6F894DEBF0FBECDBFBE0114
:100610006F5F7F4F83E991E00E9499132D893E8996
:100620004F89588D698D7A8D8B8D9C8D0E9488198C
:1006300020E030E044E353E40E945A1B20ED3FE009
:1006400049E450E40E94DF196B017C0120E030E0B6
:10065000A9010E94DB1987FF0AC020E030E044EBCB
:1006600053E4C701B6010E9415196B017C01C70153
:10067000B6010E94471ACB01A4960FB6F894DEBFCC
:100680000FBECDBFDF91CF91FF90EF90DF90CF9065
:10069000089564E175E084EA96E00E94B9020E9440
:1006A000F9024AE050E0BC0186EC91E00C94EB07C3
:1006B0001F920F920FB60F9211242F933F938F9397
:1006C0009F93AF93BF938091BE019091BF01A09182
:1006D000C001B091C1013091BD0123E0230F2D373E
:1006E00020F40196A11DB11D05C026E8230F029636
:1006F000A11DB11D2093BD018093BE019093BF0148
:10070000A093C001B093C1018091C2019091C30137
:10071000A091C401B091C5010196A11DB11D8093A6
:10072000C2019093C301A093C401B093C501BF91CE
:10073000AF919F918F913F912F910F900FBE0F908E
:100740001F9018952FB7F8946091BE017091BF016A
:100750008091C0019091C1012FBF08953FB7F894D7
:100760008091C2019091C301A091C401B091C501D3
:1007700026B5A89B05C02F3F19F00196A11DB11DFC
:100780003FBF6627782F892F9A2F620F711D811D19
:10079000911D42E0660F771F881F991F4A95D1F778
:1007A0000895CF92DF92EF92FF92CF93DF936B0188
:1007B0007C010E94AE03EB01C114D104E104F104F9
:1007C00089F00E943E080E94AE036C1B7D0B683EC0
:1007D000734090F381E0C81AD108E108F108C851CC
:1007E000DC4FEACFDF91CF91FF90EF90DF90CF9079
:1007F0000895789484B5826084BD84B5816084BD99
:1008000085B5826085BD85B5816085BDEEE6F0E089
:10081000808181608083E1E8F0E0108280818260E5
:100820008083808181608083E0E8F0E08081816066
:100830008083E1EBF0E0808184608083E0EBF0E096
:10084000808181608083EAE7F0E08081846080833A
:1008500080818260808380818160808380818068E4
:1008600080831092C1000895833081F028F4813094
:1008700099F08230A1F008958730A9F08830B9F05E
:100880008430D1F4809180008F7D03C080918000FE
:100890008F7780938000089584B58F7702C084B5E8
:1008A0008F7D84BD08958091B0008F7703C08091C3
:1008B000B0008F7D8093B0000895CF93DF9390E0D8
:1008C000FC01E650FF4F2491FC01E25FFE4F849152
:1008D000882349F190E0880F991FFC01E45DFE4FE9
:1008E000A591B4918E5D9E4FFC01C591D4919FB7A7
:1008F000611108C0F8948C91209582238C93888193
:1009000082230AC0623051F4F8948C91322F3095D2
:1009100083238C938881822B888304C0F8948C91E4
:10092000822B8C939FBFDF91CF9108950F931F93DC
:10093000CF93DF931F92CDB7DEB7282F30E0F901B8
:10094000EA51FF4F8491F901E650FF4F1491F901EC
:10095000E25FFE4F04910023C9F0882321F06983F0
:100960000E9434046981E02FF0E0EE0FFF1FEE5D7E
:10097000FE4FA591B4919FB7F8948C91611103C07B
:100980001095812301C0812B8C939FBF0F90DF9125
:10099000CF911F910F910895FC01818D228D90E0E0
:1009A000805C9F4F821B91098F7399270895FC01EA
:1009B000918D828D981731F0828DE80FF11D858D14
:1009C00090E008958FEF9FEF0895FC01918D828D47
:1009D000981761F0828DDF01A80FB11D5D968C9193
:1009E000928D9F5F9F73928F90E008958FEF9FEF9E
:1009F000089589E696E0892B49F080E090E0892B04
:100A000029F00E94690681110C9400000895FC01F0
:100A1000848DDF01A80FB11DA35ABF4F2C91848D87
:100A200090E001968F739927848FA689B7892C93BC
:100A3000A089B1898C9180648C93938D848D981357
:100A400006C00288F389E02D80818F7D8083089520
:100A5000CF93DF93EC01888D8823C9F0EA89FB8965
:100A6000808185FD05C0A889B9898C9186FD0FC05C
:100A70000FB607FCF5CF808185FFF2CFA889B98931
:100A80008C9185FFEDCFCE010E940705E7CFDF9166
:100A9000CF910895CF92DF92FF920F931F93CF9340
:100AA000DF931F92CDB7DEB76C01DC015B969C91A2
:100AB0005B975C968C915C97981307C05096ED916C
:100AC000FC915197808185FD32C0F601038D10E0C5
:100AD0000F5F1F4F0F731127F02EF601848DF81250
:100AE00011C00FB607FCF9CFD6015096ED91FC91DD
:100AF0005197808185FFF1CFC60169830E94070568
:100B00006981EBCF838DE80FF11DE35AFF4F6083BE
:100B1000D6015B960C935B975296ED91FC9153979F
:100B200080818062808381E058968C930DC0D601CD
:100B30005696ED91FC91579760835096ED91FC91FC
:100B4000519780818064808381E090E00F90DF91F5
:100B5000CF911F910F91FF90DF90CF900895BF929A
:100B6000CF92DF92EF92FF92CF93DF93EC016A0175
:100B70007B01B22EE889F98982E08083411581EEFC
:100B8000580761057105A1F060E079E08DE390E020
:100B9000A70196010E94B31821503109410951095A
:100BA0005695479537952795211580E1380798F098
:100BB000E889F989108260E874E88EE190E0A70185
:100BC00096010E94B31821503109410951095695E7
:100BD000479537952795EC85FD853083EE85FF8514
:100BE0002083188EEC89FD89B082EA89FB89808197
:100BF00080618083EA89FB89808188608083EA89BB
:100C0000FB89808180688083EA89FB8980818F7D70
:100C10008083DF91CF91FF90EF90DF90CF90BF90D6
:100C200008951F920F920FB60F9211242F938F9356
:100C30009F93EF93FF93E091D601F091D7018081CC
:100C4000E091DC01F091DD0182FD12C09081809184
:100C5000DF018F5F8F732091E001821751F0E091E7
:100C6000DF01F0E0EA53FE4F958F8093DF0101C072
:100C70008081FF91EF919F918F912F910F900FBEE7
:100C80000F901F9018951F920F920FB60F9211247C
:100C90002F933F934F935F936F937F938F939F9384
:100CA000AF93BF93EF93FF9386EC91E00E9407050B
:100CB000FF91EF91BF91AF919F918F917F916F9134
:100CC0005F914F913F912F910F900FBE0F901F900A
:100CD000189586EC91E00E94CC0421E0892B09F460
:100CE00020E0822F08951092C9011092C80188EE69
:100CF00093E0A0E0B0E08093CA019093CB01A09371
:100D0000CC01B093CD018CE191E09093C701809329
:100D1000C60185EC90E09093D3018093D20184ECDE
:100D200090E09093D5018093D40180EC90E0909373
:100D3000D7018093D60181EC90E09093D901809304
:100D4000D80182EC90E09093DB018093DA0186EC8D
:100D500090E09093DD018093DC011092DF0110920E
:100D6000E0011092E1011092E2010895CF92DF922A
:100D7000EF92FF920F931F93CF93DF936C017A0151
:100D8000EB01E60EF71E00E010E0CE15DF0561F086
:100D90006991D601ED91FC910190F081E02DC601A1
:100DA0000995080F191FF1CFC801DF91CF911F914D
:100DB0000F91FF90EF90DF90CF900895611571052E
:100DC00081F0DB010D900020E9F7AD0141505109A0
:100DD000461B570BDC01ED91FC910280F381E02D65
:100DE000099480E090E00895EF92FF920F931F9393
:100DF000CF93DF938C01FB01C0E0D0E064917F01D1
:100E00008FEFE81AF80A662361F0D801ED91FC91A2
:100E10000190F081E02DC8010995C80FD91FF70195
:100E2000EDCFCE01DF91CF911F910F91FF90EF9009
:100E300008950C94DE06DC01ED91FC910190F081A7
:100E4000E02D09940F931F93CF93DF93EC016DE096
:100E50000E941B078C016AE0CE010E941B07800FD5
:100E6000911FDF91CF911F910F9108950F931F93C1
:100E7000CF93DF93EC010E94F4068C01CE010E9417
:100E80002207800F911FDF91CF911F910F9108953D
:100E90008F929F92AF92BF92CF92DF92EF92FF928A
:100EA0000F931F93CF93DF93CDB7DEB7A1970FB604
:100EB000F894DEBF0FBECDBF7C01C42EE52FCB0161
:100EC000D22E19A221E02D1510F02AE0D22E8E018B
:100ED0000F5D1F4F8D2C912CA12CB12C6C2D7E2FD2
:100EE000A50194010E94B3188C2DD29E8019112463
:100EF000015011098A3014F4805D01C0895CF80149
:100F00008083211531054105510521F0C22EE32FC3
:100F1000CA01E4CFB801C7010E94DE06A1960FB650
:100F2000F894DEBF0FBECDBFDF91CF911F910F911F
:100F3000FF90EF90DF90CF90BF90AF909F908F90F9
:100F40000895CF92DF92EF92FF920F931F93CF936A
:100F5000DF93EC016A017B012115310579F4E88109
:100F6000F9810190F081E02D642FDF91CF911F91E5
:100F70000F91FF90EF90DF90CF9009942A303105C8
:100F8000E9F477FF1AC06DE20E941B078C01442729
:100F90005527BA014C195D096E097F092AE0CE0177
:100FA0000E944807800F911FDF91CF911F910F91F1
:100FB000FF90EF90DF90CF9008952AE0B701A6014F
:100FC000CE01DF91CF911F910F91FF90EF90DF90B5
:100FD000CF900C9448070F931F93CF93DF93EC01AE
:100FE0009A01AB01662757FD6095762F0E94A107F5
:100FF0008C01CE010E942207800F911FDF91CF91BB
:101000001F910F9108952115310541F4DC01ED91F7
:10101000FC910190F081E02D642F09940C94480715
:101020009A01462F50E060E070E00C9403080F93A3
:101030001F93CF93DF93EC019A01462F50E060E0BD
:1010400070E00E9403088C01CE010E942207800FED
:10105000911FDF91CF911F910F91089508950E94E4
:10106000F9030E942E080E947C02C9EFD4E00E947E
:1010700049032097E1F30E94F904F9CF08951F92E4
:101080000F920FB60F9211242F933F934F935F93BC
:101090006F937F938F939F93AF93BF93EF93FF9340
:1010A0008091640287FF05C0109285001092840031
:1010B0001AC020916402332727FD30958091630286
:1010C00090E0281739077CF480916402992787FD06
:1010D0009095FC01EE0FFF1FE80FF91FEB59FD4F34
:1010E000808186FD15C0809164028F5F80936402C9
:1010F00020916402332727FD30958091630290E0B0
:1011000028173907BCF4809164028C305CF112C05E
:1011100080916402992787FD9095FC01EE0FFF1FD7
:10112000E80FF91FEB59FD4F808160E08F730E943B
:101130009604D9CF809184009091850004968034E4
:101140009C4918F480E49CE905C08091840090914A
:101150008500049690938900809388008FEF809398
:10116000640238C02091840030918500809164022F
:10117000992787FD9095FC01EE0FFF1FE80FF91FDF
:10118000EB59FD4F81819281820F931F90938900CB
:101190008093880080916402992787FD9095FC01D7
:1011A000EE0FFF1FE80FF91FEB59FD4F808186FFFF
:1011B00011C080916402992787FD9095FC01EE0F84
:1011C000FF1FE80FF91FEB59FD4F808161E08F731E
:1011D0000E949604FF91EF91BF91AF919F918F91E3
:1011E0007F916F915F914F913F912F910F900FBE23
:1011F0000F901F901895209163022C30A0F431E0DD
:10120000320F30936302FC012083822F90E0FC01B7
:10121000EE0FFF1FE80FF91FEB59FD4F88EB9BE026
:101220009283818308952FEFFC0120830895DF923C
:10123000EF92FF920F931F93CF93DF93EC01D62E83
:101240007A01890188818C3008F066C061E08D2DBB
:101250000E945D048881A82FB0E0FD01EE0FFF1F02
:10126000EA0FFB1FEB59FD4F2D2D2F739081907CC2
:10127000922B908360E272E06E197F0977FF02C0C3
:101280006D5F7F4F7595679575956795698340E6A6
:1012900059E0401B510B57FF02C04D5F5F4F559502
:1012A0004795559547954A836CE00E94A7189CE0A6
:1012B000899FB001112420E030E0A901460F571F9B
:1012C000FA01EE0FFF1FE40FF51FEB59FD4F908160
:1012D00096FD16C02F5F3F4F2C30310571F78111FD
:1012E0000FC01092800082E08093810010928500F0
:1012F00010928400B19A80916F00826080936F0099
:10130000888190E0FC01EE0FFF1FE80FF91FEB59F9
:10131000FD4F8081806480838881DF91CF911F9110
:101320000F91FF90EF90DF90089520E639E040E2C2
:1013300052E00C941709FC0180818C3070F591818A
:1013400028E830E0291B310997FD3395220F331F20
:10135000220F331F621773077CF0928128E532E079
:10136000291B310997FD3395220F331F220F331F9D
:10137000621773070CF49B0122503109220F331FAF
:101380004FB7F89490E0FC01EE0FFF1FE80FF91F34
:10139000EB59FD4F328321834FBF08954F925F92E7
:1013A0006F927F92AF92BF92CF92DF92EF92FF92B5
:1013B0000F931F93CF93DF93EC01603282E07807A5
:1013C0000CF040C077FD06C0653B71052CF064EB66
:1013D00070E002C060E070E0898128E830E0281BFE
:1013E000310987FD3395220F331F220F331F590117
:1013F000CC24B7FCC094DC2C882777FD8095982FEF
:101400002A8148E552E0421B510927FD5395440FBC
:10141000551F440F551F2A01662457FC6094762CF3
:101420007F926F925F924F9214EBE12EF12C00E0CD
:1014300010E020E030E0A9010E944B150F900F90C2
:101440000F900F90CE01DF91CF911F910F91FF90E0
:10145000EF90DF90CF90BF90AF907F906F905F90B4
:101460004F900C949B0980918F0290919002209153
:101470008D0230918E02821B930B8F7399270895F2
:1014800020918F023091900280918D0290918E0276
:1014900028173907E9F0E0918D02F0918E02EF569E
:1014A000FD4F808120918D0230918E022F5F3F4F42
:1014B00030938E0220938D0220918D0230918E0206
:1014C0002F73332730938E0220938D0290E008957E
:1014D0008FEF9FEF089520918F02309190028091BD
:1014E0008D0290918E022817390749F0E0918D0204
:1014F000F0918E02EF56FD4F808190E008958FEFBE
:101500009FEF0895089520E030E050E0241735075C
:1015100004F580918F029091900201968F73992724
:10152000E0918D02F0918E028E179F0779F0E09185
:101530008F02F0919002DB01A20FB31FAC91EF5626
:10154000FD4FA0839093900280938F022F5F3F4FB7
:10155000DDCF08950F931F93FC01522F1382128247
:1015600008EE13E020E030E0048315832683378300
:101570008CE291E09183808381E0808B60938B0289
:1015800040938A0250938C0217861686158614861D
:1015900010928E0210928D021092900210928F0281
:1015A00086E890E0968B858B1F910F910895CF93DD
:1015B000DF93EC0162ED72E084EF92E00E94D60FBF
:1015C000882309F4D3C04091D40250E0FA01E158D5
:1015D000F109ED30F10508F0C9C0EC5CFF4F0C9447
:1015E000F4188091D7028093FB028091D50282305B
:1015F00021F0833009F46AC0B9C084EF92E00E9400
:101600006A0C029709F4B2C08889882309F4AEC035
:101610006DEA71E086EC91E0DF91CF910C94360792
:101620008091D6028823C9F08889811101C0FFCF3B
:1016300060EA71E086EC91E00E94F40640E150E03F
:101640006091D50286EC91E00E94170868E671E08F
:1016500086EC91E00E943607EACF8091D50289306E
:1016600009F084C029E047ED52E064E084EF92E0A5
:10167000DF91CF910C94360F8091FB028093FE0294
:101680000E942E0F85E890E09E8B8D8BEC85FD856A
:10169000309709F0099563E084EF92E00E94D50E3F
:1016A000882309F463C08091D10281115FC00E9438
:1016B000CE0F81E08093D10259C086E890E09E8BE6
:1016C0008D8BEC85FD85309709F009956B897C89B8
:1016D00089899A890E94710F81E890E09E8B8D8B99
:1016E000EC85FD85309709F441C0DF91CF910994D5
:1016F0004091D302425066ED72E0CE010E94830A0F
:10170000EE85FF85309791F16091D302625086EDAE
:1017100092E0DF91CF9109948091D5029091FE02E1
:10172000890F22C088898823E1F06CE471E086EC9F
:1017300091E00E94F4064AE050E06091D50286EC08
:1017400091E00E94100866E371E086EC91E00E944F
:10175000F40640E150E06091D60286EC91E00E94F0
:1017600017088091FE028F5F8093FE02DF91CF9178
:1017700008950F931F93CF93DF931F92CDB7DEB7DA
:101780008C01698360EC71E086EC91E00E94F406C4
:1017900040E150E0698186EC91E00E94170863E027
:1017A00084EF92E00E94D50E8823A9F041E0BE01AB
:1017B0006F5F7F4F83E00E948D0F8091FE0281500A
:1017C0008093FE0263E270E080E090E00E94D1032B
:1017D00081E090E005C0C8010E94D70A80E090E057
:1017E0000F90DF91CF911F910F910895FC01728BA3
:1017F000618B548B438B84E091E09093F50280934E
:10180000F40284E08093F60285ED91E09093F80273
:101810008093F70285E18093F90284EF92E00E94C1
:10182000E60E81E00895CF92DF92EF92FF920F9340
:101830001F93CF93DF938C01C62E81E2489F7001E6
:101840001124C0E0D0E0D12CDC1411F1CE018E0DBA
:101850009F1DF80163817481680F791FFB01319628
:10186000449150E04E5F5F4F86E193E00E94C01BC1
:1018700086E193E00E94B90DA196811107C06AE844
:1018800074E086EC91E00E94360719C0D394DCCF57
:10189000C0E067E373E0C8010E94D60F8823C9F354
:1018A000CF5F80913903843851F480913B039FEFDF
:1018B000980F923010F4CC12ECCF90E002C081E887
:1018C00090E0DF91CF911F910F91FF90EF90DF900B
:1018D000CF9008950F931F93CF93DF93EC016D8109
:1018E000693028F000E010E088E890E002C040E0B5
:1018F00015C06D81262F269526952695121740F442
:10190000402F68E0CE010E94130C1F5F085FF1CFEB
:10191000677059F0412F440F440F440FCE01DF91FF
:10192000CF911F910F910C94130CDF91CF911F91C8
:101930000F91089510926D05FC01E85FFE4F108233
:1019400031961082E5E6F4E0DF0111971C921082D7
:10195000B19685E0ED36F807B9F708950F931F9318
:10196000CF93DF93EC0109814AE050E0602F86ECD1
:1019700091E00E94100868E371E086EC91E00E941B
:10198000190710E0FE01E10FF11D40E150E0618117
:1019900086EC91E00E9410086AE974E086EC91E020
:1019A0000E94F4061F5F011768F769E974E086EC8E
:1019B00091E0DF91CF911F910F910C9436078EBD6E
:1019C00000000DB407FEFDCF8EB5089590918A02F8
:1019D000923019F0933019F01BC020E001C021E0D3
:1019E0003DB3882351F081E090E0022E01C0880FC2
:1019F0000A94EAF7382B3DBB089581E090E0022E6F
:101A000001C0880F0A94EAF7809583238DBB08955F
:101A1000FFCF0F931F93CF93DF93EC01F8940091C6
:101A20006204109161047894E091610480916204F1
:101A3000E81761F191E29E9FF0011124E75AFC4FF3
:101A4000DE0101900D929A95E1F72091610430E05A
:101A50002F5F3F4F277033272093610480916D05DE
:101A6000882349F06BE371E086EC91E00E9419074E
:101A7000CE010E94AE0C802F90E0019687709927CE
:101A8000181306C081E00E94E60C02C080E001C08D
:101A900081E0DF91CF911F910F91089510926F0512
:101AA0000E9492158CB580628CBD8CB58C7F816054
:101AB0008CBD8DB581608DBD8CB5837F8CBD83E67B
:101AC00094E00E949A0C89E593E00E949A0C61E0F0
:101AD00080918C020E945D0462E080918A020E94E3
:101AE0005D0461E080918B020E945D0461E0809161
:101AF0008C020E94960464E670E080E090E00E9410
:101B0000D10360E080918C020E94960461E0809194
:101B10008C020E94960460E08DE00E94960460E0D2
:101B20008BE00E94960461E080918B020E949604F3
:101B300060E08DE00E9496048FEF8093890280918F
:101B40008A02823019F41092890205C0833019F498
:101B500081E0809389026EE170E080E090E00E9475
:101B6000D10340E050E061E97EE0809189020C946D
:101B7000C1140F931F93CF93DF938C01FC0141811C
:101B80004032C0F520916C0530E0E9012196C77024
:101B9000DD2780916B058C17C1F051E2529FC00187
:101BA000539F900D1124FC01ED59FB4F108250E022
:101BB0004F5F5F4FB8016F5F7F4F8C599B4F0E9403
:101BC000C91BC0936C05C1E001C0C0E080916D05E8
:101BD000882349F06EE371E086EC91E00E941907DA
:101BE000C8010E94AE0C60E080918B020E949604B6
:101BF0008C2F01C080E0DF91CF911F910F9108954C
:101C0000CF92DF92EF92FF920F931F93CF93DF93C8
:101C1000CDB7DEB7A2970FB6F894DEBF0FBECDBF2B
:101C200060E080918B020E94960480916B059091F8
:101C30006C05891709F462C090E021E2289FF00149
:101C4000299FF00D1124ED59FB4FDE0111960190F3
:101C50000D922A95E1F701968770992780936B057D
:101C60001A81812F0E94DF0C80936E058B810E9468
:101C7000DF0C80936F05112349F0412F50E0282F8E
:101C800030E02417350714F48FEF810F982F80323E
:101C900008F09FE17E0184E0E80EF11C80E7C82E89
:101CA00085E0D82E8601802F8C19891758F4F7010A
:101CB00081917F019AA30E94DF0CF80181938F012B
:101CC0009AA1F1CF61E080918B020E94960483B7C4
:101CD000816083BF40E050E061E97EE0809189024D
:101CE0000E94C11490916B0580916C05981741F08A
:101CF00060E080918B020E94960402C01A82B0CFED
:101D00008EE695E0A2960FB6F894DEBF0FBECDBF6B
:101D1000DF91CF911F910F91FF90EF90DF90CF90C7
:101D20000895CF93DF9383B78E7F83BF809189021D
:101D30000E94E1140E94000EFC014181442391F1B4
:101D40006091620470E0EB012196C770DD2720915D
:101D500061042C1731F151E2569F9001579F300DCD
:101D60001124F901E75AFC4F108250E04F5F5F4F9A
:101D7000BC016F5F7F4FC901865A9C4F0E94C91BEF
:101D8000C0936204F894809162048F5F8770909191
:101D900061047894891306C080E0DF91CF910C94A0
:101DA000E60CFFCFDF91CF910895262F269526953B
:101DB0002695820F911DFC01818990E0677002C019
:101DC000959587956A95E2F781700895CF93DF9393
:101DD000FC01A0E9B5E080E090E0EF01C80FD91F59
:101DE000198A198E1D92019688309105B1F71092CB
:101DF0009D0510929C0510929B0510929A058FEFFD
:101E00008093A5058093A4058093A3051092A10556
:101E10001092A00510929F0510929E0510929905B0
:101E20001092980510928F051092A7051092A605A2
:101E3000808191819093CE058093CD05828180939E
:101E4000CC05838194819093CB058093CA058581CD
:101E50008093C905DF91CF910C944E0D89EA95E0EE
:101E60000E94211088EA95E00C94B90DCF93DF937E
:101E7000CDB7DEB766970FB6F894DEBF0FBECDBF05
:101E8000CA01E091CD05F091CE0533E0639FE00DEE
:101E9000F11D1124339730813130C9F42531B8F464
:101EA0006983422F50E0BC01CE0102962E8B0E9426
:101EB000C91B2E89422FBE016F5F7F4F89EA95E0D3
:101EC0000E94271088EA95E00E94B90D01C080E0C9
:101ED00066960FB6F894DEBF0FBECDBFDF91CF91EF
:101EE0000895CF93DF9300D000D0CDB7DEB79A83AB
:101EF00089837C836B83BE016F5F7F4F89EA95E0A6
:101F00000E94381088EA95E00E94B90D0F900F905A
:101F10000F900F90DF91CF9108951F93CF93DF9390
:101F2000CDB7DEB765970FB6F894DEBF0FBECDBF55
:101F3000142FE091CD05F091CE0593E0899FE00D3F
:101F4000F11D11243397218132812230310519F09E
:101F500024303105C1F41531B0F48983412F50E0AC
:101F6000CE0102960E94C91B412FBE016F5F7F4FB9
:101F700089EA95E00E944C101092A20588EA95E04B
:101F80000E94B90D01C080E065960FB6F894DEBFDF
:101F90000FBECDBFDF91CF911F91089589EA95E0E3
:101FA0000E945D1088EA95E00C94B90D0F931F9381
:101FB000CF93DF93EC018B01CB010E94090DF80157
:101FC0009281983839F0993851F19638A9F520E086
:101FD00030E017C020E030E00F5F1F4FD801A20FA4
:101FE000B31F12969C911297FE01E20FF31F918B83
:101FF0001A969C91918F2F5F3F4F2830310571F7D2
:102000001BC0FE01E20FF31F118A118E2F5F3F4F9D
:1020100028303105B1F719A29F819A870DC0F801C8
:10202000238134813C872B87258136813E872D870C
:1020300027813085388B2F87DF91CF911F910F91AA
:10204000089521E0FC01208329E02183089522E006
:10205000240FDC012C932DE011962C931197FB019A
:10206000219112962C9350E0BF0103960C94C91B4A
:10207000FC01DB0185E080838FE0818311968C91E8
:10208000119783838C91828313968C911397858308
:1020900012968C918483089522E0240FDC012C9306
:1020A00025E111962C931197FB01219112962C9307
:1020B00050E0BF0103960C94C91B21E0FC01208372
:1020C00023E1218308950895FC01658B08950F9302
:1020D0001F93CF93DF938C01EB0188E2FB011192F8
:1020E0008A95E9F74BE050E060E471E0CE010E9490
:1020F000D21B1B8641E050E060E070E04C875D87BA
:102100006E877F87F8010785108921893289088BBE
:10211000198B2A8B3B8B4C8B5D8B6E8B7F8B1CA220
:102120001DA21EA21FA2188E198E1A8E1B8E1C8E27
:102130001D8E1E8E1F8E18A219A21AA21BA2DF913D
:10214000CF911F910F9108950F931F93CF93DF931A
:102150008C01EB0188E2FB0111928A95E9F74BE0D3
:1021600050E060E471E0CE010E94D21B1B8641E08A
:1021700050E060E070E04C875D876E877F87F801F4
:102180004189528963897489488B598B6A8B7B8B0F
:1021900042E050E060E070E04C8B5D8B6E8B7F8B9B
:1021A0001CA21DA21EA21FA2188E198E1A8E1B8E93
:1021B0001C8E1D8E1E8E1F8E18A219A21AA21BA283
:1021C000DF91CF911F910F910895DC01ED91FC916A
:1021D0000190F081E02D09942BE431E0FC01318382
:1021E00020834787508B618B728B0895FC0185E5B6
:1021F00091E091838083418B528B638B748B158A22
:102200000895CF93DF9300D0CDB7DEB784ED95E08E
:102210002A8349830E9468164981642F84ED95E0E2
:102220000E940F162A81622F84ED95E00E940F16FE
:1022300084ED95E00F900F90DF91CF910C9485166F
:102240000F931F93CF93DF938C01EB01262F41E077
:102250006EE10E940111F801D483C383C038D10517
:1022600009F45BC0DCF4C034D105A9F1C036D10556
:1022700009F442C0A09709F08AC080E090E8A9E87C
:10228000B4E48093140190931501A0931601B093C8
:10229000170180E090E0A5E7B4E471C0C03CD1052F
:1022A00009F44CC0C03ED10509F459C0C03AD1056B
:1022B00009F06DC080E090E0A8ECB3E480931401D5
:1022C00090931501A0931601B093170180E090E858
:1022D000A1EBB3E454C080E090ECA5E5B4E48093B6
:1022E000140190931501A0931601B093170180E09B
:1022F00090E0AEE3B4E443C080E090E8A7E2B4E449
:102300008093140190931501A0931601B0931701C7
:1023100080E090E0A6E1B4E432C080E090E0A1EE7D
:10232000B3E48093140190931501A0931601B09328
:10233000170180E090E0A8ECB3E421C080E090E0D9
:10234000A5EAB3E48093140190931501A0931601BC
:10235000B093170180E090E8A3E9B3E410C080E0F7
:1023600090E0A6E6B3E48093140190931501A09346
:102370001601B093170180E090E0ADE4B3E48093E0
:10238000100190931101A0931201B0931301DF91FA
:10239000CF911F910F9108951F93CF93DF931F92B9
:1023A000CDB7DEB7162F84ED95E049830E946816FD
:1023B0004981642F84ED95E00E940F1684ED95E02D
:1023C0000E94851641E0612F84ED95E00E9465161C
:1023D00084ED95E00E94BF15182F84ED95E00E94D2
:1023E0008516812F0F90DF91CF911F910895CF9384
:1023F000DF93EC0184ED95E00E944E1620E042E070
:102400006EE1CE010E94011140E06EE1CE010E941A
:10241000CC11803139F460E270E0CE010E942011CD
:1024200081E001C080E0DF91CF9108956F927F92AB
:102430008F929F92AF92BF92CF92DF92EF92FF92D4
:102440000F931F93CF93DF93EC0169E184ED95E047
:102450000E94681668EA70E084ED95E00E94E5103D
:1024600084ED95E00E94851646E069E184ED95E0F3
:102470000E94651684ED95E00E94B7150697D4F387
:1024800084ED95E00E94BF15782E84ED95E00E94C2
:10249000BF15682E84ED95E00E94BF15982E84ED3F
:1024A00095E00E94BF15882E84ED95E00E94BF152F
:1024B000D82E84ED95E00E94BF15C82EB62CA12C15
:1024C000A72884E0B594A7948A95E1F7B5018827F9
:1024D00077FD8095982F0E947A1A6B837C838D8379
:1024E0009E83F82CE12CE92894E0F594E7949A95E2
:1024F000E1F7B701882777FD8095982F0E947A1A17
:102500006F83788789879A871C2D00E00D2924E046
:10251000159507952A95E1F7B801882777FD8095ED
:10252000982F0E947A1A6B877C878D879E87DF9110
:10253000CF911F910F91FF90EF90DF90CF90BF90C0
:10254000AF909F908F907F906F9008950F931F93FF
:10255000CF93DF938C01EB0184E2FB0111928A950A
:10256000E9F7C8010E94161284E290E0A0E0B0E012
:1025700088839983AA83BB83F80187859089A18981
:10258000B2898C839D83AE83BF8381E090E0A0E01D
:10259000B0E088879987AA87BB870E94A203688BCF
:1025A000798B8A8B9B8B2FE632E143E85AE3F80163
:1025B00063817481858196810E945A1B2AE038EEDE
:1025C0004CE151E40E945A1B6C8B7D8B8E8B9F8B50
:1025D0002FE632E143E85AE3F8016781708581858F
:1025E00092850E945A1B2AE038EE4CE151E40E9489
:1025F0005A1B688F798F8A8F9B8F2FE632E143E8D1
:102600005AE3F80163857485858596850E945A1B77
:102610002AE038EE4CE151E40E945A1B6C8F7D8F0A
:102620008E8F9F8F81E0DF91CF911F910F91089541
:102630006F927F928F929F92AF92BF92CF92DF92D2
:10264000EF92FF920F931F93CF93DF93EC016EE114
:1026500084ED95E00E94681663E070E084ED95E0FB
:102660000E94E51084ED95E00E94851646E06EE13B
:1026700084ED95E00E94651684ED95E00E94B71503
:102680000697D4F384ED95E00E94BF15682E84ED83
:1026900095E00E94BF15782E84ED95E00E94BF154D
:1026A000C82E84ED95E00E94BF15D82E84ED95E0EC
:1026B0000E94BF15882E84ED95E00E94BF15982ECC
:1026C000B62CA12CA728B501882777FD8095982FD7
:1026D0000E947A1A6D837E838F839887F82CE12C71
:1026E000E928B701882777FD8095982F0E947A1AEC
:1026F00069877A878B879C871C2D00E00D29B8019C
:10270000882777FD8095982F0E947A1A6D877E879B
:102710008F87988BDF91CF911F910F91FF90EF9052
:10272000DF90CF90BF90AF909F908F907F906F90F1
:1027300008952F923F924F925F926F927F928F9265
:102740009F92AF92BF92CF92DF92EF92FF920F9340
:102750001F93CF93DF93EC018B0184E2FB01119275
:102760008A95E9F749E06EE1CE010E94CC1180FF25
:10277000F3C0CE010E9418138D89882309F483C009
:102780004D805E806F80788489849A84AB84BC8419
:10279000CD84DE84EF84F8882224239420E030E086
:1027A0004FEF54ECC301B2010E94DB1918160CF470
:1027B000212C3324339420E030E04FEF54E4C30164
:1027C000B2010E944F1B87FD312C3228662463948E
:1027D00020E030E04FEF54E4C501B4010E944F1BEC
:1027E00087FD612C63287724739420E030E04FEF5D
:1027F00054ECC501B4010E94DB1918160CF4712CBD
:102800007628BB24B39420E030E04FEF54E4C701B6
:10281000B6010E944F1B87FDB12C7B2851F420E0AC
:1028200030E04FEF54ECC701B6010E94DB191816D7
:1028300054F18B819C8180369105E1F04CF480321B
:102840009105D9F080349105F1F460E670E017C08D
:10285000803A910561F0803C910531F08038910516
:1028600091F460EA70E00BC060EE70E008C060ECCC
:1028700070E005C060E870E002C060E470E0CE0186
:102880000E9420116FCF84E290E0A0E0B0E0F80158
:1028900080839183A283B38389899A89AB89BC8918
:1028A00084839583A683B78382E090E0A0E0B0E0C4
:1028B00080879187A287B3870E94A203F801608B6B
:1028C000718B828B938BC0901401D0901501E09096
:1028D0001601F0901701A70196016D817E818F810D
:1028E00098850E94DF1920E030E048EC52E40E9415
:1028F0005A1BF801648B758B868B978BA701960109
:1029000069857A858B859C850E94DF1920E030E0FF
:1029100048EC52E40E945A1BF801608F718F828F3D
:10292000938F20911001309111014091120150912B
:1029300013016D857E858F8598890E94DF1920E0BF
:1029400030E048EC52E40E945A1BF801648F758F06
:10295000868F978F81E001C080E0DF91CF911F913A
:102960000F91FF90EF90DF90CF90BF90AF909F902E
:102970008F907F906F905F904F903F902F90089531
:1029800008958230E8F4E82FF0E0EE0FFF1FE153E6
:10299000FA4F71836083813041F0809169008C7FB0
:1029A000842B80936900E89A089580916900440F10
:1029B000551F440F551F837F842B80936900E99A2C
:1029C0000895823068F4813011F0E89801C0E998E8
:1029D000E82FF0E0EE0FFF1FE153FA4F1182108253
:1029E00008951F920F920FB60F9211242F933F93C9
:1029F0004F935F936F937F938F939F93AF93BF9307
:102A0000EF93FF938091CF059091D005892B29F00A
:102A1000E091CF05F091D0050995FF91EF91BF911D
:102A2000AF919F918F917F916F915F914F913F9166
:102A30002F910F900FBE0F901F9018951F920F921D
:102A40000FB60F9211242F933F934F935F936F9381
:102A50007F938F939F93AF93BF93EF93FF93809157
:102A6000D1059091D205892B29F0E091D105F09103
:102A7000D2050995FF91EF91BF91AF919F918F91F1
:102A80007F916F915F914F913F912F910F900FBE6A
:102A90000F901F9018954F925F926F927F92AF9216
:102AA000BF92CF92DF92EF92FF920F931F93CF933B
:102AB000DF93CDB7DEB729013A01621B730B840B9C
:102AC000950B29893A894B895C892A193B094C095C
:102AD0005D09298B3A8B4B8B5C8B9B01AC0169891F
:102AE0007A898B899C890E949718E418F508060951
:102AF0001709A80197010E94D5182A0D3B1D4C1DEE
:102B00005D1DCA01B901DF91CF911F910F91FF9017
:102B1000EF90DF90CF90BF90AF907F906F905F90DD
:102B20004F900895CF93CFB7F8948091D30581113A
:102B300016C061E08AE00E94960461E08AE00E948B
:102B40005D048CB580618CBD8CB580648CBD61E00A
:102B50008DE00E945D0461E08BE00E945D04809145
:102B6000D3058F5F8093D305CFBFCF910895809118
:102B7000040690E020910506821B9109089520919A
:102B8000050680910406281750F4E22FF0E0EA5F72
:102B9000F94F808190E02F5F2093050608958FEF15
:102BA0009FEF0895E091050680910406E81730F440
:102BB000F0E0EA5FF94F808190E008958FEF9FEF9A
:102BC00008950895CF92DF92EF92FF920F931F9393
:102BD000CF93DF937C01CB018A012091E005222372
:102BE00089F0EB016B01C40ED51ECC15DD0569F033
:102BF0006991D701ED91FC910190F081E02DC70121
:102C00000995F3CF642F0E944117C801DF91CF913E
:102C10001F910F91FF90EF90DF90CF900895CF9389
:102C2000DF931F92CDB7DEB769832091E0052223A1
:102C3000D1F02091E105203240F021E030E0FC01AC
:102C40003383228380E090E015C08091E205E82F75
:102C5000F0E0ED51FA4F998190838F5F8093E20508
:102C60008093E10505C061E0CE0101960E94411705
:102C700081E090E00F90DF91CF910895FC011382E5
:102C8000128248EE53E060E070E04483558366832F
:102C900077838FE591E091838083089510920506F4
:102CA000109204061092E2051092E1050C948C1625
:102CB000862F413208F040E266E076E00E94AA16D4
:102CC0001092050680930406089521E00C9458168E
:102CD00081E08093E005609303061092E205109274
:102CE000E10508950F93062F21E04091E10563EE81
:102CF00075E0809103060E94EE161092E205109294
:102D0000E1051092E0050F91089561E00C947216B0
:102D100084ED95E00C943E161092930681E080932A
:102D200091061092900661E082E10E94960461E0B3
:102D300083E10E949604E9EBF0E080818E7F80833E
:102D400080818D7F808388E48093B80085E48093C0
:102D5000BC000895413208F03FC090919306911154
:102D6000FCCF91E090939306209391062FEF209350
:102D7000260610926B06240F20936A069093920603
:102D800090919206880F892B8093920680919006ED
:102D9000813041F410929006809192068093BB009E
:102DA00085EC01C085EE8093BC0080919306813054
:102DB000E1F380916B06841710F440916B062CE6CA
:102DC00036E0FB01D9018A2F821B841718F48D91FC
:102DD0008193F9CF842F089580E008950F934132B5
:102DE00008F046C0909193069111FCCF92E0909329
:102DF0009306009391069FEF9093260610926B0620
:102E000040936A06FB016CE676E0DB019A2F961B85
:102E1000941718F491919D93F9CF10929206909186
:102E20009206880F892B80939206809190068130BC
:102E300041F410929006809192068093BB0085EC3D
:102E400001C085EE8093BC00222321F0809193067F
:102E50008230E1F3809126068F3F61F08091260653
:102E6000803251F080912606803341F483E007C020
:102E700081E005C080E003C082E001C084E00F91E2
:102E80000895613298F420919306243089F4609378
:102E90004806FC018AE496E0DC012A2F281B26174D
:102EA00018F421912D93F9CF80E0089581E00895E1
:102EB00082E0089585ED8093BC008091BC0084FD84
:102EC000FCCF10929306089585EC8093BC0010927D
:102ED000930608951F920F920FB60F9211242F930D
:102EE0003F934F935F936F937F938F939F93AF9392
:102EF000BF93EF93FF938091B900887F803609F4E8
:102F00009CC068F5883209F45BC090F4803109F404
:102F100054C038F4882309F4F5C0883009F44DC052
:102F2000F5C0883109F44CC0803209F45DC0EEC0B0
:102F3000803409F468C048F4803309F455C08833FC
:102F400009F0E4C080932606A8C0803509F44FC07C
:102F5000883509F45DC0883409F0D8C0D5C08839F7
:102F600009F4C6C0A8F4883709F467C038F4883675
:102F700009F463C0803709F460C0C8C0883809F418
:102F8000B7C0803909F45FC0803809F0BFC05BC0AA
:102F9000803B09F485C038F4803A09F466C0883A69
:102FA00009F47EC0B3C0803C09F4A6C0883C09F493
:102FB000A3C0883B09F489C0A9C08091920610C0C3
:102FC00090916B0680916A06981770F5E0916B06F8
:102FD00081E08E0F80936B06F0E0E459F94F808119
:102FE0008093BB0085EC85C0809326068DC0E09160
:102FF0006B0681E08E0F80936B068091BB00F0E042
:10300000E459F94F808390916B0680916A066DC0F8
:10301000E0916B0681E08E0F80936B068091BB0080
:10302000F0E0E459F94F80838091910681116CC0E2
:1030300081E08093900684EA60C083E080939306E9
:1030400010922706CFCF80912706803208F050C01B
:10305000E091270681E08E0F809327068091BB00C8
:10306000F0E0E85DF94F8083BDCF80912706803284
:1030700030F4E0912706F0E0E85DF94F10820E94FD
:103080005A176091270670E0E0918C06F0918D064A
:1030900088E296E00995109227060E94641736C0D0
:1030A00084E0809393061092490610924806E091BE
:1030B0008E06F0918F06099580914806811105C012
:1030C00081E08093480610924A06E091490681E02B
:1030D0008E0F80934906F0E0E65BF94F8081809384
:1030E000BB009091490680914806981708F47ACF62
:1030F00085E88093BC000AC085EC8093BC001092E8
:10310000930604C0109226060E945A17FF91EF9171
:10311000BF91AF919F918F917F916F915F914F91EF
:103120003F912F910F900FBE0F901F901895DB01CC
:103130008F939F930E940919BF91AF91A29F800D19
:10314000911DA39F900DB29F900D11240895991B7E
:1031500079E004C0991F961708F0961B881F7A958E
:10316000C9F780950895A1E21A2EAA1BBB1BFD0189
:103170000DC0AA1FBB1FEE1FFF1FA217B307E40756
:10318000F50720F0A21BB30BE40BF50B661F771FAE
:10319000881F991F1A9469F760957095809590958E
:1031A0009B01AC01BD01CF010895052E97FB1EF4D4
:1031B00000940E94EC1857FD07D00E94B31807FC3A
:1031C00003D04EF40C94EC18509540953095219511
:1031D0003F4F4F4F5F4F0895909580957095619543
:1031E0007F4F8F4F9F4F0895EE0FFF1F0590F49173
:1031F000E02D0994A29FB001B39FC001A39F700D61
:10320000811D1124911DB29F700D811D1124911DEE
:1032100008950E94FA18A59F900DB49F900DA49F49
:10322000800D911D112408955058BB27AA270ED058
:10323000FCC1EDD130F0F2D120F031F49F3F11F418
:103240001EF4BDC10EF4E095E7FBB3C1E92FFED13A
:1032500080F3BA17620773078407950718F071F4B3
:103260009EF516C20EF4E0950B2EBA2FA02D0B0181
:10327000B90190010C01CA01A0011124FF27591BBB
:1032800099F0593F50F4503E68F11A16F040A22FC1
:10329000232F342F4427585FF3CF46953795279532
:1032A000A795F0405395C9F77EF41F16BA0B620B31
:1032B000730B840BBAF09150A1F0FF0FBB1F661F78
:1032C000771F881FC2F70EC0BA0F621F731F841FBB
:1032D00048F4879577956795B795F7959E3F08F0E1
:1032E000B3CF9395880F08F09927EE0F97958795A0
:1032F00008958DD158F080E891E009F49EEF8ED1C9
:1033000028F040E851E059F45EEF09C058C1C0C14F
:10331000E92FE0789BD168F3092E052AC1F326171F
:1033200037074807590738F00E2E07F8E02569F0EF
:10333000E025E0640AC0EF6307F8009407FADB01B8
:10334000B9019D01DC01CA01AD01EF9347D06DD1F8
:103350000AD05F91552331F02BED3FE049E450FD59
:1033600049EC63CF0895DF93DD27B92FBF7740E89D
:103370005FE31616170648075B0710F4D92F93D1A1
:103380009F938F937F936F93F8D1E2E8F0E01AD187
:103390004CD12F913F914F915F9198D1DD2349F00E
:1033A0009058A2EA2AED3FE049EC5FE3D0785D2730
:1033B0004DDFDF913AC1D9D008F481E008950CD0F7
:1033C00034C12CD140F023D130F021F45F3F19F00B
:1033D000F0C051115EC1F3C039D198F39923C9F3FC
:1033E0005523B1F3951B550BBB27AA27621773070B
:1033F000840738F09F5F5F4F220F331F441FAA1FBF
:10340000A9F333D00E2E3AF0E0E830D0915050407E
:10341000E695001CCAF729D0FE2F27D0660F771F2C
:10342000881FBB1F261737074807AB07B0E809F00E
:10343000BB0B802DBF01FF2793585F4F2AF09E3FA3
:10344000510568F0B6C025C15F3FECF3983EDCF350
:10345000869577956795B795F7959F5FC9F7880F1C
:10346000911D9695879597F90895E1E0660F771F6E
:10347000881FBB1F621773078407BA0720F0621BFF
:10348000730B840BBA0BEE1F88F7E095089504D0F8
:103490006894B111FEC00895E1D088F09F5790F074
:1034A000B92F9927B751A0F0D1F0660F771F881F69
:1034B000991F1AF0BA95C9F712C0B13081F0E8D05F
:1034C000B1E00895E5C0672F782F8827B85F39F0FD
:1034D000B93FCCF3869577956795B395D9F73EF4C8
:1034E00090958095709561957F4F8F4F9F4F089570
:1034F000E89409C097FB3EF490958095709561958E
:103500007F4F8F4F9F4F9923A9F0F92F96E9BB2743
:103510009395F695879577956795B795F111F8CFBF
:10352000FAF4BB0F11F460FF1BC06F5F7F4F8F4F2A
:103530009F4F16C0882311F096E911C0772321F020
:103540009EE8872F762F05C0662371F096E8862FB8
:1035500070E060E02AF09A95660F771F881FDAF70F
:10356000880F9695879597F90895990F0008550F3C
:10357000AA0BE0E8FEEF16161706E807F907C0F0F9
:1035800012161306E407F50798F0621B730B840B01
:10359000950B39F40A2661F0232B242B252B21F4DB
:1035A00008950A2609F4A140A6958FEF811D811D7B
:1035B000089597F99F6780E870E060E008959FEFB5
:1035C00080EC0895DF93CF931F930F93FF92EF92B8
:1035D000DF927B018C01689405C0DA2EEF0176D072
:1035E000FE01E894A5912591359145915591AEF351
:1035F000EF012CDEFE019701A801DA9479F7DF9044
:10360000EF90FF900F911F91CF91DF9108950024CB
:103610000A941616170618060906089500240A9437
:1036200012161306140605060895092E0394000CBD
:1036300011F4882352F0BB0F40F4BF2B11F460FF4C
:1036400004C06F5F7F4F8F4F9F4F089557FD905875
:10365000440F551F59F05F3F71F04795880F97FB56
:10366000991F61F09F3F79F0879508951216130610
:103670001406551FF2CF4695F1DF08C0161617063F
:103680001806991FF1CF8695710561050894089574
:10369000E894BB2766277727CB0197F9089565DF64
:1036A00008F48FEF08959B01AC0160E070E080E8C2
:1036B0009FE385CE0BD0B9CFAADF28F0AFDF18F09B
:1036C000952309F076CF7BCF1124E3CFBFDFA0F3A2
:1036D000959FD1F3950F50E0551F629FF001729FA7
:1036E000BB27F00DB11D639FAA27F00DB11DAA1FC6
:1036F000649F6627B00DA11D661F829F2227B00D13
:10370000A11D621F739FB00DA11D621F839FA00D9D
:10371000611D221F749F3327A00D611D231F849FED
:10372000600D211D822F762F6A2F11249F57504044
:103730008AF0E1F088234AF0EE0FFF1FBB1F661FDF
:10374000771F881F91505040A9F79E3F510570F098
:1037500030CF9FCF5F3FECF3983EDCF386957795B3
:103760006795B795F795E7959F5FC1F7FE2B880F93
:10377000911D9695879597F908959B01AC019ACF75
:10378000FB01DC0102C005900D9241505040D8F77A
:103790000895FB01DC0102C001900D9241505040A0
:1037A000D8F70895FB01DC014150504048F00190EA
:1037B0000D920020C9F701C01D9241505040E0F722
:0637C0000895F894FFCF0C
:1037C60001000000018000010800010200018000E4
:1037D6000000754400808944000000004A05B606D2
:1037E600CC04E504D704280500000000B90BB60692
:1037F600330A400A6B0A820A203A00204500430039
:103806004C534D33303300000000006310A612679E
:10381600100000000064109913A410000000000FAF
:0C38260016E215B715BF15D215E115000C
:00000001FF
