:100000001FC20000ADC30000D8C3000040C2000002
:100010003EC200003CC200003AC2000038C20000EC
:1000200036C2000034C2000032C200000C94B6098F
:100030002EC200002CC200002AC2000028C200000C
:10004000E9C3000024C2000097C60000C7C6000034
:100050001EC200001CC200001AC2000018C200002C
:100060000C94DF1714C20000620C180D180D7F0CE1
:10007000A70CC50C180DB50C180DF20C180DDF0CE3
:10008000F80C000000080002010000030407000053
:10009000000000000000010204081020408001025E
:1000A00004081020010204081020040404040404BD
:1000B000040402020202020203030303030300001A
:1000C0000000250028002B0000000000240027006D
:1000D0002A00202050697065204572726F7220439B
:1000E0006F64653A2030780041434920457674209A
:1000F00050697065204572726F723A205069706560
:1001000020233A0045767420436D64207265737035
:100110006F6E653A204572726F722E20417264755F
:10012000696E6F20697320696E20616E207768693F
:100130006C652831293B206C6F6F7000414349206A
:10014000436F6D6D616E6420004572726F7220693D
:100150006E204143492053657475700009577269D8
:1001600074696E67206F6E652062797465203078DF
:10017000000007060000030241D700000000000055
:10018000000000000000000000000000000000006F
:100190000000001F06100000000000000004000422
:1001A00001010000060000900000000000000000B7
:1001B000000000001F06101C0102000000000000EB
:1001C0000000000000000000000000140000001407
:1001D00003900164001F06103802FF02580005005A
:1001E00000000000000000000000100000000000FF
:1001F0000000000000000506105400000000000090
:1002000000000000000000000000000000000000EE
:10021000000000000000001F06200004040202008D
:100220000128000100180404050500022803010E3E
:100230000300002A041407001F06201C0400032AE0
:1002400000015541525469637304040505000428F4
:100250000301020500012A06001F062038040302DC
:1002600000052A0101000004040505000628030119
:10027000020700042A06040908001F06205400078C
:100280002A04010600120000000A00040402020011
:1002900008280001011804041010001F0620700037
:1002A000092800019ECADC240EE5A9E093F3A3B55A
:1002B0000100406E04041313000A28001F06208C5E
:1002C0000301040B009ECADC240EE5A9E093F3A30E
:1002D000B50200406E44101400000B00001F062001
:1002E000A802020000000000000000000000000062
:1002F0000000000000000004041313000C001F069F
:1003000020C4280301100D009ECADC240EE5A9E0DC
:1003100093F3A3B50300406E14001400000D001FFA
:100320000620E000030200000000000000000000C2
:10033000000000000000000000004614030200005E
:100340001F0620FC0E290201000004040202000F17
:100350002800010A180404050500102803010211F1
:10036000001906211800272A0404090100112A2770
:10037000010A000000000000000000000000000072
:1003800000001F0640002A00010080040003000056
:10039000000202000804000B000000030200020437
:1003A000000D000F06401C000E2A270100800400EB
:1003B000110000000000000000000000000000002C
:1003C00000000000130650009ECADC240EE5A9E0E0
:1003D00093F3A3B50000406E000000000000000091
:1003E00000000000000F0660000000000000000098
:1003F00000000000000000000000000000000000FD
:100400000000000000000606F00003D38800000092
:1004100000000000000000000000000000000000DC
:10042000000000000000436D642051756575652073
:1004300046756C6C00002C20000053031C07FE1650
:1004400011241FBECFEFD8E0DEBFCDBF12E0A0E089
:10045000B1E0E2EAFAE302C005900D92A235B107DD
:10046000D9F727E0A2E5B2E001C01D92A238B20799
:10047000E1F714E0C0E4D4E004C02297FE010E943A
:100480006419CA33D107C9F766D70C944F1DB8CD8C
:100490000F931F9309D200916C0210916D0220916D
:1004A0006E0230916F02601B710B820B930B0091F7
:1004B0000B0110910C0120910D0130910E010617D6
:1004C00017072807390798F480910A0191E08927D6
:1004D00080930A0163E271E084EB92E061D5609160
:1004E0000A0170E04AE050E084EB92E022D6DCD1D1
:1004F00060936C0270936D0280936E0290936F0212
:100500001F910F9108950F931F93CF93DF9300D006
:1005100000D000D0CDB7DEB78C0161E371E0CE0131
:100520000196AFD6B801CE010196EBD66AE371E031
:10053000F9D6BC0184EB92E025D5CE01019636D6E2
:10054000F80104811581065F1F4F033211056CF419
:100550006BE371E084EB92E023D56AEF70E080E01A
:1005600090E0D1D10F5F1F4FF0CF84EB92E020D508
:1005700026960FB6F894DEBF0FBECDBFDF91CF91A8
:100580001F910F910895CF93DF9300D000D000D03A
:10059000CDB7DEB742E050E068E472E081E0B0D071
:1005A00026E040E855E260E070E084EB92E082D320
:1005B00084EB92E0FDD46DE371E0CE01019661D64B
:1005C000CE010196A0DFCE010196F0D560E471E086
:1005D000CE01019656D6CE01019695DFCE01019649
:1005E000E5D58DE792E00E94251368E471E0CE0125
:1005F000019647D6CE01019686DFCE010196D6D56B
:1006000040E550E060E070E082E592E00E94530D2A
:1006100061E088E001D269E571E0CE01019631D652
:10062000CE01019670DFCE010196C0D564E070E086
:1006300087E792E0EED767E070E084E792E0E9D7E1
:1006400065E070E08AE792E0E4D765E570E08AE76C
:1006500092E00E94410B62E671E0CE01019611D654
:10066000CE01019650DFCE010196A0D564E771E07E
:1006700084EB92E095D468EE73E080E090E043D1A3
:1006800026960FB6F894DEBF0FBECDBFDF91CF9197
:10069000089580910A01882311F061E001C060E0B3
:1006A00088E0F3C1F6CF86EA92E00E94B8154DE5E6
:1006B00056E760E070E083E992E00E9425124EE583
:1006C00056E760E070E08DE792E00E942F128AE723
:1006D00092E006D787E792E003D784E792E000D75D
:1006E000E3D06093700270937102809372029093D2
:1006F000730229E042E06AE082E592E00C941C0C6F
:100700008230E8F4E82FF0E0EE0FFF1FE955FD4FCF
:1007100071836083813041F0809169008C7F842BEC
:1007200080936900E89A089580916900440F551FED
:10073000440F551F837F842B80936900E99A0895A5
:10074000823068F4813011F0E89801C0E998E82F10
:10075000F0E0EE0FFF1FE955FD4F11821082089562
:100760001F920F920FB60F9211242F933F934F9326
:100770005F936F937F938F939F93AF93BF93EF9309
:10078000FF938091A7029091A802892B29F0E09114
:10079000A702F091A8020995FF91EF91BF91AF9147
:1007A0009F918F917F916F915F914F913F912F9189
:1007B0000F900FBE0F901F9018951F920F920FB6BB
:1007C0000F9211242F933F934F935F936F937F93D7
:1007D0008F939F93AF93BF93EF93FF938091A90261
:1007E0009091AA02892B29F0E091A902F091AA0226
:1007F0000995FF91EF91BF91AF919F918F917F915B
:100800006F915F914F913F912F910F900FBE0F907D
:100810001F9018951F920F920FB60F9211242F93CD
:100820003F938F939F93AF93BF938091AC0290912E
:10083000AD02A091AE02B091AF023091AB0223E0C5
:10084000230F2D3720F40196A11DB11D05C026E808
:10085000230F0296A11DB11D2093AB028093AC0221
:100860009093AD02A093AE02B093AF028091B0021C
:100870009091B102A091B202B091B3020196A11D74
:10088000B11D8093B0029093B102A093B202B093D5
:10089000B302BF91AF919F918F913F912F910F9094
:1008A0000FBE0F901F9018952FB7F8946091AC026F
:1008B0007091AD028091AE029091AF022FBF08956A
:1008C0003FB7F8948091B0029091B102A091B2022A
:1008D000B091B30226B5A89B05C02F3F19F0019631
:1008E000A11DB11D3FBF6627782F892F9A2F620F58
:1008F000711D811D911D42E0660F771F881F991F92
:100900004A95D1F70895CF92DF92EF92FF92CF935D
:10091000DF936B017C01D4DFEB01C114D104E1044E
:10092000F10479F022D5CCDF6C1B7D0B683E73405F
:10093000A0F381E0C81AD108E108F108C851DC4FE2
:10094000ECCFDF91CF91FF90EF90DF90CF900895A3
:10095000789484B5826084BD84B5816084BD85B59A
:10096000826085BD85B5816085BDEEE6F0E0808161
:1009700081608083E1E8F0E0108280818260808382
:10098000808181608083E0E8F0E080818160808305
:10099000E1EBF0E0808184608083E0EBF0E0808137
:1009A00081608083EAE7F0E08081846080838081D9
:1009B0008260808380818160808380818068808381
:1009C0001092C1000895833081F028F4813099F0AD
:1009D0008230A1F008958730A9F08830B9F08430D2
:1009E000D1F4809180008F7D03C0809180008F774B
:1009F00080938000089584B58F7702C084B58F7D81
:100A000084BD08958091B0008F7703C08091B000BD
:100A10008F7D8093B0000895CF93DF9390E0FC0129
:100A2000EA56FF4F2491FC01E655FF4F849188233D
:100A300049F190E0880F991FFC01E853FF4FA59101
:100A4000B49182549F4FFC01C591D4919FB761111D
:100A500008C0F8948C91209582238C9388818223FE
:100A60000AC0623051F4F8948C91322F3095832370
:100A70008C938881822B888304C0F8948C91822B7C
:100A80008C939FBFDF91CF9108950F931F93CF93C6
:100A9000DF931F92CDB7DEB7282F30E0F901EE5774
:100AA000FF4F8491F901EA56FF4F1491F901E65581
:100AB000FF4F04910023C1F0882319F0698383DF7D
:100AC0006981E02FF0E0EE0FFF1FE254FF4FA59188
:100AD000B4919FB7F8948C91611103C01095812354
:100AE00001C0812B8C939FBF0F90DF91CF911F91FD
:100AF0000F910895FC01818D228D90E0805C9F4FC5
:100B0000821B91098F7399270895FC01918D828D25
:100B1000981731F0828DE80FF11D858D90E00895D2
:100B20008FEF9FEF0895FC01918D828D981761F0F2
:100B3000828DDF01A80FB11D5D968C91928D9F5F14
:100B40009F73928F90E008958FEF9FEF089583E158
:100B500097E0892B41F080E090E0892B21F063D170
:100B600081110C9400000895FC01848DDF01A80F11
:100B7000B11DA35ABF4F2C91848D90E001968F73C5
:100B80009927848FA689B7892C93A089B1898C91E4
:100B900080648C93938D848D981306C00288F389AA
:100BA000E02D80818F7D80830895CF93DF93EC01CA
:100BB000888D8823C1F0EA89FB89808185FD05C085
:100BC000A889B9898C9186FD0EC00FB607FCF5CFB8
:100BD000808185FFF2CFA889B9898C9185FFEDCFFF
:100BE000CE01C2DFE8CFDF91CF910895CF92DF929F
:100BF000FF920F931F93CF93DF931F92CDB7DEB772
:100C00006C01DC015B969C915B975C968C915C9788
:100C1000981307C05096ED91FC915197808185FD06
:100C200031C0F601038D10E00F5F1F4F0F731127C6
:100C3000F02EF601848DF81210C00FB607FCF9CF24
:100C4000D6015096ED91FC915197808185FFF1CFAF
:100C5000C601698389DF6981ECCF838DE80FF11DBF
:100C6000E35AFF4F6083D6015B960C935B975296D5
:100C7000ED91FC91539780818062808381E058964A
:100C80008C930DC0D6015696ED91FC9157976083D9
:100C90005096ED91FC91519780818064808381E032
:100CA00090E00F90DF91CF911F910F91FF90DF9017
:100CB000CF900895BF92CF92DF92EF92FF92CF93A1
:100CC000DF93EC016A017B01B22EE889F98982E0A9
:100CD0008083411581EE580761057105A1F060E040
:100CE00079E08DE390E0A70196010E94241921503C
:100CF0003109410951095695479537952795211591
:100D000080E1380798F0E889F989108260E874E892
:100D10008EE190E0A70196010E942419215031092B
:100D2000410951095695479537952795EC85FD85DD
:100D30003083EE85FF852083188EEC89FD89B08293
:100D4000EA89FB89808180618083EA89FB898081CF
:100D500088608083EA89FB89808180688083EA8952
:100D6000FB8980818F7D8083DF91CF91FF90EF9011
:100D7000DF90CF90BF9008951F920F920FB60F9201
:100D800011242F938F939F93EF93FF93E091C402CD
:100D9000F091C5028081E091CA02F091CB0282FD00
:100DA00012C090818091CD028F5F8F732091CE020F
:100DB000821751F0E091CD02F0E0EC54FD4F958F99
:100DC0008093CD0201C08081FF91EF919F918F911F
:100DD0002F910F900FBE0F901F9018951F920F929A
:100DE0000FB60F9211242F933F934F935F936F93FE
:100DF0007F938F939F93AF93BF93EF93FF9384EB76
:100E000092E0B2DEFF91EF91BF91AF919F918F91F0
:100E10007F916F915F914F913F912F910F900FBEF6
:100E20000F901F90189584EB92E064DE21E0892BEF
:100E300009F420E0822F08951092B7021092B602B2
:100E400088EE93E0A0E0B0E08093B8029093B902FE
:100E5000A093BA02B093BB0282E092E09093B502F5
:100E60008093B40285EC90E09093C1028093C0021D
:100E700084EC90E09093C3028093C20280EC90E0F7
:100E80009093C5028093C40281EC90E09093C702D6
:100E90008093C60282EC90E09093C9028093C802CE
:100EA00086EC90E09093CB028093CA021092CD0220
:100EB0001092CE021092CF021092D0020895CF92DB
:100EC000DF92EF92FF920F931F93CF93DF936C010A
:100ED0007A01EB01E60EF71E00E010E0CE15DF050B
:100EE00061F06991D601ED91FC910190F081E02DC6
:100EF000C6010995080F191FF1CFC801DF91CF91E5
:100F00001F910F91FF90EF90DF90CF9008956115A2
:100F1000710581F0DB010D900020E9F7AD01415032
:100F20005109461B570BDC01ED91FC910280F381C6
:100F3000E02D099480E090E00895EF92FF920F93E6
:100F40001F93CF93DF938C01FB01C0E0D0E064914D
:100F50007F018FEFE81AF80A662361F0D801ED915E
:100F6000FC910190F081E02DC8010995C80FD91FAF
:100F7000F701EDCFCE01DF91CF911F910F91FF903F
:100F8000EF900895DC01ED91FC91DB0114964D91F9
:100F90005C9115976D917C910280F381E02D09940D
:100FA000B6CFDC01ED91FC910190F081E02D099428
:100FB0000F931F93CF93DF93EC016DE0F2DF8C0171
:100FC0006AE0CE01EEDF800F911FDF91CF911F917C
:100FD0000F9108950F931F93CF93DF93EC01ADDF33
:100FE0008C01CE01E5DF800F911FDF91CF911F9122
:100FF0000F9108958F929F92AF92BF92CF92DF92FE
:10100000EF92FF920F931F93CF93DF93CDB7DEB78D
:10101000A1970FB6F894DEBF0FBECDBF7C01C42EE2
:10102000E52FCB01D22E19A221E02D1510F02AE0D8
:10103000D22E8E010F5D1F4F8D2C912CA12CB12C27
:101040006C2D7E2FA50194010E9424198C2DD29E17
:1010500080191124015011098A3014F4805D01C0F7
:10106000895CF8018083211531054105510521F086
:10107000C22EE32FCA01E4CFB801C70148DFA19611
:101080000FB6F894DEBF0FBECDBFDF91CF911F9199
:101090000F91FF90EF90DF90CF90BF90AF909F9017
:1010A0008F900895CF92DF92EF92FF920F931F934C
:1010B000CF93DF93EC016A017B012115310579F4AF
:1010C000E881F9810190F081E02D642FDF91CF91CB
:1010D0001F910F91FF90EF90DF90CF9009942A30ED
:1010E0003105D9F477FF18C06DE25BDF8C0144272E
:1010F0005527BA014C195D096E097F092AE0CE0116
:1011000079DF800F911FDF91CF911F910F91FF9099
:10111000EF90DF90CF9008952AE0B701A601CE01AD
:10112000DF91CF911F910F91FF90EF90DF90CF90C3
:1011300061CF0F931F93CF93DF93EC019A01AB0123
:10114000662757FD6095762FADDF8C01CE0130DF2D
:10115000800F911FDF91CF911F910F91089521155D
:10116000310541F4DC01ED91FC910190F081E02D1D
:10117000642F09943FCF9A01462F50E060E070E061
:10118000EECF0F931F93CF93DF93EC019A01462F7D
:1011900050E060E070E0E3DF8C01CE0109DF800FFA
:1011A000911FDF91CF911F910F910895FC018081D4
:1011B00091810C949E1BCF93DF93EC0188819981E0
:1011C000009711F00E949E1B198218821D821C82BA
:1011D0001B821A82DF91CF9108950F931F93CF93B3
:1011E000DF93EC018B016F5F7F4F888199810E94B3
:1011F0002D1C009731F0998388831B830A8381E03B
:1012000001C080E0DF91CF911F910F910895CF939E
:10121000DF93EC0188819981892B29F08A819B8158
:101220008617970758F4CE01D8DF882341F08C81C8
:101230009D81892B19F4E881F981108281E0DF9189
:10124000CF910895EF92FF920F931F93CF93DF9367
:10125000EC017B018A01BA01DADF811103C0CE0102
:10126000AADF07C01D830C83B701888199810E9482
:10127000021DCE01DF91CF911F910F91FF90EF9052
:101280000895FC0111821082138212821582148249
:101290006115710551F0FB0101900020E9F7AF01E4
:1012A00041505109461B570BCDCF0895EF92FF9245
:1012B0000F931F93CF93DF93EC017B010C811D8172
:1012C0006115710511F480E015C04115510589F0D3
:1012D000040F151FB8019BDF8823A9F328813981EA
:1012E0008C819D81B701820F931F0E94021D1D8377
:1012F0000C8381E0DF91CF911F910F91FF90EF90D0
:101300000895CF93DF93EC01FB0144815581608107
:101310007181CCDF811102C0CE014DDFCE01DF91A2
:10132000CF910895CF93DF93EC016115710561F0C2
:10133000FB0101900020E9F7AF0141505109461B24
:10134000570BB4DF811102C0CE0135DFCE01DF9132
:10135000CF9108950895FCDAFDDF15D9C7EAD5E0ED
:10136000A1D92097E9F3F3DBFBCF08951F920F92E9
:101370000FB60F9211242F933F934F935F936F9368
:101380007F938F939F93AF93BF93EF93FF9380913E
:10139000520387FF05C010928500109284001AC086
:1013A00020915203332727FD30958091510390E01F
:1013B000281739077CF480915203992787FD90956F
:1013C000FC01EE0FFF1FE80FF91FED5AFC4F808163
:1013D00086FD15C0809152038F5F80935203209148
:1013E0005203332727FD30958091510390E0281751
:1013F0003907B4F4809152038C3054F111C08091BC
:101400005203992787FD9095FC01EE0FFF1FE80F0F
:10141000F91FED5AFC4F808160E08F7336DBDACF25
:101420008091840090918500049680349C4918F442
:1014300080E49CE905C08091840090918500049629
:1014400090938900809388008FEF8093520337C078
:10145000209184003091850080915203992787FD67
:101460009095FC01EE0FFF1FE80FF91FED5AFC4F9E
:1014700081819281820F931F9093890080938800CD
:1014800080915203992787FD9095FC01EE0FFF1F75
:10149000E80FF91FED5AFC4F808186FF10C0809144
:1014A0005203992787FD9095FC01EE0FFF1FE80F6F
:1014B000F91FED5AFC4F808161E08F73E6DAFF91EE
:1014C000EF91BF91AF919F918F917F916F915F91BC
:1014D0004F913F912F910F900FBE0F901F90189535
:1014E000209151032C30A0F431E0320F309351039E
:1014F000FC012083822F90E0FC01EE0FFF1FE80F1C
:10150000F91FED5AFC4F88EB9BE09283818308958D
:101510002FEFFC0120830895DF92EF92FF920F934B
:101520001F93CF93DF93EC01D62E7A018901888136
:101530008C3008F065C061E08D2D6EDA8881A82FAF
:10154000B0E0FD01EE0FFF1FEA0FFB1FED5AFC4F4D
:101550002D2D2F739081907C922B908360E272E00E
:101560006E197F0977FF02C06D5F7F4F7595679594
:1015700075956795698340E659E0401B510B57FF0D
:1015800002C04D5F5F4F55954795559547954A83E6
:101590006CE00E9418199CE0899FB001112420E0A2
:1015A00030E0A901460F571FFA01EE0FFF1FE40FAD
:1015B000F51FED5AFC4F908196FD16C02F5F3F4FEF
:1015C0002C30310571F781110FC01092800082E03C
:1015D000809381001092850010928400B19A8091CE
:1015E0006F00826080936F00888190E0FC01EE0FB5
:1015F000FF1FE80FF91FED5AFC4F80818064808344
:101600008881DF91CF911F910F91FF90EF90DF9034
:10161000089520E639E040E252E07ECFFC0180816F
:101620008C3070F5918128E830E0291B310997FD55
:101630003395220F331F220F331F621773077CF07D
:10164000928128E532E0291B310997FD3395220F5D
:10165000331F220F331F621773070CF49B012250B4
:101660003109220F331F4FB7F89490E0FC01EE0FC1
:10167000FF1FE80FF91FED5AFC4F328321834FBF44
:1016800008954F925F926F927F92AF92BF92CF92E6
:10169000DF92EF92FF920F931F93CF93DF93EC01B2
:1016A000603282E078070CF040C077FD06C0653BF1
:1016B00071052CF064EB70E002C060E070E089819D
:1016C00028E830E0281B310987FD3395220F331FAE
:1016D000220F331F5901CC24B7FCC094DC2C88277F
:1016E00077FD8095982F2A8148E552E0421B5109E9
:1016F00027FD5395440F551F440F551F2A0166249B
:1017000057FC6094762C7F926F925F924F9214EB0D
:10171000E12EF12C00E010E020E030E0A9010E9471
:10172000B9150F900F900F900F90CE01DF91CF91D0
:101730001F910F91FF90EF90DF90CF90BF90AF90EF
:101740007F906F905F904F9069CF80917D039091D3
:101750007E0320917B0330917C03821B930B8F735C
:101760009927089520917D0330917E0380917B031A
:1017700090917C0328173907E9F0E0917B03F09101
:101780007C03E158FC4F808120917B0330917C03E6
:101790002F5F3F4F30937C0320937B0320917B038B
:1017A00030917C032F73332730937C0320937B038A
:1017B00090E008958FEF9FEF089520917D03309181
:1017C0007E0380917B0390917C032817390749F0B1
:1017D000E0917B03F0917C03E158FC4F808190E025
:1017E00008958FEF9FEF0895089520E030E050E0D6
:1017F0002417350704F580917D0390917E030196AF
:101800008F739927E0917B03F0917C038E179F07DC
:1018100079F0E0917D03F0917E03DB01A20FB31F0D
:10182000AC91E158FC4FA08390937E0380937D039D
:101830002F5F3F4FDDCF08950F931F93FC01522F71
:101840001382128208EE13E020E030E00483158357
:101850002683378382E192E09183808381E0808BCD
:10186000609379034093780350937A031786168622
:101870001586148610927C0310927B0310927E03CF
:1018800010927D0386E890E0968B858B1F910F91D7
:101890000895CF93DF93EC0160EC73E082EE93E068
:1018A000BFD4882309F4C4C04091C20350E0FA01B8
:1018B000E158F109ED30F10508F0BAC0EC5CFF4FDA
:1018C0000C9462198091C5038093E9038091C3034E
:1018D000823021F0833009F461C0AAC082EE93E027
:1018E00052D1029709F4A4C08889882309F4A0C0C2
:1018F00069E471E084EB92E0DF91CF916BCB809152
:10190000C4038823B1F08889811101C0FFCF6CE343
:1019100071E084EB92E011DB40E150E06091C303A1
:1019200084EB92E02EDC64E071E084EB92E052DB29
:10193000EDCF8091C303893009F07AC029E045ECEE
:1019400053E064E082EE93E0DF91CF91D1C38091C8
:10195000E9038093EC03C6D385E890E09E8B8D8BE2
:10196000EC85FD85309709F0099563E082EE93E000
:1019700061D3882309F45CC08091BF03811158C0F2
:1019800049D481E08093BF0353C086E890E09E8BEA
:101990008D8BEC85FD85309709F009956B897C89E5
:1019A00089899A89DED381E890E09E8B8D8BEC85C6
:1019B000FD85309709F43CC0DF91CF9109944091A7
:1019C000C103425064EC73E0CE010FDFEE85FF856A
:1019D000309771F16091C103625084EC93E0DF9124
:1019E000CF9109948091C3039091EC03890F1EC09D
:1019F00088898823C1F068EE70E084EB92E09DDA7C
:101A00004AE050E06091C30384EB92E0B4DB62ED06
:101A100070E084EB92E091DA40E150E06091C40321
:101A200084EB92E0AEDB8091EC038F5F8093EC035C
:101A3000DF91CF9108950F931F93CF93DF931F9260
:101A4000CDB7DEB78C0169836CE571E084EB92E081
:101A500074DA40E150E0698184EB92E092DB63E06C
:101A600082EE93E0E7D28823A1F041E0BE016F5FF0
:101A70007F4F83E090D38091EC0381508093EC03FF
:101A800063E270E080E090E00E94830481E090E0F7
:101A900004C0C801FEDE80E090E00F90DF91CF919E
:101AA0001F910F910895FC01728B618B548B438BB6
:101AB0008FE091E09093E3038093E20384E08093CE
:101AC000E40381E791E09093E6038093E50385E1E9
:101AD0008093E70382EE93E0BED281E00895CF9237
:101AE000DF92EF92FF920F931F93CF93DF938C01BE
:101AF000C62E81E2489F70011124C0E0D0E0D12CB5
:101B0000DC1401F1CE018E0D9F1DF80163817481FB
:101B1000680F791FFB013196449150E04E5F5F4F93
:101B200084E094E00E94F01C84E094E06ED1A196E1
:101B3000811106C066E274E084EB92E04BDA18C0D3
:101B4000D394DECFC0E065E274E0C80169D3882396
:101B5000D1F3CF5F80912704843851F48091290418
:101B60009FEF980F923010F4CC12EDCF90E002C0AE
:101B700081E890E0DF91CF911F910F91FF90EF905E
:101B8000DF90CF9008950F931F93CF93DF93EC01D5
:101B90006D81693028F000E010E088E890E002C034
:101BA00040E014C06D81262F2695269526951217A4
:101BB00038F4402F68E0CE0192DF1F5F085FF2CF5C
:101BC000677051F0412F440F440F440FCE01DF9155
:101BD000CF911F910F9183CFDF91CF911F910F91E3
:101BE000089510925B06FC01E85FFE4F108231966B
:101BF0001082E3E5F5E0DF0111971C921082B196A7
:101C000086E0EB35F807B9F708950F931F93CF934C
:101C1000DF93EC0109814AE050E0602F84EB92E011
:101C2000AADA6EE172E084EB92E0BAD910E0FE012C
:101C3000E10FF11D40E150E0618184EB92E09BDA1D
:101C400066E374E084EB92E078D91F5F011778F7C0
:101C500065E374E084EB92E0DF91CF911F910F91E7
:101C6000B9C98EBD00000DB407FEFDCF8EB5089535
:101C700090917803923019F0933019F01BC020E056
:101C800001C021E03DB3882351F081E090E0022EB5
:101C900001C0880F0A94EAF7382B3DBB089581E014
:101CA00090E0022E01C0880F0A94EAF78095832302
:101CB0008DBB0895FFCF0F931F93CF93DF93EC015C
:101CC000F8940091500510914F057894E0914F05DC
:101CD00080915005E81749F191E29E9FF00111248F
:101CE000E95BFB4FDE0101900D929A95E1F720919F
:101CF0004F0530E02F5F3F4F2770332720934F056C
:101D000080915B06882339F061E272E084EB92E017
:101D100047D9CE017ADF802F90E00196877099270E
:101D2000181305C081E0A4DF02C080E001C081E09B
:101D3000DF91CF911F910F91089510925D065ED7AC
:101D40008CB580628CBD8CB58C7F81608CBD8DB56F
:101D500081608DBD8CB5837F8CBD81E595E041DFD1
:101D600087E494E03EDF61E080917A030E940C05F5
:101D700062E0809178030E940C0561E08091790314
:101D80000E940C0561E080917A030E94450564E69B
:101D900070E080E090E00E94830460E080917A032C
:101DA0000E94450561E080917A030E94450560E04C
:101DB0008DE00E94450560E08BE00E94450561E0F2
:101DC000809179030E94450560E08DE00E94450501
:101DD0008FEF8093770380917803823019F410920B
:101DE000770305C0833019F481E0809377036EE1B7
:101DF00070E080E090E00E94830440E050E068EDF5
:101E00007FE0809177030C9480030F931F93CF930F
:101E1000DF938C01FC0141814032B0F520915A06DC
:101E200030E0E9012196C770DD27809159068C17B3
:101E3000C1F051E2529FC001539F900D1124FC014B
:101E4000EF5AFA4F108250E04F5F5F4FB8016F5F5B
:101E50007F4F8E5A9A4F0E94F91CC0935A06C1E0D8
:101E600001C0C0E080915B06882339F064E272E033
:101E700084EB92E095D8C801C8DE60E080917903D8
:101E80000E9445058C2F01C080E0DF91CF911F910A
:101E90000F910895CF92DF92EF92FF920F931F93CD
:101EA000CF93DF93CDB7DEB7A2970FB6F894DEBF1E
:101EB0000FBECDBF60E0809179030E9445058091FF
:101EC000590690915A06891709F45FC090E021E203
:101ED000289FF001299FF00D1124EF5AFA4FDE01DF
:101EE000119601900D922A95E1F701968770992736
:101EF000809359061A81812FB4DE80935C068B8112
:101F0000B0DE80935D06112349F0412F50E0282F69
:101F100030E02417350714F48FEF810F982F8032AB
:101F200008F09FE17E0184E0E80EF11C8EE5C82EEA
:101F300086E0D82E8601802F8C19891750F4F7017E
:101F400081917F019AA38DDEF80181938F019AA17F
:101F5000F2CF61E0809179030E94450583B78160EB
:101F600083BF40E050E068ED7FE0809177030E94FE
:101F700080039091590680915A06981741F060E0CD
:101F8000809179030E94450502C01A82B3CF8CE587
:101F900096E0A2960FB6F894DEBF0FBECDBFDF91DC
:101FA000CF911F910F91FF90EF90DF90CF90089508
:101FB000CF93DF9383B78E7F83BF809177030E9497
:101FC000A00368DFFC014181442389F16091500541
:101FD00070E0EB012196C770DD2720914F052C178B
:101FE00029F151E2569F9001579F300D1124F901BC
:101FF000E95BFB4F108250E04F5F5F4FBC016F5FAA
:102000007F4FC901885B9B4F0E94F91CC09350050C
:10201000F894809150058F5F877090914F05789468
:10202000891305C080E0DF91CF9122CEFFCFDF91F1
:10203000CF910895262F269526952695820F911DDE
:10204000FC01818990E0677002C0959587956A953B
:10205000E2F781700895CF93DF93FC01AEE7B6E01D
:1020600080E090E0EF01C80FD91F198A198E1D92E8
:10207000019688309105B1F710928B0610928A066E
:1020800010928906109288068FEF809393068093B2
:1020900092068093910610928F0610928E061092EF
:1020A0008D0610928C06109287061092860610926A
:1020B0007D061092950610929406808191819093EE
:1020C000BC068093BB0682818093BA06838194818B
:1020D0009093B9068093B80685818093B706DF9107
:1020E000CF912BCE87E996E0E5D086E996E08DCEBC
:1020F000CF93DF93CDB7DEB766970FB6F894DEBF08
:102100000FBECDBFCA01E091BB06F091BC0633E023
:10211000639FE00DF11D1124339730813130B9F404
:102120002531A8F46983422F50E0BC01CE0102960C
:102130002E8B0E94F91C2E89422FBE016F5F7F4FAC
:1021400087E996E0BDD086E996E05FDE01C080E0D9
:1021500066960FB6F894DEBF0FBECDBFDF91CF916C
:102160000895CF93DF9300D000D0CDB7DEB79A8328
:1021700089837C836B83BE016F5F7F4F87E996E025
:10218000B0D086E996E041DE0F900F900F900F904F
:10219000DF91CF9108951F93CF93DF93CDB7DEB733
:1021A00065970FB6F894DEBF0FBECDBF142FE09138
:1021B000BB06F091BC0693E0899FE00DF11D112450
:1021C0003397218132812230310519F024303105D5
:1021D000B1F41531A0F48983412F50E0CE0102966D
:1021E0000E94F91C412FBE016F5F7F4F87E996E087
:1021F0008CD01092900686E996E007DE01C080E060
:1022000065960FB6F894DEBF0FBECDBFDF91CF91BC
:102210001F91089587E996E089D086E996E0F5CD8B
:102220000F931F93CF93DF93EC018B01CB0143DD21
:10223000F8019281983839F0993851F19638A9F51A
:1022400020E030E017C020E030E00F5F1F4FD801E2
:10225000A20FB31F12969C911297FE01E20FF31F7B
:10226000918B1A969C91918F2F5F3F4F28303105AB
:1022700071F71BC0FE01E20FF31F118A118E2F5F51
:102280003F4F28303105B1F719A29F819A870DC0C1
:10229000F801238134813C872B87258136813E8755
:1022A0002D8727813085388B2F87DF91CF911F9124
:1022B0000F91089521E0FC01208329E021830895F6
:1022C00022E0240FDC012C932DE011962C93119722
:1022D000FB01219112962C9350E0BF0103960C94C0
:1022E000F91CFC01DB0185E080838FE0818311967E
:1022F0008C91119783838C91828313968C91139781
:10230000858312968C918483089522E0240FDC014A
:102310002C9325E111962C931197FB012191129694
:102320002C9350E0BF0103960C94F91C21E0FC01B2
:10233000208323E1218308950895FC01658B08958E
:102340000F931F93CF93DF938C01EB0188E2FB0186
:1023500011928A95E9F74BE050E066E272E0CE0117
:102360000E94091D1B8641E050E060E070E04C8750
:102370005D876E877F87F8010785108921893289FB
:10238000088B198B2A8B3B8B4C8B5D8B6E8B7F8BD9
:102390001CA21DA21EA21FA2188E198E1A8E1B8EA1
:1023A0001C8E1D8E1E8E1F8E18A219A21AA21BA291
:1023B000DF91CF911F910F9108950F931F93CF93AA
:1023C000DF938C01EB0188E2FB0111928A95E9F71A
:1023D0004BE050E066E272E0CE010E94091D1B86D0
:1023E00041E050E060E070E04C875D876E877F875A
:1023F000F8014189528963897489488B598B6A8BAA
:102400007B8B42E050E060E070E04C8B5D8B6E8B2C
:102410007F8B1CA21DA21EA21FA2188E198E1A8EBF
:102420001B8E1C8E1D8E1E8E1F8E18A219A21AA224
:102430001BA2DF91CF911F910F910895DC01ED91C7
:10244000FC910190F081E02D099421E332E0FC0140
:10245000318320834787508B618B728B0895FC01F9
:102460008BE392E091838083418B528B638B748BDF
:10247000158A0895CF93DF9300D0CDB7DEB78EEBEA
:1024800096E02A8349839CD44981642F8EEB96E0A1
:1024900042D42A81622F8EEB96E03DD48EEB96E0FB
:1024A0000F900F90DF91CF91A7C40F931F93CF93FD
:1024B000DF938C01EB01262F41E06EE1DBDFF801B9
:1024C000D483C383C038D10509F45BC0DCF4C034C5
:1024D000D105A9F1C036D10509F442C0A09709F091
:1024E0008AC080E090E8A9E8B4E480931F0190934B
:1024F0002001A0932101B093220180E090E0A5E7A4
:10250000B4E471C0C03CD10509F44CC0C03ED10553
:1025100009F459C0C03AD10509F06DC080E090E0DF
:10252000A8ECB3E480931F0190932001A0932101B4
:10253000B093220180E090E8A1EBB3E454C080E0C6
:1025400090ECA5E5B4E480931F0190932001A09343
:102550002101B093220180E090E0AEE3B4E443C0F7
:1025600080E090E8A7E2B4E480931F0190932001FB
:10257000A0932101B093220180E090E0A6E1B4E4B1
:1025800032C080E090E0A1EEB3E480931F0190930D
:102590002001A0932101B093220180E090E0A8ECFB
:1025A000B3E421C080E090E0A5EAB3E480931F018A
:1025B00090932001A0932101B093220180E090E844
:1025C000A3E9B3E410C080E090E0A6E6B3E4809312
:1025D0001F0190932001A0932101B093220180E07C
:1025E00090E0ADE4B3E480931B0190931C01A093B1
:1025F0001D01B0931E01DF91CF911F910F9108959E
:102600001F93CF93DF931F92CDB7DEB7162F8EEBBC
:1026100096E04983D5D34981642F8EEB96E07BD336
:102620008EEB96E0E9D341E0612F8EEB96E0C6D3C6
:102630008EEB96E021D3182F8EEB96E0DDD3812F21
:102640000F90DF91CF911F910895CF93DF93EC010D
:102650008EEB96E09ED320E042E06EE1CE010ADFF1
:1026600040E06EE1CE01CCDF803131F460E270E019
:10267000CE011BDF81E001C080E0DF91CF910895A2
:102680006F927F928F929F92AF92BF92CF92DF9282
:10269000EF92FF920F931F93CF93DF93EC0169E1C9
:1026A0008EEB96E08DD368EA70E08EEB96E0C6DEA6
:1026B0008EEB96E0A1D346E069E18EEB96E07ED307
:1026C0008EEB96E0D1D20697DCF38EEB96E0D4D277
:1026D000782E8EEB96E0D0D2682E8EEB96E0CCD2A0
:1026E000982E8EEB96E0C8D2882E8EEB96E0C4D260
:1026F000D82E8EEB96E0C0D2C82EB62CA12CA728DF
:1027000084E0B594A7948A95E1F7B501882777FD11
:102710008095982F64D66B837C838D839E83F82C61
:10272000E12CE92894E0F594E7949A95E1F7B70154
:10273000882777FD8095982F52D66F837887898771
:102740009A871C2D00E00D2924E0159507952A9500
:10275000E1F7B801882777FD8095982F40D66B87E1
:102760007C878D879E87DF91CF911F910F91FF907E
:10277000EF90DF90CF90BF90AF909F908F907F9021
:102780006F9008950F931F93CF93DF938C01EB010C
:1027900084E2FB0111928A95E9F7C80171DF84E2B6
:1027A00090E0A0E0B0E088839983AA83BB83F8011E
:1027B00087859089A189B2898C839D83AE83BF83ED
:1027C00081E090E0A0E0B0E088879987AA87BB8786
:1027D0000E945404688B798B8A8B9B8B2FE632E1A5
:1027E00043E85AE3F8016381748185819681ABD611
:1027F0002AE038EE4CE151E4A6D66C8B7D8B8E8BB3
:102800009F8B2FE632E143E85AE3F8016781708538
:102810008185928598D62AE038EE4CE151E493D632
:10282000688F798F8A8F9B8F2FE632E143E85AE3D6
:10283000F801638574858585968585D62AE038EE0E
:102840004CE151E480D66C8F7D8F8E8F9F8F81E01D
:10285000DF91CF911F910F9108956F927F928F9288
:102860009F92AF92BF92CF92DF92EF92FF920F931F
:102870001F93CF93DF93EC016EE18EEB96E0A0D235
:1028800063E070E08EEB96E0D9DD8EEB96E0B4D29B
:1028900046E06EE18EEB96E091D28EEB96E0E4D1CD
:1028A0000697DCF38EEB96E0E7D1682E8EEB96E090
:1028B000E3D1782E8EEB96E0DFD1C82E8EEB96E03A
:1028C000DBD1D82E8EEB96E0D7D1882E8EEB96E01A
:1028D000D3D1982EB62CA12CA728B501882777FD37
:1028E0008095982F7CD56D837E838F839887F82C75
:1028F000E12CE928B701882777FD8095982F6FD5BF
:1029000069877A878B879C871C2D00E00D29B80189
:10291000882777FD8095982F62D56D877E878F8772
:10292000988BDF91CF911F910F91FF90EF90DF90E7
:10293000CF90BF90AF909F908F907F906F900895B1
:102940002F923F924F925F926F927F928F929F92BF
:10295000AF92BF92CF92DF92EF92FF920F931F93AD
:10296000CF93DF93EC018B0184E2FB0111928A95F6
:10297000E9F749E06EE1CE0143DE80FFE5C0CE011C
:102980006CDF8D89882309F47CC04D805E806F8068
:10299000788489849A84AB84BC84CD84DE84EF847B
:1029A000F8882224239420E030E04FEF54ECC30158
:1029B000B201A7D418160CF4212C3324339420E050
:1029C00030E04FEF54E4C301B201B9D587FD312C9B
:1029D00032286624639420E030E04FEF54E4C501D0
:1029E000B401ADD587FD612C63287724739420E072
:1029F00030E04FEF54ECC501B40183D418160CF449
:102A0000712C7628BB24B39420E030E04FEF54E4DF
:102A1000C701B60194D587FDB12C7B2849F420E08D
:102A200030E04FEF54ECC701B6016BD418164CF1EF
:102A30008B819C8180369105E1F04CF480329105C8
:102A4000D9F080349105E9F460E670E017C0803A6F
:102A5000910561F0803C910531F08038910589F451
:102A600060EA70E00BC060EE70E008C060EC70E0FF
:102A700005C060E870E002C060E470E0CE0115DDE2
:102A800078CF84E290E0A0E0B0E0F8018083918309
:102A9000A283B38389899A89AB89BC89848395830E
:102AA000A683B78382E090E0A0E0B0E080879187C2
:102AB000A287B3870E945404F801608B718B828BCC
:102AC000938BC0901F01D0902001E0902101F090E5
:102AD0002201A70196016D817E818F81988515D491
:102AE00020E030E048EC52E42ED5F801648B758B81
:102AF000868B978BA701960169857A858B859C8546
:102B000004D420E030E048EC52E41DD5F801608F99
:102B1000718F828F938F20911B0130911C01409106
:102B20001D0150911E016D857E858F859889EDD39D
:102B300020E030E048EC52E406D5F801648F758F50
:102B4000868F978F81E001C080E0DF91CF911F9148
:102B50000F91FF90EF90DF90CF90BF90AF909F903C
:102B60008F907F906F905F904F903F902F9008953F
:102B700008954F925F926F927F92AF92BF92CF92E1
:102B8000DF92EF92FF920F931F93CF93DF93CDB716
:102B9000DEB729013A01621B730B840B950B29895F
:102BA0003A894B895C892A193B094C095D09298BB3
:102BB0003A8B4B8B5C8B9B01AC0169897A898B8941
:102BC0009C8927D3E418F50806091709A80197017D
:102BD0005DD32A0D3B1D4C1D5D1DCA01B901DF915E
:102BE000CF911F910F91FF90EF90DF90CF90BF900A
:102BF000AF907F906F905F904F900895CF93CFB735
:102C0000F8948091BD06811127C0E4EBF0E0849137
:102C1000E0EAF0E09491E82FF0E0EE0FFF1FE853B8
:102C2000FF4FA591B4918C91892321F461E08AE052
:102C30000E94450561E08AE00E940C058CB5806128
:102C40008CBD8CB580648CBD61E08DE00E940C056C
:102C500061E08BE00E940C058091BD068F5F809340
:102C6000BD06CFBFCF9108958091EE0690E02091F0
:102C7000EF06821B910908952091EF068091EE06E0
:102C8000281750F4E22FF0E0E051F94F808190E0F6
:102C90002F5F2093EF0608958FEF9FEF0895E09147
:102CA000EF068091EE06E81730F4F0E0E051F94FBE
:102CB000808190E008958FEF9FEF08950895CF925F
:102CC000DF92EF92FF920F931F93CF93DF937C01DC
:102CD000CB018A012091CA06222389F0EB016B0106
:102CE000C40ED51ECC15DD0561F06991D701ED91BB
:102CF000FC910190F081E02DC7010995F3CF642F7D
:102D000035D1C801DF91CF911F910F91FF90EF90C6
:102D1000DF90CF900895CF93DF931F92CDB7DEB7AA
:102D200069832091CA062223D1F02091CB0620325C
:102D300040F021E030E0FC013383228380E090E02A
:102D400014C08091CC06E82FF0E0E353F94F99814D
:102D500090838F5F8093CC068093CB0604C061E0A4
:102D6000CE01019603D181E090E00F90DF91CF91E9
:102D70000895FC011382128248EE53E060E070E097
:102D8000448355836683778385E492E091838083CF
:102D900008951092EF061092EE061092CC06109253
:102DA000CB062FC0862F413208F040E260EF76E07C
:102DB00046D01092EF068093EE06089521E0F2CF00
:102DC00081E08093CA066093ED061092CC061092C3
:102DD000CB0608950F93062F21E04091CB066DECB2
:102DE00076E08091ED066FD01092CC061092CB0663
:102DF0001092CA060F91089561E0ECCF8EEB96E039
:102E0000B8CF10927D0781E080937B0710927A07FC
:102E100061E082E10E94450561E083E10E94450591
:102E2000E9EBF0E080818E7F808380818D7F8083DD
:102E300088E48093B80085E48093BC000895413213
:102E400008F03FC090917D079111FCCF91E09093E5
:102E50007D0720937B072FEF2093100710925507D3
:102E6000240F2093540790937C0790917C07880F40
:102E7000892B80937C0780917A07813041F41092EE
:102E80007A0780917C078093BB0085EC01C085EEBA
:102E90008093BC0080917D078130E1F380915507DC
:102EA000841710F44091550726E537E0FB01D9015E
:102EB0008A2F821B841718F48D918193F9CF842F68
:102EC000089580E008950F93413208F046C0909134
:102ED0007D079111FCCF92E090937D0700937B07D3
:102EE0009FEF909310071092550740935407FB01F2
:102EF00066E577E0DB019A2F961B941718F4919101
:102F00009D93F9CF10927C0790917C07880F892BB5
:102F100080937C0780917A07813041F410927A0780
:102F200080917C078093BB0085EC01C085EE809387
:102F3000BC00222321F080917D078230E1F3809153
:102F400010078F3F61F080911007803251F080911F
:102F50001007803341F483E007C081E005C080E0C2
:102F600003C082E001C084E00F910895613298F4BB
:102F700020917D07243089F460933207FC0184E3BB
:102F800097E0DC012A2F281B261718F421912D9396
:102F9000F9CF80E0089581E0089582E0089585EDFD
:102FA0008093BC008091BC0084FDFCCF10927D0713
:102FB000089585EC8093BC0010927D0708951F92C0
:102FC0000F920FB60F9211242F933F934F935F935D
:102FD0006F937F938F939F93AF93BF93EF93FF93E1
:102FE0008091B900887F803609F49CC068F58832EA
:102FF00009F45BC090F4803109F454C038F488239C
:1030000009F4F3C0883009F44DC0F2C0883109F4E6
:103010004CC0803209F45DC0EBC0803409F468C054
:1030200048F4803309F455C0883309F0E1C0809337
:103030001007A7C0803509F44FC0883509F45DC07A
:10304000883409F0D5C0D3C0883909F4C4C0A8F4C5
:10305000883709F467C038F4883609F463C08037CC
:1030600009F460C0C5C0883809F4B5C0803909F4D6
:103070005FC0803809F0BCC05BC0803B09F483C0EE
:1030800038F4803A09F466C0883A09F47CC0B0C0CC
:10309000803C09F4A4C0883C09F4A1C0883B09F431
:1030A00087C0A6C080917C0710C090915507809181
:1030B0005407981770F5E091550781E08E0F8093C3
:1030C0005507F0E0EA5AF84F80818093BB0085EC09
:1030D00083C0809310078BC0E091550781E08E0F6D
:1030E000809355078091BB00F0E0EA5AF84F808347
:1030F00090915507809154076BC0E091550781E08E
:103100008E0F809355078091BB00F0E0EA5AF84F8C
:10311000808380917B0781116AC081E080937A0768
:1031200084EA5EC083E080937D0710921107CFCFC1
:1031300080911107803208F04EC0E091110781E0C4
:103140008E0F809311078091BB00F0E0EE5EF84F88
:103150008083BDCF80911107803230F4E091110758
:10316000F0E0EE5EF84F10821ADF6091110770E018
:10317000E0917607F091770782E197E00995109248
:10318000110717DF35C084E080937D071092330765
:1031900010923207E0917807F091790709958091B4
:1031A0003207811105C081E0809332071092340705
:1031B000E091330781E08E0F80933307F0E0EC5C01
:1031C000F84F80818093BB00909133078091320744
:1031D000981708F47CCF85E88093BC0009C085EC83
:1031E0008093BC0010927D0703C010921007D7DEB9
:1031F000FF91EF91BF91AF919F918F917F916F91CF
:103200005F914F913F912F910F900FBE0F901F90A4
:103210001895DB018F939F936AD0BF91AF91A29FC6
:10322000800D911DA39F900DB29F900D11240895C4
:10323000991B79E004C0991F961708F0961B881F08
:103240007A95C9F780950895A1E21A2EAA1BBB1B97
:10325000FD010DC0AA1FBB1FEE1FFF1FA217B30762
:10326000E407F50720F0A21BB30BE40BF50B661F78
:10327000771F881F991F1A9469F76095709580953C
:1032800090959B01AC01BD01CF010895052E97FBE0
:1032900016F400940FD057FD05D0D6DF07FC02D0FE
:1032A00046F408C050954095309521953F4F4F4FBB
:1032B0005F4F089590958095709561957F4F8F4FE2
:1032C0009F4F0895EE0FFF1F0590F491E02D099494
:1032D000A29FB001B39FC001A39F700D811D112457
:1032E000911DB29F700D811D1124911D0895F0DF75
:1032F000A59F900DB49F900DA49F800D911D11244A
:103300000895A8D008F481E008950CD0DEC0D6D08E
:1033100040F0CDD030F021F45F3F19F0BFC0511123
:1033200008C1C2C0E3D098F39923C9F35523B1F380
:10333000951B550BBB27AA2762177307840738F024
:103340009F5F5F4F220F331F441FAA1FA9F333D083
:103350000E2E3AF0E0E830D091505040E695001C37
:10336000CAF729D0FE2F27D0660F771F881FBB1FF3
:10337000261737074807AB07B0E809F0BB0B802DCD
:10338000BF01FF2793585F4F2AF09E3F510568F019
:1033900085C0CFC05F3FECF3983EDCF38695779510
:1033A0006795B795F7959F5FC9F7880F911D96951B
:1033B000879597F90895E1E0660F771F881FBB1F77
:1033C000621773078407BA0720F0621B730B840B24
:1033D000BA0BEE1F88F7E0950895E89409C097FBB3
:1033E0003EF490958095709561957F4F8F4F9F4FDC
:1033F0009923A9F0F92F96E9BB279395F695879520
:1034000077956795B795F111F8CFFAF4BB0F11F4E2
:1034100060FF1BC06F5F7F4F8F4F9F4F16C0882389
:1034200011F096E911C0772321F09EE8872F762FBF
:1034300005C0662371F096E8862F70E060E02AF000
:103440009A95660F771F881FDAF7880F96958795EC
:1034500097F90895990F0008550FAA0BE0E8FEEFC1
:1034600016161706E807F907C0F012161306E40748
:10347000F50798F0621B730B840B950B39F40A2641
:1034800061F0232B242B252B21F408950A2609F41F
:10349000A140A6958FEF811D811D089597F99F6723
:1034A00080E870E060E008959FEF80EC08950024CC
:1034B0000A941616170618060906089500240A9499
:1034C00012161306140605060895092E0394000C1F
:1034D00011F4882352F0BB0F40F4BF2B11F460FFAE
:1034E00004C06F5F7F4F8F4F9F4F089557FD9058D7
:1034F000440F551F59F05F3F71F04795880F97FBB8
:10350000991F61F09F3F79F0879508951216130671
:103510001406551FF2CF4695F1DF08C016161706A0
:103520001806991FF1CF86957105610508940895D5
:10353000E894BB2766277727CB0197F908958ADFA0
:1035400008F48FEF08950BD0C0CFB1DF28F0B6DFBD
:1035500018F0952309F0A2CFA7CF1124EACFC6DF38
:10356000A0F3959FD1F3950F50E0551F629FF00196
:10357000729FBB27F00DB11D639FAA27F00DB11DEF
:10358000AA1F649F6627B00DA11D661F829F222778
:10359000B00DA11D621F739FB00DA11D621F839FFF
:1035A000A00D611D221F749F3327A00D611D231FD5
:1035B000849F600D211D822F762F6A2F11249F5723
:1035C00050408AF0E1F088234AF0EE0FFF1FBB1F46
:1035D000661F771F881F91505040A9F79E3F5105E5
:1035E00070F05CCFA6CF5F3FECF3983EDCF386959E
:1035F00077956795B795F795E7959F5FC1F7FE2B90
:10360000880F911D9695879597F90895CF93DF932D
:103610008230910510F482E090E0E0918007F09113
:10362000810720E030E0A0E0B0E0309739F1408140
:10363000518148175907B8F04817590771F482812A
:103640009381109729F013969C938E9312972CC018
:10365000909381078093800727C02115310531F0B1
:103660004217530718F0A901DB0101C0EF019A01CD
:10367000BD01DF010280F381E02DD7CF2115310597
:10368000F9F0281B390B2430310580F48A819B81A5
:103690006115710521F0FB019383828304C090932F
:1036A000810780938007FE01329644C0FE01E20F3D
:1036B000F31F8193919322503109398328833AC0B3
:1036C00020917E0730917F07232B41F42091020146
:1036D0003091030130937F0720937E0720910001F2
:1036E000309101012115310541F42DB73EB74091CC
:1036F000040150910501241B350BE0917E07F091E8
:103700007F07E217F307A0F42E1B3F0B281739079A
:1037100078F0AC014E5F5F4F2417350748F04E0F2D
:103720005F1F50937F0740937E078193919302C060
:10373000E0E0F0E0CF01DF91CF910895CF93DF93E8
:10374000009709F487C0FC01329713821282C0915E
:103750008007D0918107209781F420813181280F43
:10376000391F80917E0790917F078217930779F523
:10377000F0937F07E0937E076DC0DE0120E030E02C
:10378000AE17BF0750F412964D915C9113979D01AF
:103790004115510509F1DA01F3CFB383A2834081CA
:1037A0005181840F951F8A179B0771F48D919C910D
:1037B0001197840F951F02969183808312968D91A5
:1037C0009C911397938382832115310529F4F093FB
:1037D0008107E09380073EC0D9011396FC93EE93D6
:1037E00012974D915D91A40FB51FEA17FB0779F46D
:1037F00080819181840F951F0296D90111969C9327
:103800008E938281938113969C938E931297E0E01E
:10381000F0E08A819B81009719F0FE01EC01F9CF5D
:10382000CE01029628813981820F931F20917E0755
:1038300030917F072817390769F4309729F41092DF
:1038400081071092800702C013821282D0937F07F3
:10385000C0937E07DF91CF910895A0E0B0E0E2E34E
:10386000FCE1EAC0EC01CB01209711F4CFDEB4C03B
:10387000FE01E60FF71F9E0122503109E217F30700
:1038800008F4A8C0D9010D911C91119706171707CC
:10389000B0F00530110508F49BC0A801445051094F
:1038A0004617570708F494C002501109061B170B5E
:1038B000019311936D937C93CF0140DF89C05B012D
:1038C000A01AB10A4E01800E911EA0918007B091FE
:1038D0008107612C712C60E070E0109709F449C0F9
:1038E000A815B905C9F5ED90FC901197670142E064
:1038F000C40ED11CCA14DB0478F147018A189B0856
:10390000640142E0C40ED11C1296BC90129713962B
:10391000AC91B5E0CB16D10440F0B282A383918282
:103920008082D9018D939C9309C00E5F1F4F0E0DAD
:103930001F1DF90111830083EB2DFA2F611571050D
:1039400031F0DB011396FC93EE93129741C0F09394
:103950008107E09380073CC06D917C9111976616BA
:10396000770608F43B01BD0112960D90BC91A02D85
:10397000B4CF60917E0770917F0768157905E9F4EF
:1039800068167906D0F4409100015091010141156B
:10399000510541F44DB75EB7609104017091050186
:1039A000461B570BE417F507A8F4F0937F07E09345
:1039B0007E07F901918380830BC028DE7C0100978C
:1039C00049F0A801BE0115D0CE01B8DEC70104C080
:1039D000CE0102C080E090E0CDB7DEB7EEE048C097
:1039E000FB01DC0102C005900D9241505040D8F718
:1039F0000895FB01DC0102C001900D92415050403E
:103A0000D8F70895FB01DC0101900D920020E1F749
:103A10000895FB01DC014150504048F001900D92A7
:103A20000020C9F701C01D9241505040E0F70895B1
:103A30002F923F924F925F926F927F928F929F92BE
:103A4000AF92BF92CF92DF92EF92FF920F931F93AC
:103A5000CF93DF93CDB7DEB7CA1BDB0B0FB6F8945D
:103A6000DEBF0FBECDBF09942A88398848885F849D
:103A70006E847D848C849B84AA84B984C884DF800E
:103A8000EE80FD800C811B81AA81B981CE0FD11DF2
:103A90000FB6F894DEBF0FBECDBFED010895F894C8
:023AA000FFCF56
:103AA2000000820720000100000001640000000104
:103AB200800001080001020001800000007544003E
:103AC200808944427574746F6E5072657373656455
:103AD20000426F6F74696E6720002E2E00557000D1
:103AE2005377616767657200446F6F6D732044613D
:103AF2007920576561706F6E00456D6F74696F6EE6
:103B0200730046616369616C205265636F6E69740C
:103B1200696F6E00446F6E65207769746820536523
:103B2200747570007B002C007D20004D41470048D9
:103B3200656164696E675A3A200048656164696E1E
:103B420067593A200048656164696E67583A2000F7
:103B520020200075540044697374616E63653A20D5
:103B6200003C3330204261636B696E6720757000E0
:103B720043757272656E7448656164696E673A2056
:103B8200007475726E696E6720616761696E0052BA
:103B9200696768743A20004C6566743A2000000038
:103BA2000000F6055F077A0593058505D505000037
:103BB20000001B0D5F07A50BB20BDD0BF40B203AC7
:103BC2000020450043004C534D33303300000000C9
:103BD200009C11C213A011000000009D11A014DD71
:103BE20011000000008B165F1634163C164F165E4D
:023BF2001600BB
:00000001FF
