:1000000057C200000C94650A0C94920A79C2000051
:1000100077C2000075C2000073C2000071C2000008
:100020006FC200006DC200006BC200000C94280E6D
:1000300067C2000065C2000063C2000061C2000028
:100040000C94270C5DC20000DFC700000C9436083A
:1000500057C2000055C2000053C2000051C2000048
:100060000C94A01E4DC20000D81091119111F510F2
:100070001E113C1191112C11911169119111561100
:100080006F11084AD73B3BCE016E84BCBFFDC12F28
:100090003D6C74319ABD56833DDA3D00C77F11BE79
:1000A000D9E4BB4C3E916BAAAABE000000803F057C
:1000B000A84CCDB2D44EB93836A9020C50B99186AD
:1000C00088083CA6AAAA2ABE000000803F000000C3
:1000D0000008000201000003040700000000000007
:1000E00000000102040810204080010204081020D2
:1000F000010204081020040404040404040402029D
:1001000002020202030303030303000000002300B2
:100110002600290000000000250028002B00000018
:100120000000240027002A00202050697065204527
:1001300072726F7220436F64653A203078004143D9
:1001400049204576742050697065204572726F723F
:100150003A205069706520233A0045767420436D3B
:100160006420726573706F6E653A204572726F72AB
:100170002E2041726475696E6F20697320696E204C
:10018000616E207768696C652831293B206C6F6F40
:10019000700041434920436F6D6D616E64200045DE
:1001A00072726F7220696E204143492053657475E5
:1001B00070000957726974696E67206F6E652062FE
:1001C000797465203078002030780009577269749E
:1001D000696E67206F757420746F2042544C453AE5
:1001E000000007060000030241D7000000000000E5
:1001F00000000000000000000000000000000000FF
:100200000000001F061000000000000000040004B1
:100210000101000006000090000000000000000046
:10022000000000001F06101C01020000000000007A
:100230000000000000000000000000140000001496
:1002400003900164001F06103802FF0258000500E9
:10025000000000000000000000001000000000008E
:10026000000000000000050610540000000000001F
:10027000000000000000000000000000000000007E
:10028000000000000000001F06200004040202001D
:100290000128000100180404050500022803010ECE
:1002A0000300002A041407001F06201C0400032A70
:1002B0000001554152546963730404050500042884
:1002C0000301020500012A06001F0620380403026C
:1002D00000052A01010000040405050006280301A9
:1002E000020700042A06040908001F06205400071C
:1002F0002A04010600120000000A000404020200A1
:1003000008280001011804041010001F06207000C6
:10031000092800019ECADC240EE5A9E093F3A3B5E9
:100320000100406E04041313000A28001F06208CED
:100330000301040B009ECADC240EE5A9E093F3A39D
:10034000B50200406E44101400000B00001F062090
:10035000A8020200000000000000000000000000F1
:100360000000000000000004041313000C001F062E
:1003700020C4280301100D009ECADC240EE5A9E06C
:1003800093F3A3B50300406E14001400000D001F8A
:100390000620E00003020000000000000000000052
:1003A00000000000000000000000461403020000EE
:1003B0001F0620FC0E290201000004040202000FA7
:1003C0002800010A18040405050010280301021181
:1003D000001906211800272A0404090100112A2700
:1003E000010A000000000000000000000000000002
:1003F00000001F0640002A000100800400030000E6
:10040000000202000804000B0000000302000204C6
:10041000000D000F06401C000E2A2701008004007A
:1004200011000000000000000000000000000000BB
:1004300000000000130650009ECADC240EE5A9E06F
:1004400093F3A3B50000406E000000000000000020
:1004500000000000000F0660000000000000000027
:10046000000000000000000000000000000000008C
:100470000000000000000606F00003D38800000022
:10048000000000000000000000000000000000006C
:10049000000000000000436D642051756575652003
:1004A00046756C6C00002C200000D6046408BF1D4B
:1004B00011241FBECFEFD8E0DEBFCDBF12E0A0E019
:1004C000B1E0EEE8FCE402C005900D92A439B1075A
:1004D000D9F727E0A4E9B2E001C01D92AF3CB20712
:1004E000E1F714E0C0EBD4E004C02297FE010E94C3
:1004F0003820CA3AD107C9F70E941C0C0C94452633
:100500007FCD0F931F93CF93DF9300D000D000D007
:10051000CDB7DEB78C0168E271E0CE0101960E9492
:100520002A0BB801CE0101960E94C80B61E371E06D
:100530000E94D90BBC0184EF92E06CD6CE010196EB
:100540000E94BF0AF80104811581065F1F4F033224
:10055000110574F462E371E084EF92E069D66AEF0A
:1005600070E080E090E00E94A00C0F5F1F4FEFCF83
:1005700084EF92E065D626960FB6F894DEBF0FBEE4
:10058000CDBFDF91CF911F910F910895CF93DF934E
:1005900000D000D000D0CDB7DEB742E050E063E637
:1005A00073E081E062D726E040E855E260E070E069
:1005B00084EF92E0C7D484EF92E042D664E371E026
:1005C000CE0101960E942A0BCE0101969ADFCE0140
:1005D0000196D5D767E371E0CE0101960E942A0B00
:1005E000CE0101968EDFCE010196C9D78AEC92E04A
:1005F0000E94471880EE92E00E940B186FE371E0B2
:10060000CE0101960E942A0BCE0101967ADFCE011F
:100610000196B5D740E550E060E070E084E992E0F3
:100620000E94251261E088E00E94340D60E571E0CF
:10063000CE0101960E942A0BCE01019662DFCE0107
:1006400001969DD764E070E084EC92E00E947B0FFD
:1006500067E070E081EC92E00E947B0F65E070E063
:1006600087EC92E00E947B0F65E570E087EC92E0FA
:100670000E94B30F69E571E0CE010196EBD7CE0180
:1006800001963FDFCE0101967AD76BE671E084EFE9
:1006900092E0CED568EE73E080E090E00E94A00C7E
:1006A00026960FB6F894DEBF0FBECDBFDF91CF9177
:1006B00008958091AE02882311F061E001C060E0EE
:1006C00088E00C946D0D0F931F930E94710C0091A4
:1006D000AF021091B0022091B1023091B202601BC2
:1006E000710B820B930B00910A0110910B01209169
:1006F0000C0130910D01061717072807390798F4E8
:100700008091AE0291E089278093AE026BE771E0A1
:1007100084EF92E08DD56091AE0270E04AE050E047
:1007200084EF92E065D60E94710C6093AF027093E3
:10073000B0028093B1029093B2021F910F91B9CF92
:100740008F929F92AF92BF92CF92DF92EF92FF92E1
:100750000F931F93CF93DF93CDB7DEB768970FB694
:10076000F894DEBF0FBECDBF6C017B010DB71EB785
:100770004091B7025091B8026091B9027091BA02EB
:100780008091BB029091BC02A091BD02B091BE02CB
:100790004A015B01881A990AAA0ABB0A80910E01D4
:1007A00090910F01A0911001B09111018815990548
:1007B000AA05BB0508F05AC04093BB025093BC0287
:1007C0006093BD027093BE0269E871E084EF92E02D
:1007D00059D54AE0B601CE01019684D74AE0B70167
:1007E000CE010D967FD765EE71E0CE01079632D728
:1007F000BE01635F7F4FCE010796CAD76EE871E0F6
:10080000D8D7BE016F5F7F4FC3D760E971E0D1D702
:10081000BC01CE01439648D7CE010796B0D6CE0193
:100820000D96ADD6CE010196AAD64F89588D8DB7BB
:100830009EB7841B950B0FB6F8949EBF0FBE8DBF5D
:1008400001967C0120E030E0BC01CE014396C9D77F
:100850004F89B70184E992E00E949411CE0143963A
:100860008ED60FB6F8941EBF0FBE0DBF0FB6F8940C
:100870001EBF0FBE0DBF68960FB6F894DEBF0FBE49
:10088000CDBFDF91CF911F910F91FF90EF90DF903F
:10089000CF90BF90AF909F908F9008958617970745
:1008A00034F4681B790B653B71054CF00EC068177A
:1008B000790744F4861B970B853B910534F087EA52
:1008C00090E0089584E690E0089581E090E0089536
:1008D00061E086E00E94340D60E086E00E946D0DCC
:1008E00082E090E00E94C50C61E086E00E946D0D00
:1008F00085E090E00E94C50C60E086E00E94340D27
:1009000020E432E44FE050E061E086E00E94A20D76
:10091000CB016AE370E00E94E51FCB010895CF93FD
:10092000DF93EB01BC0181EC92E00E94800FBE01DD
:1009300084EC92E0DF91CF910C94800F84E992E0F7
:100940000E94BF1084E992E00E948E109093C00232
:100950008093BF02209112013091130182179307F7
:1009600021F18538910589F48091B7029091B80200
:10097000A091B902B091BA028093B3029093B402ED
:10098000A093B502B093B60208C08638910529F449
:100990006CED75E08CED95E0C2DF8091BF02909127
:1009A000C0029093130180931201089583EF92E0A7
:1009B0000E94EC1A4DE556E760E070E080EE92E0B0
:1009C0000E94F0164EE556E760E070E08AEC92E097
:1009D0000E94FA1687EC92E00E94E20E84EC92E00C
:1009E0000E94E20E81EC92E00E94E20E7AD76093C0
:1009F000B7027093B8028093B9029093BA0229E0CB
:100A000042E06AE084E992E00C949210CF93DF9385
:100A1000CDB7DEB7C855D1090FB6F894DEBF0FBE0B
:100A2000CDBFBE016B5D7F4F8AEC92E00E94CE1974
:100A3000BE016F5F7F4F80EE92E00E94E7189E013B
:100A40002F5F3F4FAE014B5D5F4F63E070E083EF80
:100A500092E00E94ED1A811103C08FEF9FEF17C043
:100A60009E01275B3F4FAE014B5D5F4F63E070E03F
:100A700083EF92E00E94171C882379F365966CAD92
:100A80007DAD8EAD9FAD65970E949F21CB01C85A69
:100A9000DF4F0FB6F894DEBF0FBECDBFDF91CF9111
:100AA0000895CF92DF92EF92FF920F931F93CF930F
:100AB000DF93CDB7DEB72A970FB6F894DEBF0FBE2F
:100AC000CDBF7E018BE0E80EF11C8E010F5F1F4F42
:100AD0009DDFF801819391938F0168EC70E080E0D5
:100AE00090E02ED70E151F0599F76BED71E084EF9E
:100AF00092E09ED3CC24C394D12CCC0EDD1EF8E022
:100B0000CF0ED11C8E010F5F1F4FF80161917191C3
:100B10008F014AE050E084EF92E063D467EE71E029
:100B200084EF92E085D30C151D0579F769857A85E8
:100B30004AE050E084EF92E054D46AEE71E084EF32
:100B400092E0A0D3FE01319680E090E021913191B6
:100B5000820F931FEE15FF05C9F765E070E00E9454
:100B6000E51FCB012A960FB6F894DEBF0FBECDBFAE
:100B7000DF91CF911F910F91FF90EF90DF90CF9079
:100B800008953F924F925F926F927F928F929F92C1
:100B9000AF92BF92CF92DF92EF92FF920F931F938B
:100BA000CF93DF938C017DDFB80178DE7C0158E5BF
:100BB000C52E52E0D52E28018AE0481A5108380186
:100BC0008AE0680E711C580182E0A81AB108480139
:100BD00082E0880E911C81E0E816F10489F468E057
:100BE00077E080EB94E09BDEB601882777FD809567
:100BF000982FA6D66CED75E08CED95E090DE17C0D1
:100C000087EAE816F10499F460EB74E088E097E075
:100C100086DEB601882777FD8095982F91D66CEDFA
:100C200075E08CED95E07BDE3324339407C03324EC
:100C3000339484E6E816F10409F4312C68EE73E08D
:100C400080E090E07DD62DDFEC0163E971E084EF78
:100C500092E0EED24AE050E0BE0184EF92E0C8D3C9
:100C60006DEF71E084EF92E0E3D24AE050E0B8012A
:100C700084EF92E0BDD3B801CE0110DE7C01C41533
:100C8000D50534F06C167D061CF044E6C42ED12C3C
:100C9000CA15DB057CF08C169D0664F06CEE71E0E5
:100CA00084EF92E0C5D24AE050E0BE0184EF92E0CA
:100CB0009FD3312C43DE8091BF029091C0028538D2
:100CC000910519F405DEBE013BDD311084CFDF91C3
:100CD000CF911F910F91FF90EF90DF90CF90BF9039
:100CE000AF909F908F907F906F905F904F903F90CC
:100CF000089587E591E045DF64EA76E084EA96E0CE
:100D00000EDE68EE73E080E090E01AD66CED75E0E0
:100D10008CED95E004DE88E890E033DF64EA76E06D
:100D200084EA96E0FCDD68EE73E080E090E008D6AF
:100D30006CED75E08CED95E0F2DD86EE90E021DF64
:100D400064EA76E084EA96E0EADD68EE73E080E04B
:100D500090E0F6D56CED75E08CED95E0E0DD8DE191
:100D600091E00FDF64EA76E084EA96E0D8DD68EE91
:100D700073E080E090E0E4D56CED75E08CED95E0FB
:100D8000CECDB7CFFC01818D228D90E0805C9F4F4E
:100D9000821B91098F7399270895FC01918D828D93
:100DA000981731F0828DE80FF11D858D90E0089540
:100DB0008FEF9FEF0895FC01918D828D981761F060
:100DC000828DDF01A80FB11D5D968C91928D9F5F82
:100DD0009F73928F90E008958FEF9FEF08958BE5BA
:100DE00098E0892B41F080E090E0892B21F063D1DD
:100DF00081110C9400000895FC01848DDF01A80F7F
:100E0000B11DA35ABF4F2C91848D90E001968F7332
:100E10009927848FA689B7892C93A089B1898C9151
:100E200080648C93938D848D981306C00288F38917
:100E3000E02D80818F7D80830895CF93DF93EC0137
:100E4000888D8823C1F0EA89FB89808185FD05C0F2
:100E5000A889B9898C9186FD0EC00FB607FCF5CF25
:100E6000808185FFF2CFA889B9898C9185FFEDCF6C
:100E7000CE01C2DFE8CFDF91CF910895CF92DF920C
:100E8000FF920F931F93CF93DF931F92CDB7DEB7DF
:100E90006C01DC015B969C915B975C968C915C97F6
:100EA000981307C05096ED91FC915197808185FD74
:100EB00031C0F601038D10E00F5F1F4F0F73112734
:100EC000F02EF601848DF81210C00FB607FCF9CF92
:100ED000D6015096ED91FC915197808185FFF1CF1D
:100EE000C601698389DF6981ECCF838DE80FF11D2D
:100EF000E35AFF4F6083D6015B960C935B97529643
:100F0000ED91FC91539780818062808381E05896B7
:100F10008C930DC0D6015696ED91FC915797608346
:100F20005096ED91FC91519780818064808381E09F
:100F300090E00F90DF91CF911F910F91FF90DF9084
:100F4000CF900895BF92CF92DF92EF92FF92CF930E
:100F5000DF93EC016A017B01B22EE889F98982E016
:100F60008083411581EE580761057105A1F060E0AD
:100F700079E08DE390E0A70196010E94F81F2150CF
:100F800031094109510956954795379527952115FE
:100F900080E1380798F0E889F989108260E874E800
:100FA0008EE190E0A70196010E94F81F21503109BF
:100FB000410951095695479537952795EC85FD854B
:100FC0003083EE85FF852083188EEC89FD89B08201
:100FD000EA89FB89808180618083EA89FB8980813D
:100FE00088608083EA89FB89808180688083EA89C0
:100FF000FB8980818F7D8083DF91CF91FF90EF907F
:10100000DF90CF90BF9008951F920F920FB60F926E
:1010100011242F938F939F93EF93FF93E0910403F9
:10102000F09105038081E0910A03F0910B0382FDAA
:1010300012C0908180910D038F5F8F7320910E03FA
:10104000821751F0E0910D03F0E0EC50FD4F958FC9
:1010500080930D0301C08081FF91EF919F918F914B
:101060002F910F900FBE0F901F9018951F920F9207
:101070000FB60F9211242F933F934F935F936F936B
:101080007F938F939F93AF93BF93EF93FF9384EFDF
:1010900092E0B2DEFF91EF91BF91AF919F918F915E
:1010A0007F916F915F914F913F912F910F900FBE64
:1010B0000F901F90189584EF92E064DE21E0892B59
:1010C00009F420E0822F08951092F7021092F602A0
:1010D00088EE93E0A0E0B0E08093F8029093F902EC
:1010E000A093FA02B093FB0284E492E09093F5029D
:1010F0008093F40285EC90E09093010380930003C9
:1011000084EC90E0909303038093020380EC90E0E2
:10111000909305038093040381EC90E09093070380
:101120008093060382EC90E0909309038093080378
:1011300086EC90E090930B0380930A0310920D03CA
:1011400010920E0310920F03109210030895CF9285
:10115000DF92EF92FF920F931F93CF93DF936C0177
:101160007A01EB01E60EF71E00E010E0CE15DF0578
:1011700061F06991D601ED91FC910190F081E02D33
:10118000C6010995080F191FF1CFC801DF91CF9152
:101190001F910F91FF90EF90DF90CF900895611510
:1011A000710581F0DB010D900020E9F7AD014150A0
:1011B0005109461B570BDC01ED91FC910280F38134
:1011C000E02D099480E090E00895EF92FF920F9354
:1011D0001F93CF93DF938C01FB01C0E0D0E06491BB
:1011E0007F018FEFE81AF80A662361F0D801ED91CC
:1011F000FC910190F081E02DC8010995C80FD91F1D
:10120000F701EDCFCE01DF91CF911F910F91FF90AC
:10121000EF900895DC01ED91FC91DB0114964D9166
:101220005C9115976D917C910280F381E02D09947A
:10123000B6CFDC01ED91FC910190F081E02D099495
:101240000F931F93CF93DF93EC016DE0F2DF8C01DE
:101250006AE0CE01EEDF800F911FDF91CF911F91E9
:101260000F9108950F931F93CF93DF93EC01ADDFA0
:101270008C01CE01E5DF800F911FDF91CF911F918F
:101280000F9108950F931F93CF93DF93EC0187DFA6
:101290008C01CE01D5DF800F911FDF91CF911F917F
:1012A0000F9108958F929F92AF92BF92CF92DF924B
:1012B000EF92FF920F931F93CF93DF93CDB7DEB7DB
:1012C000A1970FB6F894DEBF0FBECDBF7C01C42E30
:1012D000E52FCB01D22E19A221E02D1510F02AE026
:1012E000D22E8E010F5D1F4F8D2C912CA12CB12C75
:1012F0006C2D7E2FA50194010E94F81F8C2DD29E8B
:1013000080191124015011098A3014F4805D01C044
:10131000895CF8018083211531054105510521F0D3
:10132000C22EE32FCA01E4CFB801C70138DFA1966E
:101330000FB6F894DEBF0FBECDBFDF91CF911F91E6
:101340000F91FF90EF90DF90CF90BF90AF909F9064
:101350008F900895CF92DF92EF92FF920F931F9399
:10136000CF93DF93EC016A017B012115310579F4FC
:10137000E881F9810190F081E02D642FDF91CF9118
:101380001F910F91FF90EF90DF90CF9009942A303A
:101390003105D9F477FF18C06DE24BDF8C0144278B
:1013A0005527BA014C195D096E097F092AE0CE0163
:1013B00079DF800F911FDF91CF911F910F91FF90E7
:1013C000EF90DF90CF9008952AE0B701A601CE01FB
:1013D000DF91CF911F910F91FF90EF90DF90CF9011
:1013E00061CF9A01AB01662757FD6095762FB2CF8A
:1013F0000F931F93CF93DF93EC019A01AB01662704
:1014000057FD6095762FA6DF8C01CE0119DF800F86
:10141000911FDF91CF911F910F91089521153105F3
:1014200041F4DC01ED91FC910190F081E02D642FFD
:10143000099438CF9A01462F50E060E070E0EECF7B
:101440000F931F93CF93DF93EC019A01462F50E047
:1014500060E070E0E3DF8C01CE01F2DE800F911FCF
:10146000DF91CF911F910F9108958230E8F4E82F1A
:10147000F0E0EE0FFF1FEF56FC4F71836083813069
:1014800041F0809169008C7F842B80936900E89AF9
:10149000089580916900440F551F440F551F837FA5
:1014A000842B80936900E99A0895823068F4813032
:1014B00011F0E89801C0E998E82FF0E0EE0FFF1F67
:1014C000EF56FC4F1182108208951F920F920FB6B3
:1014D0000F9211242F933F934F935F936F937F93BA
:1014E0008F939F93AF93BF93EF93FF93809191035B
:1014F00090919203892B29F0E0919103F09192034E
:101500000995FF91EF91BF91AF919F918F917F913D
:101510006F915F914F913F912F910F900FBE0F9060
:101520001F9018951F920F920FB60F9211242F93B0
:101530003F934F935F936F937F938F939F93AF935B
:10154000BF93EF93FF938091930390919403892B22
:1015500029F0E0919303F09194030995FF91EF91A5
:10156000BF91AF919F918F917F916F915F914F91BB
:101570003F912F910F900FBE0F901F901895FC0177
:10158000808191810C945724CF93DF93EC01888163
:101590009981009711F00E945724198218821D82A8
:1015A0001C821B821A82DF91CF9108950F931F93A3
:1015B000CF93DF93EC018B016F5F7F4F888199811F
:1015C0000E94E624009731F0998388831B830A8365
:1015D00081E001C080E0DF91CF911F910F910895CC
:1015E000CF93DF93EC0188819981892B29F08A813F
:1015F0009B818617970758F4CE01D8DF882341F0E6
:101600008C819D81892B19F4E881F981108281E018
:10161000DF91CF910895EF92FF920F931F93CF9395
:10162000DF93EC017B018A01BA01DADF811103C08B
:10163000CE01AADF07C01D830C83B7018881998181
:101640000E94BB25CE01DF91CF911F910F91FF909A
:10165000EF900895FC01118210821382128215828C
:1016600014826115710551F0FB0101900020E9F72A
:10167000AF0141505109461B570BCDCF0895CF9371
:10168000DF93EC01FB018617970751F060817181B0
:101690006115710521F044815581BDDF01C074DF02
:1016A000CE01DF91CF910895FC0111821082138247
:1016B000128215821482E3CFCF93DF93EC01611580
:1016C000710559F0FB0101900020E9F7AF0141508D
:1016D0005109461B570B9FDF01C056DFCE01DF913A
:1016E000CF9108950F931F93CF93DF93CDB7DEB7BC
:1016F00062970FB6F894DEBF0FBECDBF8C01CB0151
:10170000F80111821082138212821582148250E035
:10171000BE016F5F7F4F0E94D125BE016F5F7F4F7B
:10172000C801CADF62960FB6F894DEBF0FBECDBF08
:10173000DF91CF911F910F910895EF92FF920F9338
:101740001F93CF93DF93EC017B010C811D81611509
:10175000710511F480E015C04115510589F0040FA1
:10176000151FB8013DDF8823A9F3288139818C81B9
:101770009D81B701820F931F0E94BB251D830C839F
:1017800081E0DF91CF911F910F91FF90EF9008952D
:10179000CF93DF93EC01FB0144815581608171811E
:1017A000CCDF811102C0CE01EFDECE01DF91CF91FF
:1017B0000895CF93DF93EC016115710561F0FB0192
:1017C00001900020E9F7AF0141505109461B570B2A
:1017D000B4DF811102C0CE01D7DECE01DF91CF91FF
:1017E00008950F931F93CF93DF93EB01411551059C
:1017F000E9F02097D9F0FC0164817581261737073D
:10180000A0F4621B730B8A01015011096017710764
:1018100008F48B01FC0160817181620F731FA801C4
:10182000CE010E94C225C00FD11F1882DF91CF9137
:101830001F910F9108950895B3D0FDDF0E94C60255
:10184000CFEED6E09EDA2097E9F3C9DAFBCF1F92FC
:101850000F920FB60F9211242F933F938F939F9364
:10186000AF93BF938091960390919703A0919803B3
:10187000B09199033091950323E0230F2D3720F485
:101880000196A11DB11D05C026E8230F0296A11DDA
:10189000B11D209395038093960390939703A09393
:1018A0009803B093990380919A0390919B03A09120
:1018B0009C03B0919D030196A11DB11D80939A03D5
:1018C00090939B03A0939C03B0939D03BF91AF9112
:1018D0009F918F913F912F910F900FBE0F901F906E
:1018E00018952FB7F89460919603709197038091A3
:1018F0009803909199032FBF08953FB7F894809172
:101900009A0390919B03A0919C03B0919D0326B5EF
:10191000A89B05C02F3F19F00196A11DB11D3FBF27
:101920006627782F892F9A2F620F711D811D911DB7
:1019300042E0660F771F881F991F4A95D1F70895D7
:10194000CF92DF92EF92FF92CF93DF936B017C01F6
:10195000D4DFEB01C114D104E104F10479F077D1B3
:10196000CCDF6C1B7D0B683E7340A0F381E0C81A8E
:10197000D108E108F108C851DC4FECCFDF91CF91DD
:10198000FF90EF90DF90CF9008950197009739F086
:10199000880F991F880F991F02970197F1F70895F3
:1019A000789484B5826084BD84B5816084BD85B53A
:1019B000826085BD85B5816085BDEEE6F0E0808101
:1019C00081608083E1E8F0E0108280818260808322
:1019D000808181608083E0E8F0E0808181608083A5
:1019E000E1EBF0E0808184608083E0EBF0E08081D7
:1019F00081608083EAE7F0E0808184608083808179
:101A00008260808380818160808380818068808320
:101A10001092C1000895833081F028F4813099F04C
:101A20008230A1F008958730A9F08830B9F0843071
:101A3000D1F4809180008F7D03C0809180008F77EA
:101A400080938000089584B58F7702C084B58F7D20
:101A500084BD08958091B0008F7703C08091B0005D
:101A60008F7D8093B0000895CF93DF9390E0FC01C9
:101A7000EE51FF4F2491FC01EA50FF4F84918823DF
:101A800049F190E0880F991FFC01E25EFE4FA5919D
:101A9000B4918C5E9E4FFC01C591D4919FB76111AA
:101AA00008C0F8948C91209582238C93888182239E
:101AB0000AC0623051F4F8948C91322F3095832310
:101AC0008C938881822B888304C0F8948C91822B1C
:101AD0008C939FBFDF91CF9108950F931F93CF9366
:101AE000DF931F92CDB7DEB7282F30E0F901E25324
:101AF000FF4F8491F901EE51FF4F1491F901EA5023
:101B0000FF4F04910023C1F0882319F0698383DF1C
:101B10006981E02FF0E0EE0FFF1FEC5EFE4FA59114
:101B2000B4919FB7F8948C91611103C010958123F3
:101B300001C0812B8C939FBF0F90DF91CF911F919C
:101B40000F910895CF92DF92EF92FF920F931F9320
:101B5000CF93DF9390E0FC01EE51FF4FD491FC0155
:101B6000EA50FF4F7491611102C0C0E001C0CD2F57
:101B7000DA01C901BF70672F70E0660F771F665FDB
:101B80007E4F00E010E09801FB01E590F490F70132
:101B900040814D234C131EC0680179014FEFC41AD8
:101BA000D40AE40AF40A081719072A073B0709F4BC
:101BB00042C097018601E8CF68017901FFEFCF1A93
:101BC000DF0AEF0AFF0A081719072A073B0799F1EE
:101BD00097018601FB01E590F490F70140814D23C8
:101BE0004C13EACF801B910BA20BB30B20E030E02B
:101BF000A901FB01E590F490F701F080FD22FC12B1
:101C00000AC0281739074A075B07A9F02F5F3F4F23
:101C10004F4F5F4FEECFA8E1B0E00E944B20605FD6
:101C20007F4F8F4F9F4F24E09695879577956795C7
:101C30002A95D1F703C060E070E0CB01DF91CF912E
:101C40001F910F91FF90EF90DF90CF90089508952E
:101C50001F920F920FB60F9211242F933F934F9321
:101C60005F936F937F938F939F93AF93BF93EF9304
:101C7000FF9380919F0387FF05C01092850010920B
:101C800084001AC020919F03332727FD309580914F
:101C90009E0390E0281739077CF480919F039927D1
:101CA00087FD9095FC01EE0FFF1FE80FF91FE0562E
:101CB000FC4F808186FD15C080919F038F5F8093CC
:101CC0009F0320919F03332727FD309580919E032A
:101CD00090E028173907B4F480919F038C3054F1B9
:101CE00011C080919F03992787FD9095FC01EE0F0D
:101CF000FF1FE80FF91FE056FC4F808160E08F73F3
:101D0000ECDEDACF809184009091850004968034D7
:101D10009C4918F480E49CE905C08091840090916E
:101D20008500049690938900809388008FEF8093BC
:101D30009F0337C0209184003091850080919F03DC
:101D4000992787FD9095FC01EE0FFF1FE80FF91F03
:101D5000E056FC4F81819281820F931F90938900FE
:101D60008093880080919F03992787FD9095FC01BF
:101D7000EE0FFF1FE80FF91FE056FC4F808186FF32
:101D800010C080919F03992787FD9095FC01EE0F6D
:101D9000FF1FE80FF91FE056FC4F808161E08F7351
:101DA0009CDEFF91EF91BF91AF919F918F917F91B9
:101DB0006F915F914F913F912F910F900FBE0F90B8
:101DC0001F90189520919E032C30A0F431E0320F23
:101DD00030939E03FC012083822F90E0FC01EE0FE4
:101DE000FF1FE80FF91FE056FC4F88EB9BE0928342
:101DF000818308952FEFFC0120830895DF92EF92F5
:101E0000FF920F931F93CF93DF93EC01D62E7A01AD
:101E1000890188818C3008F065C061E08D2D24DE59
:101E20008881A82FB0E0FD01EE0FFF1FEA0FFB1F16
:101E3000E056FC4F2D2D2F739081907C922B908338
:101E400060E272E06E197F0977FF02C06D5F7F4F1D
:101E50007595679575956795698340E659E0401BD0
:101E6000510B57FF02C04D5F5F4F559547955595F4
:101E700047954A836CE00E94D91F9CE0899FB0017E
:101E8000112420E030E0A901460F571FFA01EE0FA0
:101E9000FF1FE40FF51FE056FC4F908196FD16C022
:101EA0002F5F3F4F2C30310571F781110FC0109219
:101EB000800082E08093810010928500109284005F
:101EC000B19A80916F00826080936F00888190E06A
:101ED000FC01EE0FFF1FE80FF91FE056FC4F808159
:101EE000806480838881DF91CF911F910F91FF9053
:101EF000EF90DF90089520E639E040E252E07ECF97
:101F0000FC0180818C3070F5918128E830E0291B3C
:101F1000310997FD3395220F331F220F331F6217AC
:101F200073077CF0928128E532E0291B310997FD87
:101F30003395220F331F220F331F621773070CF4E0
:101F40009B0122503109220F331F4FB7F89490E0C4
:101F5000FC01EE0FFF1FE80FF91FE056FC4F328324
:101F600021834FBF08954F925F926F927F92AF92FD
:101F7000BF92CF92DF92EF92FF920F931F93CF9376
:101F8000DF93EC01603282E078070CF040C077FD0F
:101F900006C0653B71052CF064EB70E002C060E0A8
:101FA00070E0898128E830E0281B310987FD3395EE
:101FB000220F331F220F331F5901CC24B7FCC094CA
:101FC000DC2C882777FD8095982F2A8148E552E000
:101FD000421B510927FD5395440F551F440F551FB0
:101FE0002A01662457FC6094762C7F926F925F9250
:101FF0004F9214EBE12EF12C00E010E020E030E0F5
:10200000A9010E947A1C0F900F900F900F90CE01A3
:10201000DF91CF911F910F91FF90EF90DF90CF90C4
:10202000BF90AF907F906F905F904F9069CF8091FD
:10203000CA039091CB032091C8033091C903821B3E
:10204000930B8F73992708952091CA033091CB0386
:102050008091C8039091C90328173907E9F0E091EE
:10206000C803F091C903E453FC4F80812091C80359
:102070003091C9032F5F3F4F3093C9032093C803AA
:102080002091C8033091C9032F7333273093C903BC
:102090002093C80390E008958FEF9FEF089520915B
:1020A000CA033091CB038091C8039091C9032817CC
:1020B000390749F0E091C803F091C903E453FC4F9C
:1020C000808190E008958FEF9FEF0895089520E0BC
:1020D00030E050E02417350704F58091CA03909151
:1020E000CB0301968F739927E091C803F091C90340
:1020F0008E179F0779F0E091CA03F091CB03DB01C3
:10210000A20FB31FAC91E453FC4FA0839093CB0379
:102110008093CA032F5F3F4FDDCF0895FC0185896F
:10212000968908950F931F93FC01522F13821282F8
:1021300008EE13E020E030E0048315832683378324
:1021400084E592E09183808381E0808B6093C60375
:102150004093C5035093C7031786168615861486C9
:102160001092C9031092C8031092CB031092CA03B5
:1021700086E890E0968B858B1F910F910895CF9301
:10218000DF93EC016DE074E08FE294E014D58823D6
:1021900009F4C7C040910F0450E0FA01E158F10979
:1021A000ED30F10508F0BDC0EC5CFF4F0C9436201B
:1021B000809112048093360480911004823021F0C3
:1021C000833009F462C0ADC08FE294E0AFD10297D2
:1021D00009F4A7C08889882309F4A3C06FE971E0D6
:1021E00084EF92E0DF91CF913DC880911104882364
:1021F000B9F08889811101C0FFCF62E971E084EFF5
:1022000092E00E94E50840E150E06091100484EF04
:1022100092E016D96AE571E084EF92E023D8ECCF22
:1022200080911004893009F07CC029E042E154E03B
:1022300064E08FE294E0DF91CF9125C48091360471
:10224000809339041AD485E890E09E8B8D8BEC85C1
:10225000FD85309709F0099563E08FE294E0B5D3EE
:10226000882309F45EC080910C0481115AC09DD46A
:1022700081E080930C0455C086E890E09E8B8D8BA6
:10228000EC85FD85309709F009956B897C898989F2
:102290009A8932D481E890E09E8B8D8BEC85FD8508
:1022A000309709F43EC0DF91CF91099440910E041C
:1022B000425061E174E0CE010ADFEE85FF85309780
:1022C00081F160910E04625081E194E0DF91CF9141
:1022D00009948091100490913904890F20C0888955
:1022E0008823D1F06EE371E084EF92E00E94E5086C
:1022F0004AE050E06091100484EF92E09BD868E2DD
:1023000071E084EF92E00E94E50840E150E06091C6
:10231000110484EF92E094D8809139048F5F809308
:102320003904DF91CF910895CF92DF92EF92FF921F
:102330000F931F93CF93DF937C018B01D42E6BEC13
:1023400071E084EF92E00E94E508C02EC02FD12FEB
:102350008C2F8C198D1568F467EC71E084EF92E096
:102360000E94E508699140E150E084EF92E062D874
:10237000EFCF84EF92E00E942009C0E0DD2001F160
:1023800063E08FE294E021D3811103C0C701F7DE3F
:10239000F5CFDD2D84E18D1508F4D4E14D2FB80182
:1023A0006C0F711D83E0C2D38091390481508093FA
:1023B000390463E270E080E090E0C2DADD1A59F49B
:1023C0008C2F90E0DF91CF911F910F91FF90EF90B4
:1023D000DF90CF900895CD0FD1CF0F931F93CF9360
:1023E000DF931F92CDB7DEB78C01698362EB71E09A
:1023F00084EF92E00E94E50840E150E0698184EFBB
:1024000092E01ED863E08FE294E0DFD2882399F057
:1024100041E0BE016F5F7F4F83E088D38091390434
:1024200081508093390463E270E080E090E088DAC4
:1024300081E090E004C0C801A2DE80E090E00F904F
:10244000DF91CF911F910F910895FC01728B618BE9
:10245000548B438B84E191E09093300480932F045C
:1024600084E08093310481EE91E090933304809373
:10247000320485E1809334048FE294E0B7D281E0A6
:102480000895CF92DF92EF92FF920F931F93CF9315
:10249000DF938C01C62E81E2489F70011124C0E0B9
:1024A000D0E0D12CDC1409F1CE018E0D9F1DF80176
:1024B00063817481680F791FFB013196449150E06C
:1024C0004E5F5F4F81E594E00E94A92581E594E08D
:1024D0006AD1A196811107C066E974E084EF92E0A9
:1024E0000E94320918C0D394DDCFC0E062E774E0E7
:1024F000C80161D38823D1F3CF5F809174048438FD
:1025000051F4809176049FEF980F923010F4CC1222
:10251000EDCF90E002C081E890E0DF91CF911F9174
:102520000F91FF90EF90DF90CF9008950F931F933E
:10253000CF93DF93EC016D81693028F000E010E06B
:1025400088E890E002C040E014C06D81262F2695F7
:1025500026952695121738F4402F68E0CE0191DFBA
:102560001F5F085FF2CF677051F0412F440F440F97
:10257000440FCE01DF91CF911F910F9182CFDF9158
:10258000CF911F910F9108951092A806FC01E85F6A
:10259000FE4F108231961082E0EAF5E0DF011197DC
:1025A0001C921082B19686E0E83AF807B9F70895D0
:1025B0000F931F93CF93DF93EC0109814AE050E022
:1025C000602F84EF92E00E941A0A60E672E084EFC6
:1025D00092E00E94180910E0FE01E10FF11D40E1B8
:1025E00050E0618184EF92E00E941A0A66EA74E08A
:1025F00084EF92E00E94E5081F5F011768F765EA23
:1026000074E084EF92E0DF91CF911F910F910C94D1
:1026100032098EBD00000DB407FEFDCF8EB50895C2
:102620009091C503923019F0933019F01BC020E04F
:1026300001C021E03DB3882351F081E090E0022EFB
:1026400001C0880F0A94EAF7382B3DBB089581E05A
:1026500090E0022E01C0880F0A94EAF78095832348
:102660008DBB0895FFCF0F931F93CF93DF93EC01A2
:10267000F89400919D0510919C057894E0919C053B
:1026800080919D05E81751F191E29E9FF001112480
:10269000EC56FB4FDE0101900D929A95E1F72091E7
:1026A0009C0530E02F5F3F4F2770332720939C0518
:1026B0008091A806882341F063E672E084EF92E0FF
:1026C0000E941809CE0174DF802F90E00196877078
:1026D0009927181305C081E0A3DF02C080E001C084
:1026E00081E0DF91CF911F910F9108951092AA067A
:1026F0000E94BF1C8CB580628CBD8CB58C7F8160C4
:102700008CBD8DB581608DBD8CB5837F8CBD8EE910
:1027100095E03ADF84E994E037DF61E08091C70318
:10272000A3D962E08091C5039FD961E08091C6037F
:102730009BD961E08091C703D0D964E670E080E066
:1027400090E0FED860E08091C703C7D961E0809136
:10275000C703C3D960E08DE0C0D960E08BE0BDD98C
:1027600061E08091C603B9D960E08DE0B6D98FEF02
:102770008093C4038091C503823019F41092C4037E
:1027800005C0833019F481E08093C4036EE170E0EA
:1027900080E090E0D5D840E050E063EA74E18091B9
:1027A000C4030C94350A0F931F93CF93DF938C01CE
:1027B000FC0141814032B0F52091A70630E0E901EB
:1027C0002196C770DD278091A6068C17C1F051E2D3
:1027D000529FC001539F900D1124FC01E256FA4F05
:1027E000108250E04F5F5F4FB8016F5F7F4F81569F
:1027F0009A4F0E94B225C093A706C1E001C0C0E075
:102800008091A806882341F066E672E084EF92E0AA
:102810000E941809C801CCDE60E08091C6035DD932
:102820008C2F01C080E0DF91CF911F910F9108950F
:10283000CF92DF92EF92FF920F931F93CF93DF938C
:10284000CDB7DEB7A2970FB6F894DEBF0FBECDBFEF
:1028500060E08091C60341D98091A6069091A706B9
:10286000891709F45DC090E021E2289FF001299FBB
:10287000F00D1124E256FA4FDE01119601900D92EF
:102880002A95E1F70196877099278093A6061A8109
:10289000812FBFDE8093A9068B81BBDE8093AA06C1
:1028A000112349F0412F50E0282F30E0241735073D
:1028B00014F48FEF810F982F803208F09FE17E0192
:1028C00084E0E80EF11C8BEAC82E86E0D82E860143
:1028D000802F8C19891750F4F70181917F019AA3F9
:1028E00098DEF80181938F019AA1F2CF61E0809187
:1028F000C603F3D883B7816083BF40E050E063EA4A
:1029000074E18091C4030E94350A9091A6068091DB
:10291000A706981739F060E08091C603DED802C0A0
:102920001A82B5CF89EA96E0A2960FB6F894DEBF78
:102930000FBECDBFDF91CF911F910F91FF90EF9010
:10294000DF90CF900895CF93DF9383B78E7F83BFBF
:102950008091C4030E94550A6BDFFC01418144232E
:1029600089F160919D0570E0EB012196C770DD272C
:1029700020919C052C1729F151E2569F9001579FF9
:10298000300D1124F901EC56FB4F108250E04F5FDF
:102990005F4FBC016F5F7F4FC9018B569B4F0E94F9
:1029A000B225C0939D05F89480919D058F5F877037
:1029B00090919C057894891305C080E0DF91CF91B8
:1029C0002FCEFFCFDF91CF910895262F2695269504
:1029D0002695820F911DFC01818990E0677002C0ED
:1029E000959587956A95E2F781700895CF93DF9367
:1029F000FC01ABECB6E080E090E0EF01C80FD91F1E
:102A0000198A198E1D92019688309105B1F710929E
:102A1000D8061092D7061092D6061092D5068FEFE0
:102A20008093E0068093DF068093DE061092DC063A
:102A30001092DB061092DA061092D9061092D40694
:102A40001092D3061092CA061092E2061092E10686
:102A500080819181909309078093080782818093F8
:102A600007078381948190930607809305078581EA
:102A700080930407DF91CF9139CE84EE96E0E5D0C4
:102A800083EE96E090CECF93DF93CDB7DEB7669717
:102A90000FB6F894DEBF0FBECDBFCA01E0910807A4
:102AA000F091090733E0639FE00DF11D1124339786
:102AB00030813130B9F42531A8F46983422F50E0D8
:102AC000BC01CE0102962E8B0E94B2252E89422F88
:102AD000BE016F5F7F4F84EE96E0BDD083EE96E03F
:102AE00062DE01C080E066960FB6F894DEBF0FBECE
:102AF000CDBFDF91CF910895CF93DF9300D000D069
:102B0000CDB7DEB79A8389837C836B83BE016F5F09
:102B10007F4F84EE96E0B0D083EE96E044DE0F90D7
:102B20000F900F900F90DF91CF9108951F93CF9347
:102B3000DF93CDB7DEB765970FB6F894DEBF0FBE53
:102B4000CDBF142FE0910807F091090793E0899F0A
:102B5000E00DF11D1124339721813281223031059E
:102B600019F024303105B1F41531A0F48983412FD7
:102B700050E0CE0102960E94B225412FBE016F5F48
:102B80007F4F84EE96E08CD01092DD0683EE96E0C7
:102B90000ADE01C080E065960FB6F894DEBF0FBE76
:102BA000CDBFDF91CF911F91089584EE96E089D03B
:102BB00083EE96E0F8CD0F931F93CF93DF93EC0154
:102BC0008B01CB0150DDF8019281983839F09938AA
:102BD00051F19638A9F520E030E017C020E030E050
:102BE0000F5F1F4FD801A20FB31F12969C9112972F
:102BF000FE01E20FF31F918B1A969C91918F2F5F2C
:102C00003F4F2830310571F71BC0FE01E20FF31F63
:102C1000118A118E2F5F3F4F28303105B1F719A26D
:102C20009F819A870DC0F801238134813C872B87CF
:102C3000258136813E872D8727813085388B2F87E8
:102C4000DF91CF911F910F91089521E0FC01208326
:102C500029E02183089522E0240FDC012C932DE04C
:102C600011962C931197FB01219112962C9350E011
:102C7000BF0103960C94B225FC01DB0185E0808343
:102C80008FE0818311968C91119783838C9182833D
:102C900013968C911397858312968C918483089553
:102CA00022E0240FDC012C9325E111962C9311973F
:102CB000FB01219112962C9350E0BF0103960C94D6
:102CC000B22521E0FC01208323E1218308950895AA
:102CD000FC01658B08950F931F93CF93DF938C01B5
:102CE000EB0188E2FB0111928A95E9F74BE050E095
:102CF00068E672E0CE010E94C2251B8641E050E0EA
:102D000060E070E04C875D876E877F87F8010785FC
:102D1000108921893289088B198B2A8B3B8B4C8B2C
:102D20005D8B6E8B7F8B1CA21DA21EA21FA2188E14
:102D3000198E1A8E1B8E1C8E1D8E1E8E1F8E18A233
:102D400019A21AA21BA2DF91CF911F910F91089592
:102D50000F931F93CF93DF938C01EB0188E2FB016C
:102D600011928A95E9F74BE050E068E672E0CE01F7
:102D70000E94C2251B8641E050E060E070E04C8775
:102D80005D876E877F87F8014189528963897489DD
:102D9000488B598B6A8B7B8B42E050E060E070E09F
:102DA0004C8B5D8B6E8B7F8B1CA21DA21EA21FA263
:102DB000188E198E1A8E1B8E1C8E1D8E1E8E1F8EC7
:102DC00018A219A21AA21BA2DF91CF911F910F91F5
:102DD0000895DC01ED91FC910190F081E02D0994C2
:102DE00023E732E0FC01318320834787508B618BDE
:102DF000728B0895FC018DE792E091838083418B73
:102E0000528B638B748B158A0895CF93DF9300D018
:102E1000CDB7DEB78BE097E02A83498392D649810C
:102E2000642F8BE097E038D62A81622F8BE097E001
:102E300033D68BE097E00F900F90DF91CF919DC636
:102E4000CF93DF9300D0CDB7DEB78BE097E02A8336
:102E5000498377D64981642F8BE097E01DD62A817C
:102E6000622F8BE097E018D68BE097E00F900F90E1
:102E7000DF91CF9182C60F931F93CF93DF938C0185
:102E8000EB01262F41E06EE1DBDFF801D483C38341
:102E9000C038D10509F45BC0DCF4C034D105A9F118
:102EA000C036D10509F442C0A09709F08AC080E07D
:102EB00090E8A9E8B4E48093240190932501A093BD
:102EC0002601B093270180E090E0A5E7B4E471C04B
:102ED000C03CD10509F44CC0C03ED10509F459C02D
:102EE000C03AD10509F06DC080E090E0A8ECB3E4F1
:102EF0008093240190932501A0932601B09327018C
:102F000080E090E8A1EBB3E454C080E090ECA5E54C
:102F1000B4E48093240190932501A0932601B093FB
:102F2000270180E090E0AEE3B4E443C080E090E8A5
:102F3000A7E2B4E48093240190932501A093260195
:102F4000B093270180E090E0A6E1B4E432C080E0D5
:102F500090E0A1EEB3E48093240190932501A09327
:102F60002601B093270180E090E0A8ECB3E421C0F3
:102F700080E090E0A5EAB3E48093240190932501DA
:102F8000A0932601B093270180E090E8A3E9B3E481
:102F900010C080E090E0A6E6B3E480932401909313
:102FA0002501A0932601B093270180E090E0ADE4D5
:102FB000B3E48093200190932101A0932201B09368
:102FC0002301DF91CF911F910F9108951F93CF930C
:102FD000DF931F92CDB7DEB7162F8BE097E04983C2
:102FE000B0D54981642F8BE097E056D58BE097E010
:102FF000C4D541E0612F8BE097E0A1D58BE097E04D
:10300000FCD4182F8BE097E0B8D5812F0F90DF917B
:10301000CF911F910895CF93DF93EC018BE097E060
:1030200079D527E540E269E1CE01EFDE40E269E1D2
:10303000CE01CCDF91E0873509F090E0892FDF9158
:10304000CF9108951F93CF93DF931F92CDB7DEB733
:10305000162F8BE097E0498374D54981642F8BE06C
:1030600097E01AD58BE097E088D541E0612F8BE09F
:1030700097E065D58BE097E0C0D4182F8BE097E000
:103080007CD5812F0F90DF91CF911F910895CF9321
:10309000DF93EC018BE097E03DD520E042E06EE16C
:1030A000CE01CEDE40E06EE1CE01CCDF803131F4E6
:1030B00060E270E0CE01DFDE81E001C080E0DF9100
:1030C000CF9108956F927F928F929F92AF92BF920D
:1030D000CF92DF92EF92FF920F931F93CF93DF93E4
:1030E000EC0169E18BE097E02CD568EA70E08BE0B9
:1030F00097E06FDE8BE097E040D546E069E18BE03A
:1031000097E01DD58BE097E070D40697DCF38BE059
:1031100097E073D4782E8BE097E06FD4682E8BE025
:1031200097E06BD4982E8BE097E067D4882E8BE0E5
:1031300097E063D4D82E8BE097E05FD4C82EB62CEE
:10314000A12CA72884E0B594A7948A95E1F7B5014E
:10315000882777FD8095982F0E94D2216B837C83EE
:103160008D839E83F82CE12CE92894E0F594E79474
:103170009A95E1F7B701882777FD8095982F0E94EF
:10318000D2216F83788789879A871C2D00E00D29CB
:1031900024E0159507952A95E1F7B801882777FD72
:1031A0008095982F0E94D2216B877C878D879E8780
:1031B000DF91CF911F910F91FF90EF90DF90CF9013
:1031C000BF90AF909F908F907F906F9008950F93D6
:1031D0001F93CF93DF938C01EB0184E2FB011192EB
:1031E0008A95E9F7C8016EDF84E290E0A0E0B0E0E4
:1031F00088839983AA83BB83F80187859089A189F5
:10320000B2898C839D83AE83BF8381E090E0A0E090
:10321000B0E088879987AA87BB870E94710C688B6A
:10322000798B8A8B9B8B2FE632E143E85AE3F801D6
:1032300063817481858196810E94EB222AE038EEB9
:103240004CE151E40E94EB226C8B7D8B8E8B9F8B2B
:103250002FE632E143E85AE3F80167817085818502
:1032600092850E94EB222AE038EE4CE151E40E9464
:10327000EB22688F798F8A8F9B8F2FE632E143E8AC
:103280005AE3F80163857485858596850E94EB2253
:103290002AE038EE4CE151E40E94EB226C8F7D8FE6
:1032A0008E8F9F8F81E0DF91CF911F910F910895B5
:1032B0006F927F928F929F92AF92BF92CF92DF9246
:1032C000EF92FF920F931F93CF93DF93EC016EE188
:1032D0008BE097E036D463E070E08BE097E079DD37
:1032E0008BE097E04AD446E06EE18BE097E027D48C
:1032F0008BE097E07AD30697DCF38BE097E07DD301
:10330000682E8BE097E079D3782E8BE097E075D329
:10331000C82E8BE097E071D3D82E8BE097E06DD369
:10332000882E8BE097E069D3982EB62CA12CA72885
:10333000B501882777FD8095982F0E94D2216D8353
:103340007E838F839887F82CE12CE928B7018827A2
:1033500077FD8095982F0E94D22169877A878B8785
:103360009C871C2D00E00D29B801882777FD8095EA
:10337000982F0E94D2216D877E878F87988BDF914F
:10338000CF911F910F91FF90EF90DF90CF90BF9062
:10339000AF909F908F907F906F9008952F923F9263
:1033A0004F925F926F927F928F929F92AF92BF9255
:1033B000CF92DF92EF92FF920F931F93CF93DF9301
:1033C000EC018B0184E2FB0111928A95E9F749E057
:1033D0006EE1CE0137DE80FFEBC0CE0169DF8D8963
:1033E000882309F47FC04D805E806F807884898453
:1033F0009A84AB84BC84CD84DE84EF84F888222454
:10340000239420E030E04FEF54ECC301B20128D701
:1034100018160CF4212C3324339420E030E04FEFC5
:1034200054E4C301B2010E94E02287FD312C32280E
:103430006624639420E030E04FEF54E4C501B4010A
:103440000E94E02287FD612C63287724739420E09A
:1034500030E04FEF54ECC501B40102D718160CF45C
:10346000712C7628BB24B39420E030E04FEF54E475
:10347000C701B6010E94E02287FDB12C7B2849F4E8
:1034800020E030E04FEF54ECC701B601E9D6181642
:103490004CF18B819C8180369105E1F04CF48032B7
:1034A0009105D9F080349105E9F460E670E017C029
:1034B000803A910561F0803C910531F080389105AA
:1034C00089F460EA70E00BC060EE70E008C060EC68
:1034D00070E005C060E870E002C060E470E0CE011A
:1034E000CADC75CF84E290E0A0E0B0E0F801808310
:1034F0009183A283B38389899A89AB89BC898483A8
:103500009583A683B78382E090E0A0E0B0E0808757
:103510009187A287B3870E94710CF801608B718B31
:10352000828B938BC0902401D0902501E0902601DE
:10353000F0902701A70196016D817E818F8198858A
:1035400096D620E030E048EC52E40E94EB22F801ED
:10355000648B758B868B978BA701960169857A851D
:103560008B859C8584D620E030E048EC52E40E94B4
:10357000EB22F801608F718F828F938F2091200151
:103580003091210140912201509123016D857E856A
:103590008F8598896CD620E030E048EC52E40E9498
:1035A000EB22F801648F758F868F978F81E001C0C1
:1035B00080E0DF91CF911F910F91FF90EF90DF900E
:1035C000CF90BF90AF909F908F907F906F905F90C3
:1035D0004F903F902F90089508952F923F924F92D1
:1035E0005F926F927F928F929F92AF92BF92CF9293
:1035F000DF92EF92FF920F931F93CF93DF93CDB79C
:10360000DEB72A970FB6F894DEBF0FBECDBFF90123
:103610004115510509F4F1C0309709F4EEC062304C
:10362000710501F163307105A9F16130710509F08F
:10363000E4C0C08CD18CE28CF38C848C958CA68CED
:10364000B78C64897589868997899A01285E3F4F6E
:103650003A8729871A013CE1230E311C8A010C5E4E
:103660001F4F30C0C48CD58CE68CF78C848895882D
:10367000A688B788608D718D828D938DFA017C96B6
:10368000FA87E9871A01F4E12F0E311C8A01085EDE
:103690001F4F18C0C488D588E688F788808C918C25
:1036A000A28CB38C648D758D868D978D9A012C5E5E
:1036B0003F4F3A8729871A0138E1230E311C8A01CE
:1036C000045E1F4F9B01AC0186D769837A838B838D
:1036D0009C83A7019601C701B6017DD729813A8154
:1036E0004B815C81F7D4E4D79B01AC01C501B401E7
:1036F00064D52B013C01A5019401C501B4016BD730
:1037000029813A814B815C81E5D4D2D79B01AC0100
:10371000C701B60152D54B015C01C301B201A4D56A
:103720006D837E838F839887C301B201B7D76B0106
:103730007C012401350177FA709477F87094C30105
:10374000B20192D569837A838B839C83C301B201D2
:10375000A5D74B015C01E985FA8520813181428141
:10376000538169817A818B819C8135D72B013C0102
:10377000F8012081318142815381C501B4012BD7E9
:103780009B01AC01C301B201A5D4E985FA85608330
:10379000718382839383A70196011DD7A5019401AC
:1037A0001AD72B013C01F1012081318142815381E3
:1037B0006D817E818F8198850ED79B01AC01C301FD
:1037C000B20188D44B015C01F80120813181428132
:1037D0005381C701B601FFD629813A814B815C81B3
:1037E000FAD69B01AC01C501B40173D4F101608329
:1037F00071838283938381E001C080E02A960FB6B3
:10380000F894DEBF0FBECDBFDF91CF911F910F9116
:10381000FF90EF90DF90CF90BF90AF909F908F90F0
:103820007F906F905F904F903F902F900895CF9230
:10383000DF92EF92FF92CF93DF93FA01E901309785
:1038400009F44EC0209709F44BC06230710581F035
:1038500063307105B1F06130710509F041C0208D10
:10386000318D428D538D648D758D868D978D11C0F0
:10387000248D358D468D578D648975898689978904
:1038800008C02489358946895789608D718D828D5C
:10389000938D93D420E030E044E353E49CD62BEDA9
:1038A0003FE049E450E4E3D4688779878A879B87BF
:1038B000C884D984EA84FB8420E030E0A901C701F0
:1038C000B601CED487FF0EC020E030E044EB53E4D5
:1038D000C701B601FFD3688779878A879B8702C0B3
:1038E00080E001C081E0DF91CF91FF90EF90DF9009
:1038F000CF9008954F925F926F927F92AF92BF9256
:10390000CF92DF92EF92FF920F931F93CF93DF93AB
:10391000CDB7DEB729013A01621B730B840B950BFF
:1039200029893A894B895C892A193B094C095D0927
:10393000298B3A8B4B8B5C8B9B01AC0169897A8913
:103940008B899C8927D3E418F50806091709A80173
:10395000970170D32A0D3B1D4C1D5D1DCA01B90195
:10396000DF91CF911F910F91FF90EF90DF90CF905B
:10397000BF90AF907F906F905F904F900895CF93DE
:10398000CFB7F89480910A07811127C0E0E0F1E0F9
:103990008491ECEEF0E09491E82FF0E0EE0FFF1F41
:1039A000E25EFE4FA591B4918C91892321F461E0F0
:1039B0008AE00E946D0D61E08AE00E94340D8CB5B2
:1039C00080618CBD8CB580648CBD61E08DE00E940F
:1039D000340D61E08BE00E94340D80910A078F5F07
:1039E00080930A07CFBFCF91089580913B0790E065
:1039F00020913C07821B9109089520913C078091FA
:103A00003B07281750F4E22FF0E0E35CF84F808189
:103A100090E02F5F20933C0708958FEF9FEF08956C
:103A2000E0913C0780913B07E81730F4F0E0E35C5D
:103A3000F84F808190E008958FEF9FEF08950895EB
:103A4000CF92DF92EF92FF920F931F93CF93DF936A
:103A50007C01CB018A0120911707222389F0EB0119
:103A60006B01C40ED51ECC15DD0561F06991D7013F
:103A7000ED91FC910190F081E02DC7010995F3CF04
:103A8000642F35D1C801DF91CF911F910F91FF9025
:103A9000EF90DF90CF900895CF93DF931F92CDB733
:103AA000DEB76983209117072223D1F020911807F0
:103AB000203240F021E030E0FC013383228380E0BB
:103AC00090E014C080911907E82FF0E0E65EF84F0F
:103AD000998190838F5F809319078093180704C0A2
:103AE00061E0CE01019603D181E090E00F90DF917B
:103AF000CF910895FC011382128248EE53E060E0FA
:103B000070E0448355836683778387E892E09183EE
:103B10008083089510923C0710923B07109219077A
:103B2000109218072FC0862F413208F040E26DE353
:103B300077E046D010923C0780933B07089521E040
:103B4000F2CF81E08093170760933A07109219072C
:103B50001092180708950F93062F21E0409118073F
:103B60006AE177E080913A076FD0109219071092BE
:103B70001807109217070F91089561E0ECCF8BE0C2
:103B800097E0B8CF1092CA0781E08093C8071092DF
:103B9000C70761E082E10E946D0D61E083E10E9450
:103BA0006D0DE9EBF0E080818E7F808380818D7FD9
:103BB000808388E48093B80085E48093BC000895F6
:103BC000413208F03FC09091CA079111FCCF91E0BB
:103BD0009093CA072093C8072FEF20935D07109298
:103BE000A207240F2093A1079093C9079091C907BA
:103BF000880F892B8093C9078091C707813041F4D2
:103C00001092C7078091C9078093BB0085EC01C063
:103C100085EE8093BC008091CA078130E1F38091EA
:103C2000A207841710F44091A20723EA37E0FB01B2
:103C3000D9018A2F821B841718F48D918193F9CFB3
:103C4000842F089580E008950F93413208F046C014
:103C50009091CA079111FCCF92E09093CA0700930C
:103C6000C8079FEF90935D071092A2074093A107AA
:103C7000FB0163EA77E0DB019A2F961B941718F497
:103C800091919D93F9CF1092C9079091C907880F20
:103C9000892B8093C9078091C707813041F4109226
:103CA000C7078091C9078093BB0085EC01C085EEF2
:103CB0008093BC00222321F08091CA078230E1F377
:103CC00080915D078F3F61F080915D07803251F0F8
:103CD00080915D07803341F483E007C081E005C037
:103CE00080E003C082E001C084E00F91089561325A
:103CF00098F42091CA07243089F460937F07FC016F
:103D000081E897E0DC012A2F281B261718F421915F
:103D10002D93F9CF80E0089581E0089582E0089521
:103D200085ED8093BC008091BC0084FDFCCF109297
:103D3000CA07089585EC8093BC001092CA070895C5
:103D40001F920F920FB60F9211242F933F934F9310
:103D50005F936F937F938F939F93AF93BF93EF93F3
:103D6000FF938091B900887F803609F49CC068F584
:103D7000883209F45BC090F4803109F454C038F4FF
:103D8000882309F4F3C0883009F44DC0F2C08831AB
:103D900009F44CC0803209F45DC0EBC0803409F4F2
:103DA00068C048F4803309F455C0883309F0E1C095
:103DB00080935D07A7C0803509F44FC0883509F4AA
:103DC0005DC0883409F0D5C0D3C0883909F4C4C0B7
:103DD000A8F4883709F467C038F4883609F463C05A
:103DE000803709F460C0C5C0883809F4B5C080398F
:103DF00009F45FC0803809F0BCC05BC0803B09F4A7
:103E000083C038F4803A09F466C0883A09F47CC06B
:103E1000B0C0803C09F4A4C0883C09F4A1C0883B30
:103E200009F487C0A6C08091C90710C09091A2076D
:103E30008091A107981770F5E091A20781E08E0F9D
:103E40008093A207F0E0ED55F84F80818093BB008E
:103E500085EC83C080935D078BC0E091A20781E071
:103E60008E0F8093A2078091BB00F0E0ED55F84FD4
:103E700080839091A2078091A1076BC0E091A20777
:103E800081E08E0F8093A2078091BB00F0E0ED559A
:103E9000F84F80838091C80781116AC081E08093C8
:103EA000C70784EA5EC083E08093CA0710925E076A
:103EB000CFCF80915E07803208F04EC0E0915E0760
:103EC00081E08E0F80935E078091BB00F0E0E15AA5
:103ED000F84F8083BDCF80915E07803230F4E0914F
:103EE0005E07F0E0E15AF84F10821ADF60915E073A
:103EF00070E0E091C307F091C4078FE597E0099562
:103F000010925E0717DF35C084E08093CA071092D5
:103F1000800710927F07E091C507F091C6070995C9
:103F200080917F07811105C081E080937F07109207
:103F30008107E091800781E08E0F80938007F0E099
:103F4000EF57F84F80818093BB009091800780915C
:103F50007F07981708F47CCF85E88093BC0009C0E0
:103F600085EC8093BC001092CA0703C010925D07D5
:103F7000D7DEFF91EF91BF91AF919F918F917F918C
:103F80006F915F914F913F912F910F900FBE0F90C6
:103F90001F901895DB018F939F937DD0BF91AF91B8
:103FA000A29F800D911DA39F900DB29F900D112493
:103FB0000895991B79E004C0991F961708F0961B85
:103FC000881F7A95C9F78095089597FB072E16F4F8
:103FD000009406D077FD08D068D007FC05D03EF4E9
:103FE000909581959F4F0895709561957F4F0895A5
:103FF000A1E21A2EAA1BBB1BFD010DC0AA1FBB1FED
:10400000EE1FFF1FA217B307E407F50720F0A21B5E
:10401000B30BE40BF50B661F771F881F991F1A94CB
:1040200069F760957095809590959B01AC01BD01F5
:10403000CF010895052E97FB16F400940FD057FD7D
:1040400005D0D6DF07FC02D046F408C05095409555
:10405000309521953F4F4F4F5F4F08959095809534
:10406000709561957F4F8F4F9F4F0895EE0FFF1F03
:104070000590F491E02D0994A29FB001B39FC00177
:10408000A39F700D811D1124911DB29F700D811D84
:104090001124911D0895F0DFA59F900DB49F900D00
:1040A000A49F800D911D11240895AA1BBB1B51E1F3
:1040B00007C0AA1FBB1FA617B70710F0A61BB70B98
:1040C000881F991F5A95A9F780959095BC01CD013D
:1040D00008955058BB27AA270ED027C2F0D130F040
:1040E000F5D120F031F49F3F11F41EF4C0C10EF45D
:1040F000E095E7FBB6C1E92F3AD280F3BA17620721
:1041000073078407950718F071F49EF552C20EF4F8
:10411000E0950B2EBA2FA02D0B01B90190010C01D7
:10412000CA01A0011124FF27591B99F0593F50F4EF
:10413000503E68F11A16F040A22F232F342F442747
:10414000585FF3CF469537952795A795F04053953F
:10415000C9F77EF41F16BA0B620B730B840BBAF00F
:104160009150A1F0FF0FBB1F661F771F881FC2F77A
:104170000EC0BA0F621F731F841F48F4879577958E
:104180006795B795F7959E3F08F0B3CF9395880F45
:1041900008F09927EE0F97958795089590D158F0DC
:1041A00080E891E009F49EEF91D128F040E851E0D9
:1041B00059F45EEF09C05BC1FCC1E92FE078D7D1AB
:1041C00068F3092E052AC1F3261737074807590750
:1041D00038F00E2E07F8E02569F0E025E0640AC00B
:1041E000EF6307F8009407FADB01B9019D01DC01D8
:1041F000CA01AD01EF934AD098D10AD05F915523FF
:1042000031F02BED3FE049E450FD49EC63CF0895D8
:10421000DF93DD27B92FBF7740E85FE31616170657
:1042200048075B0710F4D92FCFD19F938F937F93CB
:104230006F937CD2E2E8F0E01DD177D12F913F91CE
:104240004F915F91D4D1DD2349F09058A2EA2AED35
:104250003FE049EC5FE3D0785D274DDFDF9165C13A
:10426000DCD008F481E0089539D1E3956FC10CD01A
:104270005CC12CD140F023D130F021F45F3F19F024
:10428000F0C0511197C1F3C072D198F39923C9F3CB
:104290005523B1F3951B550BBB27AA27621773074C
:1042A000840738F09F5F5F4F220F331F441FAA1F00
:1042B000A9F333D00E2E3AF0E0E830D091505040C0
:1042C000E695001CCAF729D0FE2F27D0660F771F6E
:1042D000881FBB1F261737074807AB07B0E809F050
:1042E000BB0B802DBF01FF2793585F4F2AF09E3FE5
:1042F000510568F0B6C05EC15F3FECF3983EDCF359
:10430000869577956795B795F7959F5FC9F7880F5D
:10431000911D9695879597F90895E1E0660F771FAF
:10432000881FBB1F621773078407BA0720F0621B40
:10433000730B840BBA0BEE1F88F7E095089504D039
:104340006894B11137C108951AD188F09F5790F041
:10435000B92F9927B751A0F0D1F0660F771F881FAA
:10436000991F1AF0BA95C9F712C0B13081F021D166
:10437000B1E008951EC1672F782F8827B85F39F004
:10438000B93FCCF3869577956795B395D9F73EF409
:1043900090958095709561957F4F8F4F9F4F0895B1
:1043A000E89409C097FB3EF49095809570956195CF
:1043B0007F4F8F4F9F4F9923A9F0F92F96E9BB2785
:1043C0009395F695879577956795B795F111F8CF01
:1043D000FAF4BB0F11F460FF1BC06F5F7F4F8F4F6C
:1043E0009F4F16C0882311F096E911C0772321F062
:1043F0009EE8872F762F05C0662371F096E8862FFA
:1044000070E060E02AF09A95660F771F881FDAF750
:10441000880F9695879597F90895990F0008550F7D
:10442000AA0BE0E8FEEF16161706E807F907C0F03A
:1044300012161306E407F50798F0621B730B840B42
:10444000950B39F40A2661F0232B242B252B21F41C
:1044500008950A2609F4A140A6958FEF811D811DBC
:10446000089597F99F6780E870E060E008959FEFF6
:1044700080EC0895DF93CF931F930F93FF92EF92F9
:10448000DF927B018C01689405C0DA2EEF01AFD07A
:10449000FE01E894A5912591359145915591AEF392
:1044A000EF0129DEFE019701A801DA9479F7DF9088
:1044B000EF90FF900F911F91CF91DF91089500240D
:1044C0000A941616170618060906089500240A9479
:1044D00012161306140605060895C9CF50D0E8F346
:1044E000E894E0E0BB279F57F0F02AED3FE049EC6D
:1044F00006C0EE0FBB0F661F771F881F28F0B23A69
:1045000062077307840728F0B25A620B730B840B9F
:10451000E3959A9572F7803830F49A95BB0F661F31
:10452000771F881FD2F7904806C1092E0394000C0C
:1045300011F4882352F0BB0F40F4BF2B11F460FF3D
:1045400004C06F5F7F4F8F4F9F4F0895EF93E0FF41
:1045500006C0A2EA2AED3FE049EC5FEBCCDDE5DFE7
:104560000F90039401FC9058EFEAF0E0F7C057FD7C
:104570009058440F551F59F05F3F71F04795880FD1
:1045800097FB991F61F09F3F79F087950895121668
:1045900013061406551FF2CF4695F1DF08C0161614
:1045A00017061806991FF1CF8695710561050894C5
:1045B0000895E894BB2766277727CB0197F90895DC
:1045C0002CDF08F48FEF08959B01AC0160E070E0F0
:1045D00080E89FE34CCE0BD0A8CF71DF28F076DFC8
:1045E00018F0952309F03DCF42CF1124E3CFBFDF70
:1045F000A0F3959FD1F3950F50E0551F629FF001F6
:10460000729FBB27F00DB11D639FAA27F00DB11D4E
:10461000AA1F649F6627B00DA11D661F829F2227D7
:10462000B00DA11D621F739FB00DA11D621F839F5E
:10463000A00D611D221F749F3327A00D611D231F34
:10464000849F600D211D822F762F6A2F11249F5782
:1046500050408AF0E1F088234AF0EE0FFF1FBB1FA5
:10466000661F771F881F91505040A9F79E3F510544
:1046700070F0F7CE9FCF5F3FECF3983EDCF386956A
:1046800077956795B795F795E7959F5FC1F7FE2BEF
:10469000880F911D9695879597F908959F931EDF32
:1046A0000F9007FCEE5F52CF11F40EF4E0CE41C044
:1046B00066DFD0F39923D9F3CEF39F57550B87FFCD
:1046C00046D00024A0E640EA900180585695979580
:1046D00028F4805C660F771F881F20F026173707A5
:1046E000480730F4621B730B840B202931294A2BB5
:1046F000A69517940794202531254A2758F7660F69
:10470000771F881F20F026173707480730F4620B01
:10471000730B840B200D311D411DA09581F7B9014C
:10472000842F9158880F9695879508959B01AC0129
:1047300052CF9F3F31F0915020F487957795679540
:10474000B795880F911D9695879597F90895915083
:104750005040660F771F881FD2F708959F938F935D
:104760007F936F93FF93EF939B01AC0134DFEF9145
:10477000FF9180DE2F913F914F915F912CCFCF938E
:10478000DF938230910510F482E090E0E091CD0754
:10479000F091CE0720E030E0A0E0B0E0309739F1B2
:1047A0004081518148175907B8F04817590771F4EB
:1047B00082819381109729F013969C938E93129780
:1047C0002CC09093CE078093CD0727C021153105CB
:1047D00031F04217530718F0A901DB0101C0EF01C6
:1047E0009A01BD01DF010280F381E02DD7CF2115B1
:1047F0003105F9F0281B390B2430310580F48A810A
:104800009B816115710521F0FB019383828304C0B4
:104810009093CE078093CD07FE01329644C0FE01EF
:10482000E20FF31F8193919322503109398328833A
:104830003AC02091CB073091CC07232B41F4209133
:104840000201309103013093CC072093CB072091D4
:104850000001309101012115310541F42DB73EB71A
:104860004091040150910501241B350BE091CB07C9
:10487000F091CC07E217F307A0F42E1B3F0B28178B
:10488000390778F0AC014E5F5F4F2417350748F0C9
:104890004E0F5F1F5093CC074093CB0781939193AA
:1048A00002C0E0E0F0E0CF01DF91CF910895CF9317
:1048B000DF93009709F487C0FC01329713821282BC
:1048C000C091CD07D091CE07209781F4208131810E
:1048D000280F391F8091CB079091CC07821793073F
:1048E00079F5F093CC07E093CB076DC0DE0120E0B3
:1048F00030E0AE17BF0750F412964D915C911397BC
:104900009D014115510509F1DA01F3CFB383A2836B
:1049100040815181840F951F8A179B0771F48D91F7
:104920009C911197840F951F029691838083129614
:104930008D919C911397938382832115310529F4DE
:10494000F093CE07E093CD073EC0D9011396FC93B8
:10495000EE9312974D915D91A40FB51FEA17FB07D7
:1049600079F480819181840F951F0296D901119667
:104970009C938E938281938113969C938E9312972E
:10498000E0E0F0E08A819B81009719F0FE01EC01E4
:10499000F9CFCE01029628813981820F931F209191
:1049A000CB073091CC072817390769F4309729F4E1
:1049B0001092CE071092CD0702C013821282D093BC
:1049C000CC07C093CB07DF91CF910895A0E0B0E072
:1049D000EBEEF4E227C1EC01CB01209711F4CFDE1E
:1049E000B4C0FE01E60FF71F9E0122503109E21705
:1049F000F30708F4A8C0D9010D911C91119706176F
:104A00001707B0F00530110508F49BC0A801445009
:104A100051094617570708F494C002501109061BA4
:104A2000170B019311936D937C93CF0140DF89C0E5
:104A30005B01A01AB10A4E01800E911EA091CD0714
:104A4000B091CE07612C712C60E070E0109709F4F2
:104A500049C0A815B905C9F5ED90FC9011976701FB
:104A600042E0C40ED11CCA14DB0478F147018A1855
:104A70009B08640142E0C40ED11C1296BC901297B0
:104A80001396AC91B5E0CB16D10440F0B282A3836B
:104A900091828082D9018D939C9309C00E5F1F4F34
:104AA0000E0D1F1DF90111830083EB2DFA2F6115E7
:104AB000710531F0DB011396FC93EE93129741C020
:104AC000F093CE07E093CD073CC06D917C91119798
:104AD0006616770608F43B01BD0112960D90BC9155
:104AE000A02DB4CF6091CB077091CC0768157905E4
:104AF000E9F468167906D0F4409100015091010163
:104B00004115510541F44DB75EB7609104017091B4
:104B10000501461B570BE417F507A8F4F093CC07E3
:104B2000E093CB07F901918380830BC028DE7C01E1
:104B3000009749F0A801BE0115D0CE01B8DEC7012B
:104B400004C0CE0102C080E090E0CDB7DEB7EEE059
:104B500085C0FB01DC0102C005900D924150504020
:104B6000D8F70895FB01DC0102C001900D9241507D
:104B70005040D8F70895FB01DC0101900D92002010
:104B8000E1F70895FB01DC014150504048F00190ED
:104B90000D920020C9F701C01D9241505040E0F72E
:104BA00008954532510518F4423008F004C0FB0165
:104BB0001082CB010895BB274A3031F4992322F4A7
:104BC000BDE2909581959F4F01C0BB27FB01552702
:104BD000AA27880F991FAA1FA41710F0A41B83955A
:104BE0005051B9F7A05DAA3308F0A95DA1930097D1
:104BF00079F7B111B1931192CB0100C0DC01FC0136
:104C0000672F71917723E1F7329704C07C916D9300
:104C100070836291AE17BF07C8F308952F923F9239
:104C20004F925F926F927F928F929F92AF92BF92BC
:104C3000CF92DF92EF92FF920F931F93CF93DF9368
:104C4000CDB7DEB7CA1BDB0B0FB6F894DEBF0FBEC5
:104C5000CDBF09942A88398848885F846E847D8412
:104C60008C849B84AA84B984C884DF80EE80FD8014
:104C70000C811B81AA81B981CE0FD11D0FB6F8948A
:0E4C8000DEBF0FBECDBFED010895F894FFCF4B
:104C8E000000CF072000010000002C010000DC0511
:104C9E000000860001800001080001020001800072
:104CAE000000754400808944426F6F74696E6720FE
:104CBE00002E2E00557000537761676765720044B1
:104CCE006F6F6D732044617920576561706F6E0050
:104CDE00456D6F74696F6E730046616369616C2018
:104CEE005265636F6E6974696F6E00446F6E6520F6
:104CFE007769746820536574757000427574746FAB
:104D0E006E507265737365640068657265002C0081
:104D1E007D200043757272656E7448656164696EBC
:104D2E00673A20004D414700636F6D70656E736189
:104D3E007465642048656164696E675A3A2000485C
:104D4E00656164696E67593A200048656164696EF1
:104D5E0067583A2000202000755400486561646948
:104D6E006E67733A207B002C20007D005475726EA6
:104D7E0020436F6D706C6574652E2E2E2E48656106
:104D8E0064696E673A20003C3330204261636B6980
:104D9E006E672075700052696768743A20004C6522
:104DAE0066743A20007475726E696E672061676171
:104DBE00696E2E2E2E2E2E48656164696E673A003E
:104DCE00000000003E07A708C206DB06CD061D0741
:104DDE0000000000ED11A708171024104F106610E8
:104DEE00203A0020450043004C534D333033000031
:104DFE000000006716E7186B16000000006816CE5C
:104E0E0019A816000000004C1D201DF51CFD1C10DD
:044E1E001D1F1D0037
:00000001FF
