:100000004AC20000F3C700000C9423086CC2000031
:100010006AC2000068C2000066C2000064C200003C
:1000200062C2000060C200005EC200000C94AD0E0F
:100030005AC2000058C2000056C2000054C200005C
:100040000C94500850C200000C94920B0C94C40BFA
:100050004AC2000048C2000046C2000044C200007C
:100060000C94CE1E40C200005D11131213127A11BF
:10007000A211C0111312B0111312ED111312DA11E3
:10008000F311084AD73B3BCE016E84BCBFFDC12FA4
:100090003D6C74319ABD56833DDA3D00C77F11BE79
:1000A000D9E4BB4C3E916BAAAABE000000803F057C
:1000B000A84CCDB2D44EB93836A9020C50B99186AD
:1000C00088083CA6AAAA2ABE000000803F000000C3
:1000D0000008000201000003040700000000000007
:1000E00000000102040810204080010204081020D2
:1000F000010204081020040404040404040402029D
:1001000002020202030303030303000000002300B2
:100110002600290000000000250028002B00000018
:100120000000240027002A00202050697065204527
:1001300072726F7220436F64653A203078004143D9
:1001400049204576742050697065204572726F723F
:100150003A205069706520233A0045767420436D3B
:100160006420726573706F6E653A204572726F72AB
:100170002E2041726475696E6F20697320696E204C
:10018000616E207768696C652831293B206C6F6F40
:10019000700041434920436F6D6D616E64200045DE
:1001A00072726F7220696E204143492053657475E5
:1001B00070000957726974696E67206F6E652062FE
:1001C000797465203078000007060000030241D7EB
:1001D000000000000000000000000000000000001F
:1001E0000000000000000000001F061000000000DA
:1001F000000000040004010100000600009000005F
:10020000000000000000000000001F06101C01029A
:1002100000000000000000000000000000000000DE
:1002200000140000001403900164001F061038023F
:10023000FF02580005000000000000000000000060
:10024000100000000000000000000000050610542F
:10025000000000000000000000000000000000009E
:10026000000000000000000000000000001F062049
:10027000000404020200012800010018040405051E
:1002800000022803010E0300002A041407001F06C1
:10029000201C0400032A0001554152546963730471
:1002A0000405050004280301020500012A06001FB9
:1002B00006203804030200052A0101000004040599
:1002C000050006280301020700042A0604090800A5
:1002D0001F06205400072A04010600120000000A2D
:1002E0000004040202000828000101180404101090
:1002F000001F06207000092800019ECADC240EE5BC
:10030000A9E093F3A3B50100406E04041313000A9F
:1003100028001F06208C0301040B009ECADC240E5B
:10032000E5A9E093F3A3B50200406E441014000069
:100330000B00001F0620A8020200000000000000C1
:100340000000000000000000000000000004041392
:1003500013000C001F0620C4280301100D009ECAC4
:10036000DC240EE5A9E093F3A3B50300406E14006E
:100370001400000D001F0620E00003020000000032
:10038000000000000000000000000000000000006D
:100390004614030200001F0620FC0E290201000083
:1003A00004040202000F2800010A180404050500D5
:1003B000102803010211001906211800272A04043D
:1003C000090100112A27010A0000000000000000B6
:1003D00000000000000000001F0640002A0001008D
:1003E000800400030000000202000804000B00006B
:1003F000000302000204000D000F06401C000E2A3C
:10040000270100800400110000000000000000002F
:1004100000000000000000000000130650009ECA0B
:10042000DC240EE5A9E093F3A3B50000406E0000C4
:1004300000000000000000000000000F0660000047
:1004400000000000000000000000000000000000AC
:100450000000000000000000000000000606F000A0
:1004600003D388000000000000000000000000002E
:10047000000000000000000000000000436D642048
:1004800051756575652046756C6C00002C20000068
:100490007804F20BED1D11241FBECFEFD8E0DEBFB4
:1004A000CDBF12E0A0E0B1E0E2E2FCE402C00590C2
:1004B0000D92A436B107D9F727E0A4E6B2E001C057
:1004C0001D92AE39B207E1F714E0C6E9D4E004C0EA
:1004D0002297FE010E945320C039D107C9F70E941C
:1004E000A10E0C940F268CCD0F931F93CF93DF9307
:1004F00000D000D000D0CDB7DEB78C0169E271E04A
:10050000CE0101960E94370EB801CE0101960E94DD
:10051000770E62E371E00E94880EBC0180ED92E0EC
:100520000E94980CCE0101960E94CC0DF801048126
:100530001581065F1F4F0332110574F463E371E008
:1005400080ED92E00E94A60C6AEF70E080E090E0FF
:1005500020D60F5F1F4FEFCF80ED92E00E94AE0CD0
:1005600026960FB6F894DEBF0FBECDBFDF91CF91B8
:100570001F910F910895CF93DF9300D000D000D04A
:10058000CDB7DEB742E050E06EE573E081E0FED427
:1005900026E040E855E260E070E080ED92E00E94E5
:1005A000300B80ED92E00E94AE0C65E371E0CE016D
:1005B00001960E94370ECE01019696DFCE0101967C
:1005C0000E94CC0D68E371E0CE0101960E94370EC7
:1005D000CE01019689DFCE0101960E94CC0D89E9FA
:1005E00092E00E9478188FEA92E00E943C1860E442
:1005F00071E0CE0101960E94370ECE01019674DFA4
:10060000CE0101960E94CC0D40E550E060E070E024
:1006100084E692E00E944E1261E088E04ED661E5E9
:1006200071E0CE0101960E94370ECE0101965CDF8B
:10063000CE0101960E94CC0D64E070E083E992E067
:100640000E94001067E070E080E992E00E940010D4
:1006500065E070E086E992E00E94001065E570E0D8
:1006600086E992E00E9438106AE571E0CE010196B9
:100670000E94370ECE01019637DFCE0101960E940F
:10068000CC0D6CE671E080ED92E00E94A60C68EE65
:1006900073E080E090E07DD526960FB6F894DEBF3B
:1006A0000FBECDBFDF91CF91089580910A018823BD
:1006B00011F061E001C060E088E038C60F931F933D
:1006C00039D500917E0210917F02209180023091F5
:1006D0008102601B710B820B930B00910B01109137
:1006E0000C0120910D0130910E0106171707280704
:1006F0003907A8F480910A0191E0892780930A01C3
:100700006CE771E080ED92E00E94A60C60910A0116
:1007100070E04AE050E080ED92E00E947F0D0AD543
:1007200060937E0270937F02809380029093810297
:100730001F910F91BACF61E086E0BFD560E086E0FF
:10074000F5D582E090E04AD561E086E0EFD585E01E
:1007500090E044D560E086E0B0D520E432E44FE09C
:1007600050E061E086E017D62AE330E040E050E058
:100770000E943520CA01B90108954F925F926F928D
:100780007F928F929F92AF92BF92CF92DF92EF9221
:10079000FF92CF93DF9300D000D0CDB7DEB7CBDF91
:1007A00069837A838B839C836CE271E080E090E0C4
:1007B000F0D4C1DF2B013C016CE271E080E090E0FD
:1007C000E8D4B9DF4B015C016CE271E080E090E0BD
:1007D000E0D4B1DF6B017C016CE271E080E090E07D
:1007E000D8D469817A818B819C81640D751D861DA9
:1007F000971D680D791D8A1D9B1D6C0D7D1D8E1D1D
:100800009F1D24E030E040E050E00E943520CA0106
:10081000B9010F900F900F900F90DF91CF91FF9043
:10082000EF90DF90CF90BF90AF909F908F907F9090
:100830006F905F904F900895CF93DF93EB01BC01D1
:1008400080E992E00E940510BE0183E992E0DF9109
:10085000CF910C940510CF93DF93EC0164EA76E01E
:1008600084EA96E0E9DFBE01882777FD8095982F1E
:1008700090D46CED75E08CED95E0DF91CF91DCCFFD
:1008800084E692E00E94441184E692E00E941311F3
:1008900090938F0280938E02209113013091140166
:1008A0008217930721F18538910589F4809186029A
:1008B00090918702A0918802B09189028093820270
:1008C00090938302A0938402B093850208C0863877
:1008D000910529F46CED75E08CED95E0ADDF80912C
:1008E0008E0290918F0290931401809313010895CA
:1008F00082EC92E00E941A1B4DE556E760E070E042
:100900008FEA92E00E9421174EE556E760E070E022
:1009100089E992E00E942B1786E992E00E94670F16
:1009200083E992E00E94670F80E992E00E94670FDE
:1009300001D460938602709387028093880290931B
:10094000890229E042E06AE084E692E00C94171103
:100950000F931F938091860290918702A091880245
:10096000B091890240918202509183026091840289
:10097000709185028C019D01041B150B260B370B12
:1009800040910F015091100160911101709112017D
:100990004017510762077307F0F480938202909327
:1009A0008302A0938402B093850288EB9BE0A0E0D1
:1009B000B0E080930F0190931001A0931101B093C8
:1009C000120186E990E090938B0280938A029093C3
:1009D0008D0280938C0284E692E00E949C10029724
:1009E00009F043C084E692E00E94A91090938B0224
:1009F00080938A028091860290918702A09188025A
:100A0000B09189028093820290938302A093840222
:100A1000B093850284E692E00E94A91090938D0223
:100A200080938C02409186025091870260918802E7
:100A300070918902409382025093830260938402F2
:100A4000709385022AE0289FB001299F700D112420
:100A500080918A0290918B02AC01249FC001259F56
:100A6000900D11241F910F91E7CE1F910F910895C2
:100A7000CF93DF93CDB7DEB7C855D1090FB6F89441
:100A8000DEBF0FBECDBFBE016B5D7F4F89E992E037
:100A90000E94FD19BE016F5F7F4F8FEA92E00E94B6
:100AA00018199E012F5F3F4FAE014B5D5F4F63E012
:100AB00070E082EC92E00E941B1B811103C08FEF5B
:100AC0009FEF17C09E01275B3F4FAE014B5D5F4F0D
:100AD00063E070E082EC92E00E94451C882379F389
:100AE00065966CAD7DAD8EAD9FAD65970E94A621DC
:100AF000CB01C85ADF4F0FB6F894DEBF0FBECDBF93
:100B0000DF91CF9108958F929F92AF92BF92CF9233
:100B1000DF92EF92FF92C0D14B015C0168EC71E073
:100B200080ED92E013D72AE030E0B501A40180ED1A
:100B300092E0FBD764EF71E080E090E02AD3D5D15A
:100B40006B017C0160ED71E080ED92E0FFD62AE060
:100B500030E0B701A60180ED92E0E7D78FE1C8163B
:100B6000D104E104F1043CF48FE188169104A1045E
:100B7000B10484F415C08C149D04AE04BF042CF49D
:100B800077DFDCD161E070E009C0C814D904EA0461
:100B9000FB0434F46DDFE5D167EA70E0C8D004C02F
:100BA0008CE291E058DEAFDF80910A01811109C02B
:100BB000FF90EF90DF90CF90BF90AF909F908F907D
:100BC00009C0FF90EF90DF90CF90BF90AF909F90C3
:100BD0008F900895CF92DF92EF92FF9266DDAAD2B6
:100BE00060938602709387028093880290938902B3
:100BF000A2DD6B017C0167ED71E080ED92E0A6D68D
:100C00002AE030E0B701A60180ED92E08ED78EE1B8
:100C1000C816D104E104F10424F561E088E086D32C
:100C20008ADD683271058105910584F462EE71E018
:100C300080ED92E0B5D664E175E084E195E0FCDDFD
:100C40006EE170E080E090E0A4D2EACF6CED75E058
:100C50008CED95E0F1DD80910A01882359F053DF96
:100C600009C080910A01882329F064EA76E084EAC9
:100C700096E0E2DD05DE80918E0290918F0285384C
:100C8000910509F04FC080910A01811105C0FF90C4
:100C9000EF90DF90CF905CCE84E692E00E949C10B3
:100CA000892B09F43FC084E692E00E94A91090933A
:100CB0008B0280938A028639910511F010920A0105
:100CC0008091860290918702A0918802B09189025A
:100CD0008093820290938302A0938402B093850252
:100CE00084E692E00E94A91090938D0280938C027A
:100CF0008639910511F010920A0180918602909137
:100D00008702A0918802B091890280938202909319
:100D10008302A0938402B093850280910A01882304
:100D200009F4B5CFFF90EF90DF90CF9008955F92D8
:100D30006F927F928F929F92AF92BF92CF92DF92EB
:100D4000EF92FF920F931F93CF93DF938C017B0160
:100D5000C8ECD0E03C018AE0681A710868018AE0BA
:100D6000C80ED11C580181E0A81AB10848018FEFC4
:100D7000881A980A81E0E816F10429F468E077E01F
:100D80008CE494E008C087EAE816F10481F460EB93
:100D900074E088E097E050DDBE01882777FD8095FC
:100DA000982FF7D16CED75E08CED95E045DD64EFA3
:100DB00071E080E090E0EDD181E0E816F10409F007
:100DC0005DC056DE801791079CF4C436D10581F4CE
:100DD000C2E3D0E04DDE081719070CF055C0C43649
:100DE000D10509F051C0C2E3D0E0EE24E394F12C28
:100DF0003FDE8615970534F03BDEC816D90614F0A1
:100E0000C4E6D0E061EF71E080ED92E09FD530DE86
:100E10004AE050E0BC0180ED92E071D668EF71E0ED
:100E200080ED92E093D54AE050E0B80180ED92E089
:100E300066D66CE271E080E090E0ABD119DE8A15F5
:100E40009B0534F115DE8816990614F1512C80911A
:100E50000A01811101C0BEDE51108CCFDF91CF910C
:100E60001F910F91FF90EF90DF90CF90BF90AF90C8
:100E70009F908F907F906F905F90089587EAE8161B
:100E8000F10409F0B5CFA6CF87EAE82EF12CB0CF58
:100E900055245394DCCF9ECECF92DF92EF92FF92F7
:100EA00067EA70E086E992E00E9438106CE271E037
:100EB00080E090E06ED161DC6B017C0166E970E05E
:100EC00080E090E066D165E570E086E992E00E94FE
:100ED000381080910A01811101C07CDEC701B60182
:100EE000FF90EF90DF90CF900895CF92DF92EF9236
:100EF000FF9261E070E086E992E00E9438106CE2B7
:100F000071E080E090E045D138DC6B017C0166E95E
:100F100070E080E090E03DD165E570E086E992E028
:100F20000E94381080910A01811101C053DEC7016F
:100F3000B601FF90EF90DF90CF900895CF93DF93AD
:100F4000EC01CA55D109D7FF03C0C859DE4FFBCF0A
:100F500080910A01811101C03DDECE01DF91CF9168
:100F60000895CF93DF93EC01C65ADF4FC83681E076
:100F7000D8071CF0C856D140F9CF80910A018111E1
:100F800001C028DECE01DF91CF9108958230E8F4D0
:100F9000E82FF0E0EE0FFF1FED53FD4F71836083EC
:100FA000813041F0809169008C7F842B80936900AF
:100FB000E89A089580916900440F551F440F551F0A
:100FC000837F842B80936900E99A0895823068F4C6
:100FD000813011F0E89801C0E998E82FF0E0EE0FB9
:100FE000FF1FED53FD4F1182108208951F920F9243
:100FF0000FB60F9211242F933F934F935F936F93EC
:101000007F938F939F93AF93BF93EF93FF938091C1
:10101000C3029091C402892B29F0E091C302F091A0
:10102000C4020995FF91EF91BF91AF919F918F916C
:101030007F916F915F914F913F912F910F900FBED4
:101040000F901F9018951F920F920FB60F921124B8
:101050002F933F934F935F936F937F938F939F93C0
:10106000AF93BF93EF93FF938091C5029091C60217
:10107000892B29F0E091C502F091C6020995FF91F4
:10108000EF91BF91AF919F918F917F916F915F9100
:101090004F913F912F910F900FBE0F901F90189579
:1010A0001F920F920FB60F9211242F933F938F939D
:1010B0009F93AF93BF938091C8029091C902A09172
:1010C000CA02B091CB023091C70223E0230F2D3723
:1010D00020F40196A11DB11D05C026E8230F02963C
:1010E000A11DB11D2093C7028093C8029093C9022D
:1010F000A093CA02B093CB028091CC029091CD0212
:10110000A091CE02B091CF020196A11DB11D809396
:10111000CC029093CD02A093CE02B093CF02BF91A8
:10112000AF919F918F913F912F910F900FBE0F9094
:101130001F9018952FB7F8946091C8027091C9025A
:101140008091CA029091CB022FBF08953FB7F894C7
:101150008091CC029091CD02A091CE02B091CF02AD
:1011600026B5A89B05C02F3F19F00196A11DB11D02
:101170003FBF6627782F892F9A2F620F711D811D1F
:10118000911D42E0660F771F881F991F4A95D1F77E
:101190000895CF92DF92EF92FF92CF93DF936B018E
:1011A0007C01D4DFEB01C114D104E104F10479F036
:1011B000D3D5CCDF6C1B7D0B683E7340A0F381E080
:1011C000C81AD108E108F108C851DC4FECCFDF9113
:1011D000CF91FF90EF90DF90CF9008950197009707
:1011E00039F0880F991F880F991F02970197F1F71F
:1011F0000895789484B5826084BD84B5816084BD8F
:1012000085B5826085BD85B5816085BDEEE6F0E07F
:10121000808181608083E1E8F0E0108280818260DB
:101220008083808181608083E0E8F0E0808181605C
:101230008083E1EBF0E0808184608083E0EBF0E08C
:10124000808181608083EAE7F0E080818460808330
:1012500080818260808380818160808380818068DA
:1012600080831092C1000895833081F028F481308A
:1012700099F08230A1F008958730A9F08830B9F054
:101280008430D1F4809180008F7D03C080918000F4
:101290008F7780938000089584B58F7702C084B5DE
:1012A0008F7D84BD08958091B0008F7703C08091B9
:1012B000B0008F7D8093B0000895CF93DF9390E0CE
:1012C000FC01EE51FF4F2491FC01EA50FF4F849145
:1012D000882349F190E0880F991FFC01E25EFE4FE0
:1012E000A591B4918C5E9E4FFC01C591D4919FB79E
:1012F000611108C0F8948C91209582238C93888189
:1013000082230AC0623051F4F8948C91322F3095C8
:1013100083238C938881822B888304C0F8948C91DA
:10132000822B8C939FBFDF91CF9108950F931F93D2
:10133000CF93DF931F92CDB7DEB7282F30E0F901AE
:10134000E253FF4F8491F901EE51FF4F1491F901DF
:10135000EA50FF4F04910023C1F0882319F06983FC
:1013600083DF6981E02FF0E0EE0FFF1FEC5EFE4FA0
:10137000A591B4919FB7F8948C91611103C0109519
:10138000812301C0812B8C939FBF0F90DF91CF9160
:101390001F910F910895CF92DF92EF92FF920F93DA
:1013A0001F93CF93DF9390E0FC01EE51FF4FD49158
:1013B000FC01EA50FF4F7491611102C0C0E001C00E
:1013C000CD2FDA01C901BF70672F70E0660F771F5C
:1013D000665F7E4F00E010E09801FB01E590F4901D
:1013E000F70140814D234C131EC0680179014FEF76
:1013F000C41AD40AE40AF40A081719072A073B0793
:1014000009F442C097018601E8CF68017901FFEF36
:10141000CF1ADF0AEF0AFF0A081719072A073B0746
:1014200099F197018601FB01E590F490F701408165
:101430004D234C13EACF801B910BA20BB30B20E082
:1014400030E0A901FB01E590F490F701F080FD2266
:10145000FC120AC0281739074A075B07A9F02F5F5B
:101460003F4F4F4F5F4FEECFA8E1B0E00E946620A4
:10147000605F7F4F8F4F9F4F24E0969587957795BC
:1014800067952A95D1F703C060E070E0CB01DF914A
:10149000CF911F910F91FF90EF90DF90CF90089523
:1014A000FC01818D228D90E0805C9F4F821B910911
:1014B0008F7399270895FC01918D828D981731F0D3
:1014C000828DE80FF11D858D90E008958FEF9FEFDD
:1014D0000895FC01918D828D981761F0828DDF0156
:1014E000A80FB11D5D968C91928D9F5F9F73928F17
:1014F00090E008958FEF9FEF089589EE9BE0892B90
:1015000041F080E090E0892B21F063D181110C94AF
:1015100000000895FC01848DDF01A80FB11DA35ABE
:10152000BF4F2C91848D90E001968F739927848F03
:10153000A689B7892C93A089B1898C9180648C93FA
:10154000938D848D981306C00288F389E02D8081E5
:101550008F7D80830895CF93DF93EC01888D88235E
:10156000C1F0EA89FB89808185FD05C0A889B98918
:101570008C9186FD0EC00FB607FCF5CF808185FFEC
:10158000F2CFA889B9898C9185FFEDCFCE01C2DF5A
:10159000E8CFDF91CF910895CF92DF92FF920F9322
:1015A0001F93CF93DF931F92CDB7DEB76C01DC01A1
:1015B0005B969C915B975C968C915C97981307C0A7
:1015C0005096ED91FC915197808185FD31C0F601D7
:1015D000038D10E00F5F1F4F0F731127F02EF601E0
:1015E000848DF81210C00FB607FCF9CFD6015096C3
:1015F000ED91FC915197808185FFF1CFC601698300
:1016000089DF6981ECCF838DE80FF11DE35AFF4F2D
:101610006083D6015B960C935B975296ED91FC919B
:10162000539780818062808381E058968C930DC0AF
:10163000D6015696ED91FC91579760835096ED91A7
:10164000FC91519780818064808381E090E00F90CD
:10165000DF91CF911F910F91FF90DF90CF90089570
:10166000BF92CF92DF92EF92FF92CF93DF93EC0184
:101670006A017B01B22EE889F98982E080834115F5
:1016800081EE580761057105A1F060E079E08DE316
:1016900090E0A70196010E941320215031094109D1
:1016A00051095695479537952795211580E13807BB
:1016B00098F0E889F989108260E874E88EE190E09A
:1016C000A70196010E9413202150310941095109B7
:1016D0005695479537952795EC85FD853083EE85A2
:1016E000FF852083188EEC89FD89B082EA89FB8909
:1016F000808180618083EA89FB8980818860808322
:10170000EA89FB89808180688083EA89FB898081FE
:101710008F7D8083DF91CF91FF90EF90DF90CF900E
:10172000BF9008951F920F920FB60F9211242F931E
:101730008F939F93EF93FF93E091E002F091E1028A
:101740008081E091E602F091E70282FD12C0908173
:101750008091E9028F5F8F732091EA02821751F026
:10176000E091E902F0E0E053FD4F958F8093E902AC
:1017700001C08081FF91EF919F918F912F910F90E8
:101780000FBE0F901F9018951F920F920FB60F92D9
:1017900011242F933F934F935F936F937F938F9376
:1017A0009F93AF93BF93EF93FF9380ED92E0B2DEF0
:1017B000FF91EF91BF91AF919F918F917F916F9129
:1017C0005F914F913F912F910F900FBE0F901F90FF
:1017D000189580ED92E064DE21E0892B09F420E089
:1017E000822F08951092D3021092D20288EE93E0D5
:1017F000A0E0B0E08093D4029093D502A093D602EB
:10180000B093D70284E192E09093D1028093D0020A
:1018100085EC90E09093DD028093DC0284EC90E014
:101820009093DF028093DE0280EC90E09093E102DF
:101830008093E00281EC90E09093E3028093E202D7
:1018400082EC90E09093E5028093E40286EC90E0D5
:101850009093E7028093E6021092E9021092EA0266
:101860001092EB021092EC020895CF92DF92EF9269
:10187000FF920F931F93CF93DF936C017A01EB01DB
:10188000E60EF71E00E010E0CE15DF0561F069916D
:10189000D601ED91FC910190F081E02DC6010995F2
:1018A000080F191FF1CFC801DF91CF911F910F9140
:1018B000FF90EF90DF90CF9008956115710581F052
:1018C000DB010D900020E9F7AD0141505109461BA5
:1018D000570BDC01ED91FC910280F381E02D09941E
:1018E00080E090E00895EF92FF920F931F93CF93C3
:1018F000DF938C01FB01C0E0D0E064917F018FEFAA
:10190000E81AF80A662361F0D801ED91FC91019084
:10191000F081E02DC8010995C80FD91FF701EDCF5F
:10192000CE01DF91CF911F910F91FF90EF9008951D
:10193000DC01ED91FC91DB0114964D915C911597C2
:101940006D917C910280F381E02D0994B6CFDC018A
:10195000ED91FC910190F081E02D09940F931F937C
:10196000CF93DF93EC016DE0F2DF8C016AE0CE01F2
:10197000EEDF800F911FDF91CF911F910F9108959E
:101980000F931F93CF93DF93EC01ADDF8C01CE015A
:10199000E5DF800F911FDF91CF911F910F91089587
:1019A0000F931F93CF93DF93EC0187DF8C01CE0160
:1019B000D5DF800F911FDF91CF911F910F91089577
:1019C0008F929F92AF92BF92CF92DF92EF92FF924F
:1019D0000F931F93CF93DF93CDB7DEB7A1970FB6C9
:1019E000F894DEBF0FBECDBF7C01C42EE52FCB0126
:1019F000D22E19A221E02D1510F02AE0D22E8E0150
:101A00000F5D1F4F8D2C912CA12CB12C6C2D7E2F96
:101A1000A50194010E9413208C2DD29E80191124BF
:101A2000015011098A3014F4805D01C0895CF8010D
:101A30008083211531054105510521F0C22EE32F88
:101A4000CA01E4CFB801C70138DFA1960FB6F894F8
:101A5000DEBF0FBECDBFDF91CF911F910F91FF90E1
:101A6000EF90DF90CF90BF90AF909F908F900895B0
:101A7000CF92DF92EF92FF920F931F93CF93DF935A
:101A8000EC016A017B012115310579F4E881F981C6
:101A90000190F081E02D642FDF91CF911F910F9184
:101AA000FF90EF90DF90CF9009942A303105D9F460
:101AB00077FF18C06DE24BDF8C0144275527BA0130
:101AC0004C195D096E097F092AE0CE0179DF800F8C
:101AD000911FDF91CF911F910F91FF90EF90DF90B9
:101AE000CF9008952AE0B701A601CE01DF91CF91F2
:101AF0001F910F91FF90EF90DF90CF9061CF0F93E8
:101B00001F93CF93DF93EC019A01AB01662757FD3A
:101B10006095762FADDF8C01CE0120DF800F911F05
:101B2000DF91CF911F910F9108950F931F93CF9342
:101B3000DF93EC019DDF8C01CE0110DF800F911F40
:101B4000DF91CF911F910F9108952115310541F437
:101B5000DC01ED91FC910190F081E02D642F09945E
:101B60002FCF9A01462F50E060E070E0EECF0F9348
:101B70001F93CF93DF93EC019A01462F50E060E072
:101B800070E0E3DF8C01CE01E9DE800F911FDF9171
:101B9000CF911F910F910895FC01808191810C9448
:101BA0005E24CF93DF93EC0188819981009711F037
:101BB0000E945E24198218821D821C821B821A8256
:101BC000DF91CF9108950F931F93CF93DF93EC0193
:101BD0008B016F5F7F4F888199810E94ED24009770
:101BE00031F0998388831B830A8381E001C080E000
:101BF000DF91CF911F910F910895CF93DF93EC0167
:101C000088819981892B29F08A819B818617970782
:101C100058F4CE01D8DF882341F08C819D81892B37
:101C200019F4E881F981108281E0DF91CF91089564
:101C3000EF92FF920F931F93CF93DF93EC017B0101
:101C40008A01BA01DADF811103C0CE01AADF07C021
:101C50001D830C83B701888199810E94C225CE0122
:101C6000DF91CF911F910F91FF90EF900895FC01AC
:101C700011821082138212821582148261157105FD
:101C800051F0FB0101900020E9F7AF0141505109EB
:101C9000461B570BCDCF0895EF92FF920F931F93E2
:101CA000CF93DF93EC017B010C811D8161157105E0
:101CB00011F480E015C04115510589F0040F151F7E
:101CC000B8019BDF8823A9F3288139818C819D810C
:101CD000B701820F931F0E94C2251D830C8381E0F0
:101CE000DF91CF911F910F91FF90EF900895CF93C7
:101CF000DF93EC01FB014481558160817181CCDF70
:101D0000811102C0CE014DDFCE01DF91CF91089548
:101D1000CF93DF93EC016115710561F0FB01019038
:101D20000020E9F7AF0141505109461B570BB4DFC2
:101D3000811102C0CE0135DFCE01DF91CF91089530
:101D4000089557DAFDDF0E94BB02CDE7DAE0A3D8A1
:101D50002097E9F3D2DBFBCF08951F920F920FB6C5
:101D60000F9211242F933F934F935F936F937F9321
:101D70008F939F93AF93BF93EF93FF9380916E03E5
:101D800087FF05C010928500109284001AC0209130
:101D90006E03332727FD309580916D0390E028175F
:101DA00039077CF480916E03992787FD9095FC019B
:101DB000EE0FFF1FE80FF91FE159FC4F808186FDF0
:101DC00015C080916E038F5F80936E0320916E0328
:101DD000332727FD309580916D0390E02817390750
:101DE000B4F480916E038C3054F111C080916E0375
:101DF000992787FD9095FC01EE0FFF1FE80FF91F53
:101E0000E159FC4F808160E08F7390DADACF8091E6
:101E1000840090918500049680349C4918F480E4F5
:101E20009CE905C080918400909185000496909370
:101E30008900809388008FEF80936E0337C02091D4
:101E400084003091850080916E03992787FD9095DD
:101E5000FC01EE0FFF1FE80FF91FE159FC4F8181D4
:101E60009281820F931F90938900809388008091C4
:101E70006E03992787FD9095FC01EE0FFF1FE80F79
:101E8000F91FE159FC4F808186FF10C080916E03DD
:101E9000992787FD9095FC01EE0FFF1FE80FF91FB2
:101EA000E159FC4F808161E08F7340DAFF91EF913F
:101EB000BF91AF919F918F917F916F915F914F9162
:101EC0003F912F910F900FBE0F901F90189520916A
:101ED0006D032C30A0F431E0320F30936D03FC0120
:101EE0002083822F90E0FC01EE0FFF1FE80FF91F07
:101EF000E159FC4F88EB9BE09283818308952FEF9B
:101F0000FC0120830895DF92EF92FF920F931F93BD
:101F1000CF93DF93EC01D62E7A01890188818C3032
:101F200008F065C061E08D2DC8D98881A82FB0E088
:101F3000FD01EE0FFF1FEA0FFB1FE159FC4F2D2D96
:101F40002F739081907C922B908360E272E06E19E7
:101F50007F0977FF02C06D5F7F4F75956795759517
:101F60006795698340E659E0401B510B57FF02C05B
:101F70004D5F5F4F55954795559547954A836CE062
:101F80000E9407209CE0899FB001112420E030E0EE
:101F9000A901460F571FFA01EE0FFF1FE40FF51FAF
:101FA000E159FC4F908196FD16C02F5F3F4F2C30BA
:101FB000310571F781110FC01092800082E080938B
:101FC00081001092850010928400B19A80916F0078
:101FD000826080936F00888190E0FC01EE0FFF1F0C
:101FE000E80FF91FE159FC4F80818064808388816C
:101FF000DF91CF911F910F91FF90EF90DF900895A7
:1020000020E639E040E252E07ECFFC0180818C3056
:1020100070F5918128E830E0291B310997FD33954F
:10202000220F331F220F331F621773077CF0928138
:1020300028E532E0291B310997FD3395220F331F24
:10204000220F331F621773070CF49B0122503109D2
:10205000220F331F4FB7F89490E0FC01EE0FFF1FE3
:10206000E80FF91FE159FC4F328321834FBF0895D8
:102070004F925F926F927F92AF92BF92CF92DF9218
:10208000EF92FF920F931F93CF93DF93EC01603297
:1020900082E078070CF040C077FD06C0653B710513
:1020A0002CF064EB70E002C060E070E0898128E809
:1020B00030E0281B310987FD3395220F331F220F93
:1020C000331F5901CC24B7FCC094DC2C882777FD42
:1020D0008095982F2A8148E552E0421B510927FD3F
:1020E0005395440F551F440F551F2A01662457FC72
:1020F0006094762C7F926F925F924F9214EBE12E58
:10210000F12C00E010E020E030E0A9010E94A81CC2
:102110000F900F900F900F90CE01DF91CF911F91F4
:102120000F91FF90EF90DF90CF90BF90AF907F9096
:102130006F905F904F9069CF8091990390919A032F
:102140002091970330919803821B930B8F739927EB
:1021500008952091990330919A038091970390916B
:10216000980328173907E9F0E0919703F091980355
:10217000E556FC4F808120919703309198032F5FA3
:102180003F4F30939803209397032091970330910A
:1021900098032F733327309398032093970390E08D
:1021A00008958FEF9FEF08952091990330919A033E
:1021B00080919703909198032817390749F0E0918F
:1021C0009703F0919803E556FC4F808190E00895C5
:1021D0008FEF9FEF0895089520E030E050E024173E
:1021E000350704F58091990390919A0301968F73B6
:1021F0009927E0919703F09198038E179F0779F044
:10220000E0919903F0919A03DB01A20FB31FAC9107
:10221000E556FC4FA08390939A03809399032F5F18
:102220003F4FDDCF0895FC018589968908950F936E
:102230001F93FC01522F1382128208EE13E020E05C
:1022400030E0048315832683378384E292E0918310
:10225000808381E0808B6093950340939403509337
:102260009603178616861586148610929803109288
:10227000970310929A031092990386E890E0968B48
:10228000858B1F910F910895CF93DF93EC016CED37
:1022900073E08EEF93E0C0D4882309F4C4C040916A
:1022A000DE0350E0FA01E158F109ED30F10508F0E4
:1022B000BAC0EC5CFF4F0C9451208091E1038093F5
:1022C00005048091DF03823021F0833009F461C07E
:1022D000AAC08EEF93E052D1029709F4A4C0888976
:1022E000882309F4A0C06FE971E080ED92E0DF91EE
:1022F000CF9146CB8091E0038823B1F0888981118A
:1023000001C0FFCF62E971E080ED92E0ECDA40E1DC
:1023100050E06091DF0380ED92E029DC6AE571E036
:1023200080ED92E02DDBEDCF8091DF03893009F065
:102330007AC029E041EE53E064E08EEF93E0DF9154
:10234000CF91D2C38091050480930804C7D385E858
:1023500090E09E8B8D8BEC85FD85309709F009957B
:1023600063E08EEF93E062D3882309F45CC0809130
:10237000DB03811158C04AD481E08093DB0353C052
:1023800086E890E09E8B8D8BEC85FD85309709F07B
:1023900009956B897C8989899A89DFD381E890E0E6
:1023A0009E8B8D8BEC85FD85309709F43CC0DF91C9
:1023B000CF9109944091DD03425060EE73E0CE016D
:1023C0000BDFEE85FF85309771F16091DD03625080
:1023D00080EE93E0DF91CF9109948091DF0390919B
:1023E0000804890F1EC088898823C1F06EE371E05C
:1023F00080ED92E078DA4AE050E06091DF0380ED12
:1024000092E0AFDB68E271E080ED92E06CDA40E1EF
:1024100050E06091E00380ED92E0A9DB8091080438
:102420008F5F80930804DF91CF9108950F931F93DE
:10243000CF93DF931F92CDB7DEB78C01698362EB38
:1024400071E080ED92E04FDA40E150E0698180ED8B
:1024500092E08DDB63E08EEF93E0E8D28823A1F079
:1024600041E0BE016F5F7F4F83E091D3809108040C
:1024700081508093080463E270E080E090E00E9465
:10248000C90881E090E004C0C801FEDE80E090E071
:102490000F90DF91CF911F910F910895FC01728BE6
:1024A000618B548B438B85E191E09093FF03809384
:1024B000FE0384E08093000487EC91E09093020493
:1024C0008093010485E1809303048EEF93E0BFD2F3
:1024D00081E00895CF92DF92EF92FF920F931F93C6
:1024E000CF93DF938C01C62E81E2489F70011124A7
:1024F000C0E0D0E0D12CDC1401F1CE018E0D9F1D87
:10250000F80163817481680F791FFB013196449152
:1025100050E04E5F5F4F80E294E00E94B02580E281
:1025200094E06FD1A196811106C06CE774E080ED54
:1025300092E026DA18C0D394DECFC0E061E474E004
:10254000C8016AD38823D1F3CF5F809143048438D4
:1025500051F4809145049FEF980F923010F4CC1203
:10256000EDCF90E002C081E890E0DF91CF911F9124
:102570000F91FF90EF90DF90CF9008950F931F93EE
:10258000CF93DF93EC016D81693028F000E010E01B
:1025900088E890E002C040E014C06D81262F2695A7
:1025A00026952695121738F4402F68E0CE0192DF69
:1025B0001F5F085FF2CF677051F0412F440F440F47
:1025C000440FCE01DF91CF911F910F9183CFDF9107
:1025D000CF911F910F91089510927706FC01E85F4B
:1025E000FE4F108231961082EFE6F5E0DF01119781
:1025F0001C921082B19686E0E737F807B9F7089584
:102600000F931F93CF93DF93EC0109814AE050E0D1
:10261000602F80ED92E0A5DA60E372E080ED92E059
:1026200095D910E0FE01E10FF11D40E150E061811C
:1026300080ED92E096DA6CE874E080ED92E053D998
:102640001F5F011778F76BE874E080ED92E0DF918F
:10265000CF911F910F9194C98EBD00000DB407FE5C
:10266000FDCF8EB5089590919403923019F0933078
:1026700019F01BC020E001C021E03DB3882351F0D8
:1026800081E090E0022E01C0880F0A94EAF7382B0F
:102690003DBB089581E090E0022E01C0880F0A94AE
:1026A000EAF7809583238DBB0895FFCF0F931F9387
:1026B000CF93DF93EC01F89400916C0510916B05BA
:1026C0007894E0916B0580916C05E81749F191E2EF
:1026D0009E9FF0011124ED59FB4FDE0101900D92F8
:1026E0009A95E1F720916B0530E02F5F3F4F2770FF
:1026F000332720936B0580917706882339F063E3B5
:1027000072E080ED92E022D9CE017ADF802F90E056
:10271000019687709927181305C081E0A4DF02C0D5
:1027200080E001C081E0DF91CF911F910F9108956A
:10273000109279060E94ED1C8CB580628CBD8CB520
:102740008C7F81608CBD8DB581608DBD8CB5837FA4
:102750008CBD8DE695E040DF83E694E03DDF61E0EF
:10276000809196030E945D0962E0809194030E942B
:102770005D0961E0809195030E945D0961E08091AF
:1027800096030E94960964E670E080E090E00E9463
:10279000C90860E0809196030E94960961E08091EB
:1027A00096030E94960960E08DE00E94960960E021
:1027B0008BE00E94960961E0809195030E94960942
:1027C00060E08DE00E9496098FEF809393038091E3
:1027D0009403823019F41092930305C0833019F4E6
:1027E00081E0809393036EE170E080E090E00E94CE
:1027F000C90840E050E064ED74E1809193030C94CB
:10280000C6070F931F93CF93DF938C01FC01418187
:102810004032B0F52091760630E0E9012196C7708C
:10282000DD27809175068C17C1F051E2529FC001DF
:10283000539F900D1124FC01E359FA4F108250E090
:102840004F5F5F4FB8016F5F7F4F82599A4F0E9471
:10285000B925C0937606C1E001C0C0E0809177063B
:10286000882339F066E372E080ED92E06FD8C8010A
:10287000C7DE60E0809195030E9496098C2F01C00D
:1028800080E0DF91CF911F910F910895CF92DF9259
:10289000EF92FF920F931F93CF93DF93CDB7DEB7E5
:1028A000A2970FB6F894DEBF0FBECDBF60E0809157
:1028B00095030E9496098091750690917606891776
:1028C00009F45FC090E021E2289FF001299FF00DFC
:1028D0001124E359FA4FDE01119601900D922A95C9
:1028E000E1F7019687709927809375061A81812FE9
:1028F000B3DE809378068B81AFDE80937906112357
:1029000049F0412F50E0282F30E02417350714F408
:102910008FEF810F982F803208F09FE17E0184E0D5
:10292000E80EF11C8AE7C82E86E0D82E8601802F9B
:102930008C19891750F4F70181917F019AA38CDEDD
:10294000F80181938F019AA1F2CF61E08091950304
:102950000E94960983B7816083BF40E050E064ED38
:1029600074E1809193030E94C6079091750680914F
:102970007606981741F060E0809195030E949609D1
:1029800002C01A82B3CF88E796E0A2960FB6F894F9
:10299000DEBF0FBECDBFDF91CF911F910F91FF9092
:1029A000EF90DF90CF900895CF93DF9383B78E7F22
:1029B00083BF809193030E94E60768DFFC01418199
:1029C000442389F160916C0570E0EB012196C7709A
:1029D000DD2720916B052C1729F151E2569F9001BC
:1029E000579F300D1124F901ED59FB4F108250E033
:1029F0004F5F5F4FBC016F5F7F4FC9018C599B4F89
:102A00000E94B925C0936C05F89480916C058F5F86
:102A1000877090916B057894891305C080E0DF91F1
:102A2000CF9121CEFFCFDF91CF910895262F26950C
:102A300026952695820F911DFC01818990E0677093
:102A400002C0959587956A95E2F781700895CF93B6
:102A5000DF93FC01AAE9B6E080E090E0EF01C80F47
:102A6000D91F198A198E1D92019688309105B1F7E8
:102A70001092A7061092A6061092A5061092A40620
:102A80008FEF8093AF068093AE068093AD061092D1
:102A9000AB061092AA061092A9061092A8061092F0
:102AA000A3061092A206109299061092B1061092F7
:102AB000B006808191819093D8068093D706828159
:102AC0008093D606838194819093D5068093D40613
:102AD00085818093D306DF91CF912ACE83EB96E058
:102AE000E5D082EB96E08DCECF93DF93CDB7DEB706
:102AF00066970FB6F894DEBF0FBECDBFCA01E09156
:102B0000D706F091D80633E0639FE00DF11D112444
:102B1000339730813130B9F42531A8F46983422FDD
:102B200050E0BC01CE0102962E8B0E94B9252E8961
:102B3000422FBE016F5F7F4F83EB96E0BDD082EBEB
:102B400096E05FDE01C080E066960FB6F894DEBFC7
:102B50000FBECDBFDF91CF910895CF93DF9300D00B
:102B600000D0CDB7DEB79A8389837C836B83BE01A7
:102B70006F5F7F4F83EB96E0B0D082EB96E041DE53
:102B80000F900F900F900F90DF91CF9108951F93AA
:102B9000CF93DF93CDB7DEB765970FB6F894DEBF5E
:102BA0000FBECDBF142FE091D706F091D80693E069
:102BB000899FE00DF11D112433972181328122304C
:102BC000310519F024303105B1F41531A0F48983B1
:102BD000412F50E0CE0102960E94B925412FBE013F
:102BE0006F5F7F4F83EB96E08CD01092AC0682EB48
:102BF00096E007DE01C080E065960FB6F894DEBF70
:102C00000FBECDBFDF91CF911F91089583EB96E06A
:102C100089D082EB96E0F5CD0F931F93CF93DF938E
:102C2000EC018B01CB0142DDF8019281983839F03B
:102C3000993851F19638A9F520E030E017C020E02E
:102C400030E00F5F1F4FD801A20FB31F12969C9167
:102C50001297FE01E20FF31F918B1A969C91918FB0
:102C60002F5F3F4F2830310571F71BC0FE01E20F87
:102C7000F31F118A118E2F5F3F4F28303105B1F7B6
:102C800019A29F819A870DC0F801238134813C8766
:102C90002B87258136813E872D8727813085388B8C
:102CA0002F87DF91CF911F910F91089521E0FC01B3
:102CB000208329E02183089522E0240FDC012C9356
:102CC0002DE011962C931197FB01219112962C93D4
:102CD00050E0BF0103960C94B925FC01DB0185E0AF
:102CE00080838FE0818311968C91119783838C91DF
:102CF000828313968C911397858312968C9184838B
:102D0000089522E0240FDC012C9325E111962C93E9
:102D10001197FB01219112962C9350E0BF0103966D
:102D20000C94B92521E0FC01208323E1218308953F
:102D30000895FC01658B08950F931F93CF93DF9344
:102D40008C01EB0188E2FB0111928A95E9F74BE0D7
:102D500050E068E372E0CE010E94C9251B8641E085
:102D600050E060E070E04C875D876E877F87F801F8
:102D70000785108921893289088B198B2A8B3B8B17
:102D80004C8B5D8B6E8B7F8B1CA21DA21EA21FA283
:102D9000188E198E1A8E1B8E1C8E1D8E1E8E1F8EE7
:102DA00018A219A21AA21BA2DF91CF911F910F9115
:102DB00008950F931F93CF93DF938C01EB0188E26B
:102DC000FB0111928A95E9F74BE050E068E372E06D
:102DD000CE010E94C9251B8641E050E060E070E012
:102DE0004C875D876E877F87F801418952896389A7
:102DF0007489488B598B6A8B7B8B42E050E060E092
:102E000070E04C8B5D8B6E8B7F8B1CA21DA21EA273
:102E10001FA2188E198E1A8E1B8E1C8E1D8E1E8E52
:102E20001F8E18A219A21AA21BA2DF91CF911F9187
:102E30000F910895DC01ED91FC910190F081E02D5E
:102E4000099423E432E0FC01318320834787508BCF
:102E5000618B728B0895FC018DE492E091838083F5
:102E6000418B528B638B748B158A0895CF93DF93BC
:102E700000D0CDB7DEB78AED96E02A8349838FD69E
:102E80004981642F8AED96E035D62A81622F8AED3A
:102E900096E030D68AED96E00F900F90DF91CF91BB
:102EA0009AC6CF93DF9300D0CDB7DEB78AED96E018
:102EB0002A83498374D64981642F8AED96E01AD615
:102EC0002A81622F8AED96E015D68AED96E00F9062
:102ED0000F90DF91CF917FC60F931F93CF93DF9316
:102EE0008C01EB01262F41E06EE1DBDFF801D4839A
:102EF000C383C038D10509F45BC0DCF4C034D1050C
:102F0000A9F1C036D10509F442C0A09709F08AC0E2
:102F100080E090E8A9E8B4E480932501909326012D
:102F2000A0932701B093280180E090E0A5E7B4E4E6
:102F300071C0C03CD10509F44CC0C03ED10509F4B4
:102F400059C0C03AD10509F06DC080E090E0A8EC0E
:102F5000B3E48093250190932601A0932701B093B9
:102F6000280180E090E8A1EBB3E454C080E090EC4D
:102F7000A5E5B4E48093250190932601A093270151
:102F8000B093280180E090E0AEE3B4E443C080E079
:102F900090E8A7E2B4E48093250190932601A093E2
:102FA0002701B093280180E090E0A6E1B4E432C0AC
:102FB00080E090E0A1EEB3E4809325019093260198
:102FC000A0932701B093280180E090E0A8ECB3E43F
:102FD00021C080E090E0A5EAB3E4809325019093BE
:102FE0002601A0932701B093280180E090E8A3E98F
:102FF000B3E410C080E090E0A6E6B3E4809325013E
:1030000090932601A0932701B093280180E090E0DF
:10301000ADE4B3E48093210190932201A0932301B6
:10302000B0932401DF91CF911F910F9108951F93C9
:10303000CF93DF931F92CDB7DEB7162F8AED96E0C0
:103040004983ADD54981642F8AED96E053D58AED49
:1030500096E0C1D541E0612F8AED96E09ED58AEDDC
:1030600096E0F9D4182F8AED96E0B5D5812F0F9010
:10307000DF91CF911F910895CF93DF93EC018AEDFB
:1030800096E076D527E540E269E1CE01EFDE40E249
:1030900069E1CE01CCDF91E0873509F090E0892F1E
:1030A000DF91CF9108951F93CF93DF931F92CDB7F8
:1030B000DEB7162F8AED96E0498371D54981642FDA
:1030C0008AED96E017D58AED96E085D541E0612F2F
:1030D0008AED96E062D58AED96E0BDD4182F8AED90
:1030E00096E079D5812F0F90DF91CF911F910895B0
:1030F000CF93DF93EC018AED96E03AD520E042E0F1
:103100006EE1CE01CEDE40E06EE1CE01CCDF80315B
:1031100031F460E270E0CE01DFDE81E001C080E0EA
:10312000DF91CF9108956F927F928F929F92AF928D
:10313000BF92CF92DF92EF92FF920F931F93CF93A4
:10314000DF93EC0169E18AED96E029D568EA70E049
:103150008AED96E06FDE8AED96E03DD546E069E1C6
:103160008AED96E01AD58AED96E06DD40697DCF3E9
:103170008AED96E070D4782E8AED96E06CD4682EB5
:103180008AED96E068D4982E8AED96E064D4882E75
:103190008AED96E060D4D82E8AED96E05CD4C82EF5
:1031A000B62CA12CA72884E0B594A7948A95E1F7C2
:1031B000B501882777FD8095982F0E94D9216B83D0
:1031C0007C838D839E83F82CE12CE92894E0F59490
:1031D000E7949A95E1F7B701882777FD8095982FB6
:1031E0000E94D9216F83788789879A871C2D00E0F8
:1031F0000D2924E0159507952A95E1F7B801882750
:1032000077FD8095982F0E94D9216B877C878D87C9
:103210009E87DF91CF911F910F91FF90EF90DF90EC
:10322000CF90BF90AF909F908F907F906F900895B8
:103230000F931F93CF93DF938C01EB0184E2FB018B
:1032400011928A95E9F7C8016EDF84E290E0A0E070
:10325000B0E088839983AA83BB83F801878590892E
:10326000A189B2898C839D83AE83BF8381E090E086
:10327000A0E0B0E088879987AA87BB870E949A0858
:10328000688B798B8A8B9B8B2FE632E143E85AE37C
:10329000F80163817481858196810E94F2222AE07F
:1032A00038EE4CE151E40E94F2226C8B7D8B8E8BC8
:1032B0009F8B2FE632E143E85AE3F801678170857E
:1032C000818592850E94F2222AE038EE4CE151E499
:1032D0000E94F222688F798F8A8F9B8F2FE632E1CE
:1032E00043E85AE3F80163857485858596850E94D5
:1032F000F2222AE038EE4CE151E40E94F2226C8F77
:103300007D8F8E8F9F8F81E0DF91CF911F910F91E5
:1033100008956F927F928F929F92AF92BF92CF92B9
:10332000DF92EF92FF920F931F93CF93DF93EC0105
:103330006EE18AED96E033D463E070E08AED96E0CA
:1033400079DD8AED96E047D446E06EE18AED96E0BD
:1033500024D48AED96E077D30697DCF38AED96E0E5
:103360007AD3682E8AED96E076D3782E8AED96E0B1
:1033700072D3C82E8AED96E06ED3D82E8AED96E0F1
:103380006AD3882E8AED96E066D3982EB62CA12CAF
:10339000A728B501882777FD8095982F0E94D9210D
:1033A0006D837E838F839887F82CE12CE928B70101
:1033B000882777FD8095982FFCD769877A878B8738
:1033C0009C871C2D00E00D29B801882777FD80958A
:1033D000982FEFD76D877E878F87988BDF91CF915E
:1033E0001F910F91FF90EF90DF90CF90BF90AF9023
:1033F0009F908F907F906F9008952F923F924F9261
:103400005F926F927F928F929F92AF92BF92CF9274
:10341000DF92EF92FF920F931F93CF93DF93EC0114
:103420008B0184E2FB0111928A95E9F749E06EE194
:10343000CE0139DE80FFEAC0CE016BDF8D898823A3
:1034400009F47FC04D805E806F80788489849A847F
:10345000AB84BC84CD84DE84EF84F888222423945A
:1034600020E030E04FEF54ECC301B20100D7181652
:103470000CF4212C3324339420E030E04FEF54E45B
:10348000C301B2010E94E72287FD312C3228662455
:10349000639420E030E04FEF54E4C501B4010E9492
:1034A000E72287FD612C63287724739420E030E0C5
:1034B0004FEF54ECC501B401DAD618160CF4712C98
:1034C0007628BB24B39420E030E04FEF54E4C701EA
:1034D000B6010E94E72287FDB12C7B2849F420E049
:1034E00030E04FEF54ECC701B601C1D618164CF1CD
:1034F0008B819C8180369105E1F04CF480329105FE
:10350000D9F080349105E9F460E670E017C0803AA4
:10351000910561F0803C910531F08038910589F486
:1035200060EA70E00BC060EE70E008C060EC70E034
:1035300005C060E870E002C060E470E0CE01CCDC61
:1035400075CF84E290E0A0E0B0E0F8018083918341
:10355000A283B38389899A89AB89BC898483958343
:10356000A683B78382E090E0A0E0B0E080879187F7
:10357000A287B3870E949A08F801608B718B828BB7
:10358000938BC0902501D0902601E0902701F09008
:103590002801A70196016D817E818F8198856ED665
:1035A00020E030E048EC52E40E94F222F801648B03
:1035B000758B868B978BA701960169857A858B859C
:1035C0009C855CD620E030E048EC52E40E94F22278
:1035D000F801608F718F828F938F2091210130913C
:1035E000220140912301509124016D857E858F85B4
:1035F000988944D620E030E048EC52E4F3D7F80153
:10360000648F758F868F978F81E001C080E0DF9196
:10361000CF911F910F91FF90EF90DF90CF90BF90CF
:10362000AF909F908F907F906F905F904F903F9062
:103630002F90089508952F923F924F925F926F922C
:103640007F928F929F92AF92BF92CF92DF92EF9232
:10365000FF920F931F93CF93DF93CDB7DEB72A97D7
:103660000FB6F894DEBF0FBECDBFF901411551056D
:1036700009F4F1C0309709F4EEC06230710501F130
:1036800063307105A9F16130710509F0E4C0C08CA7
:10369000D18CE28CF38C848C958CA68CB78C64894D
:1036A0007589868997899A01285E3F4F3A872987CD
:1036B0001A013CE1230E311C8A010C5E1F4F30C001
:1036C000C48CD58CE68CF78C84889588A688B788BE
:1036D000608D718D828D938DFA017C96FA87E987D2
:1036E0001A01F4E12F0E311C8A01085E1F4F18C029
:1036F000C488D588E688F788808C918CA28CB38C9E
:10370000648D758D868D978D9A012C5E3F4F3A871B
:1037100029871A0138E1230E311C8A01045E1F4FEC
:103720009B01AC015FD769837A838B839C83A7015C
:103730009601C701B60156D729813A814B815C8138
:10374000D0D4BDD79B01AC01C501B4013DD52B013F
:103750003C01A5019401C501B40144D729813A81F6
:103760004B815C81BED4ABD79B01AC01C701B601D4
:103770002BD54B015C01C301B2017DD56D837E83E6
:103780008F839887C301B20190D76B017C0124011C
:10379000350177FA709477F87094C301B2016BD554
:1037A00069837A838B839C83C301B2017ED74B01EB
:1037B0005C01E985FA8520813181428153816981EB
:1037C0007A818B819C810ED72B013C01F8012081ED
:1037D000318142815381C501B40104D79B01AC0101
:1037E000C301B2017ED4E985FA8560837183828347
:1037F0009383A7019601F6D6A5019401F3D62B0178
:103800003C01F10120813181428153816D817E81B2
:103810008F819885E7D69B01AC01C301B20161D4C9
:103820004B015C01F8012081318142815381C70144
:10383000B601D8D629813A814B815C81D3D69B01D0
:10384000AC01C501B4014CD4F10160837183828362
:10385000938381E001C080E02A960FB6F894DEBF22
:103860000FBECDBFDF91CF911F910F91FF90EF90D1
:10387000DF90CF90BF90AF909F908F907F906F9090
:103880005F904F903F902F900895CF92DF92EF92EC
:10389000FF92CF93DF93FA01E901309709F44EC00C
:1038A000209709F44BC06230710581F063307105D7
:1038B000B1F06130710509F041C0208D318D428D2C
:1038C000538D648D758D868D978D11C0248D358DAA
:1038D000468D578D648975898689978908C02489A2
:1038E000358946895789608D718D828D938D6CD411
:1038F00020E030E044E353E475D62BED3FE049E4AB
:1039000050E4BCD4688779878A879B87C884D98428
:10391000EA84FB8420E030E0A901C701B601A7D406
:1039200087FF0EC020E030E044EB53E4C701B6014E
:10393000D8D3688779878A879B8702C080E001C0D7
:1039400081E0DF91CF91FF90EF90DF90CF900895CD
:103950004F925F926F927F92AF92BF92CF92DF921F
:10396000EF92FF920F931F93CF93DF93CDB7DEB704
:1039700029013A01621B730B840B950B29893A8943
:103980004B895C892A193B094C095D09298B3A8BC3
:103990004B8B5C8B9B01AC0169897A898B899C89F3
:1039A00027D3E418F50806091709A80197015DD384
:1039B0002A0D3B1D4C1D5D1DCA01B901DF91CF9140
:1039C0001F910F91FF90EF90DF90CF90BF90AF903D
:1039D0007F906F905F904F900895CF93CFB7F894FA
:1039E0008091D906811127C0E0E0F1E08491ECEEEE
:1039F000F0E09491E82FF0E0EE0FFF1FE25EFE4F43
:103A0000A591B4918C91892321F461E08AE00E9410
:103A1000960961E08AE00E945D098CB580618CBDE9
:103A20008CB580648CBD61E08DE00E945D0961E031
:103A30008BE00E945D098091D9068F5F8093D90643
:103A4000CFBFCF91089580910A0790E020910B0796
:103A5000821B9109089520910B0780910A0728176E
:103A600050F4E22FF0E0E45FF84F808190E02F5FA8
:103A700020930B0708958FEF9FEF0895E0910B07B8
:103A800080910A07E81730F4F0E0E45FF84F808196
:103A900090E008958FEF9FEF08950895CF92DF9201
:103AA000EF92FF920F931F93CF93DF937C01CB0193
:103AB0008A012091E606222389F0EB016B01C40EF6
:103AC000D51ECC15DD0561F06991D701ED91FC9112
:103AD0000190F081E02DC7010995F3CF642F35D116
:103AE000C801DF91CF911F910F91FF90EF90DF9070
:103AF000CF900895CF93DF931F92CDB7DEB7698340
:103B00002091E6062223D1F02091E706203240F0F2
:103B100021E030E0FC013383228380E090E014C098
:103B20008091E806E82FF0E0E751F94F9981908302
:103B30008F5F8093E8068093E70604C061E0CE01C2
:103B4000019603D181E090E00F90DF91CF9108952D
:103B5000FC011382128248EE53E060E070E044837F
:103B600055836683778387E592E091838083089508
:103B700010920B0710920A071092E8061092E706BF
:103B80002FC0862F413208F040E26CE077E046D04B
:103B900010920B0780930A07089521E0F2CF81E08D
:103BA0008093E606609309071092E8061092E706F4
:103BB00008950F93062F21E04091E70669EE76E025
:103BC000809109076FD01092E8061092E7061092D4
:103BD000E6060F91089561E0ECCF8AED96E0B8CF4C
:103BE0001092990781E0809397071092960761E001
:103BF00082E10E94960961E083E10E949609E9EB67
:103C0000F0E080818E7F808380818D7F808388E457
:103C10008093B80085E48093BC000895413208F099
:103C20003FC0909199079111FCCF91E09093990733
:103C3000209397072FEF20932C0710927107240FE2
:103C4000209370079093980790919807880F892B7D
:103C50008093980780919607813041F410929607DF
:103C6000809198078093BB0085EC01C085EE80931E
:103C7000BC00809199078130E1F38091710784172E
:103C800010F44091710722E737E0FB01D9018A2F38
:103C9000821B841718F48D918193F9CF842F089596
:103CA00080E008950F93413208F046C09091990743
:103CB0009111FCCF92E090939907009397079FEFA3
:103CC00090932C071092710740937007FB0162E7F5
:103CD00077E0DB019A2F961B941718F491919D932E
:103CE000F9CF1092980790919807880F892B8093AD
:103CF000980780919607813041F410929607809141
:103D000098078093BB0085EC01C085EE8093BC00D2
:103D1000222321F0809199078230E1F380912C07D2
:103D20008F3F61F080912C07803251F080912C07F9
:103D3000803341F483E007C081E005C080E003C028
:103D400082E001C084E00F910895613298F42091DF
:103D50009907243089F460934E07FC0180E597E0D1
:103D6000DC012A2F281B261718F421912D93F9CF57
:103D700080E0089581E0089582E0089585ED8093C4
:103D8000BC008091BC0084FDFCCF1092990708957F
:103D900085EC8093BC001092990708951F920F92B2
:103DA0000FB60F9211242F933F934F935F936F930E
:103DB0007F938F939F93AF93BF93EF93FF938091E4
:103DC000B900887F803609F49CC068F5883209F410
:103DD0005BC090F4803109F454C038F4882309F4AE
:103DE000F3C0883009F44DC0F2C0883109F44CC0EA
:103DF000803209F45DC0EBC0803409F468C048F437
:103E0000803309F455C0883309F0E1C080932C0752
:103E1000A7C0803509F44FC0883509F45DC08834E7
:103E200009F0D5C0D3C0883909F4C4C0A8F48837D4
:103E300009F467C038F4883609F463C0803709F4A0
:103E400060C0C5C0883809F4B5C0803909F45FC0C6
:103E5000803809F0BCC05BC0803B09F483C038F4F3
:103E6000803A09F466C0883A09F47CC0B0C0803C4E
:103E700009F4A4C0883C09F4A1C0883B09F487C0B8
:103E8000A6C08091980710C090917107809170072B
:103E9000981770F5E091710781E08E0F809371079C
:103EA000F0E0EE58F84F80818093BB0085EC83C032
:103EB00080932C078BC0E091710781E08E0F809377
:103EC00071078091BB00F0E0EE58F84F808390912D
:103ED0007107809170076BC0E091710781E08E0FD0
:103EE000809371078091BB00F0E0EE58F84F80831B
:103EF0008091970781116AC081E08093960784EAD8
:103F00005EC083E08093990710922D07CFCF8091F8
:103F10002D07803208F04EC0E0912D0781E08E0F12
:103F200080932D078091BB00F0E0E25DF84F808325
:103F3000BDCF80912D07803230F4E0912D07F0E065
:103F4000E25DF84F10821ADF60912D0770E0E0917A
:103F50009207F09193078EE297E0099510922D0752
:103F600017DF35C084E08093990710924F071092B5
:103F70004E07E0919407F0919507099580914E07BF
:103F8000811105C081E080934E0710925007E091A7
:103F90004F0781E08E0F80934F07F0E0E05BF84F12
:103FA00080818093BB0090914F0780914E079817B6
:103FB00008F47CCF85E88093BC0009C085EC809331
:103FC000BC001092990703C010922C07D7DEFF9116
:103FD000EF91BF91AF919F918F917F916F915F9181
:103FE0004F913F912F910F900FBE0F901F901895FA
:103FF000DB018F939F936AD0BF91AF91A29F800DF9
:10400000911DA39F900DB29F900D11240895991BAF
:1040100079E004C0991F961708F0961B881F7A95BF
:10402000C9F780950895A1E21A2EAA1BBB1BFD01BA
:104030000DC0AA1FBB1FEE1FFF1FA217B307E40787
:10404000F50720F0A21BB30BE40BF50B661F771FDF
:10405000881F991F1A9469F76095709580959095BF
:104060009B01AC01BD01CF010895052E97FB16F40D
:1040700000940FD057FD05D0D6DF07FC02D046F4E0
:1040800008C050954095309521953F4F4F4F5F4F59
:10409000089590958095709561957F4F8F4F9F4FB4
:1040A0000895EE0FFF1F0590F491E02D0994A29F53
:1040B000B001B39FC001A39F700D811D1124911DFC
:1040C000B29F700D811D1124911D0895F0DFA59FF1
:1040D000900DB49F900DA49F800D911D1124089503
:1040E0005058BB27AA270ED027C2F0D130F0F5D107
:1040F00020F031F49F3F11F41EF4C0C10EF4E0959E
:10410000E7FBB6C1E92F3AD280F3BA17620773070B
:104110008407950718F071F49EF552C20EF4E095ED
:104120000B2EBA2FA02D0B01B90190010C01CA0171
:10413000A0011124FF27591B99F0593F50F4503E1C
:1041400068F11A16F040A22F232F342F4427585F0E
:10415000F3CF469537952795A795F0405395C9F726
:104160007EF41F16BA0B620B730B840BBAF09150DE
:10417000A1F0FF0FBB1F661F771F881FC2F70EC07D
:10418000BA0F621F731F841F48F487957795679550
:10419000B795F7959E3F08F0B3CF9395880F08F039
:1041A0009927EE0F97958795089590D158F080E85C
:1041B00091E009F49EEF91D128F040E851E059F4E4
:1041C0005EEF09C05BC1FCC1E92FE078D7D168F38D
:1041D000092E052AC1F3261737074807590738F073
:1041E0000E2E07F8E02569F0E025E0640AC0EF63D1
:1041F00007F8009407FADB01B9019D01DC01CA014F
:10420000AD01EF934AD098D10AD05F91552331F098
:104210002BED3FE049E450FD49EC63CF0895DF9377
:10422000DD27B92FBF7740E85FE31616170648076A
:104230005B0710F4D92FCFD19F938F937F936F9308
:104240007CD2E2E8F0E01DD177D12F913F914F91E0
:104250005F91D4D1DD2349F09058A2EA2AED3FE0E6
:1042600049EC5FE3D0785D274DDFDF9165C1DCD09D
:1042700008F481E0089539D1E3956FC10CD05CC199
:104280002CD140F023D130F021F45F3F19F0F0C081
:10429000511197C1F3C072D198F39923C9F35523F3
:1042A000B1F3951B550BBB27AA2762177307840729
:1042B00038F09F5F5F4F220F331F441FAA1FA9F3DF
:1042C00033D00E2E3AF0E0E830D091505040E695D1
:1042D000001CCAF729D0FE2F27D0660F771F881F32
:1042E000BB1F261737074807AB07B0E809F0BB0B21
:1042F000802DBF01FF2793585F4F2AF09E3F510545
:1043000068F0B6C05EC15F3FECF3983EDCF3869583
:1043100077956795B795F7959F5FC9F7880F911DBA
:104320009695879597F90895E1E0660F771F881FA6
:10433000BB1F621773078407BA0720F0621B730B59
:10434000840BBA0BEE1F88F7E095089504D06894AB
:10435000B11137C108951AD188F09F5790F0B92F45
:104360009927B751A0F0D1F0660F771F881F991FCA
:104370001AF0BA95C9F712C0B13081F021D1B1E07D
:1043800008951EC1672F782F8827B85F39F0B93F8D
:10439000CCF3869577956795B395D9F73EF49095CC
:1043A0008095709561957F4F8F4F9F4F0895E8944A
:1043B00009C097FB3EF490958095709561957F4F6D
:1043C0008F4F9F4F9923A9F0F92F96E9BB2793951B
:1043D000F695879577956795B795F111F8CFFAF42B
:1043E000BB0F11F460FF1BC06F5F7F4F8F4F9F4F5C
:1043F00016C0882311F096E911C0772321F09EE8BA
:10440000872F762F05C0662371F096E8862F70E01F
:1044100060E02AF09A95660F771F881FDAF7880FF9
:104420009695879597F90895990F0008550FAA0B4F
:10443000E0E8FEEF16161706E807F907C0F01216B7
:104440001306E407F50798F0621B730B840B950BBA
:1044500039F40A2661F0232B242B252B21F408950F
:104460000A2609F4A140A6958FEF811D811D0895AC
:1044700097F99F6780E870E060E008959FEF80EC17
:104480000895DF93CF931F930F93FF92EF92DF92E4
:104490007B018C01689405C0DA2EEF01AFD0FE01DC
:1044A000E894A5912591359145915591AEF3EF0191
:1044B00029DEFE019701A801DA9479F7DF90EF90E9
:1044C000FF900F911F91CF91DF91089500240A94DE
:1044D0001616170618060906089500240A941216DF
:1044E0001306140605060895C9CF50D0E8F3E894E2
:1044F000E0E0BB279F57F0F02AED3FE049EC06C013
:10450000EE0FBB0F661F771F881F28F0B23A6207B5
:104510007307840728F0B25A620B730B840BE39580
:104520009A9572F7803830F49A95BB0F661F771F03
:10453000881FD2F7904806C1092E0394000C11F48D
:10454000882352F0BB0F40F4BF2B11F460FF04C06E
:104550006F5F7F4F8F4F9F4F0895EF93E0FF06C02F
:10456000A2EA2AED3FE049EC5FEBCCDDE5DF0F90FE
:10457000039401FC9058EFEAF0E0F7C057FD905823
:10458000440F551F59F05F3F71F04795880F97FB17
:10459000991F61F09F3F79F08795089512161306D1
:1045A0001406551FF2CF4695F1DF08C01616170600
:1045B0001806991FF1CF8695710561050894089535
:1045C000E894BB2766277727CB0197F908952CDF5E
:1045D00008F48FEF08959B01AC0160E070E080E883
:1045E0009FE34CCE0BD0A8CF71DF28F076DF18F018
:1045F000952309F03DCF42CF1124E3CFBFDFA0F3D5
:10460000959FD1F3950F50E0551F629FF001729F67
:10461000BB27F00DB11D639FAA27F00DB11DAA1F86
:10462000649F6627B00DA11D661F829F2227B00DD3
:10463000A11D621F739FB00DA11D621F839FA00D5E
:10464000611D221F749F3327A00D611D231F849FAE
:10465000600D211D822F762F6A2F11249F57504005
:104660008AF0E1F088234AF0EE0FFF1FBB1F661FA0
:10467000771F881F91505040A9F79E3F510570F059
:10468000F7CE9FCF5F3FECF3983EDCF386957795AE
:104690006795B795F795E7959F5FC1F7FE2B880F54
:1046A000911D9695879597F908959F931EDF0F901A
:1046B00007FCEE5F52CF11F40EF4E0CE41C066DF8E
:1046C000D0F39923D9F3CEF39F57550B87FF46D0EC
:1046D0000024A0E640EA900180585695979528F46A
:1046E000805C660F771F881F20F026173707480762
:1046F00030F4621B730B840B202931294A2BA695B9
:1047000017940794202531254A2758F7660F771FFD
:10471000881F20F026173707480730F4620B730B09
:10472000840B200D311D411DA09581F7B901842F07
:104730009158880F9695879508959B01AC0152CFAB
:104740009F3F31F0915020F4879577956795B79505
:10475000880F911D9695879597F90895915050402F
:10476000660F771F881FD2F708959F938F937F93CB
:104770006F93FF93EF939B01AC0134DFEF91FF91B7
:1047800080DE2F913F914F915F912CCFCF93DF939C
:104790008230910510F482E090E0E0919C07F09166
:1047A0009D0720E030E0A0E0B0E0309739F1408193
:1047B000518148175907B8F04817590771F4828199
:1047C0009381109729F013969C938E9312972CC087
:1047D00090939D0780939C0727C02115310531F0E8
:1047E0004217530718F0A901DB0101C0EF019A013C
:1047F000BD01DF010280F381E02DD7CF2115310506
:10480000F9F0281B390B2430310580F48A819B8113
:104810006115710521F0FB019383828304C090939D
:104820009D0780939C07FE01329644C0FE01E20F73
:10483000F31F8193919322503109398328833AC021
:1048400020919A0730919B07232B41F4209102017C
:104850003091030130939B0720939A072091000128
:10486000309101012115310541F42DB73EB740913A
:10487000040150910501241B350BE0919A07F0913A
:104880009B07E217F307A0F42E1B3F0B28173907ED
:1048900078F0AC014E5F5F4F2417350748F04E0F9C
:1048A0005F1F50939B0740939A078193919302C097
:1048B000E0E0F0E0CF01DF91CF910895CF93DF9357
:1048C000009709F487C0FC01329713821282C091CD
:1048D0009C07D0919D07209781F420813181280F7A
:1048E000391F80919A0790919B078217930779F55A
:1048F000F0939B07E0939A076DC0DE0120E030E063
:10490000AE17BF0750F412964D915C9113979D011D
:104910004115510509F1DA01F3CFB383A283408138
:104920005181840F951F8A179B0771F48D919C917B
:104930001197840F951F02969183808312968D9113
:104940009C911397938382832115310529F4F09369
:104950009D07E0939C073EC0D9011396FC93EE930C
:1049600012974D915D91A40FB51FEA17FB0779F4DB
:1049700080819181840F951F0296D90111969C9395
:104980008E938281938113969C938E931297E0E08D
:10499000F0E08A819B81009719F0FE01EC01F9CFCC
:1049A000CE01029628813981820F931F20919A07A8
:1049B00030919B072817390769F4309729F4109232
:1049C0009D0710929C0702C013821282D0939B070E
:1049D000C0939A07DF91CF910895A0E0B0E0E2EF95
:1049E000F4E2EAC0EC01CB01209711F4CFDEB4C0B1
:1049F000FE01E60FF71F9E0122503109E217F3076F
:104A000008F4A8C0D9010D911C911197061717073A
:104A1000B0F00530110508F49BC0A80144505109BD
:104A20004617570708F494C002501109061B170BCC
:104A3000019311936D937C93CF0140DF89C05B019B
:104A4000A01AB10A4E01800E911EA0919C07B09150
:104A50009D07612C712C60E070E0109709F449C04B
:104A6000A815B905C9F5ED90FC901197670142E0D2
:104A7000C40ED11CCA14DB0478F147018A189B08C4
:104A8000640142E0C40ED11C1296BC90129713969A
:104A9000AC91B5E0CB16D10440F0B282A3839182F1
:104AA0008082D9018D939C9309C00E5F1F4F0E0D1C
:104AB0001F1DF90111830083EB2DFA2F611571057C
:104AC00031F0DB011396FC93EE93129741C0F09303
:104AD0009D07E0939C073CC06D917C9111976616F1
:104AE000770608F43B01BD0112960D90BC91A02DF4
:104AF000B4CF60919A0770919B0768157905E9F426
:104B000068167906D0F440910001509101014115D9
:104B1000510541F44DB75EB76091040170910501F4
:104B2000461B570BE417F507A8F4F0939B07E09397
:104B30009A07F901918380830BC028DE7C010097DE
:104B400049F0A801BE0115D0CE01B8DEC70104C0EE
:104B5000CE0102C080E090E0CDB7DEB7EEE048C005
:104B6000FB01DC0102C005900D9241505040D8F786
:104B70000895FB01DC0102C001900D9241505040AC
:104B8000D8F70895FB01DC0101900D920020E1F7B8
:104B90000895FB01DC014150504048F001900D9216
:104BA0000020C9F701C01D9241505040E0F7089520
:104BB0002F923F924F925F926F927F928F929F922D
:104BC000AF92BF92CF92DF92EF92FF920F931F931B
:104BD000CF93DF93CDB7DEB7CA1BDB0B0FB6F894CC
:104BE000DEBF0FBECDBF09942A88398848885F840C
:104BF0006E847D848C849B84AA84B984C884DF807D
:104C0000EE80FD800C811B81AA81B981CE0FD11D60
:104C10000FB6F894DEBF0FBECDBFED010895F89436
:024C2000FFCFC4
:104C220000009E072000010000000164000000B89F
:104C32000B000086000180000108000102000180D3
:104C4200000000754400808944426F6F74696E678A
:104C520020002E2E00557000537761676765720041
:104C6200446F6F6D732044617920576561706F6E78
:104C720000456D6F74696F6E730046616369616CA4
:104C8200205265636F6E6974696F6E00446F6E6562
:104C92002077697468205365747570004275747466
:104CA2006F6E50726573736564007B002C007D200B
:104CB200004D414700636F6D70656E73617465648A
:104CC2002048656164696E675A3A200048656164EC
:104CD200696E67593A200048656164696E67583A9F
:104CE200200020200075540052696768743A200041
:104CF2004C6566743A200044697374616E63653A68
:104D020020003C3330204261636B696E672075700E
:104D12000043757272656E7448656164696E673AC4
:104D220020007475726E696E6720616761696E003A
:104D320000000000CC0A350C500A690A5B0AAB0A73
:104D4200000000001612350C9C10A910D410EB10B4
:104D5200203A0020450043004C534D3330330000CD
:104D6200000000981618199C16000000009916FD04
:104D720019D916000000007A1D4E1D231D2B1D3E61
:044D82001D4D1D00A6
:00000001FF
