:100000000C9457020C9423190C9450190C947F02F1
:100010000C947F020C947F020C947F020C947F025C
:100020000C947F020C947F020C947F020C94050CBC
:100030000C947F020C947F020C947F020C947F023C
:100040000C946A060C947F020C94B3090C94E50995
:100050000C947F020C947F020C947F020C947F021C
:100060000C949C1B0C947F02BB0E800F800FDA0E49
:10007000060F270F800F150F800F560F800F420FAE
:100080005C0F084AD73B3BCE016E84BCBFFDC12F3D
:100090003D6C74319ABD56833DDA3D00C77F11BE79
:1000A000D9E4BB4C3E916BAAAABE000000803F0081
:1000B000416461667275697420426C75656672751B
:1000C0006974204C6F7720456E65726779206E5297
:1000D0004638303031205072696E74206563686F25
:1000E0002064656D6F00000000080002010000033D
:1000F00004070000000000000000010204081020B6
:1001000040800102040810200102040810200404A9
:1001100004040404040402020202020203030303AF
:100120000303000000002300260029000000000057
:10013000250028002B0000000000240027002A00D2
:10014000202050697065204572726F7220436F6481
:10015000653A203078004143492045767420506943
:100160007065204572726F723A2050697065202365
:100170003A0045767420436D6420726573706F6E2B
:10018000653A204572726F722E2041726475696EF5
:100190006F20697320696E20616E207768696C65D5
:1001A0002831293B206C6F6F700041434920436F19
:1001B0006D6D616E6420004572726F7220696E20F1
:1001C0004143492053657475700009577269746919
:1001D0006E67206F6E65206279746520307800004C
:1001E00007060000030241D70000000000000000E5
:1001F00000000000000000000000000000000000FF
:10020000001F0610000000000000000400040101AF
:100210000000060000900000000000000000000048
:1002200000001F06101C010200000000000000007A
:100230000000000000000000001400000014039003
:100240000164001F06103802FF025800050000007C
:10025000000000000000000010000000000000008E
:10026000000000000506105400000000000000001F
:10027000000000000000000000000000000000007E
:1002800000000000001F06200004040202000128F4
:10029000000100180404050500022803010E0300F4
:1002A000002A041407001F06201C0400032A000172
:1002B0005541525469637304040505000428030181
:1002C000020500012A06001F06203804030200056B
:1002D0002A010100000404050500062803010207A5
:1002E00000042A06040908001F06205400072A04F7
:1002F000010600120000000A00040402020008289F
:100300000001011804041010001F062070000928C5
:1003100000019ECADC240EE5A9E093F3A3B5010019
:10032000406E04041313000A28001F06208C0301EA
:10033000040B009ECADC240EE5A9E093F3A3B502EA
:1003400000406E44101400000B00001F0620A8029D
:10035000020000000000000000000000000000009B
:10036000000000000004041313000C001F0620C44A
:10037000280301100D009ECADC240EE5A9E093F3CA
:10038000A3B50300406E14001400000D001F0620EA
:10039000E000030200000000000000000000000078
:1003A00000000000000000004614030200001F06C9
:1003B00020FC0E290201000004040202000F2800A4
:1003C000010A180404050500102803010211001990
:1003D00006211800272A0404090100112A27010A0E
:1003E000000000000000000000000000000000000D
:1003F0001F0640002A0001008004000300000002E4
:1004000002000804000B0000000302000204000DBB
:10041000000F06401C000E2A270100800400110076
:1004200000000000000000000000000000000000CC
:100430000000130650009ECADC240EE5A9E093F3E9
:10044000A3B50000406E00000000000000000000A6
:100450000000000F06600000000000000000000027
:10046000000000000000000000000000000000008C
:10047000000000000606F00003D388000000000022
:10048000000000000000000000000000000000006C
:1004900000000000436D6420517565756520467548
:1004A0006C6C00002C200000A703150ABA1A112456
:1004B0001FBECFEFD8E0DEBFCDBF11E0A0E0B1E0BE
:1004C000EAE2F0E402C005900D92AC3CB107D9F726
:1004D00026E0ACECB1E001C01D92AE3FB207E1F7FF
:1004E00014E0CEEAD4E004C02297FE010E94281D49
:1004F000C83AD107C9F70E94F50B0C9413200C944D
:10050000000026E040E855E260E070E080E392E021
:100510000E94510960EB70E080E392E00E94D80AEB
:100520008DEF91E00E94C11540E550E060E070E081
:100530008CEC91E00E94C00F61E088E00E947A0795
:1005400064E070E087EF91E00E945B0D67E070E08F
:1005500084EF91E00E945B0D65E070E08AEF91E02E
:100560000E945B0D6AE570E08AEF91E00E94940DB5
:1005700068EB7BE080E090E00C94E30661E086E0CD
:100580000E947A0760E086E00E94B30782E090E074
:100590000E940B0761E086E00E94B30785E090E0CF
:1005A0000E940B0760E086E00E947A0720E432E4B4
:1005B0004FE050E061E086E00E94E9072AE330E086
:1005C00040E050E00E94071DCA01B9010895CF9292
:1005D000DF92EF92FF9267EA70E08AEF91E00E946B
:1005E000940D6CE271E080E090E00E94E3060E94CE
:1005F000BE026B017C0164E670E080E090E00E9446
:10060000E30665E570E08AEF91E00E94940DC70172
:10061000B601FF90EF90DF90CF900895CF92DF92D8
:10062000EF92FF9261E070E08AEF91E00E94940DFA
:100630006CE271E080E090E00E94E3060E94BE025E
:100640006B017C0164E670E080E090E00E94E306CC
:1006500065E570E08AEF91E00E94940DC701B60154
:10066000FF90EF90DF90CF9008958A55910997FF02
:1006700003C088599E4FFBCF0895865A9F4F8836F6
:1006800021E092071CF088569140F9CF0895CF934E
:10069000DF93EB01BC0184EF91E00E94610DBE018C
:1006A00087EF91E0DF91CF910C94610DCF93DF93B1
:1006B000EC0164EA76E084EA96E00E944703BE011A
:1006C000882777FD8095982F0E94E3066CED75E0F2
:1006D0008CED95E0DF91CF910C9447038CEC91E089
:1006E0000E94A10E8CEC91E00E94700E9093F30199
:1006F0008093F2012091090130910A01821793073A
:1007000029F18538910589F48091EA019091EB01F6
:10071000A091EC01B091ED018093E6019093E70187
:10072000A093E801B093E90109C08638910531F43E
:100730006CED75E08CED95E00E9447038091F2012D
:100740009091F30190930A0180930901089586E244
:1007500092E00E948A184DE556E760E070E083E180
:1007600092E00E94B6144EE556E760E070E08DEF2F
:1007700091E00E94C0148AEF91E00E94C10C87EFC3
:1007800091E00E94C10C84EF91E00E94C10C0E9494
:10079000B4066093EA017093EB018093EC019093AF
:1007A000ED0129E042E06AE08CEC91E00C94740EDB
:1007B0000F931F938091EA019091EB01A091EC01BE
:1007C000B091ED014091E6015091E7016091E8019F
:1007D0007091E9018C019D01041B150B260B370B51
:1007E0004091050150910601609107017091080147
:1007F0004017510762077307F0F48093E601909366
:10080000E701A093E801B093E90188EB9BE0A0E049
:10081000B0E08093050190930601A0930701B09387
:10082000080186E990E09093EF018093EE019093A8
:10083000F1018093F0018CEC91E00E94F90D029798
:1008400009F044C08CEC91E00E94060E9093EF01F9
:100850008093EE018091EA019091EB01A091EC016F
:10086000B091ED018093E6019093E701A093E80138
:10087000B093E9018CEC91E00E94060E9093F10197
:100880008093F0014091EA015091EB016091EC01FD
:100890007091ED014093E6015093E7016093E80108
:1008A0007093E9012AE0289FB001299F700D11245F
:1008B0008091EE019091EF01AC01249FC001259F32
:1008C000900D11241F910F910C9447031F910F91CC
:1008D0000895CF93DF93CDB7DEB7E4970FB6F894C2
:1008E000DEBF0FBECDBFBE016F5F7F4F8DEF91E0CA
:1008F0000E9463179E012B5D3F4FAE014F5F5F4F1C
:1009000063E070E086E292E00E948B18882341F059
:100910006DA57EA58FA598A90E94791ECB0102C066
:100920008FEF9FEFE4960FB6F894DEBF0FBECDBFFA
:10093000DF91CF910895EF92FF920F931F93CF9382
:10094000DF938C010E9469047C01C8010E94350379
:10095000EC0105968E159F05ACF564E371E080E32C
:1009600092E00E94BB0A0E9469044AE050E0BC0188
:1009700080E392E00E949F0B65E471E080E392E0E7
:100980000E94BB0A4AE050E0BE0180E392E00E9470
:100990009F0B0E9469046396C817D90734F06FE172
:1009A00071E080E392E00E94EA0A64E175E084EA83
:1009B00096E00E94470364EF71E080E090E00E94BF
:1009C000E306C0CF0E9469049E01255031098217B9
:1009D00093071CF26CED75E08CED95E0DF91CF9103
:1009E0001F910F91FF90EF900C944703EF92FF92AD
:1009F0000F931F93CF93DF938C010E9469047C01B6
:100A0000C8010E943D03EC0105968E159F05A4F0D8
:100A10000E9469049E01255031098217930764F0F2
:100A20006CED75E08CED95E0DF91CF911F910F910A
:100A3000FF90EF900C94470364E371E080E392E051
:100A40000E94BB0A0E9469044AE050E0BC0180E3B6
:100A500092E00E949F0B67E571E080E392E00E94C4
:100A6000BB0A4AE050E0BE0180E392E00E949F0B87
:100A700064EA76E084E195E00E94470364EF71E068
:100A800080E090E00E94E306B8CF8F929F92AF92F1
:100A9000BF92CF92DF92EF92FF920E94E7024B014A
:100AA0005C016AE671E080E392E00E94BB0A2AE002
:100AB00030E0B501A40180E392E00E94B70B64EF3F
:100AC00071E080E090E00E94E3060E940E036B015B
:100AD0007C0162E771E080E392E00E94BB0A2AE0B9
:100AE00030E0B701A60180E392E00E94B70B8FE1EE
:100AF000C816D104E104F1043CF48FE18816910496
:100B0000A104B104BCF42EC08C149D04AE04BF0437
:100B100064F40E946904FF90EF90DF90CF90BF9043
:100B2000AF909F908F900C949B04C814D904EA0452
:100B3000FB0464F40E946904FF90EF90DF90CF9073
:100B4000BF90AF909F908F900C94F60488EC90E04B
:100B5000FF90EF90DF90CF90BF90AF909F908F90DD
:100B60000C9456030E94BE02623371058105910503
:100B70006CF460E476E080E496E00E9447036EE166
:100B800070E080E090E00E94E306ECCFFF90EF90F1
:100B9000DF90CF90BF90AF909F908F9008950E946C
:100BA000B4066093EA017093EB018093EC0190939B
:100BB000ED010E94BE026E317105810591052CF593
:100BC00061E088E00E94B3070E94BE0268327105AE
:100BD000810591056CF460E476E080E496E00E9483
:100BE00047036EE170E080E090E00E94E306ECCF06
:100BF00068E775E088E795E00E944703809104016B
:100C0000882389F00E9445050EC080910401882345
:100C100031F068E775E088E795E00E94470360E0FF
:100C200088E00E94B3070E946E038091F2019091C8
:100C3000F3018538910509F047C0809104018111C5
:100C400003C00E94D80340C08CEC91E00E94F90DD3
:100C5000892BD1F18CEC91E00E94060E9093EF016C
:100C60008093EE018639910511F010920401809174
:100C7000EA019091EB01A091EC01B091ED0180931C
:100C8000E6019093E701A093E801B093E9018CECB1
:100C900091E00E94060E9093F1018093F001863955
:100CA000910511F0109204018091EA019091EB01FD
:100CB000A091EC01B091ED018093E6019093E701E2
:100CC000A093E801B093E90164E170E080E090E076
:100CD0000C94E3061F920F920FB60F9211242F93DC
:100CE0003F938F939F93AF93BF93809128029091EE
:100CF0002902A0912A02B0912B023091270223E011
:100D0000230F2D3720F40196A11DB11D05C026E843
:100D1000230F0296A11DB11D209327028093280264
:100D200090932902A0932A02B0932B0280912C0267
:100D300090912D02A0912E02B0912F020196A11D3B
:100D4000B11D80932C0290932D02A0932E02B0939C
:100D50002F02BF91AF919F918F913F912F910F9053
:100D60000FBE0F901F9018952FB7F894609128022E
:100D70007091290280912A0290912B022FBF089531
:100D80003FB7F89480912C0290912D02A0912E02F1
:100D9000B0912F0226B5A89B05C02F3F19F00196F0
:100DA000A11DB11D3FBF6627782F892F9A2F620F93
:100DB000711D811D911D42E0660F771F881F991FCD
:100DC0004A95D1F70895CF92DF92EF92FF92CF9399
:100DD000DF936B017C010E94C006EB01C114D104BA
:100DE000E104F10489F00E94040C0E94C0066C1B0F
:100DF0007D0B683E734090F381E0C81AD108E1088A
:100E0000F108C851DC4FEACFDF91CF91FF90EF900E
:100E1000DF90CF9008950197009739F0880F991FC0
:100E2000880F991F02970197F1F70895789484B578
:100E3000826084BD84B5816084BD85B5826085BDD6
:100E400085B5816085BDEEE6F0E0808181608083BC
:100E5000E1E8F0E01082808182608083808181609F
:100E60008083E0E8F0E0808181608083E1EBF0E066
:100E7000808184608083E0EBF0E08081816080830A
:100E8000EAE7F0E0808184608083808182608083F3
:100E90008081816080838081806880831092C1001E
:100EA0000895833081F028F4813099F08230A1F0E8
:100EB00008958730A9F08830B9F08430D1F480915A
:100EC00080008F7D03C0809180008F7780938000A9
:100ED000089584B58F7702C084B58F7D84BD089551
:100EE0008091B0008F7703C08091B0008F7D809398
:100EF000B0000895CF93DF9390E0FC01E650FF4FE0
:100F00002491FC01E25FFE4F8491882349F190E037
:100F1000880F991FFC01EA5CFE4FA591B491845D96
:100F20009E4FFC01C591D4919FB7611108C0F89400
:100F30008C91209582238C93888182230AC0623011
:100F400051F4F8948C91322F309583238C938881BF
:100F5000822B888304C0F8948C91822B8C939FBF42
:100F6000DF91CF9108950F931F93CF93DF931F923B
:100F7000CDB7DEB7282F30E0F901EA51FF4F849159
:100F8000F901E650FF4F1491F901E25FFE4F049121
:100F90000023C9F0882321F069830E9451076981E9
:100FA000E02FF0E0EE0FFF1FE45DFE4FA591B4913E
:100FB0009FB7F8948C91611103C01095812301C0F3
:100FC000812B8C939FBF0F90DF91CF911F910F9139
:100FD0000895CF92DF92EF92FF920F931F93CF93DA
:100FE000DF9390E0FC01E650FF4FD491FC01E25FFB
:100FF000FE4F7491611102C0C0E001C0CD2FDA0133
:10100000C901BF70672F70E0660F771F6E5D7E4F5E
:1010100000E010E09801FB01E590F490F7014081B9
:101020004D234C131EC0680179014FEFC41AD40A36
:10103000E40AF40A081719072A073B0709F442C013
:1010400097018601E8CF68017901FFEFCF1ADF0A27
:10105000EF0AFF0A081719072A073B0799F19701BA
:101060008601FB01E590F490F70140814D234C137C
:10107000EACF801B910BA20BB30B20E030E0A9015B
:10108000FB01E590F490F701F080FD22FC120AC00C
:10109000281739074A075B07A9F02F5F3F4F4F4FCB
:1010A0005F4FEECFA8E1B0E00E943B1D605F7F4F35
:1010B0008F4F9F4F24E096958795779567952A9552
:1010C000D1F703C060E070E0CB01DF91CF911F91B9
:1010D0000F91FF90EF90DF90CF900895FC01818DEC
:1010E000228D90E0805C9F4F821B91098F7399271E
:1010F0000895FC01918D828D981731F0828DE80F53
:10110000F11D858D90E008958FEF9FEF0895FC010C
:10111000918D828D981761F0828DDF01A80FB11D2E
:101120005D968C91928D9F5F9F73928F90E0089552
:101130008FEF9FEF08958BE09AE0892B49F080E0D4
:1011400090E0892B29F00E940B0A81110C94000079
:101150000895FC01848DDF01A80FB11DA35ABF4F74
:101160002C91848D90E001968F739927848FA689A6
:10117000B7892C93A089B1898C9180648C93938DCD
:10118000848D981306C00288F389E02D80818F7DBD
:1011900080830895CF93DF93EC01888D8823C9F075
:1011A000EA89FB89808185FD05C0A889B9898C9170
:1011B00086FD0FC00FB607FCF5CF808185FFF2CF0B
:1011C000A889B9898C9185FFEDCFCE010E94A9082D
:1011D000E7CFDF91CF910895CF92DF92FF920F93E7
:1011E0001F93CF93DF931F92CDB7DEB76C01DC0165
:1011F0005B969C915B975C968C915C97981307C06B
:101200005096ED91FC915197808185FD32C0F60199
:10121000038D10E00F5F1F4F0F731127F02EF601A3
:10122000848DF81211C00FB607FCF9CFD601509685
:10123000ED91FC915197808185FFF1CFC6016983C3
:101240000E94A9086981EBCF838DE80FF11DE35A55
:10125000FF4F6083D6015B960C935B975296ED919E
:10126000FC91539780818062808381E058968C93B3
:101270000DC0D6015696ED91FC915797608350961C
:10128000ED91FC91519780818064808381E090E0B2
:101290000F90DF91CF911F910F91FF90DF90CF9032
:1012A0000895BF92CF92DF92EF92FF92CF93DF9398
:1012B000EC016A017B01B22EE889F98982E0808322
:1012C000411581EE580761057105A1F060E079E0F4
:1012D0008DE390E0A70196010E94E51C21503109A1
:1012E000410951095695479537952795211580E174
:1012F000380798F0E889F989108260E874E88EE18F
:1013000090E0A70196010E94E51C21503109410996
:1013100051095695479537952795EC85FD8530837E
:10132000EE85FF852083188EEC89FD89B082EA89DD
:10133000FB89808180618083EA89FB898081886064
:101340008083EA89FB89808180688083EA89FB89C0
:1013500080818F7D8083DF91CF91FF90EF90DF9030
:10136000CF90BF9008951F920F920FB60F92112445
:101370002F938F939F93EF93FF93E0914002F0910F
:1013800041028081E0914602F091470282FD12C045
:101390009081809149028F5F8F7320914A0282175A
:1013A00051F0E0914902F0E0E05DFD4F958F8093B0
:1013B000490201C08081FF91EF919F918F912F9100
:1013C0000F900FBE0F901F9018951F920F920FB69F
:1013D0000F9211242F933F934F935F936F937F93BB
:1013E0008F939F93AF93BF93EF93FF9380E392E02C
:1013F0000E94A908FF91EF91BF91AF919F918F91AA
:101400007F916F915F914F913F912F910F900FBE00
:101410000F901F90189580E392E00E946E0821E0E3
:10142000892B09F420E0822F089510923302109244
:10143000320288EE93E0A0E0B0E080933402909313
:101440003502A0933602B09337028DE791E0909376
:1014500031028093300285EC90E090933D028093BE
:101460003C0284EC90E090933F0280933E0280EC3B
:1014700090E0909341028093400281EC90E0909341
:1014800043028093420282EC90E090934502809365
:10149000440286EC90E090934702809346021092BB
:1014A000490210924A0210924B0210924C02089587
:1014B000CF92DF92EF92FF920F931F93CF93DF9320
:1014C0006C017A01EB01E60EF71E00E010E0CE158C
:1014D000DF0561F06991D601ED91FC910190F081F9
:1014E000E02DC6010995080F191FF1CFC801DF9142
:1014F000CF911F910F91FF90EF90DF90CF900895C3
:101500006115710581F0DB010D900020E9F7AD0157
:1015100041505109461B570BDC01ED91FC910280B3
:10152000F381E02D099480E090E00895EF92FF921E
:101530000F931F93CF93DF938C01FB01C0E0D0E0AA
:1015400064917F018FEFE81AF80A662361F0D801F1
:10155000ED91FC910190F081E02DC8010995C80F33
:10156000D91FF701EDCFCE01DF91CF911F910F91E0
:10157000FF90EF9008950C94800ADC01ED91FC91AE
:101580000190F081E02D09940F931F93CF93DF9387
:10159000EC016DE00E94BD0A8C016AE0CE010E9460
:1015A000BD0A800F911FDF91CF911F910F91089578
:1015B0000F931F93CF93DF93EC010E94960A8C0147
:1015C000CE010E94C40A800F911FDF91CF911F911D
:1015D0000F9108950F931F93CF93DF93EC010E9417
:1015E000800A8C01CE010E94C40A800F911FDF91F6
:1015F000CF911F910F9108958F929F92AF92BF92BA
:10160000CF92DF92EF92FF920F931F93CF93DF93CE
:10161000CDB7DEB7A1970FB6F894DEBF0FBECDBF32
:101620007C01C42EE52FCB01D22E19A221E02D156D
:1016300010F02AE0D22E8E010F5D1F4F8D2C912CC1
:10164000A12CB12C6C2D7E2FA50194010E94E51CCC
:101650008C2DD29E80191124015011098A3014F466
:10166000805D01C0895CF801808321153105410549
:10167000510521F0C22EE32FCA01E4CFB801C70102
:101680000E94800AA1960FB6F894DEBF0FBECDBFB0
:10169000DF91CF911F910F91FF90EF90DF90CF904E
:1016A000BF90AF909F908F900895CF92DF92EF926E
:1016B000FF920F931F93CF93DF93EC016A017B019D
:1016C0002115310579F4E881F9810190F081E02D4F
:1016D000642FDF91CF911F910F91FF90EF90DF90DA
:1016E000CF9009942A303105E9F477FF1AC06DE2F2
:1016F0000E94BD0A8C0144275527BA014C195D0987
:101700006E097F092AE0CE010E94FC0A800F911F1A
:10171000DF91CF911F910F91FF90EF90DF90CF90CD
:1017200008952AE0B701A601CE01DF91CF911F9164
:101730000F91FF90EF90DF90CF900C94FC0A0F93E5
:101740001F93CF93DF93EC019A01AB01662757FDFE
:101750006095762F0E94550B8C01CE010E94C40A21
:10176000800F911FDF91CF911F910F9108950F93DB
:101770001F93CF93DF93EC010E94550B8C01CE0198
:101780000E94C40A800F911FDF91CF911F910F918A
:1017900008952115310541F4DC01ED91FC91019092
:1017A000F081E02D642F09940C94FC0A9A01462FD5
:1017B00050E060E070E00C94C90B0F931F93CF933F
:1017C000DF93EC019A01462F50E060E070E00E9448
:1017D000C90B8C01CE010E94C40A800F911FDF91BA
:1017E000CF911F910F91089508950E9416070E94AE
:1017F000F40B0E948102CBE9D8E00E94CF0520972C
:10180000E1F30E949B08F9CF08951F920F920FB643
:101810000F9211242F933F934F935F936F937F9376
:101820008F939F93AF93BF93EF93FF938091CE02DB
:1018300087FF05C010928500109284001AC0209185
:10184000CE02332727FD30958091CD0290E02817F6
:1018500039077CF48091CE02992787FD9095FC0191
:10186000EE0FFF1FE80FF91FE153FD4F808186FD4A
:1018700015C08091CE028F5F8093CE022091CE0260
:10188000332727FD30958091CD0290E02817390746
:10189000BCF48091CE028C305CF112C08091CE02FB
:1018A000992787FD9095FC01EE0FFF1FE80FF91FA8
:1018B000E153FD4F808160E08F730E94B307D9CF61
:1018C0008091840090918500049680349C4918F49E
:1018D00080E49CE905C08091840090918500049685
:1018E00090938900809388008FEF8093CE0238C058
:1018F00020918400309185008091CE02992787FD48
:101900009095FC01EE0FFF1FE80FF91FE153FD4F0B
:1019100081819281820F931F909389008093880028
:101920008091CE02992787FD9095FC01EE0FFF1F55
:10193000E80FF91FE153FD4F808186FF11C08091B0
:10194000CE02992787FD9095FC01EE0FFF1FE80F4F
:10195000F91FE153FD4F808161E08F730E94B3074F
:10196000FF91EF91BF91AF919F918F917F916F9177
:101970005F914F913F912F910F900FBE0F901F904D
:1019800018952091CD022C30A0F431E0320F309325
:10199000CD02FC012083822F90E0FC01EE0FFF1F9F
:1019A000E80FF91FE153FD4F88EB9BE092838183A1
:1019B00008952FEFFC0120830895DF92EF92FF92AC
:1019C0000F931F93CF93DF93EC01D62E7A018901F9
:1019D00088818C3008F066C061E08D2D0E947A0706
:1019E0008881A82FB0E0FD01EE0FFF1FEA0FFB1F5B
:1019F000E153FD4F2D2D2F739081907C922B90837E
:101A000060E272E06E197F0977FF02C06D5F7F4F61
:101A10007595679575956795698340E659E0401B14
:101A2000510B57FF02C04D5F5F4F55954795559538
:101A300047954A836CE00E94D91C9CE0899FB001C5
:101A4000112420E030E0A901460F571FFA01EE0FE4
:101A5000FF1FE40FF51FE153FD4F908196FD16C067
:101A60002F5F3F4F2C30310571F781110FC010925D
:101A7000800082E0809381001092850010928400A3
:101A8000B19A80916F00826080936F00888190E0AE
:101A9000FC01EE0FFF1FE80FF91FE153FD4F80819E
:101AA000806480838881DF91CF911F910F91FF9097
:101AB000EF90DF90089520E639E040E252E00C9488
:101AC000DD0CFC0180818C3070F5918128E830E0DC
:101AD000291B310997FD3395220F331F220F331F26
:101AE000621773077CF0928128E532E0291B3109E7
:101AF00097FD3395220F331F220F331F6217730791
:101B00000CF49B0122503109220F331F4FB7F89478
:101B100090E0FC01EE0FFF1FE80FF91FE153FD4FAE
:101B2000328321834FBF08954F925F926F927F92CD
:101B3000AF92BF92CF92DF92EF92FF920F931F93DB
:101B4000CF93DF93EC01603282E078070CF040C065
:101B500077FD06C0653B71052CF064EB70E002C0B8
:101B600060E070E0898128E830E0281B310987FDBA
:101B70003395220F331F220F331F5901CC24B7FC9A
:101B8000C094DC2C882777FD8095982F2A8148E522
:101B900052E0421B510927FD5395440F551F440F36
:101BA000551F2A01662457FC6094762C7F926F9211
:101BB0005F924F9214EBE12EF12C00E010E020E058
:101BC00030E0A9010E947D190F900F900F900F90A7
:101BD000CE01DF91CF911F910F91FF90EF90DF9099
:101BE000CF90BF90AF907F906F905F904F900C948C
:101BF000610D8091F9029091FA022091F7023091E3
:101C0000F802821B930B8F73992708952091F90294
:101C10003091FA028091F7029091F8022817390763
:101C2000E9F0E091F702F091F802E550FD4F808174
:101C30002091F7023091F8022F5F3F4F3093F80266
:101C40002093F7022091F7023091F8022F73332787
:101C50003093F8022093F70290E008958FEF9FEF02
:101C600008952091F9023091FA028091F702909143
:101C7000F8022817390749F0E091F702F091F802CD
:101C8000E550FD4F808190E008958FEF9FEF08951C
:101C9000089520E030E050E02417350704F58091E6
:101CA000F9029091FA0201968F739927E091F70259
:101CB000F091F8028E179F0779F0E091F902F09108
:101CC000FA02DB01A20FB31FAC91E550FD4FA083D8
:101CD0009093FA028093F9022F5F3F4FDDCF089572
:101CE000FC018589968908950F931F93FC01522F5B
:101CF0001382128208EE13E020E030E004831583A3
:101D0000268337838DE891E09183808381E0808B07
:101D10006093F5024093F4025093F60217861686FC
:101D2000158614861092F8021092F7021092FA02A9
:101D30001092F90286E890E0968B858B1F910F91A7
:101D40000895CF93DF93EC016CE373E08EE593E0AD
:101D50000E94A013882309F4D3C040913E0350E0B1
:101D6000FA01E158F109ED30F10508F0C9C0EC5C69
:101D7000FF4F0C94261D8091410380936503809151
:101D80003F03823021F0833009F46AC0B9C08EE588
:101D900093E00E943410029709F4B2C08889882326
:101DA00009F4AEC067EB71E080E392E0DF91CF9180
:101DB0000C94D80A809140038823C9F08889811146
:101DC00001C0FFCF6AEA71E080E392E00E94960AC8
:101DD00040E150E060913F0380E392E00E94DD0B20
:101DE00062E771E080E392E00E94D80AEACF809136
:101DF0003F03893009F084C029E041E453E064E006
:101E00008EE593E0DF91CF910C94001380916503F0
:101E1000809368030E94F81285E890E09E8B8D8B7A
:101E2000EC85FD85309709F0099563E08EE593E038
:101E30000E949F12882309F463C080913B038111A3
:101E40005FC00E94981381E080933B0359C086E8ED
:101E500090E09E8B8D8BEC85FD85309709F0099580
:101E60006B897C8989899A890E943B1381E890E07B
:101E70009E8B8D8BEC85FD85309709F441C0DF91F9
:101E8000CF91099440913D03425060E473E0CE014C
:101E90000E94490EEE85FF85309791F160913D03D8
:101EA000625080E493E0DF91CF91099480913F03E9
:101EB00090916803890F22C088898823E1F066E544
:101EC00071E080E392E00E94960A4AE050E060915F
:101ED0003F0380E392E00E94D60B60E471E080E370
:101EE00092E00E94960A40E150E06091400380E356
:101EF00092E00E94DD0B809168038F5F80936803FE
:101F0000DF91CF9108950F931F93CF93DF931F928B
:101F1000CDB7DEB78C0169836AEC71E080E392E0B3
:101F20000E94960A40E150E0698180E392E00E94BD
:101F3000DD0B63E08EE593E00E949F128823A9F0F9
:101F400041E0BE016F5F7F4F83E00E945713809195
:101F5000680381508093680363E270E080E090E062
:101F60000E94E30681E090E005C0C8010E94A10E36
:101F700080E090E00F90DF91CF911F910F91089535
:101F8000FC01728B618B548B438B8BE091E09093BF
:101F90005F0380935E0384E0809360038FED91E0A4
:101FA000909362038093610385E1809363038EE5E0
:101FB00093E00E94B01281E00895CF92DF92EF92F9
:101FC000FF920F931F93CF93DF938C01C62E81E274
:101FD000489F70011124C0E0D0E0D12CDC1411F135
:101FE000CE018E0D9F1DF80163817481680F791FEA
:101FF000FB013196449150E04E5F5F4F80E893E0E3
:102000000E94F21F80E893E00E948311A196811143
:1020100007C064E974E080E392E00E94D80A19C026
:10202000D394DCCFC0E061EA73E0C8010E94A01342
:102030008823C9F3CF5F8091A303843851F4809142
:10204000A5039FEF980F923010F4CC12ECCF90E0E4
:1020500002C081E890E0DF91CF911F910F91FF9036
:10206000EF90DF90CF9008950F931F93CF93DF935E
:10207000EC016D81693028F000E010E088E890E024
:1020800002C040E015C06D81262F26952695269525
:10209000121740F4402F68E0CE010E94DD0F1F5F51
:1020A000085FF1CF677059F0412F440F440F440F80
:1020B000CE01DF91CF911F910F910C94DD0FDF9135
:1020C000CF911F910F9108951092D705FC01E85F01
:1020D000FE4F108231961082EFECF4E0DF01119791
:1020E0001C921082B19685E0E73DF807B9F7089594
:1020F0000F931F93CF93DF93EC0109814AE050E0E7
:10210000602F80E392E00E94D60B69E971E080E3E2
:1021100092E00E94BB0A10E0FE01E10FF11D40E1D8
:1021200050E0618180E392E00E94D60B64EA74E0A3
:1021300080E392E00E94960A1F5F011768F763EA46
:1021400074E080E392E0DF91CF911F910F910C94A6
:10215000D80A8EBD00000DB407FEFDCF8EB50895E0
:102160009091F402923019F0933019F01BC020E0E6
:1021700001C021E03DB3882351F081E090E0022EC0
:1021800001C0880F0A94EAF7382B3DBB089581E01F
:1021900090E0022E01C0880F0A94EAF7809583230D
:1021A0008DBB0895FFCF0F931F93CF93DF93EC0167
:1021B000F8940091CC041091CB047894E091CB0476
:1021C0008091CC04E81761F191E29E9FF001112407
:1021D000ED53FC4FDE0101900D929A95E1F72091AD
:1021E000CB0430E02F5F3F4F277033272093CB0481
:1021F0008091D705882349F06CE971E080E392E093
:102200000E94BB0ACE010E947810802F90E00196B8
:1022100087709927181306C081E00E94B01002C091
:1022200080E001C081E0DF91CF911F910F9108956F
:102230001092D9050E94C4198CB580628CBD8CB5F2
:102240008C7F81608CBD8DB581608DBD8CB5837FA9
:102250008CBD8DEC94E00E94641083EC93E00E94AE
:10226000641061E08091F6020E947A0762E080913A
:10227000F4020E947A0761E08091F5020E947A07D9
:1022800061E08091F6020E94B30764E670E080E0AE
:1022900090E00E94E30660E08091F6020E94B3079E
:1022A00061E08091F6020E94B30760E08DE00E9439
:1022B000B30760E08BE00E94B30761E08091F50214
:1022C0000E94B30760E08DE00E94B3078FEF809318
:1022D000F3028091F402823019F41092F30205C0E7
:1022E000833019F481E08093F3026EE170E080E0C6
:1022F00090E00E94E30640E050E06BE572E18091DF
:10230000F3020C94F3180F931F93CF93DF938C0178
:10231000FC0141814032C0F52091D60530E0E90151
:102320002196C770DD278091D5058C17C1F051E249
:10233000529FC001539F900D1124FC01E353FB4FAA
:10234000108250E04F5F5F4FB8016F5F7F4F825345
:102350009B4F0E94FB1FC093D605C1E001C0C0E0A7
:102360008091D705882349F06FE971E080E392E01E
:102370000E94BB0AC8010E94781060E08091F502BB
:102380000E94B3078C2F01C080E0DF91CF911F9195
:102390000F910895CF92DF92EF92FF920F931F93C8
:1023A000CF93DF93CDB7DEB7A2970FB6F894DEBF19
:1023B0000FBECDBF60E08091F5020E94B30780910F
:1023C000D5059091D605891709F462C090E021E205
:1023D000289FF001299FF00D1124E353FB4FDE01EC
:1023E000119601900D922A95E1F701968770992731
:1023F0008093D5051A81812F0E94A9108093D8055A
:102400008B810E94A9108093D905112349F0412F97
:1024100050E0282F30E02417350714F48FEF810F98
:10242000982F803208F09FE17E0184E0E80EF11CD5
:102430008AEDC82E85E0D82E8601802F8C19891749
:1024400058F4F70181917F019AA30E94A910F80125
:1024500081938F019AA1F1CF61E08091F5020E94F2
:10246000B30783B7816083BF40E050E06BE572E162
:102470008091F3020E94F3189091D5058091D605C2
:10248000981741F060E08091F5020E94B30702C006
:102490001A82B0CF88ED95E0A2960FB6F894DEBF11
:1024A0000FBECDBFDF91CF911F910F91FF90EF90A5
:1024B000DF90CF900895CF93DF9383B78E7F83BF54
:1024C0008091F3020E9413190E94CA11FC014181FC
:1024D000442391F16091CC0470E0EB012196C77028
:1024E000DD272091CB042C1731F151E2569F90014A
:1024F000579F300D1124F901ED53FC4F108250E02D
:102500004F5F5F4FBC016F5F7F4FC9018C539C4F82
:102510000E94FB1FC093CC04F8948091CC048F5F81
:1025200087709091CB047894891306C080E0DF9186
:10253000CF910C94B010FFCFDF91CF910895262F4B
:10254000269526952695820F911DFC01818990E0A4
:10255000677002C0959587956A95E2F78170089536
:10256000CF93DF93FC01AAEFB5E080E090E0EF01AC
:10257000C80FD91F198A198E1D92019688309105AE
:10258000B1F71092070610920606109205061092F7
:1025900004068FEF80930F0680930E0680930D063E
:1025A00010920B0610920A06109209061092080665
:1025B00010920306109202061092F905109211066D
:1025C000109210068081918190933806809337068F
:1025D000828180933606838194819093350680931F
:1025E0003406858180933306DF91CF910C941811C6
:1025F00083E196E00E94EB1382E196E00C94831154
:10260000CF93DF93CDB7DEB766970FB6F894DEBFF2
:102610000FBECDBFCA01E0913706F091380633E016
:10262000639FE00DF11D1124339730813130C9F4DF
:102630002531B8F46983422F50E0BC01CE010296E7
:102640002E8B0E94FB1F2E89422FBE016F5F7F4F92
:1026500083E196E00E94F11382E196E00E948311EB
:1026600001C080E066960FB6F894DEBF0FBECDBF06
:10267000DF91CF910895CF93DF9300D000D0CDB7F5
:10268000DEB79A8389837C836B83BE016F5F7F4F44
:1026900083E196E00E94021482E196E00E94831199
:1026A0000F900F900F900F90DF91CF9108951F938F
:1026B000CF93DF93CDB7DEB765970FB6F894DEBF43
:1026C0000FBECDBF142FE0913706F091380693E08E
:1026D000899FE00DF11D1124339721813281223031
:1026E000310519F024303105C1F41531B0F4898376
:1026F000412F50E0CE0102960E94FB1F412FBE01E8
:102700006F5F7F4F83E196E00E94161410920C06D3
:1027100082E196E00E94831101C080E065960FB6C9
:10272000F894DEBF0FBECDBFDF91CF911F9108950A
:1027300083E196E00E94271482E196E00C948311D5
:102740000F931F93CF93DF93EC018B01CB010E947A
:10275000D310F8019281983839F0993851F19638B0
:10276000A9F520E030E017C020E030E00F5F1F4FF8
:10277000D801A20FB31F12969C911297FE01E20F8F
:10278000F31F918B1A969C91918F2F5F3F4F2830AA
:10279000310571F71BC0FE01E20FF31F118A118E84
:1027A0002F5F3F4F28303105B1F719A29F819A87DB
:1027B0000DC0F801238134813C872B872581368128
:1027C0003E872D8727813085388B2F87DF91CF91EA
:1027D0001F910F91089521E0FC01208329E02183BE
:1027E000089522E0240FDC012C932DE011962C9308
:1027F0001197FB01219112962C9350E0BF01039693
:102800000C94FB1FFC01DB0185E080838FE081835A
:1028100011968C91119783838C91828313968C915E
:102820001397858312968C918483089522E0240F58
:10283000DC012C9325E111962C931197FB0121913A
:1028400012962C9350E0BF0103960C94FB1F21E0DD
:10285000FC01208323E1218308950895FC01658B09
:1028600008950F931F93CF93DF938C01EB0188E2C0
:10287000FB0111928A95E9F74BE050E061EA71E0C3
:10288000CE010E9404201B8641E050E060E070E031
:102890004C875D876E877F87F801078510892189BE
:1028A0003289088B198B2A8B3B8B4C8B5D8B6E8B03
:1028B0007F8B1CA21DA21EA21FA2188E198E1A8E1B
:1028C0001B8E1C8E1D8E1E8E1F8E18A219A21AA280
:1028D0001BA2DF91CF911F910F9108950F931F932A
:1028E000CF93DF938C01EB0188E2FB0111928A9573
:1028F000E9F74BE050E061EA71E0CE010E9404206C
:102900001B8641E050E060E070E04C875D876E8799
:102910007F87F8014189528963897489488B598B73
:102920006A8B7B8B42E050E060E070E04C8B5D8B0B
:102930006E8B7F8B1CA21DA21EA21FA2188E198E49
:102940001A8E1B8E1C8E1D8E1E8E1F8E18A219A213
:102950001AA21BA2DF91CF911F910F910895DC0164
:10296000ED91FC910190F081E02D09942CEA31E089
:10297000FC01318320834787508B618B728B0895D4
:10298000FC0186EB91E091838083418B528B638BBA
:10299000748B158A0895CF93DF9300D0CDB7DEB73F
:1029A0008EE396E02A8349830E949A1A4981642F14
:1029B0008EE396E00E94411A2A81622F8EE396E010
:1029C0000E94411A8EE396E00F900F90DF91CF9115
:1029D0000C94B71A0F931F93CF93DF938C01EB01E5
:1029E000262F41E06EE10E94CB14F801D483C3830B
:1029F000C038D10509F45BC0DCF4C034D105A9F1BD
:102A0000C036D10509F442C0A09709F08AC080E021
:102A100090E8A9E8B4E480931B0190931C01A09373
:102A20001D01B0931E0180E090E0A5E7B4E471C001
:102A3000C03CD10509F44CC0C03ED10509F459C0D1
:102A4000C03AD10509F06DC080E090E0A8ECB3E495
:102A500080931B0190931C01A0931D01B0931E0154
:102A600080E090E8A1EBB3E454C080E090ECA5E5F1
:102A7000B4E480931B0190931C01A0931D01B093BB
:102A80001E0180E090E0AEE3B4E443C080E090E853
:102A9000A7E2B4E480931B0190931C01A0931D0155
:102AA000B0931E0180E090E0A6E1B4E432C080E083
:102AB00090E0A1EEB3E480931B0190931C01A093DE
:102AC0001D01B0931E0180E090E0A8ECB3E421C0AA
:102AD00080E090E0A5EAB3E480931B0190931C0191
:102AE000A0931D01B0931E0180E090E8A3E9B3E438
:102AF00010C080E090E0A6E6B3E480931B019093C1
:102B00001C01A0931D01B0931E0180E090E0ADE494
:102B1000B3E48093170190931801A0931901B09327
:102B20001A01DF91CF911F910F9108951F93CF93B9
:102B3000DF931F92CDB7DEB7162F8EE396E0498361
:102B40000E949A1A4981642F8EE396E00E94411AEE
:102B50008EE396E00E94B71A41E0612F8EE396E083
:102B60000E94971A8EE396E00E94F119182F8EE3C7
:102B700096E00E94B71A812F0F90DF91CF911F919D
:102B80000895CF93DF93EC018EE396E00E94801AC4
:102B900020E042E06EE1CE010E94CB1440E06EE105
:102BA000CE010E949615803139F460E270E0CE01CA
:102BB0000E94EA1481E001C080E0DF91CF91089586
:102BC0006F927F928F929F92AF92BF92CF92DF923D
:102BD000EF92FF920F931F93CF93DF93EC0169E184
:102BE0008EE396E00E949A1A68EA70E08EE396E01F
:102BF0000E94AF148EE396E00E94B71A46E069E1A6
:102C00008EE396E00E94971A8EE396E00E94E919FF
:102C10000697D4F38EE396E00E94F119782E8EE3A6
:102C200096E00E94F119682E8EE396E00E94F11959
:102C3000982E8EE396E00E94F119882E8EE396E09E
:102C40000E94F119D82E8EE396E00E94F119C82E49
:102C5000B62CA12CA72884E0B594A7948A95E1F717
:102C6000B501882777FD8095982F0E94AC1E6B8355
:102C70007C838D839E83F82CE12CE92894E0F594E5
:102C8000E7949A95E1F7B701882777FD8095982F0B
:102C90000E94AC1E6F83788789879A871C2D00E07D
:102CA0000D2924E0159507952A95E1F7B8018827A5
:102CB00077FD8095982F0E94AC1E6B877C878D874F
:102CC0009E87DF91CF911F910F91FF90EF90DF9042
:102CD000CF90BF90AF909F908F907F906F9008950E
:102CE0000F931F93CF93DF938C01EB0184E2FB01E1
:102CF00011928A95E9F7C8010E94E01584E290E0FC
:102D0000A0E0B0E088839983AA83BB83F80187851C
:102D10009089A189B2898C839D83AE83BF8381E032
:102D200090E0A0E0B0E088879987AA87BB870E94DF
:102D3000B406688B798B8A8B9B8B2FE632E143E854
:102D40005AE3F80163817481858196810E948C1F0A
:102D50002AE038EE4CE151E40E948C1F6C8B7D8B95
:102D60008E8B9F8B2FE632E143E85AE3F8016781AF
:102D70007085818592850E948C1F2AE038EE4CE197
:102D800051E40E948C1F688F798F8A8F9B8F2FE66A
:102D900032E143E85AE3F8016385748585859685B9
:102DA0000E948C1F2AE038EE4CE151E40E948C1FF7
:102DB0006C8F7D8F8E8F9F8F81E0DF91CF911F91E0
:102DC0000F9108956F927F928F929F92AF92BF92D0
:102DD000CF92DF92EF92FF920F931F93CF93DF93E7
:102DE000EC016EE18EE396E00E949A1A63E070E0D7
:102DF0008EE396E00E94AF148EE396E00E94B71A2D
:102E000046E06EE18EE396E00E94971A8EE396E02C
:102E10000E94E9190697D4F38EE396E00E94F11917
:102E2000682E8EE396E00E94F119782E8EE396E0EC
:102E30000E94F119C82E8EE396E00E94F119D82E57
:102E40008EE396E00E94F119882E8EE396E00E94B0
:102E5000F119982EB62CA12CA728B501882777FD4B
:102E60008095982F0E94AC1E6D837E838F839887F8
:102E7000F82CE12CE928B701882777FD8095982F59
:102E80000E94AC1E69877A878B879C871C2D00E087
:102E90000D29B801882777FD8095982F0E94AC1ED8
:102EA0006D877E878F87988BDF91CF911F910F91D0
:102EB000FF90EF90DF90CF90BF90AF909F908F905A
:102EC0007F906F9008952F923F924F925F926F92F2
:102ED0007F928F929F92AF92BF92CF92DF92EF92AA
:102EE000FF920F931F93CF93DF93EC018B0184E24A
:102EF000FB0111928A95E9F749E06EE1CE010E944B
:102F0000961580FFF3C0CE010E94E2168D898823BA
:102F100009F483C04D805E806F80788489849A84B0
:102F2000AB84BC84CD84DE84EF84F888222423948F
:102F300020E030E04FEF54ECC301B2010E940D1EBF
:102F400018160CF4212C3324339420E030E04FEF9A
:102F500054E4C301B2010E94811F87FD312C322845
:102F60006624639420E030E04FEF54E4C501B401DF
:102F70000E94811F87FD612C63287724739420E0D1
:102F800030E04FEF54ECC501B4010E940D1E18163D
:102F90000CF4712C7628BB24B39420E030E04FEF82
:102FA00054E4C701B6010E94811F87FDB12C7B2824
:102FB00051F420E030E04FEF54ECC701B6010E941D
:102FC0000D1E181654F18B819C8180369105E1F01D
:102FD0004CF480329105D9F080349105F1F460E62B
:102FE00070E017C0803A910561F0803C910531F0A6
:102FF0008038910591F460EA70E00BC060EE70E0FB
:1030000008C060EC70E005C060E870E002C060E4F9
:1030100070E0CE010E94EA146FCF84E290E0A0E05D
:10302000B0E0F80180839183A283B38389899A8970
:10303000AB89BC8984839583A683B78382E090E0C3
:10304000A0E0B0E080879187A287B3870E94B40692
:10305000F801608B718B828B938BC0901B01D09099
:103060001C01E0901D01F0901E01A70196016D81E9
:103070007E818F8198850E94111E20E030E048EC0F
:1030800052E40E948C1FF801648B758B868B978BA2
:10309000A701960169857A858B859C850E94111E02
:1030A00020E030E048EC52E40E948C1FF801608F71
:1030B000718F828F938F2091170130911801409169
:1030C000190150911A016D857E858F8598890E941E
:1030D000111E20E030E048EC52E40E948C1FF80101
:1030E000648F758F868F978F81E001C080E0DF91BC
:1030F000CF911F910F91FF90EF90DF90CF90BF90F5
:10310000AF909F908F907F906F905F904F903F9087
:103110002F9008950895CF92DF92EF92FF92CF9370
:10312000DF93FA01E901309709F453C0209709F4BD
:1031300050C06230710581F063307105B1F06130CB
:10314000710509F046C0208D318D428D538D648DFF
:10315000758D868D978D11C0248D358D468D578D3B
:10316000648975898689978908C024893589468943
:103170005789608D718D828D938D0E94BA1D20E0DC
:1031800030E044E353E40E948C1F2BED3FE049E420
:1031900050E40E94111E688779878A879B87C884BC
:1031A000D984EA84FB8420E030E0A901C701B6019C
:1031B0000E940D1E87FF0FC020E030E044EB53E477
:1031C000C701B6010E94471D688779878A879B8758
:1031D00002C080E001C081E0DF91CF91FF90EF90CD
:1031E000DF90CF9008958230E8F4E82FF0E0EE0F02
:1031F000FF1FE75CF94F71836083813041F080915C
:1032000069008C7F842B80936900E89A08958091EF
:103210006900440F551F440F551F837F842B8093F3
:103220006900E99A0895823068F4813011F0E898D5
:1032300001C0E998E82FF0E0EE0FFF1FE75CF94FBF
:103240001182108208951F920F920FB60F921124CF
:103250002F933F934F935F936F937F938F939F939E
:10326000AF93BF93EF93FF938091390690913A0605
:10327000892B29F0E0913906F0913A060995FF91E2
:10328000EF91BF91AF919F918F917F916F915F91DE
:103290004F913F912F910F900FBE0F901F90189557
:1032A0001F920F920FB60F9211242F933F934F93BB
:1032B0005F936F937F938F939F93AF93BF93EF939E
:1032C000FF9380913B0690913C06892B29F0E09179
:1032D0003B06F0913C060995FF91EF91BF91AF91AC
:1032E0009F918F917F916F915F914F913F912F911E
:1032F0000F900FBE0F901F9018954F925F926F9294
:103300007F92AF92BF92CF92DF92EF92FF920F9394
:103310001F93CF93DF93CDB7DEB729013A01621B2C
:10332000730B840B950B29893A894B895C892A197F
:103330003B094C095D09298B3A8B4B8B5C8B9B01BC
:10334000AC0169897A898B899C890E94C91CE4181F
:10335000F50806091709A80197010E94071D2A0D03
:103360003B1D4C1D5D1DCA01B901DF91CF911F911D
:103370000F91FF90EF90DF90CF90BF90AF907F9034
:103380006F905F904F900895CF93CFB7F89480914E
:103390003D06811116C061E08AE00E94B30761E03A
:1033A0008AE00E947A078CB580618CBD8CB5806400
:1033B0008CBD61E08DE00E947A0761E08BE00E94A5
:1033C0007A0780913D068F5F80933D06CFBFCF91F6
:1033D000089580916E0690E020916F06821B9109FE
:1033E000089520916F0680916E06281750F4E22F01
:1033F000F0E0E059F94F808190E02F5F20936F0655
:1034000008958FEF9FEF0895E0916F0680916E060B
:10341000E81730F4F0E0E059F94F808190E008952A
:103420008FEF9FEF08950895CF92DF92EF92FF9272
:103430000F931F93CF93DF937C01CB018A012091DF
:103440004A06222389F0EB016B01C40ED51ECC1570
:10345000DD0569F06991D701ED91FC910190F08152
:10346000E02DC7010995F3CF642F0E94731BC8019B
:10347000DF91CF911F910F91FF90EF90DF90CF9050
:103480000895CF93DF931F92CDB7DEB76983209164
:103490004A062223D1F020914B06203240F021E051
:1034A00030E0FC013383228380E090E015C08091FE
:1034B0004C06E82FF0E0E35BF94F998190838F5F32
:1034C00080934C0680934B0605C061E0CE010196C7
:1034D0000E94731B81E090E00F90DF91CF910895DF
:1034E000FC011382128248EE53E060E070E04483F6
:1034F00055836683778380EC91E091838083089580
:1035000010926F0610926E0610924C0610924B06A7
:103510000C94BE1A862F413208F040E260E776E054
:103520000E94DC1A10926F0680936E06089521E0C7
:103530000C948A1A81E080934A0660936D0610927B
:103540004C0610924B0608950F93062F21E04091F0
:103550004B066DE476E080916D060E94201B109270
:103560004C0610924B0610924A060F91089561E0A6
:103570000C94A41A8EE396E00C94701A1092FD0637
:1035800081E08093FB061092FA0661E082E10E94DE
:10359000B30761E083E10E94B307E9EBF0E08081CB
:1035A0008E7F808380818D7F808388E48093B800C4
:1035B00085E48093BC000895413208F03FC09091AB
:1035C000FD069111FCCF91E09093FD062093FB0640
:1035D0002FEF209390061092D506240F2093D40647
:1035E0009093FC069091FC06880F892B8093FC0633
:1035F0008091FA06813041F41092FA068091FC061F
:103600008093BB0085EC01C085EE8093BC00809167
:10361000FD068130E1F38091D506841710F44091C6
:10362000D50626ED36E0FB01D9018A2F821B8417CF
:1036300018F48D918193F9CF842F089580E0089537
:103640000F93413208F046C09091FD069111FCCFD6
:1036500092E09093FD060093FB069FEF90939006F7
:103660001092D5064093D406FB0166ED76E0DB01AF
:103670009A2F961B941718F491919D93F9CF10925D
:10368000FC069091FC06880F892B8093FC068091A4
:10369000FA06813041F41092FA068091FC0680937C
:1036A000BB0085EC01C085EE8093BC00222321F095
:1036B0008091FD068230E1F3809190068F3F61F0AA
:1036C00080919006803251F080919006803341F4D1
:1036D00083E007C081E005C080E003C082E001C054
:1036E00084E00F910895613298F42091FD06243012
:1036F00089F46093B206FC0184EB96E0DC012A2F8A
:10370000281B261718F421912D93F9CF80E00895F6
:1037100081E0089582E0089585ED8093BC0080915A
:10372000BC0084FDFCCF1092FD06089585EC8093CB
:10373000BC001092FD0608951F920F920FB60F92D3
:1037400011242F933F934F935F936F937F938F93A6
:103750009F93AF93BF93EF93FF938091B900887FBE
:10376000803609F49CC068F5883209F45BC090F497
:10377000803109F454C038F4882309F4F5C0883046
:1037800009F44DC0F5C0883109F44CC0803209F409
:103790005DC0EEC0803409F468C048F4803309F499
:1037A00055C0883309F0E4C080939006A8C08035E6
:1037B00009F44FC0883509F45DC0883409F0D8C0D9
:1037C000D5C0883909F4C6C0A8F4883709F467C0A1
:1037D00038F4883609F463C0803709F460C0C8C083
:1037E000883809F4B7C0803909F45FC0803809F01F
:1037F000BFC05BC0803B09F485C038F4803A09F44F
:1038000066C0883A09F47EC0B3C0803C09F4A6C003
:10381000883C09F4A3C0883B09F489C0A9C0809101
:10382000FC0610C09091D5068091D406981770F5CB
:10383000E091D50681E08E0F8093D506F0E0EA5244
:10384000F94F80818093BB0085EC85C08093900602
:103850008DC0E091D50681E08E0F8093D5068091D2
:10386000BB00F0E0EA52F94F80839091D506809139
:10387000D4066DC0E091D50681E08E0F8093D50609
:103880008091BB00F0E0EA52F94F80838091FB0603
:1038900081116CC081E08093FA0684EA60C083E005
:1038A0008093FD0610929106CFCF809191068032D1
:1038B00008F050C0E091910681E08E0F8093910650
:1038C0008091BB00F0E0EE56F94F8083BDCF809130
:1038D0009106803230F4E0919106F0E0EE56F94F17
:1038E00010820E948C1B6091910670E0E091F606B8
:1038F000F091F70682E996E00995109291060E94F0
:10390000961B36C084E08093FD061092B306109299
:10391000B206E091F806F091F90609958091B20699
:10392000811105C081E08093B2061092B406E09147
:10393000B30681E08E0F8093B306F0E0EC54F94FAC
:1039400080818093BB009091B3068091B206981756
:1039500008F47ACF85E88093BC000AC085EC809398
:10396000BC001092FD0604C0109290060E948C1BB1
:10397000FF91EF91BF91AF919F918F917F916F9147
:103980005F914F913F912F910F900FBE0F901F901D
:103990001895DB018F939F930E943B1DBF91AF91C0
:1039A000A29F800D911DA39F900DB29F900D112499
:1039B0000895991B79E004C0991F961708F0961B8B
:1039C000881F7A95C9F780950895A1E21A2EAA1B3F
:1039D000BB1BFD010DC0AA1FBB1FEE1FFF1FA217BF
:1039E000B307E407F50720F0A21BB30BE40BF50BBC
:1039F000661F771F881F991F1A9469F76095709545
:103A0000809590959B01AC01BD01CF010895052ED5
:103A100097FB1EF400940E941E1D57FD07D00E94C4
:103A2000E51C07FC03D04EF40C941E1D50954095E8
:103A3000309521953F4F4F4F5F4F0895909580955A
:103A4000709561957F4F8F4F9F4F0895EE0FFF1F29
:103A50000590F491E02D0994A29FB001B39FC0019D
:103A6000A39F700D811D1124911DB29F700D811DAA
:103A70001124911D08950E942C1DA59F900DB49FA7
:103A8000900DA49F800D911D112408955058BB27BF
:103A9000AA270ED0FCC1EDD130F0F2D120F031F4E4
:103AA0009F3F11F41EF4BDC10EF4E095E7FBB3C1D6
:103AB000E92FFED180F3BA176207730784079507D1
:103AC00018F071F49EF516C20EF4E0950B2EBA2F85
:103AD000A02D0B01B90190010C01CA01A001112414
:103AE000FF27591B99F0593F50F4503E68F11A16C0
:103AF000F040A22F232F342F4427585FF3CF469551
:103B000037952795A795F0405395C9F77EF41F1672
:103B1000BA0B620B730B840BBAF09150A1F0FF0F3C
:103B2000BB1F661F771F881FC2F70EC0BA0F621F28
:103B3000731F841F48F4879577956795B795F79518
:103B40009E3F08F0B3CF9395880F08F09927EE0FAA
:103B50009795879508958DD158F080E891E009F404
:103B60009EEF8ED128F040E851E059F45EEF09C095
:103B700058C1C0C1E92FE0789BD168F3092E052A0E
:103B8000C1F3261737074807590738F00E2E07F8F4
:103B9000E02569F0E025E0640AC0EF6307F80094CF
:103BA00007FADB01B9019D01DC01CA01AD01EF9308
:103BB00047D06DD10AD05F91552331F02BED3FE016
:103BC00049E450FD49EC63CF0895DF93DD27B92F19
:103BD000BF7740E85FE31616170648075B0710F447
:103BE000D92F93D19F938F937F936F93F8D1E2E86E
:103BF000F0E01AD14CD12F913F914F915F9198D124
:103C0000DD2349F09058A2EA2AED3FE049EC5FE35A
:103C1000D0785D274DDFDF913AC1D9D008F481E03B
:103C200008950CD034C12CD140F023D130F021F4D0
:103C30005F3F19F0F0C051115EC1F3C039D198F364
:103C40009923C9F35523B1F3951B550BBB27AA271D
:103C500062177307840738F09F5F5F4F220F331F8F
:103C6000441FAA1FA9F333D00E2E3AF0E0E830D05B
:103C700091505040E695001CCAF729D0FE2F27D05E
:103C8000660F771F881FBB1F261737074807AB072C
:103C9000B0E809F0BB0B802DBF01FF2793585F4FA1
:103CA0002AF09E3F510568F0B6C025C15F3FECF396
:103CB000983EDCF3869577956795B795F7959F5F66
:103CC000C9F7880F911D9695879597F90895E1E0BA
:103CD000660F771F881FBB1F621773078407BA0719
:103CE00020F0621B730B840BBA0BEE1F88F7E09574
:103CF000089504D06894B111FEC00895E1D088F011
:103D00009F5790F0B92F9927B751A0F0D1F0660FC7
:103D1000771F881F991F1AF0BA95C9F712C0B130E2
:103D200081F0E8D0B1E00895E5C0672F782F8827AB
:103D3000B85F39F0B93FCCF3869577956795B39521
:103D4000D9F73EF490958095709561957F4F8F4F90
:103D50009F4F0895E89409C097FB3EF49095809595
:103D6000709561957F4F8F4F9F4F9923A9F0F92F41
:103D700096E9BB279395F695879577956795B795BF
:103D8000F111F8CFFAF4BB0F11F460FF1BC06F5FA5
:103D90007F4F8F4F9F4F16C0882311F096E911C0B7
:103DA000772321F09EE8872F762F05C0662371F0D8
:103DB00096E8862F70E060E02AF09A95660F771FEC
:103DC000881FDAF7880F9695879597F90895990FC8
:103DD0000008550FAA0BE0E8FEEF16161706E807D5
:103DE000F907C0F012161306E407F50798F0621BF6
:103DF000730B840B950B39F40A2661F0232B242BCB
:103E0000252B21F408950A2609F4A140A6958FEFE9
:103E1000811D811D089597F99F6780E870E060E03B
:103E200008959FEF80EC0895DF93CF931F930F9336
:103E3000FF92EF92DF927B018C01689405C0DA2E2D
:103E4000EF0176D0FE01E894A59125913591459139
:103E50005591AEF3EF012CDEFE019701A801DA9433
:103E600079F7DF90EF90FF900F911F91CF91DF9145
:103E7000089500240A9416161706180609060895D0
:103E800000240A9412161306140605060895092E36
:103E90000394000C11F4882352F0BB0F40F4BF2BA5
:103EA00011F460FF04C06F5F7F4F8F4F9F4F0895E5
:103EB00057FD9058440F551F59F05F3F71F04795DB
:103EC000880F97FB991F61F09F3F79F087950895C0
:103ED000121613061406551FF2CF4695F1DF08C0DF
:103EE000161617061806991FF1CF869571056105FC
:103EF00008940895E894BB2766277727CB0197F9A4
:103F0000089565DF08F48FEF08959B01AC0160E030
:103F100070E080E89FE385CE0BD0B9CFAADF28F010
:103F2000AFDF18F0952309F076CF7BCF1124E3CFD4
:103F3000BFDFA0F3959FD1F3950F50E0551F629F0F
:103F4000F001729FBB27F00DB11D639FAA27F00DF2
:103F5000B11DAA1F649F6627B00DA11D661F829F19
:103F60002227B00DA11D621F739FB00DA11D621FFE
:103F7000839FA00D611D221F749F3327A00D611D1B
:103F8000231F849F600D211D822F762F6A2F1124FD
:103F90009F5750408AF0E1F088234AF0EE0FFF1F50
:103FA000BB1F661F771F881F91505040A9F79E3F87
:103FB000510570F030CF9FCF5F3FECF3983EDCF3BC
:103FC000869577956795B795F795E7959F5FC1F7C4
:103FD000FE2B880F911D9695879597F908959B0163
:103FE000AC019ACFFB01DC0102C005900D9241505B
:103FF0005040D8F70895FB01DC0102C001900D92FA
:1040000041505040D8F70895FB01DC014150504029
:1040100048F001900D920020C9F701C01D92415057
:0A4020005040E0F70895F894FFCF38
:10402A000100000001B80B000086000180000108B1
:10403A000001020001800000007544008089445498
:10404A0055524E4544544F4F4F204D5543484848CA
:10405A00484848005455524E494E4748656164697C
:10406A006E673A20005475726E4C656674486561D5
:10407A0064696E673A20005475726E526967687493
:10408A0048656164696E673A200052696768743AE4
:10409A0020004C6566743A200000000000EC0858C5
:1040AA000A6E0887087908CA0800000000830F58BA
:1040BA000AF90D060E310E480E203A00204500433B
:1040CA00004C534D33303300000000002D1470169D
:1040DA003114000000002E1463176E140000000053
:0C40EA00411A141AE919F119041A131AEA
:00000001FF
