:100000002CC200008BC70000B6C700004DC2000024
:100010004BC2000049C2000047C2000045C20000B8
:1000200043C2000041C200003FC200000C94C00A5D
:100030003BC2000039C2000037C2000035C20000D8
:100040000C944F0931C200001FC500004FC50000CD
:100050002BC2000029C2000027C2000025C20000F8
:100060000C94F71821C200006C0D220E220E890D8F
:10007000B10DCF0D220EBF0D220EFC0D220EE90D8B
:10008000020E000000080002010000030407000047
:10009000000000000000010204081020408001025E
:1000A00004081020010204081020040404040404BD
:1000B000040402020202020203030303030300001A
:1000C0000000250028002B0000000000240027006D
:1000D0002A00202050697065204572726F7220439B
:1000E0006F64653A2030780041434920457674209A
:1000F00050697065204572726F723A205069706560
:1001000020233A0045767420436D64207265737035
:100110006F6E653A204572726F722E20417264755F
:10012000696E6F20697320696E20616E207768693F
:100130006C652831293B206C6F6F7000414349206A
:10014000436F6D6D616E6420004572726F7220693D
:100150006E204143492053657475700009577269D8
:1001600074696E67206F6E652062797465203078DF
:1001700000203078000957726974696E67206F75C6
:100180007420746F2042544C453A0000070600006A
:10019000030241D700000000000000000000000042
:1001A000000000000000000000000000001F06101A
:1001B000000000000000000400040101000006002F
:1001C00000900000000000000000000000001F067A
:1001D000101C0102000000000000000000000000F0
:1001E0000000000000140000001403900164001FD0
:1001F00006103802FF025800050000000000000051
:1002000000000000100000000000000000000000DE
:10021000050610540000000000000000000000006F
:1002200000000000000000000000000000000000CE
:10023000001F06200004040202000128000100182B
:100240000404050500022803010E0300002A04141B
:1002500007001F06201C0400032A000155415254C8
:100260006963730404050500042803010205000105
:100270002A06001F06203804030200052A01010097
:1002800000040405050006280301020700042A06ED
:10029000040908001F06205400072A040106001262
:1002A0000000000A000404020200082800010118EE
:1002B00004041010001F06207000092800019ECAC7
:1002C000DC240EE5A9E093F3A3B50100406E04041D
:1002D0001313000A28001F06208C0301040B009E44
:1002E000CADC240EE5A9E093F3A3B50200406E44F6
:1002F000101400000B00001F0620A80202000000DE
:1003000000000000000000000000000000000000ED
:100310000004041313000C001F0620C4280301105E
:100320000D009ECADC240EE5A9E093F3A3B50300FB
:10033000406E14001400000D001F0620E0000302B0
:1003400000000000000000000000000000000000AD
:10035000000000004614030200001F0620FC0E29C6
:100360000201000004040202000F2800010A180420
:1003700004050500102803010211001906211800C8
:10038000272A0404090100112A27010A000000009D
:100390000000000000000000000000001F064000F8
:1003A0002A0001008004000300000002020008048B
:1003B000000B0000000302000204000D000F0640C5
:1003C0001C000E2A2701008004001100000000001C
:1003D0000000000000000000000000000000130604
:1003E00050009ECADC240EE5A9E093F3A3B50000FB
:1003F000406E000000000000000000000000000F40
:100400000660000000000000000000000000000086
:1004100000000000000000000000000000000000DC
:100420000606F00003D38800000000000000000072
:1004300000000000000000000000000000000000BC
:10044000436D642051756575652046756C6C0000C0
:100450002C200000D503A405341811241FBECFEFB3
:10046000D8E0DEBFCDBF12E0A0E0B1E0ECE4FDE3F8
:1004700002C005900D92AC39B107D9F727E0ACE97D
:10048000B2E001C01D92AC3CB207E1F714E0CAE54E
:10049000D4E004C02297FE010E947C1AC435D10723
:1004A000C9F7F3D60C94A41EABCD0F931F93CF9333
:1004B000DF9300D000D000D0CDB7DEB78C0163E26F
:1004C00071E0CE010196EFD5B801CE01019689D633
:1004D0006CE271E097D6BC0181EF92E0DBD3CE01F4
:1004E000019676D5F80104811581065F1F4F03320E
:1004F00011056CF46DE271E081EF92E0D9D36AEFFF
:1005000070E080E090E044D70F5F1F4FF0CF81EFA5
:1005100092E0D6D326960FB6F894DEBF0FBECDBFBD
:10052000DF91CF911F910F910895CF93DF9300D06A
:1005300000D000D0CDB7DEB742E050E063E273E018
:1005400081E0BCD426E040E855E260E070E081EF55
:1005500092E038D281EF92E0B3D36FE271E0CE0146
:100560000196A1D5CE010196A0DFCE01019630D52E
:1005700062E371E0CE01019696D5CE01019695DF3A
:10058000CE01019625D56AE371E0CE0101968BD5A7
:10059000CE0101968ADFCE0101961AD540E550E0E2
:1005A00060E070E08CE992E00E94B50E61E088E0C6
:1005B00078D76BE471E0CE01019675D5CE01019636
:1005C00074DFCE01019604D564E070E081EC92E026
:1005D0000E94130C67E070E08EEB92E00E94130C17
:1005E00065E070E084EC92E00E94130C65E570E039
:1005F00084EC92E00E944B0C64E571E0CE01019620
:1006000052D5CE01019651DFCE010196E1D466E6C6
:1006100071E081EF92E04CD368EE73E080E090E00F
:10062000B7D626960FB6F894DEBF0FBECDBFDF91CA
:10063000CF91089580910A01882311F061E001C0F3
:1006400060E088E067C70F931F9373D60091B602EE
:100650001091B7022091B8023091B902601B710B62
:10066000820B930B00910B0110910C0120910D0155
:1006700030910E01061717072807390798F4809163
:100680000A0191E0892780930A0166E771E081EF12
:1006900092E00ED360910A0170E04AE050E081EFF1
:1006A00092E0CFD346D66093B6027093B7028093A0
:1006B000B8029093B9021F910F91BCCFEF92FF92B5
:1006C0000F931F93CF93DF93CDB7DEB768970FB625
:1006D000F894DEBF0FBECDBF8B01EDB6FEB64AE08B
:1006E000BC01CE01019627D54AE0B801CE010D9696
:1006F00022D561ED71E0CE010796D5D4BE01635FCE
:100700007F4FCE0107966DD564E871E07BD5BE01C1
:100710006F5F7F4F66D566E871E074D5BC01CE018E
:100720004396EBD4CE01079653D4CE010D9650D408
:10073000CE0101964DD44F89588D8DB79EB7841B3D
:10074000950B0FB6F8949EBF0FBE8DBF0DB71EB7A9
:100750000F5F1F4F20E030E0B801CE0143966AD50D
:100760004F89B8018CE992E00E94250ECE01439694
:100770002FD40FB6F894FEBE0FBEEDBE68960FB62E
:10078000F894DEBF0FBECDBFDF91CF911F910F91C7
:10079000FF90EF90089567E671E080E991E08EDFC9
:1007A00064EF71E080E090E0F3C580EF92E00E949A
:1007B000F7164DE556E760E070E08DED92E00E949F
:1007C0007F134EE556E760E070E087EC92E00E9410
:1007D000891384EC92E08ED781EC92E08BD78EEB7C
:1007E00092E088D7A6D56093BA027093BB0280933B
:1007F000BC029093BD0229E042E06AE08CE992E0FD
:100800000C94260DFC01818D228D90E0805C9F4F21
:10081000821B91098F7399270895FC01918D828D18
:10082000981731F0828DE80FF11D858D90E00895C5
:100830008FEF9FEF0895FC01918D828D981761F0E5
:10084000828DDF01A80FB11D5D968C91928D9F5F07
:100850009F73928F90E008958FEF9FEF08958BE93B
:1008600095E0892B41F080E090E0892B21F063D165
:1008700081110C9400000895FC01848DDF01A80F04
:10088000B11DA35ABF4F2C91848D90E001968F73B8
:100890009927848FA689B7892C93A089B1898C91D7
:1008A00080648C93938D848D981306C00288F3899D
:1008B000E02D80818F7D80830895CF93DF93EC01BD
:1008C000888D8823C1F0EA89FB89808185FD05C078
:1008D000A889B9898C9186FD0EC00FB607FCF5CFAB
:1008E000808185FFF2CFA889B9898C9185FFEDCFF2
:1008F000CE01C2DFE8CFDF91CF910895CF92DF9292
:10090000FF920F931F93CF93DF931F92CDB7DEB764
:100910006C01DC015B969C915B975C968C915C977B
:10092000981307C05096ED91FC915197808185FDF9
:1009300031C0F601038D10E00F5F1F4F0F731127B9
:10094000F02EF601848DF81210C00FB607FCF9CF17
:10095000D6015096ED91FC915197808185FFF1CFA2
:10096000C601698389DF6981ECCF838DE80FF11DB2
:10097000E35AFF4F6083D6015B960C935B975296C8
:10098000ED91FC91539780818062808381E058963D
:100990008C930DC0D6015696ED91FC9157976083CC
:1009A0005096ED91FC91519780818064808381E025
:1009B00090E00F90DF91CF911F910F91FF90DF900A
:1009C000CF900895BF92CF92DF92EF92FF92CF9394
:1009D000DF93EC016A017B01B22EE889F98982E09C
:1009E0008083411581EE580761057105A1F060E033
:1009F00079E08DE390E0A70196010E943C1A215016
:100A00003109410951095695479537952795211583
:100A100080E1380798F0E889F989108260E874E885
:100A20008EE190E0A70196010E943C1A2150310905
:100A3000410951095695479537952795EC85FD85D0
:100A40003083EE85FF852083188EEC89FD89B08286
:100A5000EA89FB89808180618083EA89FB898081C2
:100A600088608083EA89FB89808180688083EA8945
:100A7000FB8980818F7D8083DF91CF91FF90EF9004
:100A8000DF90CF90BF9008951F920F920FB60F92F4
:100A900011242F938F939F93EF93FF93E091010382
:100AA000F09102038081E0910703F091080382FD39
:100AB00012C0908180910A038F5F8F7320910B0386
:100AC000821751F0E0910A03F0E0EF50FD4F958F4F
:100AD00080930A0301C08081FF91EF919F918F91D4
:100AE0002F910F900FBE0F901F9018951F920F928D
:100AF0000FB60F9211242F933F934F935F936F93F1
:100B00007F938F939F93AF93BF93EF93FF9381EF67
:100B100092E0B2DEFF91EF91BF91AF919F918F91E3
:100B20007F916F915F914F913F912F910F900FBEE9
:100B30000F901F90189581EF92E064DE21E0892BE1
:100B400009F420E0822F08951092F4021092F3022B
:100B500088EE93E0A0E0B0E08093F5029093F60277
:100B6000A093F702B093F8028CE492E09093F20223
:100B70008093F10285EC90E09093FE028093FD0259
:100B800084EC90E0909300038093FF0280EC90E06F
:100B9000909302038093010381EC90E0909304030F
:100BA0008093030382EC90E0909306038093050307
:100BB00086EC90E0909308038093070310920A0359
:100BC00010920B0310920C0310920D030895CF9214
:100BD000DF92EF92FF920F931F93CF93DF936C01FD
:100BE0007A01EB01E60EF71E00E010E0CE15DF05FE
:100BF00061F06991D601ED91FC910190F081E02DB9
:100C0000C6010995080F191FF1CFC801DF91CF91D7
:100C10001F910F91FF90EF90DF90CF900895611595
:100C2000710581F0DB010D900020E9F7AD01415025
:100C30005109461B570BDC01ED91FC910280F381B9
:100C4000E02D099480E090E00895EF92FF920F93D9
:100C50001F93CF93DF938C01FB01C0E0D0E0649140
:100C60007F018FEFE81AF80A662361F0D801ED9151
:100C7000FC910190F081E02DC8010995C80FD91FA2
:100C8000F701EDCFCE01DF91CF911F910F91FF9032
:100C9000EF900895DC01ED91FC91DB0114964D91EC
:100CA0005C9115976D917C910280F381E02D099400
:100CB000B6CFDC01ED91FC910190F081E02D09941B
:100CC0000F931F93CF93DF93EC016DE0F2DF8C0164
:100CD0006AE0CE01EEDF800F911FDF91CF911F916F
:100CE0000F9108950F931F93CF93DF93EC01ADDF26
:100CF0008C01CE01E5DF800F911FDF91CF911F9115
:100D00000F9108958F929F92AF92BF92CF92DF92F0
:100D1000EF92FF920F931F93CF93DF93CDB7DEB780
:100D2000A1970FB6F894DEBF0FBECDBF7C01C42ED5
:100D3000E52FCB01D22E19A221E02D1510F02AE0CB
:100D4000D22E8E010F5D1F4F8D2C912CA12CB12C1A
:100D50006C2D7E2FA50194010E943C1A8C2DD29EF1
:100D600080191124015011098A3014F4805D01C0EA
:100D7000895CF8018083211531054105510521F079
:100D8000C22EE32FCA01E4CFB801C70148DFA19604
:100D90000FB6F894DEBF0FBECDBFDF91CF911F918C
:100DA0000F91FF90EF90DF90CF90BF90AF909F900A
:100DB0008F900895CF92DF92EF92FF920F931F933F
:100DC000CF93DF93EC016A017B012115310579F4A2
:100DD000E881F9810190F081E02D642FDF91CF91BE
:100DE0001F910F91FF90EF90DF90CF9009942A30E0
:100DF0003105D9F477FF18C06DE25BDF8C01442721
:100E00005527BA014C195D096E097F092AE0CE0108
:100E100079DF800F911FDF91CF911F910F91FF908C
:100E2000EF90DF90CF9008952AE0B701A601CE01A0
:100E3000DF91CF911F910F91FF90EF90DF90CF90B6
:100E400061CF0F931F93CF93DF93EC019A01AB0116
:100E5000662757FD6095762FADDF8C01CE0130DF20
:100E6000800F911FDF91CF911F910F910895211550
:100E7000310541F4DC01ED91FC910190F081E02D10
:100E8000642F09943FCF9A01462F50E060E070E054
:100E9000EECF0F931F93CF93DF93EC019A01462F70
:100EA00050E060E070E0E3DF8C01CE0109DF800FED
:100EB000911FDF91CF911F910F9108958230E8F437
:100EC000E82FF0E0EE0FFF1FE257FC4F71836083C5
:100ED000813041F0809169008C7F842B8093690080
:100EE000E89A089580916900440F551F440F551FDB
:100EF000837F842B80936900E99A0895823068F497
:100F0000813011F0E89801C0E998E82FF0E0EE0F89
:100F1000FF1FE257FC4F1182108208951F920F921B
:100F20000FB60F9211242F933F934F935F936F93BC
:100F30007F938F939F93AF93BF93EF93FF93809192
:100F40008E0390918F03892B29F0E0918E03F0910D
:100F50008F030995FF91EF91BF91AF919F918F9171
:100F60007F916F915F914F913F912F910F900FBEA5
:100F70000F901F9018951F920F920FB60F92112489
:100F80002F933F934F935F936F937F938F939F9391
:100F9000AF93BF93EF93FF93809190039091910350
:100FA000892B29F0E0919003F09191030995FF912D
:100FB000EF91BF91AF919F918F917F916F915F91D1
:100FC0004F913F912F910F900FBE0F901F9018954A
:100FD000FC01808191810C94B61CCF93DF93EC01CE
:100FE00088819981009711F00E94B61C198218829D
:100FF0001D821C821B821A82DF91CF9108950F936C
:101000001F93CF93DF93EC018B016F5F7F4F88813C
:1010100099810E94451D009731F0998388831B8335
:101020000A8381E001C080E0DF91CF911F910F9191
:101030000895CF93DF93EC0188819981892B29F062
:101040008A819B818617970758F4CE01D8DF8823C1
:1010500041F08C819D81892B19F4E881F9811082FE
:1010600081E0DF91CF910895EF92FF920F931F934C
:10107000CF93DF93EC017B018A01BA01DADF8111A2
:1010800003C0CE01AADF07C01D830C83B70188818E
:1010900099810E941A1ECE01DF91CF911F910F916D
:1010A000FF90EF900895FC0111821082138212824A
:1010B000158214826115710551F0FB010190002029
:1010C000E9F7AF0141505109461B570BCDCF0895A9
:1010D000CF93DF93EC01FB018617970751F06081F6
:1010E00071816115710521F044815581BDDF01C019
:1010F00074DFCE01DF91CF910895FC01118210823F
:101100001382128215821482E3CFCF93DF93EC0116
:101110006115710559F0FB0101900020E9F7AF015D
:1011200041505109461B570B9FDF01C056DFCE01CE
:10113000DF91CF9108950F931F93CF93DF93CDB796
:10114000DEB762970FB6F894DEBF0FBECDBF8C013D
:10115000CB01F8011182108213821282158214824F
:1011600050E0BE016F5F7F4F0E94301EBE016F5F77
:101170007F4FC801CADF62960FB6F894DEBF0FBE7C
:10118000CDBFDF91CF911F910F910895EF92FF9204
:101190000F931F93CF93DF93EC017B010C811D8193
:1011A0006115710511F480E015C04115510589F0F4
:1011B000040F151FB8013DDF8823A9F32881398169
:1011C0008C819D81B701820F931F0E941A1E1D837F
:1011D0000C8381E0DF91CF911F910F91FF90EF90F1
:1011E0000895CF93DF93EC01FB0144815581608129
:1011F0007181CCDF811102C0CE01EFDECE01DF9123
:10120000CF910895CF93DF93EC016115710561F0E3
:10121000FB0101900020E9F7AF0141505109461B45
:10122000570BB4DF811102C0CE01D7DECE01DF91B2
:10123000CF9108950F931F93CF93DF93EB01411547
:101240005105E9F02097D9F0FC01648175812617DA
:101250003707A0F4621B730B8A0101501109601754
:10126000710708F48B01FC0160817181620F731FAB
:10127000A801CE010E94211EC00FD11F1882DF914C
:10128000CF911F910F9108950895A7D0FDDF4DD9FB
:10129000CFE2D4E080DA2097E9F3E1DAFBCF1F92C6
:1012A0000F920FB60F9211242F933F938F939F931A
:1012B000AF93BF938091930390919403A091950372
:1012C000B09196033091920323E0230F2D3720F441
:1012D0000196A11DB11D05C026E8230F0296A11D90
:1012E000B11D209392038093930390939403A09352
:1012F0009503B09396038091970390919803A091E2
:101300009903B0919A030196A11DB11D8093970393
:1013100090939803A0939903B0939A03BF91AF91D0
:101320009F918F913F912F910F900FBE0F901F9023
:1013300018952FB7F894609193037091940380915E
:101340009503909196032FBF08953FB7F89480912D
:10135000970390919803A0919903B0919A0326B5B1
:10136000A89B05C02F3F19F00196A11DB11D3FBFDD
:101370006627782F892F9A2F620F711D811D911D6D
:1013800042E0660F771F881F991F4A95D1F708958D
:10139000CF92DF92EF92FF92CF93DF936B017C01AC
:1013A000D4DFEB01C114D104E104F10479F0E7D0FA
:1013B000CCDF6C1B7D0B683E7340A0F381E0C81A44
:1013C000D108E108F108C851DC4FECCFDF91CF9193
:1013D000FF90EF90DF90CF900895789484B582606D
:1013E00084BD84B5816084BD85B5826085BD85B5C9
:1013F000816085BDEEE6F0E0808181608083E1E878
:10140000F0E01082808182608083808181608083AF
:10141000E0E8F0E0808181608083E1EBF0E08081B2
:1014200084608083E0EBF0E0808181608083EAE784
:10143000F0E080818460808380818260808380810D
:10144000816080838081806880831092C1000895CC
:10145000833081F028F4813099F08230A1F0089532
:101460008730A9F08830B9F08430D1F480918000C1
:101470008F7D03C0809180008F77809380000895D6
:1014800084B58F7702C084B58F7D84BD0895809127
:10149000B0008F7703C08091B0008F7D8093B00043
:1014A0000895CF93DF9390E0FC01EA56FF4F24911B
:1014B000FC01E655FF4F8491882349F190E0880FA5
:1014C000991FFC01E853FF4FA591B49182549F4F9F
:1014D000FC01C591D4919FB7611108C0F8948C911B
:1014E000209582238C93888182230AC0623051F434
:1014F000F8948C91322F309583238C938881822BA2
:10150000888304C0F8948C91822B8C939FBFDF91C9
:10151000CF9108950F931F93CF93DF931F92CDB771
:10152000DEB7282F30E0F901EE57FF4F8491F90123
:10153000EA56FF4F1491F901E655FF4F049100233D
:10154000C1F0882319F0698383DF6981E02FF0E01F
:10155000EE0FFF1FE254FF4FA591B4919FB7F8948F
:101560008C91611103C01095812301C0812B8C9354
:101570009FBF0F90DF91CF911F910F910895089514
:101580001F920F920FB60F9211242F933F934F93F8
:101590005F936F937F938F939F93AF93BF93EF93DB
:1015A000FF9380919C0387FF05C0109285001092E5
:1015B00084001AC020919C03332727FD3095809129
:1015C0009B0390E0281739077CF480919C039927AE
:1015D00087FD9095FC01EE0FFF1FE80FF91FE35602
:1015E000FC4F808186FD15C080919C038F5F8093A6
:1015F0009C0320919C03332727FD309580919B030A
:1016000090E028173907B4F480919C038C3054F192
:1016100011C080919C03992787FD9095FC01EE0FE6
:10162000FF1FE80FF91FE356FC4F808160E08F73C6
:1016300071DFDACF80918400909185000496803428
:101640009C4918F480E49CE905C080918400909145
:101650008500049690938900809388008FEF809393
:101660009C0337C0209184003091850080919C03B9
:10167000992787FD9095FC01EE0FFF1FE80FF91FDA
:10168000E356FC4F81819281820F931F90938900D2
:101690008093880080919C03992787FD9095FC0199
:1016A000EE0FFF1FE80FF91FE356FC4F808186FF06
:1016B00010C080919C03992787FD9095FC01EE0F47
:1016C000FF1FE80FF91FE356FC4F808161E08F7325
:1016D00021DFFF91EF91BF91AF919F918F917F910A
:1016E0006F915F914F913F912F910F900FBE0F908F
:1016F0001F90189520919B032C30A0F431E0320FFD
:1017000030939B03FC012083822F90E0FC01EE0FBD
:10171000FF1FE80FF91FE356FC4F88EB9BE0928315
:10172000818308952FEFFC0120830895DF92EF92CB
:10173000FF920F931F93CF93DF93EC01D62E7A0184
:10174000890188818C3008F065C061E08D2DA9DEAB
:101750008881A82FB0E0FD01EE0FFF1FEA0FFB1FED
:10176000E356FC4F2D2D2F739081907C922B90830C
:1017700060E272E06E197F0977FF02C06D5F7F4FF4
:101780007595679575956795698340E659E0401BA7
:10179000510B57FF02C04D5F5F4F559547955595CB
:1017A00047954A836CE00E94301A9CE0899FB00103
:1017B000112420E030E0A901460F571FFA01EE0F77
:1017C000FF1FE40FF51FE356FC4F908196FD16C0F6
:1017D0002F5F3F4F2C30310571F781110FC01092F0
:1017E000800082E080938100109285001092840036
:1017F000B19A80916F00826080936F00888190E041
:10180000FC01EE0FFF1FE80FF91FE356FC4F80812C
:10181000806480838881DF91CF911F910F91FF9029
:10182000EF90DF90089520E639E040E252E07ECF6D
:10183000FC0180818C3070F5918128E830E0291B13
:10184000310997FD3395220F331F220F331F621783
:1018500073077CF0928128E532E0291B310997FD5E
:101860003395220F331F220F331F621773070CF4B7
:101870009B0122503109220F331F4FB7F89490E09B
:10188000FC01EE0FFF1FE80FF91FE356FC4F3283F8
:1018900021834FBF08954F925F926F927F92AF92D4
:1018A000BF92CF92DF92EF92FF920F931F93CF934D
:1018B000DF93EC01603282E078070CF040C077FDE6
:1018C00006C0653B71052CF064EB70E002C060E07F
:1018D00070E0898128E830E0281B310987FD3395C5
:1018E000220F331F220F331F5901CC24B7FCC094A1
:1018F000DC2C882777FD8095982F2A8148E552E0D7
:10190000421B510927FD5395440F551F440F551F86
:101910002A01662457FC6094762C7F926F925F9226
:101920004F9214EBE12EF12C00E010E020E030E0CB
:10193000A9010E94F8160F900F900F900F90CE0102
:10194000DF91CF911F910F91FF90EF90DF90CF909B
:10195000BF90AF907F906F905F904F9069CF8091D4
:10196000C7039091C8032091C5033091C603821B21
:10197000930B8F73992708952091C7033091C80363
:101980008091C5039091C60328173907E9F0E091CB
:10199000C503F091C603E753FC4F80812091C50336
:1019A0003091C6032F5F3F4F3093C6032093C5038A
:1019B0002091C5033091C6032F7333273093C6039C
:1019C0002093C50390E008958FEF9FEF0895209135
:1019D000C7033091C8038091C5039091C6032817AF
:1019E000390749F0E091C503F091C603E753FC4F76
:1019F000808190E008958FEF9FEF0895089520E093
:101A000030E050E02417350704F58091C70390912A
:101A1000C80301968F739927E091C503F091C6031F
:101A20008E179F0779F0E091C703F091C803DB019F
:101A3000A20FB31FAC91E753FC4FA0839093C80350
:101A40008093C7032F5F3F4FDDCF08950F931F9300
:101A5000FC01522F1382128208EE13E020E030E0E6
:101A600004831583268337838CE592E091838083FA
:101A700081E0808B6093C3034093C2035093C403FF
:101A800017861686158614861092C6031092C50313
:101A90001092C8031092C70386E890E0968B858B5E
:101AA0001F910F910895CF93DF93EC016AE074E0EA
:101AB0008CE294E00FD5882309F4C4C040910C0453
:101AC00050E0FA01E158F109ED30F10508F0BAC033
:101AD000EC5CFF4F0C947A1A80910F0480933304CE
:101AE00080910D04823021F0833009F461C0AAC0D6
:101AF0008CE294E0ABD1029709F4A4C088898823D2
:101B000009F4A0C069E471E081EF92E0DF91CF9128
:101B1000E9C880910E048823B1F08889811101C041
:101B2000FFCF6CE371E081EF92E08FD840E150E0AD
:101B300060910D0481EF92E0ACD964E071E081EF37
:101B400092E0D0D8EDCF80910D04893009F07AC0B1
:101B500029E04FE054E064E08CE294E0DF91CF9123
:101B600021C4809133048093360416D485E890E034
:101B70009E8B8D8BEC85FD85309709F0099563E090
:101B80008CE294E0B1D3882309F45CC0809109040D
:101B9000811158C099D481E08093090453C086E82C
:101BA00090E09E8B8D8BEC85FD85309709F0099533
:101BB0006B897C8989899A892ED481E890E09E8BF3
:101BC0008D8BEC85FD85309709F43CC0DF91CF917A
:101BD000099440910B0442506EE074E0CE010FDF97
:101BE000EE85FF85309771F160910B0462508EE0B5
:101BF00094E0DF91CF91099480910D049091360487
:101C0000890F1EC088898823C1F068EE70E081EFDB
:101C100092E01BD84AE050E060910D0481EF92E021
:101C200032D962ED70E081EF92E00FD840E150E0F0
:101C300060910E0481EF92E02CD9809136048F5F81
:101C400080933604DF91CF910895CF92DF92EF9287
:101C5000FF920F931F93CF93DF937C018B01D42EC0
:101C600065E771E081EF92E00E942506C02EC02F4B
:101C7000D12F8C2F8C198D1568F461E771E081EFFD
:101C800092E00E942506699140E150E081EF92E0E8
:101C9000FAD8EFCF81EF92E013D8C0E0DD2001F158
:101CA00063E08CE294E020D3811103C0C701FBDE26
:101CB000F5CFDD2D84E18D1508F4D4E14D2FB80169
:101CC0006C0F711D83E0C1D38091360481508093E5
:101CD000360463E270E080E090E05ADBDD1A59F4EC
:101CE0008C2F90E0DF91CF911F910F91FF90EF909B
:101CF000DF90CF900895CD0FD1CF0F931F93CF9347
:101D0000DF931F92CDB7DEB78C0169836CE571E07C
:101D100081EF92E00E94250640E150E0698181EF69
:101D200092E0B7D863E08CE294E0DED2882399F0A9
:101D300041E0BE016F5F7F4F83E087D3809136041F
:101D400081508093360463E270E080E090E020DB15
:101D500081E090E004C0C801A6DE80E090E00F9032
:101D6000DF91CF911F910F910895FC01728B618BD0
:101D7000548B438B8FE091E090932D0480932C043F
:101D800084E080932E048BE891E09093300480935C
:101D90002F0485E1809331048CE294E0B6D281E097
:101DA0000895CF92DF92EF92FF920F931F93CF93FC
:101DB000DF938C01C62E81E2489F70011124C0E0A0
:101DC000D0E0D12CDC1409F1CE018E0D9F1DF8015D
:101DD00063817481680F791FFB013196449150E053
:101DE0004E5F5F4F8EE494E00E94081E8EE494E004
:101DF00069D1A196811107C060E474E081EF92E09F
:101E00000E94720618C0D394DDCFC0E06FE674E084
:101E1000C80160D38823D1F3CF5F809171048438E7
:101E200051F4809173049FEF980F923010F4CC120C
:101E3000EDCF90E002C081E890E0DF91CF911F915B
:101E40000F91FF90EF90DF90CF9008950F931F9325
:101E5000CF93DF93EC016D81693028F000E010E052
:101E600088E890E002C040E014C06D81262F2695DE
:101E700026952695121738F4402F68E0CE0191DFA1
:101E80001F5F085FF2CF677051F0412F440F440F7E
:101E9000440FCE01DF91CF911F910F9182CFDF913F
:101EA000CF911F910F9108951092A506FC01E85F54
:101EB000FE4F108231961082EDE9F5E0DF011197B7
:101EC0001C921082B19686E0E53AF807B9F70895BA
:101ED0000F931F93CF93DF93EC0109814AE050E009
:101EE000602F81EF92E00E94430768E672E081EF85
:101EF00092E00E94580610E0FE01E10FF11D40E162
:101F000050E0618181EF92E00E94430760E574E058
:101F100081EF92E00E9425061F5F011768F76FE4CA
:101F200074E081EF92E0DF91CF911F910F910C94BB
:101F300072068EBD00000DB407FEFDCF8EB508956C
:101F40009091C203923019F0933019F01BC020E039
:101F500001C021E03DB3882351F081E090E0022EE2
:101F600001C0880F0A94EAF7382B3DBB089581E041
:101F700090E0022E01C0880F0A94EAF7809583232F
:101F80008DBB0895FFCF0F931F93CF93DF93EC0189
:101F9000F89400919A05109199057894E09199052B
:101FA00080919A05E81751F191E29E9FF00111246A
:101FB000EF56FB4FDE0101900D929A95E1F72091CB
:101FC000990530E02F5F3F4F277033272093990505
:101FD0008091A506882341F06BE672E081EF92E0E4
:101FE0000E945806CE0174DF802F90E00196877022
:101FF0009927181305C081E0A3DF02C080E001C06B
:1020000081E0DF91CF911F910F9108951092A70663
:1020100034D78CB580628CBD8CB58C7F81608CBDD3
:102020008DB581608DBD8CB5837F8CBD8BE995E0CE
:102030003BDF81E994E038DF61E08091C40331DA6D
:1020400062E08091C2032DDA61E08091C30329DA56
:1020500061E08091C4035EDA64E670E080E090E0C5
:1020600097D960E08091C40355DA61E08091C403A0
:1020700051DA60E08DE04EDA60E08BE04BDA61E04F
:102080008091C30347DA60E08DE044DA8FEF8093FC
:10209000C1038091C203823019F41092C10305C0BC
:1020A000833019F481E08093C1036EE170E080E039
:1020B00090E06ED940E050E062E371E18091C103AD
:1020C0000C945E070F931F93CF93DF938C01FC0159
:1020D00041814032B0F52091A40630E0E90121961B
:1020E000C770DD278091A3068C17C1F051E2529F83
:1020F000C001539F900D1124FC01E556FA4F108248
:1021000050E04F5F5F4FB8016F5F7F4F84569A4F2B
:102110000E94111EC093A406C1E001C0C0E08091DE
:10212000A506882341F06EE672E081EF92E00E94FE
:102130005806C801CDDE60E08091C303EBD98C2F37
:1021400001C080E0DF91CF911F910F910895CF9250
:10215000DF92EF92FF920F931F93CF93DF93CDB750
:10216000DEB7A2970FB6F894DEBF0FBECDBF60E01A
:102170008091C303CFD98091A3069091A4068917BB
:1021800009F45DC090E021E2289FF001299FF00D45
:102190001124E556FA4FDE01119601900D922A9511
:1021A000E1F70196877099278093A3061A81812F02
:1021B000C0DE8093A6068B81BCDE8093A706112328
:1021C00049F0412F50E0282F30E02417350714F450
:1021D0008FEF810F982F803208F09FE17E0184E01D
:1021E000E80EF11C88EAC82E86E0D82E8601802FE2
:1021F0008C19891750F4F70181917F019AA399DE18
:10220000F80181938F019AA1F2CF61E08091C3031D
:1022100081D983B7816083BF40E050E062E371E120
:102220008091C1030E945E079091A3068091A4064D
:10223000981739F060E08091C3036CD902C01A820C
:10224000B5CF86EA96E0A2960FB6F894DEBF0FBE31
:10225000CDBFDF91CF911F910F91FF90EF90DF9055
:10226000CF900895CF93DF9383B78E7F83BF809104
:10227000C1030E947E076BDFFC014181442389F189
:1022800060919A0570E0EB012196C770DD272091DF
:1022900099052C1729F151E2569F9001579F300D57
:1022A0001124F901EF56FB4F108250E04F5F5F4F52
:1022B000BC016F5F7F4FC9018E569B4F0E94111E5C
:1022C000C0939A05F89480919A058F5F87709091DA
:1022D00099057894891305C080E0DF91CF9130CEC5
:1022E000FFCFDF91CF910895262F2695269526952D
:1022F000820F911DFC01818990E0677002C0959565
:1023000087956A95E2F781700895CF93DF93FC017A
:10231000A8ECB6E080E090E0EF01C80FD91F198A61
:10232000198E1D92019688309105B1F71092D5064D
:102330001092D4061092D3061092D2068FEF80939B
:10234000DD068093DC068093DB061092D90610929E
:10235000D8061092D7061092D6061092D106109287
:10236000D0061092C7061092DF061092DE0680811A
:1023700091819093060780930507828180930407DB
:1023800083819481909303078093020785818093D2
:102390000107DF91CF913ACE81EE96E0E5D080EE55
:1023A00096E090CECF93DF93CDB7DEB766970FB6AA
:1023B000F894DEBF0FBECDBFCA01E0910507F091D2
:1023C000060733E0639FE00DF11D11243397308140
:1023D0003130B9F42531A8F46983422F50E0BC01B3
:1023E000CE0102962E8B0E94111E2E89422FBE0115
:1023F0006F5F7F4F81EE96E0BDD080EE96E062DEAB
:1024000001C080E066960FB6F894DEBF0FBECDBF68
:10241000DF91CF910895CF93DF9300D000D0CDB757
:10242000DEB79A8389837C836B83BE016F5F7F4FA6
:1024300081EE96E0B0D080EE96E044DE0F900F90F3
:102440000F900F90DF91CF9108951F93CF93DF935B
:10245000CDB7DEB765970FB6F894DEBF0FBECDBF20
:10246000142FE0910507F091060793E0899FE00D96
:10247000F11D11243397218132812230310519F069
:1024800024303105B1F41531A0F48983412F50E097
:10249000CE0102960E94111E412FBE016F5F7F4F39
:1024A00081EE96E08CD01092DA0680EE96E00ADE9D
:1024B00001C080E065960FB6F894DEBF0FBECDBFB9
:1024C000DF91CF911F91089581EE96E089D080EE43
:1024D00096E0F8CD0F931F93CF93DF93EC018B0120
:1024E000CB0151DDF8019281983839F0993851F1DA
:1024F0009638A9F520E030E017C020E030E00F5F0B
:102500001F4FD801A20FB31F12969C911297FE0184
:10251000E20FF31F918B1A969C91918F2F5F3F4F83
:102520002830310571F71BC0FE01E20FF31F118A3D
:10253000118E2F5F3F4F28303105B1F719A29F81CF
:102540009A870DC0F801238134813C872B87258130
:1025500036813E872D8727813085388B2F87DF9105
:10256000CF911F910F91089521E0FC01208329E074
:102570002183089522E0240FDC012C932DE0119695
:102580002C931197FB01219112962C9350E0BF01DF
:1025900003960C94111EFC01DB0185E080838FE023
:1025A000818311968C91119783838C9182831396EA
:1025B0008C911397858312968C918483089522E0E1
:1025C000240FDC012C9325E111962C931197FB012C
:1025D000219112962C9350E0BF0103960C94111E8A
:1025E00021E0FC01208323E1218308950895FC016B
:1025F000658B08950F931F93CF93DF938C01EB01AD
:1026000088E2FB0111928A95E9F74BE050E060E720
:1026100072E0CE010E94211E1B8641E050E060E086
:1026200070E04C875D876E877F87F801078510898A
:1026300021893289088B198B2A8B3B8B4C8B5D8BC4
:102640006E8B7F8B1CA21DA21EA21FA2188E198E3C
:102650001A8E1B8E1C8E1D8E1E8E1F8E18A219A206
:102660001AA21BA2DF91CF911F910F9108950F9392
:102670001F93CF93DF938C01EB0188E2FB01119252
:102680008A95E9F74BE050E060E772E0CE010E94E6
:10269000211E1B8641E050E060E070E04C875D87C2
:1026A0006E877F87F8014189528963897489488BD5
:1026B000598B6A8B7B8B42E050E060E070E04C8B82
:1026C0005D8B6E8B7F8B1CA21DA21EA21FA2188E7B
:1026D000198E1A8E1B8E1C8E1D8E1E8E1F8E18A29A
:1026E00019A21AA21BA2DF91CF911F910F910895F9
:1026F000DC01ED91FC910190F081E02D09942BE734
:1027000032E0FC01318320834787508B618B728BD1
:102710000895FC0185E892E091838083418B528B80
:10272000638B748B158A0895CF93DF9300D0CDB758
:10273000DEB788E097E02A83498378D44981642F03
:1027400088E097E027D42A81622F88E097E022D49E
:1027500088E097E00F900F90DF91CF9183C40F93A3
:102760001F93CF93DF938C01EB01262F41E06EE1A5
:10277000DBDFF801D483C383C038D10509F45BC023
:10278000DCF4C034D105A9F1C036D10509F442C04A
:10279000A09709F08AC080E090E8A9E8B4E48093AB
:1027A0001F0190932001A0932101B093220180E0AA
:1027B00090E0A5E7B4E471C0C03CD10509F44CC079
:1027C000C03ED10509F459C0C03AD10509F06DC029
:1027D00080E090E0A8ECB3E480931F019093200187
:1027E000A0932101B093220180E090E8A1EBB3E433
:1027F00054C080E090ECA5E5B4E480931F01909371
:102800002001A0932101B093220180E090E0AEE38B
:10281000B4E443C080E090E8A7E2B4E480931F01F1
:1028200090932001A0932101B093220180E090E0D9
:10283000A6E1B4E432C080E090E0A1EEB3E480937E
:102840001F0190932001A0932101B093220180E009
:1028500090E0A8ECB3E421C080E090E0A5EAB3E406
:1028600080931F0190932001A0932101B093220136
:1028700080E090E8A3E9B3E410C080E090E0A6E631
:10288000B3E480931F0190932001A0932101B093A2
:10289000220180E090E0ADE4B3E480931B019093CB
:1028A0001C01A0931D01B0931E01DF91CF911F91D8
:1028B0000F9108951F93CF93DF931F92CDB7DEB78B
:1028C000162F88E097E04983B1D34981642F88E0CF
:1028D00097E060D388E097E0C5D341E0612F88E0BE
:1028E00097E0A2D388E097E006D3182F88E097E01E
:1028F000B9D3812F0F90DF91CF911F9108956F92DF
:102900007F928F929F92AF92BF92CF92DF92EF927F
:10291000FF920F931F93CF93DF93EC0169E188E05F
:1029200097E084D368EA70E088E097E0E1DE88E031
:1029300097E098D346E069E188E097E075D388E0B6
:1029400097E0D1D20697DCF388E097E0D4D2782ED6
:1029500088E097E0D0D2682E88E097E0CCD2982E1D
:1029600088E097E0C8D2882E88E097E0C4D2D82EBD
:1029700088E097E0C0D2C82EB62CA12CA72884E00E
:10298000B594A7948A95E1F7B501882777FD8095DE
:10299000982F3DD66B837C838D839E83F82CE12C0E
:1029A000E92894E0F594E7949A95E1F7B701882730
:1029B00077FD8095982F2BD66F83788789879A87A4
:1029C0001C2D00E00D2924E0159507952A95E1F7C7
:1029D000B801882777FD8095982F19D66B877C875B
:1029E0008D879E87DF91CF911F910F91FF90EF9080
:1029F000DF90CF90BF90AF909F908F907F906F901F
:102A000008950F931F93CF93DF938C01EB0184E222
:102A1000FB0111928A95E9F7C80171DF84E290E029
:102A2000A0E0B0E088839983AA83BB83F8018785FF
:102A30009089A189B2898C839D83AE83BF8381E015
:102A400090E0A0E0B0E088879987AA87BB870E94C2
:102A50009909688B798B8A8B9B8B2FE632E143E84F
:102A60005AE3F801638174818581968184D62AE0D6
:102A700038EE4CE151E47FD66C8B7D8B8E8B9F8B37
:102A80002FE632E143E85AE3F801678170858185DA
:102A9000928571D62AE038EE4CE151E46CD6688F0D
:102AA000798F8A8F9B8F2FE632E143E85AE3F80152
:102AB00063857485858596855ED62AE038EE4CE17F
:102AC00051E459D66C8F7D8F8E8F9F8F81E0DF917F
:102AD000CF911F910F9108956F927F928F929F9245
:102AE000AF92BF92CF92DF92EF92FF920F931F931C
:102AF000CF93DF93EC016EE188E097E097D263E03B
:102B000070E088E097E0F4DD88E097E0ABD246E043
:102B10006EE188E097E088D288E097E0E4D10697FC
:102B2000DCF388E097E0E7D1682E88E097E0E3D116
:102B3000782E88E097E0DFD1C82E88E097E0DBD1DF
:102B4000D82E88E097E0D7D1882E88E097E0D3D1BF
:102B5000982EB62CA12CA728B501882777FD809543
:102B6000982F55D56D837E838F839887F82CE12C21
:102B7000E928B701882777FD8095982F48D5698780
:102B80007A878B879C871C2D00E00D29B801882748
:102B900077FD8095982F3BD56D877E878F87988BA3
:102BA000DF91CF911F910F91FF90EF90DF90CF9029
:102BB000BF90AF909F908F907F906F9008952F92CD
:102BC0003F924F925F926F927F928F929F92AF92BD
:102BD000BF92CF92DF92EF92FF920F931F93CF930A
:102BE000DF93EC018B0184E2FB0111928A95E9F7F6
:102BF00049E06EE1CE015EDE80FFE5C0CE016CDF14
:102C00008D89882309F47CC04D805E806F80788434
:102C100089849A84AB84BC84CD84DE84EF84F88874
:102C20002224239420E030E04FEF54ECC301B201A2
:102C300080D418160CF4212C3324339420E030E097
:102C40004FEF54E4C301B20192D587FD312C3228F5
:102C50006624639420E030E04FEF54E4C501B401F2
:102C600086D587FD612C63287724739420E030E0BB
:102C70004FEF54ECC501B4015CD418160CF4712C60
:102C80007628BB24B39420E030E04FEF54E4C70132
:102C9000B6016DD587FDB12C7B2849F420E030E0EA
:102CA0004FEF54ECC701B60144D418164CF18B8198
:102CB0009C8180369105E1F04CF480329105D9F089
:102CC00080349105E9F460E670E017C0803A910520
:102CD00061F0803C910531F08038910589F460EA1B
:102CE00070E00BC060EE70E008C060EC70E005C002
:102CF00060E870E002C060E470E0CE0130DD78CFC3
:102D000084E290E0A0E0B0E0F80180839183A283A8
:102D1000B38389899A89AB89BC8984839583A68387
:102D2000B78382E090E0A0E0B0E080879187A2873F
:102D3000B3870E949909F801608B718B828B938B0A
:102D4000C0901F01D0902001E0902101F09022015D
:102D5000A70196016D817E818F819885EED320E059
:102D600030E048EC52E407D5F801648B758B868B14
:102D7000978BA701960169857A858B859C85DDD324
:102D800020E030E048EC52E4F6D4F801608F718F17
:102D9000828F938F20911B0130911C0140911D0166
:102DA00050911E016D857E858F859889C6D320E060
:102DB00030E048EC52E4DFD4F801648F758F868FE1
:102DC000978F81E001C080E0DF91CF911F910F913B
:102DD000FF90EF90DF90CF90BF90AF909F908F903B
:102DE0007F906F905F904F903F902F90089508953F
:102DF0004F925F926F927F92AF92BF92CF92DF928B
:102E0000EF92FF920F931F93CF93DF93CDB7DEB76F
:102E100029013A01621B730B840B950B29893A89AE
:102E20004B895C892A193B094C095D09298B3A8B2E
:102E30004B8B5C8B9B01AC0169897A898B899C895E
:102E400000D3E418F50806091709A801970136D33D
:102E50002A0D3B1D4C1D5D1DCA01B901DF91CF91AB
:102E60001F910F91FF90EF90DF90CF90BF90AF90A8
:102E70007F906F905F904F900895CF93CFB7F89465
:102E800080910707811127C0E4EBF0E08491E0EA2C
:102E9000F0E09491E82FF0E0EE0FFF1FE853FF4FB2
:102EA000A591B4918C91892321F461E08AE00E947C
:102EB0008A0A61E08AE00E94510A8CB580618CBD6B
:102EC0008CB580648CBD61E08DE00E94510A61E0A8
:102ED0008BE00E94510A809107078F5F809307075C
:102EE000CFBFCF9108958091380790E020913907A6
:102EF000821B91090895209139078091380728177E
:102F000050F4E22FF0E0E65CF84F808190E02F5F14
:102F10002093390708958FEF9FEF0895E0913907C7
:102F200080913807E81730F4F0E0E65CF84F8081D4
:102F300090E008958FEF9FEF08950895CF92DF926C
:102F4000EF92FF920F931F93CF93DF937C01CB01FE
:102F50008A0120911407222389F0EB016B01C40E32
:102F6000D51ECC15DD0561F06991D701ED91FC917D
:102F70000190F081E02DC7010995F3CF642F0ED1A8
:102F8000C801DF91CF911F910F91FF90EF90DF90DB
:102F9000CF900895CF93DF931F92CDB7DEB76983AB
:102FA000209114072223D1F020911507203240F000
:102FB00021E030E0FC013383228380E090E014C004
:102FC00080911607E82FF0E0E95EF84F9981908331
:102FD0008F5F809316078093150704C061E0CE01D0
:102FE0000196DCD081E090E00F90DF91CF910895C1
:102FF000FC011382128248EE53E060E070E04483EB
:103000005583668377838FE892E091838083089568
:10301000862F413208F040E26AE377E028D0109230
:10302000390780933807089521E0F2CF81E080933B
:10303000140760933707109216071092150708952A
:103040000F93062F21E04091150767E177E080910B
:10305000370751D0109216071092150710921407D7
:103060000F91089561E0ECCF88E097E0C1CF413245
:1030700008F03FC09091C7079111FCCF91E0909369
:10308000C7072093C5072FEF20935A0710929F0779
:10309000240F20939E079093C6079091C607880F30
:1030A000892B8093C6078091C407813041F4109228
:1030B000C4078091C6078093BB0085EC01C085EEF4
:1030C0008093BC008091C7078130E1F380919F0716
:1030D000841710F440919F0720EA37E0FB01D901E3
:1030E0008A2F821B841718F48D918193F9CF842F36
:1030F000089580E008950F93413208F046C0909102
:10310000C7079111FCCF92E09093C7070093C507C2
:103110009FEF90935A0710929F0740939E07FB01E1
:1031200060EA77E0DB019A2F961B941718F49191CF
:103130009D93F9CF1092C6079091C607880F892BEF
:103140008093C6078091C407813041F41092C40770
:103150008091C6078093BB0085EC01C085EE80930B
:10316000BC00222321F08091C7078230E1F38091D7
:103170005A078F3F61F080915A07803251F0809159
:103180005A07803341F483E007C081E005C080E046
:1031900003C082E001C084E00F910895613298F489
:1031A0002091C707243089F460937C07FC018EE7E7
:1031B00097E0DC012A2F281B261718F421912D9364
:1031C000F9CF80E0089581E0089582E0089585EDCB
:1031D0008093BC008091BC0084FDFCCF1092C70797
:1031E000089585EC8093BC001092C70708951F9244
:1031F0000F920FB60F9211242F933F934F935F932B
:103200006F937F938F939F93AF93BF93EF93FF93AE
:103210008091B900887F803609F49CC068F58832B7
:1032200009F45BC090F4803109F454C038F4882369
:1032300009F4F3C0883009F44DC0F2C0883109F4B4
:103240004CC0803209F45DC0EBC0803409F468C022
:1032500048F4803309F455C0883309F0E1C0809305
:103260005A07A7C0803509F44FC0883509F45DC0FE
:10327000883409F0D5C0D3C0883909F4C4C0A8F493
:10328000883709F467C038F4883609F463C080379A
:1032900009F460C0C5C0883809F4B5C0803909F4A4
:1032A0005FC0803809F0BCC05BC0803B09F483C0BC
:1032B00038F4803A09F466C0883A09F47CC0B0C09A
:1032C000803C09F4A4C0883C09F4A1C0883B09F4FF
:1032D00087C0A6C08091C60710C090919F078091BB
:1032E0009E07981770F5E0919F0781E08E0F8093FD
:1032F0009F07F0E0E056F84F80818093BB0085EC9B
:1033000083C080935A078BC0E0919F0781E08E0FA6
:1033100080939F078091BB00F0E0E056F84F8083D8
:1033200090919F0780919E076BC0E0919F0781E07D
:103330008E0F80939F078091BB00F0E0E056F84F1E
:1033400080838091C50781116AC081E08093C407A2
:1033500084EA5EC083E08093C70710925B07CFCFFB
:1033600080915B07803208F04EC0E0915B0781E0FE
:103370008E0F80935B078091BB00F0E0E45AF84F1A
:103380008083BDCF80915B07803230F4E0915B0792
:10339000F0E0E45AF84F10821ADF60915B0770E0AA
:1033A000E091C007F091C1078CE597E00995109274
:1033B0005B0717DF35C084E08093C70710927D0755
:1033C00010927C07E091C207F091C30709958091A4
:1033D0007C07811105C081E080937C0710927E07F5
:1033E000E0917D0781E08E0F80937D07F0E0E25849
:1033F000F84F80818093BB0090917D0780917C077E
:10340000981708F47CCF85E88093BC0009C085EC50
:103410008093BC001092C70703C010925A07D7DEF2
:10342000FF91EF91BF91AF919F918F917F916F919C
:103430005F914F913F912F910F900FBE0F901F9072
:103440001895DB018F939F936AD0BF91AF91A29F94
:10345000800D911DA39F900DB29F900D1124089592
:10346000991B79E004C0991F961708F0961B881FD6
:103470007A95C9F780950895A1E21A2EAA1BBB1B65
:10348000FD010DC0AA1FBB1FEE1FFF1FA217B30730
:10349000E407F50720F0A21BB30BE40BF50B661F46
:1034A000771F881F991F1A9469F76095709580950A
:1034B00090959B01AC01BD01CF010895052E97FBAE
:1034C00016F400940FD057FD05D0D6DF07FC02D0CC
:1034D00046F408C050954095309521953F4F4F4F89
:1034E0005F4F089590958095709561957F4F8F4FB0
:1034F0009F4F0895EE0FFF1F0590F491E02D099462
:10350000A29FB001B39FC001A39F700D811D112424
:10351000911DB29F700D811D1124911D0895F0DF42
:10352000A59F900DB49F900DA49F800D911D112417
:103530000895A8D008F481E008950CD0DEC0D6D05C
:1035400040F0CDD030F021F45F3F19F0BFC05111F1
:1035500008C1C2C0E3D098F39923C9F35523B1F34E
:10356000951B550BBB27AA2762177307840738F0F2
:103570009F5F5F4F220F331F441FAA1FA9F333D051
:103580000E2E3AF0E0E830D091505040E695001C05
:10359000CAF729D0FE2F27D0660F771F881FBB1FC1
:1035A000261737074807AB07B0E809F0BB0B802D9B
:1035B000BF01FF2793585F4F2AF09E3F510568F0E7
:1035C00085C0CFC05F3FECF3983EDCF386957795DE
:1035D0006795B795F7959F5FC9F7880F911D9695E9
:1035E000879597F90895E1E0660F771F881FBB1F45
:1035F000621773078407BA0720F0621B730B840BF2
:10360000BA0BEE1F88F7E0950895E89409C097FB80
:103610003EF490958095709561957F4F8F4F9F4FA9
:103620009923A9F0F92F96E9BB279395F6958795ED
:1036300077956795B795F111F8CFFAF4BB0F11F4B0
:1036400060FF1BC06F5F7F4F8F4F9F4F16C0882357
:1036500011F096E911C0772321F09EE8872F762F8D
:1036600005C0662371F096E8862F70E060E02AF0CE
:103670009A95660F771F881FDAF7880F96958795BA
:1036800097F90895990F0008550FAA0BE0E8FEEF8F
:1036900016161706E807F907C0F012161306E40716
:1036A000F50798F0621B730B840B950B39F40A260F
:1036B00061F0232B242B252B21F408950A2609F4ED
:1036C000A140A6958FEF811D811D089597F99F67F1
:1036D00080E870E060E008959FEF80EC089500249A
:1036E0000A941616170618060906089500240A9467
:1036F00012161306140605060895092E0394000CED
:1037000011F4882352F0BB0F40F4BF2B11F460FF7B
:1037100004C06F5F7F4F8F4F9F4F089557FD9058A4
:10372000440F551F59F05F3F71F04795880F97FB85
:10373000991F61F09F3F79F087950895121613063F
:103740001406551FF2CF4695F1DF08C0161617066E
:103750001806991FF1CF86957105610508940895A3
:10376000E894BB2766277727CB0197F908958ADF6E
:1037700008F48FEF08950BD0C0CFB1DF28F0B6DF8B
:1037800018F0952309F0A2CFA7CF1124EACFC6DF06
:10379000A0F3959FD1F3950F50E0551F629FF00164
:1037A000729FBB27F00DB11D639FAA27F00DB11DBD
:1037B000AA1F649F6627B00DA11D661F829F222746
:1037C000B00DA11D621F739FB00DA11D621F839FCD
:1037D000A00D611D221F749F3327A00D611D231FA3
:1037E000849F600D211D822F762F6A2F11249F57F1
:1037F00050408AF0E1F088234AF0EE0FFF1FBB1F14
:10380000661F771F881F91505040A9F79E3F5105B2
:1038100070F05CCFA6CF5F3FECF3983EDCF386956B
:1038200077956795B795F795E7959F5FC1F7FE2B5D
:10383000880F911D9695879597F90895CF93DF93FB
:103840008230910510F482E090E0E091CA07F09197
:10385000CB0720E030E0A0E0B0E0309739F14081C4
:10386000518148175907B8F04817590771F48281F8
:103870009381109729F013969C938E9312972CC0E6
:103880009093CB078093CA0727C02115310531F0EB
:103890004217530718F0A901DB0101C0EF019A019B
:1038A000BD01DF010280F381E02DD7CF2115310565
:1038B000F9F0281B390B2430310580F48A819B8173
:1038C0006115710521F0FB019383828304C09093FD
:1038D000CB078093CA07FE01329644C0FE01E20F77
:1038E000F31F8193919322503109398328833AC081
:1038F0002091C8073091C907232B41F42091020180
:10390000309103013093C9072093C807209100012B
:10391000309101012115310541F42DB73EB7409199
:10392000040150910501241B350BE091C807F0916B
:10393000C907E217F307A0F42E1B3F0B281739071E
:1039400078F0AC014E5F5F4F2417350748F04E0FFB
:103950005F1F5093C9074093C8078193919302C09A
:10396000E0E0F0E0CF01DF91CF910895CF93DF93B6
:10397000009709F487C0FC01329713821282C0912C
:10398000CA07D091CB07209781F420813181280F7D
:10399000391F8091C8079091C9078217930779F55D
:1039A000F093C907E093C8076DC0DE0120E030E066
:1039B000AE17BF0750F412964D915C9113979D017D
:1039C0004115510509F1DA01F3CFB383A283408198
:1039D0005181840F951F8A179B0771F48D919C91DB
:1039E0001197840F951F02969183808312968D9173
:1039F0009C911397938382832115310529F4F093C9
:103A0000CB07E093CA073EC0D9011396FC93EE930F
:103A100012974D915D91A40FB51FEA17FB0779F43A
:103A200080819181840F951F0296D90111969C93F4
:103A30008E938281938113969C938E931297E0E0EC
:103A4000F0E08A819B81009719F0FE01EC01F9CF2B
:103A5000CE01029628813981820F931F2091C807D9
:103A60003091C9072817390769F4309729F4109263
:103A7000CB071092CA0702C013821282D093C907E3
:103A8000C093C807DF91CF910895A0E0B0E0EAE4C9
:103A9000FDE127C1EC01CB01209711F4CFDEB4C0CA
:103AA000FE01E60FF71F9E0122503109E217F307CE
:103AB00008F4A8C0D9010D911C911197061717079A
:103AC000B0F00530110508F49BC0A801445051091D
:103AD0004617570708F494C002501109061B170B2C
:103AE000019311936D937C93CF0140DF89C05B01FB
:103AF000A01AB10A4E01800E911EA091CA07B09182
:103B0000CB07612C712C60E070E0109709F449C07C
:103B1000A815B905C9F5ED90FC901197670142E031
:103B2000C40ED11CCA14DB0478F147018A189B0823
:103B3000640142E0C40ED11C1296BC9012971396F9
:103B4000AC91B5E0CB16D10440F0B282A383918250
:103B50008082D9018D939C9309C00E5F1F4F0E0D7B
:103B60001F1DF90111830083EB2DFA2F61157105DB
:103B700031F0DB011396FC93EE93129741C0F09362
:103B8000CB07E093CA073CC06D917C9111976616F4
:103B9000770608F43B01BD0112960D90BC91A02D53
:103BA000B4CF6091C8077091C90768157905E9F429
:103BB00068167906D0F44091000150910101411539
:103BC000510541F44DB75EB7609104017091050154
:103BD000461B570BE417F507A8F4F093C907E093C9
:103BE000C807F901918380830BC028DE7C01009710
:103BF00049F0A801BE0115D0CE01B8DEC70104C04E
:103C0000CE0102C080E090E0CDB7DEB7EEE085C027
:103C1000FB01DC0102C005900D9241505040D8F7E5
:103C20000895FB01DC0102C001900D92415050400B
:103C3000D8F70895FB01DC0101900D920020E1F717
:103C40000895FB01DC014150504048F001900D9275
:103C50000020C9F701C01D9241505040E0F708957F
:103C60004532510518F4423008F004C0FB011082BF
:103C7000CB010895BB274A3031F4992322F4BDE2E9
:103C8000909581959F4F01C0BB27FB015527AA271F
:103C9000880F991FAA1FA41710F0A41B83955051D9
:103CA000B9F7A05DAA3308F0A95DA193009779F751
:103CB000B111B1931192CB0100C0DC01FC01672F5F
:103CC00071917723E1F7329704C07C916D937083F3
:103CD0006291AE17BF07C8F308952F923F924F929B
:103CE0005F926F927F928F929F92AF92BF92CF928C
:103CF000DF92EF92FF920F931F93CF93DF93CDB795
:103D0000DEB7CA1BDB0B0FB6F894DEBF0FBECDBF0C
:103D100009942A88398848885F846E847D848C84DD
:103D20009B84AA84B984C884DF80EE80FD800C81E6
:103D30001B81AA81B981CE0FD11D0FB6F894DEBFC9
:0C3D40000FBECDBFED010895F894FFCF39
:103D4C000000CC07200001000000012C0100000144
:103D5C008000010800010200018000000075440091
:103D6C00808944426F6F74696E6720002E2E005557
:103D7C0070005377616767657200446F6F6D7320D5
:103D8C0044617920576561706F6E00456D6F746981
:103D9C006F6E730046616369616C205265636F6E70
:103DAC006974696F6E00446F6E6520776974682062
:103DBC00536574757000427574746F6E50726573D0
:103DCC00736564002C007D200042524F4B454E0021
:103DDC004D414700636F6D70656E7361746564204F
:103DEC0048656164696E675A3A2000486561646988
:103DFC006E67593A200048656164696E67583A20CD
:103E0C000020200075540048656164696E67733A40
:103E1C00207B002C20007D0043757272656E744807
:103E2C00656164696E673A200052696768743A206C
:103E3C00004C6566743A200044697374616E636566
:103E4C003A20003C3330204261636B696E67207509
:103E5C0070005475726E20436F6D706C6574652EB6
:103E6C002E2E2E48656164696E673A200074757257
:103E7C006E696E6720616761696E2E2E2E2E2E483C
:103E8C00656164696E673A00000000007E04E70516
:103E9C0002041B040D045D04000000007D0EE70508
:103EAC00AF0CBC0CE70CFE0C203A00204500430084
:103EBC004C534D3330330000000000F6120115FA5C
:103ECC001200000000F712DF15371300000000CAC3
:0C3EDC00179E1773177B178E179D170099
:00000001FF
