:100000000C9456020C947C050C9455050C947E02BD
:100010000C947E020C947E020C947E020C944D157E
:100020000C947E020C947E020C947E020C94211699
:100030000C947E020C947E020C947E020C947E0240
:100040000C944C040C947E020C9461060C943B06B8
:100050000C947E020C947E020C947E020C947E0220
:100060000C9401140C947E022009410A410A77097C
:100070009E09B809410AB309410A080A410AD1098F
:100080000E0A084AD73B3BCE016E84BCBFFDC12F90
:100090003D6C74319ABD56833DDA3D00C77F11BE79
:1000A000D9E4BB4C3E916BAAAABE000000803F057C
:1000B000A84CCDB2D44EB93836A9020C50B99186AD
:1000C00088083CA6AAAA2ABE000000803F000007BC
:1000D000060000030241D7000000000000000000FD
:1000E0000000000000000000000000000000000010
:1000F0001F061000000000000000040004010100C1
:100100000006000090000000000000000000000059
:10011000001F06101C01020000000000000000008B
:100120000000000000000000140000001403900113
:1001300064001F06103802FF02580005000000008E
:10014000000000000000001000000000000000009F
:100150000000000506105400000000000000000030
:10016000000000000000000000000000000000008F
:10017000000000001F062000040402020001280005
:100180000100180404050500022803010E03000005
:100190002A041407001F06201C0400032A0001552E
:1001A00041525469637304040505000428030102E5
:1001B0000500012A06001F06203804030200052A54
:1001C00001010000040405050006280301020700E0
:1001D000042A06040908001F06205400072A040107
:1001E0000600120000000A000404020200082800B1
:1001F00001011804041010001F06207000092800D7
:10020000019ECADC240EE5A9E093F3A3B5010040EA
:100210006E04041313000A28001F06208C03010437
:100220000B009ECADC240EE5A9E093F3A3B50200FF
:10023000406E44101400000B00001F0620A80202AC
:1002400000000000000000000000000000000000AE
:100250000000000004041313000C001F0620C42833
:100260000301100D009ECADC240EE5A9E093F3A360
:10027000B50300406E14001400000D001F0620E0BE
:100280000003020000000000000000000000000069
:10029000000000000000004614030200001F0620BA
:1002A000FC0E290201000004040202000F280001D4
:1002B0000A1804040505001028030102110019069C
:1002C000211800272A0404090100112A27010A0025
:1002D0000000000000000000000000000000001FFF
:1002E0000640002A00010080040003000000020212
:1002F000000804000B0000000302000204000D00CF
:100300000F06401C000E2A27010080040011000087
:1003100000000000000000000000000000000000DD
:1003200000130650009ECADC240EE5A9E093F3A357
:10033000B50000406E00000000000000000000005A
:1003400000000F0660000000000000000000000038
:10035000000000000000000000000000000000009D
:100360000000000606F00003D38800000000000033
:10037000000000000000000000000000000000007D
:100380000000000000000800020100000304070054
:10039000000000000000000957726974696E672050
:1003A0006F6E652062797465203078002020506976
:1003B0007065204572726F7220436F64653A203019
:1003C0007800414349204576742050697065204586
:1003D00072726F723A205069706520233A00457638
:1003E0007420436D6420726573706F6E653A2045AA
:1003F00072726F722E2041726475696E6F2069731C
:1004000020696E20616E207768696C652831293B10
:10041000206C6F6F700041434920436F6D6D616EBA
:100420006420004572726F7220696E20414349203A
:10043000536574757000002C200020307800095737
:10044000726974696E67206F757420746F204254EE
:100450004C453A00436D64205175657565204675BD
:100460006C6C0000000000240027002A000000003F
:100470000023002600290000000000250028002B92
:10048000000404040404040404020202020202033D
:100490000303030303010204081020408001020447
:1004A00008102001020408102000821F11241FBE22
:1004B000CFEFD8E0DEBFCDBF12E0A0E0B1E0E6E2D2
:1004C000FFE402C005900D92AC34B107D9F727E0E4
:1004D000ACE4B2E001C01D92A03AB207E1F712E02D
:1004E000C6E5D2E004C02197FE010E94EF20C53589
:1004F000D107C9F70E94A91C0C9491270C94000005
:100500000895CF92DF92EF92FF920F931F93CF93B4
:10051000DF936C017A018B01C0E0D0E0CE15DF05DE
:1005200089F0D8016D918D01D601ED91FC9101907A
:10053000F081E02DC6010995892B11F47E0102C0DE
:100540002196ECCFC701DF91CF911F910F91FF90C2
:10055000EF90DF90CF900895FC01918D828D9817D8
:1005600061F0828DDF01A80FB11D5D968C91928D97
:100570009F5F9F73928F90E008958FEF9FEF089594
:10058000FC01918D828D981731F0828DE80FF11D5D
:10059000858D90E008958FEF9FEF0895FC01918D78
:1005A000228D892F90E0805C9F4F821B91098F7371
:1005B0009927089582E596E00E94CE0221E0892BDA
:1005C00009F420E0822F0895FC01848DDF01A80F3B
:1005D000B11DA35ABF4F2C91848D90E001968F736B
:1005E0009927848FA689B7892C93A089B1898C918A
:1005F00080648C93938D848D981306C00288F38950
:10060000E02D80818F7D80830895EF92FF920F937C
:100610001F93CF93DF93EC0181E0888F9B8D8C8DAE
:10062000981305C0E889F989808185FD24C0F62EDC
:100630000B8D10E00F5F1F4F0F731127E02E8C8D75
:10064000E8120CC00FB607FCFACFE889F98980815F
:1006500085FFF5CFCE010E94E402F1CF8B8DFE0124
:10066000E80FF11DE35AFF4FF0820B8FEA89FB89F7
:100670008081806207C0EE89FF896083E889F989FB
:1006800080818064808381E090E0DF91CF911F9131
:100690000F91FF90EF900895CF93DF93EC01888D39
:1006A0008823C9F0EA89FB89808185FD05C0A88976
:1006B000B9898C9186FD0FC00FB607FCF5CF8081FC
:1006C00085FFF2CFA889B9898C9185FFEDCFCE0146
:1006D0000E94E402E7CFDF91CF91089580E090E09F
:1006E000892B29F00E94DA0281110C9400000895F0
:1006F0000E9466250F931F93CF93DF93EC018881AF
:100700009981009729F02A813B812617370788F4C1
:100710008B016F5F7F4F0E949C24009761F099834B
:1007200088831B830A832C813D81232B11F4FC01D8
:10073000108281E001C080E0DF91CF911F910F9185
:100740000895EF92FF920F931F93CF93DF93FC01D5
:10075000248135816115710511F480E019C04115BE
:100760005105A9F07B01EC018A01020F131FB801AA
:100770000E947A03882389F3288139818C819D81A5
:10078000B701820F931F0E9474251D830C8381E0A3
:10079000DF91CF911F910F91FF90EF900895CF932C
:1007A000DF93EC0188819981009711F00E94042465
:1007B000198218821D821C821B821A82DF91CF91BE
:1007C00008953FB7F8948091730290917402A091BC
:1007D0007502B091760226B5A89B05C02F3F19F08F
:1007E0000196A11DB11D3FBFBA2FA92F982F8827B1
:1007F000820F911DA11DB11DBC01CD0142E0660F0C
:10080000771F881F991F4A95D1F708958F929F925D
:10081000AF92BF92CF92DF92EF92FF926B017C0179
:100820000E94E1034B015C01C114D104E104F10415
:10083000F1F00E94E103DC01CB0188199909AA09B2
:10084000BB09883E9340A105B10570F321E0C21AAF
:10085000D108E108F10888EE880E83E0981EA11CFB
:10086000B11CC114D104E104F10419F7DDCFFF90EC
:10087000EF90DF90CF90BF90AF909F908F900895B2
:100880002FB7F89460916F0270917002809171029D
:10089000909172022FBF08951F920F920FB60F9280
:1008A00011242F933F938F939F93AF93BF93809186
:1008B0006F0290917002A0917102B091720230911A
:1008C0006E0223E0230F2D3720F40196A11DB11DE8
:1008D00005C026E8230F0296A11DB11D20936E02CC
:1008E00080936F0290937002A0937102B093720292
:1008F0008091730290917402A0917502B09176027A
:100900000196A11DB11D8093730290937402A09370
:100910007502B0937602BF91AF919F918F913F91F5
:100920002F910F900FBE0F901F9018958230E8F412
:10093000E82FF0E0EE0FFF1FE35FFE4F718360834F
:10094000813041F0809169008C7F482B4093690091
:10095000E89A089580916900440F551F440F551F70
:10096000837F482B40936900E99A0895CF93DF93E2
:10097000EC016115710561F0FB0101900020E9F7C0
:100980003197AF01461B570B0E94A103811103C091
:10099000CE010E94CF03CE01DF91CF910895CF9376
:1009A000DF93EC01FB0144815581608171810E94DC
:1009B000A103811103C0CE010E94CF03CE01DF91BC
:1009C000CF910895EF92FF920F931F93CF93DF93F0
:1009D000EC017B018A01BA010E947A03811104C0F3
:1009E000CE010E94CF0307C01D830C83B70188810D
:1009F00099810E947425CE01DF91CF911F910F91B3
:100A0000FF90EF900895FC01808191810C94042463
:100A1000EF92FF920F931F93CF93DF93CDB7DEB783
:100A200062970FB6F894DEBF0FBECDBF8C01CB012D
:100A3000F80111821082138212821582148250E012
:100A40009E012F5F3F4F7901B9010E949325F70165
:100A500001900020E9F73197AF014E195F09B70106
:100A6000C8010E94E20462960FB6F894DEBF0FBE82
:100A7000CDBFDF91CF911F910F91FF90EF9008951F
:100A8000FC01118210821382128215821482611578
:100A9000710551F0FB0101900020E9F73197AF019A
:100AA000461B570B0C94E20408951F920F920FB649
:100AB0000F9211242F933F934F935F936F937F93E4
:100AC0008F939F93AF93BF93EF93FF93E0910F01A9
:100AD000F09110010995FF91EF91BF91AF919F9116
:100AE0008F917F916F915F914F913F912F910F90D7
:100AF0000FBE0F901F9018951F920F920FB60F9276
:100B000011242F933F934F935F936F937F938F9312
:100B10009F93AF93BF93EF93FF93E0910D01F091FB
:100B20000E010995FF91EF91BF91AF919F918F9128
:100B30007F916F915F914F913F912F910F900FBED9
:100B40000F901F901895EF92FF920F931F93CF93E2
:100B5000DF938C017B01C0E0D0E0F701EC0FFD1FBB
:100B60006491662361F0D801ED91FC910190F081D0
:100B7000E02DC8010995892B11F02196EECFCE0109
:100B8000DF91CF911F910F91FF90EF900895611524
:100B9000710579F0FB0101900020E9F73197AF0171
:100BA000461B570BDC01ED91FC910280F381E02D97
:100BB000099480E090E008954F925F926F927F9247
:100BC000EF92FF920F931F93CF93DF93CDB7DEB7D2
:100BD000A1970FB6F894DEBF0FBECDBF7C01FA011E
:100BE000CB0119A2223008F42AE08E010F5D1F4FBD
:100BF000422E512C612C712CBF01A30192010E9445
:100C00006027F901CA01015011096A3014F4605DCE
:100C100001C0695CD8016C93232B242B252B61F731
:100C2000B801C7010E94C705A1960FB6F894DEBFB0
:100C30000FBECDBFDF91CF911F910F91FF90EF902D
:100C40007F906F905F904F9008956DE671E00C94E7
:100C5000C7050F931F93CF93DF93EC010E94A30569
:100C60008C01CE010E942506800F911FDF91CF914C
:100C70001F910F9108951F920F920FB60F9211249A
:100C80002F933F934F935F936F937F938F939F9394
:100C9000AF93BF93EF93FF9382E596E00E94E40247
:100CA000FF91EF91BF91AF919F918F917F916F9144
:100CB0005F914F913F912F910F900FBE0F901F901A
:100CC00018951F920F920FB60F9211242F938F93A6
:100CD0009F93EF93FF93E0916206F091630680810A
:100CE000E0916806F091690682FD12C090818091C2
:100CF0006B068F5F8F7320916C06821751F0E09125
:100D00006B06F0E0EE5AF94F958F80936B0601C0A9
:100D10008081FF91EF919F918F912F910F900FBE46
:100D20000F901F901895CF9386EF96E00E940509CB
:100D3000C0910B07C093500280910001C817E9F0E1
:100D4000C53889F480910F0790911007A091110781
:100D5000B091120780934C0290934D02A0934E02E3
:100D6000B0934F0208C0C63831F46CED75E08CEDDD
:100D700095E00E94E10EC0930001CF91089508957F
:100D800008952091EF063091F0068091F106909140
:100D9000F2062817390749F0E091F106F091F206C2
:100DA000EB55FC4F808190E008958FEF9FEF089501
:100DB0002091EF063091F0068091F1069091F206B5
:100DC00028173907E9F0E091F106F091F206EB55AA
:100DD000FC4F80812091F1063091F2062F5F3F4F4A
:100DE0003093F2062093F1062091F1063091F2063D
:100DF0002F7333273093F2062093F10690E0089585
:100E00008FEF9FEF08958091EF069091F00620916B
:100E1000F1063091F206821B930B8F739927089588
:100E20004F925F926F927F928F929F92AF92BF92FA
:100E3000CF92DF92EF92FF920F931F93CF93DF93A6
:100E40007C01EB0184E2FB0111928A95E9F781E0D4
:100E50008093220689E18093440610922306109223
:100E6000450668EA86E496E00E9499120E949C1961
:100E700066E089E10E94F9198091D90590E02091FE
:100E8000DA05821B910986309105ECF386E496E041
:100E90000E944D12582E86E496E00E944D12482E74
:100EA00086E496E00E944D12782E86E496E00E9439
:100EB0004D12682E86E496E00E944D12982E86E42C
:100EC00096E00E944D12882EB42CA12CB501652904
:100ED00084E0759567958A95E1F7072E000C880BDD
:100EE000990B0E94DA25F7016383748385839683C7
:100EF000D62CC12CB601672994E0759567959A9513
:100F0000E1F7072E000C880B990B0E94DA25F701F8
:100F10006783708781879287182D00E0B80169295F
:100F200024E0759567952A95E1F7072E000C880B4C
:100F3000990B0E94DA25F701638774878587968766
:100F400084E290E0A0E0B0E088839983AA83BB8329
:100F500087859089A189B2898C839D83AE83BF8365
:100F600081E090E0A0E0B0E088879987AA87BB87FE
:100F70000E944004688B798B8A8B9B8B2FE632E131
:100F800043E85AE3F70163817481858196810E9469
:100F900039262AE038EE4CE151E40E9439266C8B68
:100FA0007D8B8E8B9F8B2FE632E143E85AE3F7016E
:100FB00067817085818592850E9439262AE038EE06
:100FC0004CE151E40E943926688F798F8A8F9B8F7C
:100FD0002FE632E143E85AE3F7016385748585859E
:100FE00096850E9439262AE038EE4CE151E40E94B1
:100FF00039266C8F7D8F8E8F9F8F81E0DF91CF910F
:101000001F910F91FF90EF90DF90CF90BF90AF9026
:101010009F908F907F906F905F904F900895209158
:10102000F406022E000C330B2330310529F0223058
:101030003105C1F430E001C031E02DB3882341F027
:1010400081E090E001C0880F3A95EAF7822B08C052
:1010500081E090E001C0880F3A95EAF780958223FD
:101060008DBB0895FFCF0F931F93CF93DF938C0118
:10107000FC01D1814D2F50E060E070E02AE082E574
:1010800096E00E94DC0587EB91E00E944619C0E0E3
:10109000F801EC0FF11D418150E060E070E020E1CB
:1010A00082E596E00E94DC0567E374E082E596E065
:1010B0000E94A305CF5FDC1758F766E374E082E572
:1010C00096E0DF91CF911F910F910C94290690E04B
:1010D000FC01ED57FC4F3491FC01EB56FB4F249182
:1010E000FC01EF57FB4FE491EE2309F43BC033239F
:1010F00039F1333091F038F43130A9F0323001F564
:1011000084B58F7D12C0373091F03830A1F0343083
:10111000B9F4809180008F7D03C0809180008F772B
:10112000809380000DC084B58F7784BD09C0809105
:10113000B0008F7703C08091B0008F7D8093B000A6
:10114000F0E0EE0FFF1FE958FB4FA591B4918FB768
:10115000F894EC91611103C020952E2301C02E2B31
:101160002C938FBF08950F931F93CF93DF93FC01B0
:1011700041814032B8F58C012091A40330E0E901AF
:101180002196C770DD278091A3038C17C1F051E22F
:10119000529FC001539F900D1124FC01E556FD4F55
:1011A000108250E04F5F5F4FB8016F5F7F4F8456F2
:1011B0009D4F0E946B25C093A403C1E001C0C0E015
:1011C00080918904882339F08AEB91E00E944619C6
:1011D000C8010E94330860E08091F5060E9467080C
:1011E0008C2F01C080E0DF91CF911F910F91089566
:1011F000E6EBF5E025E021832FE0228394838383CF
:1012000076836583CF010C94B3080F931F93CF931C
:10121000DF93EC0186EE93E00E94011B882309F422
:1012200030C1E091E8038E2F90E0FC01E158F10914
:10123000ED30F10508F025C1EC5CFF4F0C94EF2078
:101240008091EB0380939B058091E903823019F034
:101250008330B9F116C180919905893010F460E0AE
:101260001BC000E010E028E830E090919905892F3C
:10127000869586958695181740F4602F88E00E9421
:10128000841B9C011F5F085FF0CF892F877039F0A6
:10129000612F660F660F660F0E94841B9C0122302F
:1012A000310509F4EEC08889882309F4EAC063E2B5
:1012B00074E082E596E0DF91CF911F910F910C943D
:1012C0002906A0911D01B0911E018C91882309F47B
:1012D00056C0FD0101900020E9F73197AF014A1B8C
:1012E0005B0B6DE171E081E00E94672048C0809156
:1012F000EA038823A1F08889882381F066E174E0FD
:1013000082E596E00E94A3058091E9030E94D81B24
:101310006EED73E082E596E00E942906FFCF809192
:10132000E903893009F0ADC049E06BEE73E084E079
:10133000DF91CF911F910F910C94672080919B05B5
:1013400080939E0581E08093B70589E08093B8057E
:1013500086EB95E00E94B30885E88D8BEC85FD85D2
:10136000309709F009958091A50583FF8AC079C05F
:1013700086E88D8BEC85FD85309709F009956B89A2
:101380007C8989899A890E94F80881E88D8BEC858F
:10139000FD85309709F475C0DF91CF911F910F91B2
:1013A00009946091E703625020E030E0462F50E05E
:1013B000241735070CF58091EF069091F006019601
:1013C0008F739927E091F106F091F2068E179F072F
:1013D00081F0E091EF06F091F006EB55FC4FD9015A
:1013E000AA51BC4F14967C9170839093F006809321
:1013F000EF062F5F3F4FDCCFEE85FF85309709F476
:1014000040C08AEE93E0DF91CF911F910F91099434
:101410009091E90380919E05890F20C088898823D7
:10142000D1F062EC73E082E596E00E94A305409162
:10143000E90350E060E070E02AE082E596E00E9477
:10144000DC056CEA73E082E596E00E94A3058091DA
:10145000EA030E94D81B80919E058F5F80939E05B2
:1014600010C08091E50381110CC0C1E0C093B705A5
:1014700083E18093B80586EB95E00E94B308C093A2
:10148000E503DF91CF911F910F9108950F931F9363
:10149000CF93DF931F92CDB7DEB78C016983809124
:1014A0009E0581110AC0C8010E9405096AE070E02A
:1014B00080E090E00E940604F2CF67E973E082E5E5
:1014C00096E00E94A30589810E94D81B8091A50502
:1014D00083FF13C061E0CE0101960E94AE1A809195
:1014E0009E05815080939E0563E270E080E090E06D
:1014F0000E94060481E090E005C0C8010E94050931
:1015000080E090E00F90DF91CF911F910F910895AF
:101510000F931F93CF93DF93CDB7DEB7A1970FB68D
:10152000F894DEBF0FBECDBF83B78E7F83BFE0913F
:101530009A02E23070F4E13011F0E89801C0E998C5
:10154000F0E0EE0FFF1FE35FFE4F80E892E0918333
:10155000808380917802882399F02FB7F894809146
:101560007802813059F48DB3809308049DB3809143
:101570007702809589238DBB2FBF02C0209308047A
:1015800081E78CBD81E08DBD60E08091F5060E9411
:1015900067088091A3039091A403891709F4B0C050
:1015A00090E021E2289FF001299FF00D1124E556DB
:1015B000FD4FDE01119601900D922A95E1F70196FB
:1015C000877099278093A3038A818EBD00000DB494
:1015D00007FEFDCF8EB5809379028B818EBD000012
:1015E0000DB407FEFDCF8EB580937A029A819923C0
:1015F00049F0292F30E0482F50E04217530714F4E8
:101600008FEF890F803208F08FE1ABE7B2E09E01E7
:101610002C5F3F4FF9019E2F921B981748F4919130
:101620009EBD00000DB407FEFDCF9EB59D93F3CF88
:1016300061E08091F5060E94670880917802882316
:1016400061F09FB7F89420917802809108042130CE
:1016500019F48DBB9FBF01C08FBF83B7816083BF6B
:1016600040E050E068E87AE080919A020E94960497
:101670009091A3038091A403981729F060E08091D2
:10168000F5060E94670840917A024423D9F120911F
:10169000930530E089010F5F1F4F0770112780917C
:1016A0009205801761F151E2529FC001539F900D46
:1016B0001124FC01E657FB4F108250E04F5F5F4F53
:1016C0006AE772E085579B4F0E946B250093930554
:1016D000F894809193058F5F87709091920578942C
:1016E000891310C080E0A1960FB6F894DEBF0FBE3C
:1016F000CDBFDF91CF911F910F910C940F08FFCFB9
:101700001A8262CFA1960FB6F894DEBF0FBECDBF8E
:10171000DF91CF911F910F910895CF93DF9390E0C8
:10172000FC01EB56FB4F2491FC01EF57FB4F8491DA
:10173000882361F190E0880F991FFC01ED59FB4F60
:10174000C591D491FC01E958FB4FA591B491611169
:1017500009C09FB7F8948881209582238883EC91F3
:101760002E230BC0623061F49FB7F8943881822F2A
:10177000809583238883EC912E2B2C939FBF06C0EA
:101780008FB7F894E8812E2B28838FBFDF91CF91FC
:1017900008958617970734F4681B790B653B71052C
:1017A0004CF00EC06817790744F4861B970B853BF5
:1017B000910534F087EA90E0089584E690E008957A
:1017C00081E090E008954F925F926F927F928F92A6
:1017D0009F92AF92BF92CF92DF92EF92FF92CF9300
:1017E000DF93CDB7DEB7C455D1090FB6F894DEBF8D
:1017F0000FBECDBFBE016B5D7F4F8EE297E00E94B2
:101800009F17BE016F5F7F4F84E497E00E9410072F
:10181000CD88DE88EF88F88C898C9A8CAB8CBC8C58
:101820006D8D7E8D8F8D98A19B01AC010E94392614
:101830002D966CAF7DAF8EAF9FAF2D97A701960110
:10184000C701B6010E9439262D962CAD3DAD4EAD97
:101850005FAD2D970E94F6200E9402239B01AC01F0
:10186000C501B4010E9475212B013C01A501940121
:10187000C501B4010E9439262D962CAD3DAD4EAD6B
:101880005FAD2D970E94F6200E9402239B01AC01C0
:10189000C701B6010E9475216B017C01C301B20131
:1018A0000E94D4214B015C01C301B2010E94F422C9
:1018B0002D966CAF7DAF8EAF9FAF2D97F7FAF0945A
:1018C000F7F8F094C701B6010E94D42161966CAF7D
:1018D0007DAF8EAF9FAF6197C701B6010E94F42222
:1018E0002B013C0125968CAD9DADAEADBFAD2597CE
:1018F00065968CAF9DAFAEAFBFAF659729AD3AADE2
:101900004BAD5CAD61966CAD7DAD8EAD9FAD61971D
:101910000E9439266B017C01A301920165966CAD92
:101920007DAD8EAD9FAD65970E9439269B01AC01C0
:10193000C701B6010E94F6206B017C012D962CADEB
:101940003DAD4EAD5FAD2D970E943926A3019201AA
:101950000E9439262B013C0121962CAD3DAD4EADA8
:101960005FAD2197C501B4010E9439269B01AC01EE
:10197000C301B2010E94F6204B015C012D962CADF3
:101980003DAD4EAD5FAD2D9765966CAD7DAD8EAD29
:101990009FAD65970E94392661962CAD3DAD4EAD49
:1019A0005FAD61970E9439269B01AC01C501B4016E
:1019B0000E94F520A70196010E94752120E030E0E9
:1019C00044E353E40E9439262BED3FE049E450E420
:1019D0000E94D9216B017C0120E030E0A9010E9426
:1019E000D32587FF0AC020E030E044EB53E4C70171
:1019F000B6010E94F6206B017C01C701B6010E946E
:101A00004B22CB01CC5ADF4F0FB6F894DEBF0FBE8E
:101A1000CDBFDF91CF91FF90EF90DF90CF90BF903F
:101A2000AF909F908F907F906F905F904F900895B0
:101A3000AF92BF92CF92DF92EF92FF920F931F93DC
:101A4000CF93DF93CDB7DEB72A970FB6F894DEBFFA
:101A50000FBECDBF8E010F5F1F4F7E018BE0E80EE2
:101A6000F11C68010E94E30BF601819391936F01D1
:101A700068EC70E080E090E00E940604CE14DF0481
:101A800089F78CEB91E00E9446195E01F9E0AF0EF8
:101A9000B11C6801F601619171916F01072E000C74
:101AA000880B990B0E94641A88EC91E00E944619F9
:101AB000CA14DB0479F769857A85072E000C880B38
:101AC000990B0E94641A6BEC71E082E596E00E942B
:101AD000C70582E596E00E94250680E090E0F801C7
:101AE000219131918F01820F931FEE15FF05B9F7F8
:101AF00065E070E00E94DB20CB012A960FB6F894D7
:101B0000DEBF0FBECDBFDF91CF911F910F91FF9030
:101B1000EF90DF90CF90BF90AF9008950E94ED1BA3
:101B2000BC0180E090E029E330E040E050E00E941A
:101B30006027C90108954F925F926F927F928F92B2
:101B40009F92AF92BF92CF92DF92EF92FF920F934C
:101B50001F93CF93DF93CDB7DEB768970FB6F89496
:101B6000DEBF0FBECDBF8B018DB69EB640910F0775
:101B7000509110076091110770911207C0901104E5
:101B8000D0901204E0901304F09014042A013B0159
:101B90004C185D086E087F082DED421625E05206B0
:101BA0006104710408F4D9C06DB67EB64093110487
:101BB0005093120460931304709314044AE0BC0120
:101BC000CE0143960E9408054AE0B801CE010D9669
:101BD0000E94080566EC71E0CE0107960E94400560
:101BE000BE01635F7F4FCE0107960E94CF046DEC6C
:101BF00071E00E94B604BE016D5E7F4F0E94CF046B
:101C00006FEC71E00E94B6041A8219821C821B825A
:101C10001E821D82FE0131965F01E817F90759F017
:101C2000FC01608171816115710529F04481558144
:101C3000C5010E94E204CE0107960E940305CE0171
:101C40000D960E940305CE0143960E9403050D8167
:101C50001E817801F1E0EF1AF1084DB65EB6401A28
:101C6000510A0FB6F8945EBE0FBE4DBE2DB73EB7FB
:101C70002F5F3F4F69010115110581F0232B71F092
:101C80000E151F0508F4780169817A81A701C60144
:101C90000E947B25F601EE0DFF1D108280919E05AE
:101CA00081110BC086EF96E00E9405096AE070E0A2
:101CB00080E090E00E940604F1CF6EE374E082E5DC
:101CC00096E00E94A3051C2D76018E2D811B8017A6
:101CD00090F46AE374E082E596E00E94A305F701C0
:101CE00041917F0150E060E070E020E182E596E004
:101CF0000E94DC05EACF82E596E00E942506F12CE1
:101D0000002349F08091A50583FD0EC086EF96E083
:101D10000E940509F5CFC5010E9403050FB6F8948E
:101D20007EBE0FBE6DBE19C0102F053108F014E144
:101D3000612FC6018F0D911D0E94AE1A80919E05E4
:101D4000815080939E0563E270E080E090E00E9405
:101D50000604011B01F3F10ED3CF0FB6F8949EBE1B
:101D60000FBE8DBE68960FB6F894DEBF0FBECDBF16
:101D7000DF91CF911F910F91FF90EF90DF90CF9067
:101D8000BF90AF909F908F907F906F905F904F909B
:101D9000089580911504882311F061E001C060E08E
:101DA00088E00C9467080E9440040E9440046093FD
:101DB0000D0470930E0480930F04909310040C9400
:101DC000C90ECF93DF93EB01BC0185E297E00E943F
:101DD0007415BE0188E297E0DF91CF910C947415E1
:101DE0000F931F93CF93DF9362ED71E082E596E04E
:101DF0000E94C70582E596E00E94250680910F07A4
:101E000090911007A0911107B091120740914C02D8
:101E100050914D0260914E0270914F028C019D01D4
:101E2000041B150B260B370B409111015091120129
:101E300060911301709114014017510762077307F5
:101E4000F0F480934C0290934D02A0934E02B09315
:101E50004F0288EB9BE0A0E0B0E0809311019093EB
:101E60001201A0931301B093140186E990E09093BE
:101E7000170480931604909319048093180486EF36
:101E800096E00E940307029709F044C086EF96E0AF
:101E90000E94D806EC019093170480931604809159
:101EA0000F0790911007A0911107B091120780932E
:101EB0004C0290934D02A0934E02B0934F0286EFD6
:101EC00096E00E94D8069C01909319048093180410
:101ED00080910F0790911007A0911107B091120700
:101EE00080934C0290934D02A0934E02B0934F0208
:101EF0008AE0829FB001839F700D1124282F2C9FB0
:101F0000C0012D9F900D1124DF91CF911F910F9152
:101F10000C94E10EDF91CF911F910F9108953F92A4
:101F20004F925F926F927F928F929F92AF92BF92E9
:101F3000CF92DF92EF92FF920F931F93CF93DF9395
:101F40008C010E94180DB8010E94C90B7C0198E514
:101F5000C92E92E0D92E28018AE0481A510838018A
:101F60008AE0680E711C580182E0A81AB108480185
:101F700082E0880E911C81E0E816F104A1F468E08B
:101F800077E080EB94E00E94E10EB6010D2C000C8E
:101F9000880B990B0E9406046CED75E08CED95E0C2
:101FA0000E94E10E1AC087EAE816F104B1F460EB72
:101FB00074E088E097E00E94E10EB6010D2C000C61
:101FC000880B990B0E9406046CED75E08CED95E092
:101FD0000E94E10E3324339407C03324339484E603
:101FE000E816F10409F4312C68EE73E080E090E02B
:101FF0000E9406040E94180DEC018EED91E00E94F3
:102000004619CE010E949C1A80E092E00E94461977
:10201000C8010E949C1AB801CE010E94C90B7C0124
:10202000C415D50534F06C167D061CF084E6C82E68
:10203000D12CCA15DB055CF08C169D0644F08FEEA2
:1020400091E00E944619CE010E949C1A312C809189
:102050001504811101C0312C0E9493068091500219
:10206000853829F40E948E0DBE010E949B0D31100F
:1020700082CFDF91CF911F910F91FF90EF90DF9072
:10208000CF90BF90AF909F908F907F906F905F9018
:102090004F903F900895CF92DF92EF92FF92CF93AF
:1020A000DF930E94C90E0E94400460930F07709353
:1020B000100780931107909312070E948E0DEC0178
:1020C0006C01990FEE08FF088EE1C816D104E104F7
:1020D000F10454F561E088E00E9467080E948E0DCB
:1020E0008897ACF48AE092E00E944619C701B601D5
:1020F0000E94F31364EA76E084EA96E00E94E10E1F
:102100006EE170E080E090E00E940604E7CF6CEDA5
:1021100075E08CED95E00E94E10E80911504882316
:1021200069F00E9404110AC080911504882331F0DF
:1021300064EA76E084EA96E00E94E10E0E9493064B
:1021400080915002853809F058C00E94E30BBC0111
:10215000CE010E949B0D80911504811108C0DF9172
:10216000CF91FF90EF90DF90CF900C94F00E86EF20
:1021700096E00E940307892B09F43FC086EF96E0A2
:102180000E94D8069093170480931604863991050F
:1021900011F01092150480910F0790911007A091F3
:1021A0001107B091120780934C0290934D02A093B7
:1021B0004E02B0934F0286EF96E00E94D8069093AD
:1021C0001904809318048639910511F010921504B2
:1021D00080910F0790911007A0911107B0911207FD
:1021E00080934C0290934D02A0934E02B0934F0205
:1021F00080911504882309F4B2CFDF91CF91FF902D
:10220000EF90DF90CF9008958F929F92AF92BF9200
:10221000CF92DF92EF92FF920F931F93CF93DF93B2
:1022200087EA90E00E944B196CE271E080E090E058
:102230000E9406040E944913CB0169E370E00E94EA
:10224000C720EB0166E970E080E090E00E940604A0
:1022500085E590E00E944B1980911504811102C020
:102260000E944B104E01A12CB12C8CE192E00E94F7
:102270004619C501B4010E94F31364EF71E080E0D8
:1022800090E00E94060481E090E00E944B196CE20D
:1022900071E080E090E00E9406040E944913CB01A7
:1022A00069E370E00E94C7208B0166E970E080E07E
:1022B00090E00E94060485E590E00E944B19809111
:1022C0001504811102C00E944B106801E12CF12C11
:1022D00084E292E00E944619C701B6010E94F313FE
:1022E0000F31110518F46F9780F42AC08C149D04E7
:1022F000AE04BF0454F40E94E30BEC01CA55D109AB
:10230000D7FF14C0C859DE4FFBCFC814D904EA0464
:10231000FB04B4F40E94E30BEC01C65ADF4FC8364D
:1023200081E0D8071CF0C856D140F9CF8091150440
:10233000811102C00E944B10CE010E948F0F04C079
:102340000E94E1130E9404118091150481110EC0B6
:10235000DF91CF911F910F91FF90EF90DF90CF9081
:10236000BF90AF909F908F900C944B10DF91CF91C6
:102370001F910F91FF90EF90DF90CF90BF90AF90A3
:102380009F908F9008950F931F93CF93DF9300D06A
:1023900000D000D0CDB7DEB78C016BE272E0CE0189
:1023A00001960E944005B801CE0101960E94CF041B
:1023B00064E372E00E94B604FC01448155816081AF
:1023C000718182E596E00E948102CE0101960E9411
:1023D0000305F80104811581093111056CF485E3C9
:1023E00092E00E9446196AEF70E080E090E00E945F
:1023F00006040F5F1F4FF0CF82E596E00E9425068E
:1024000026960FB6F894DEBF0FBECDBFDF91CF91F9
:102410001F910F91089585ED8093BC008091BC00C1
:1024200084FDFCCF10922106089540916404262F6C
:1024300030E0240F311D21323105DCF420912106DA
:102440002430C9F4FC0180E090E0861758F4309104
:1024500064042191DC01AE5BBB4FA30FB11D2C9333
:102460000196F3CF80916404680F6093640480E068
:10247000089581E0089582E008950895E091DA05D5
:102480008091D905E81730F4F0E0E552FA4F8081E9
:1024900090E008958FEF9FEF08959091DA05809175
:1024A000D905981750F4E92FF0E0E552FA4F208152
:1024B00030E09F5F9093DA0502C02FEF3FEFC90134
:1024C00008958091D90590E02091DA05821B910949
:1024D0000895CF92DF92EF92FF920F931F93CF93C5
:1024E000DF937C01262F972F8A0180912206882373
:1024F00091F0C62FD72F6E01C40ED51ECC15DD0569
:1025000071F06991D701ED91FC910190F081E02D7E
:10251000C7010995F3CF642F822F0E941512C801BD
:10252000DF91CF911F910F91FF90EF90DF90CF90AF
:102530000895CF93DF931F92CDB7DEB769832091C3
:1025400022062223D1F020914506203240F021E0DE
:1025500030E0FC013383228380E090E015C080915D
:102560002306E82FF0E0EC5DF94F998190838F5FAF
:10257000809323068093450605C061E0CE01019655
:102580000E94151281E090E00F90DF91CF910895A5
:10259000FC01658B08950F931F93CF93DF938C01FC
:1025A000EB0188E2FB0111928A95E9F74BE050E0DC
:1025B00067E372E0CE010E947B251B8681E090E0FC
:1025C000A0E0B0E08C879D87AE87BF87F801818946
:1025D0009289A389B489888B998BAA8BBB8B82E063
:1025E00090E0A0E0B0E08C8B9D8BAE8BBF8B1CA2EB
:1025F0001DA21EA21FA2188E198E1A8E1B8E1C8E53
:102600001D8E1E8E1F8E18A219A21AA21BA2DF9168
:10261000CF911F910F9108950F931F93CF93DF9345
:102620008C01EB0188E2FB0111928A95E9F74BE0FE
:1026300050E067E372E0CE010E947B251B8641E0FB
:1026400050E060E070E04C875D876E877F87F8011F
:1026500087859089A189B289888B998BAA8BBB8B3E
:102660004C8B5D8B6E8B7F8B1CA21DA21EA21FA2AA
:10267000188E198E1A8E1B8E1C8E1D8E1E8E1F8E0E
:1026800018A219A21AA21BA2DF91CF911F910F913C
:1026900008958F929F92AF92BF92CF92DF92EF9266
:1026A000FF920F931F93CF93DF93CDB7DEB72A9797
:1026B0000FB6F894DEBF0FBECDBF1A82198215E0A7
:1026C00000E0E8EE8E2EE3E09E2EA12CB12C0E94BD
:1026D000E1036B017C010E94ED1B009769F1011180
:1026E00002C060E01FC0602F462F50E0FA01319712
:1026F000EE0FFF1F21E030E02C0F3D1FE20FF31F14
:10270000208131812817390768F4440F551FE1E013
:10271000F0E0EC0FFD1FE40FF51F318320836150C3
:1027200019F7DFCFFE013196E60FF11DE60FF11D1F
:10273000918380830F5F01C01150011738F50E940B
:10274000E103DC01CB018C199D09AE09BF09883476
:102750009147A105B10508F0BACF0E94E10348E412
:10276000C40E41E7D41EE11CF11CA7019601261BF3
:10277000370B480B590BCA01B901A50194010E94FE
:102780006027CA01B9010E940604A1CF1E7FFE0185
:10279000E10FF11D6181728180E090E02A960FB611
:1027A000F894DEBF0FBECDBFDF91CF911F910F9187
:1027B000FF90EF90DF90CF90BF90AF909F908F9061
:1027C000089564EA76E084EA96E00E94E10E6CE205
:1027D00071E080E090E00E9406046CED75E08CED05
:1027E00095E00C94E10ECF93DF930E94641AEC0104
:1027F00082E596E00E9425068C0F9D1FDF91CF9108
:1028000008951F920F920FB60F9211242F933F93AA
:102810004F935F936F937F938F939F93AF93BF93E8
:10282000EF93FF938091B900887F803609F49CC0B4
:1028300068F5883209F45BC090F4803109F454C023
:1028400038F4882309F4F6C0883009F44DC0F6C086
:10285000883109F44CC0803209F45DC0EFC0803487
:1028600009F468C048F4803309F455C0883309F08E
:10287000E5C080931F06D8C0803509F44FC0883565
:1028800009F45DC0883409F0D9C0D6C0883909F48C
:10289000C7C0A8F4883709F467C038F4883609F44B
:1028A00063C0803709F460C0C9C0883809F4B8C073
:1028B000803909F45FC0803809F0C0C05BC0803B3C
:1028C00009F486C038F4803A09F466C0883A09F4FD
:1028D0007FC0B4C0803C09F4A7C0883C09F4A4C000
:1028E000883B09F48AC0AAC08091FC0510C0909171
:1028F0001E0680911D06981770F5E0911E0681E076
:102900008E0F80931E06F0E0E350FA4F8081809393
:10291000BB0085EC86C080931F068EC0E0911E062A
:1029200081E08E0F80931E068091BB00F0E0E350A3
:10293000FA4F808390911E0680911D066EC0E09133
:102940001E0681E08E0F80931E068091BB00F0E092
:10295000E350FA4F80838091200681116DC081E0A1
:102960008093FB0584EA61C083E080932106109286
:102970008804CFCF80918804803208F051C0E09164
:10298000880481E08E0F809388048091BB00F0E082
:10299000E859FB4F8083BDCF85EC8093BC0010923B
:1029A000210680918804803230F4E0918804F0E0C0
:1029B000E859FB4F10826091880470E0E091660452
:1029C000F091670488E694E009951092880436C077
:1029D00084E0809321061092650410926404E091D3
:1029E0006204F0916304099580916404811105C02B
:1029F00081E08093640410924204E091650481E0D8
:102A00008E0F80936504F0E0EE5BFB4F8081809336
:102A1000BB009091650480916404981708F479CF05
:102A200085E88093BC000AC085EC8093BC001092BE
:102A3000210604C010921F060E940B12FF91EF9115
:102A4000BF91AF919F918F917F916F915F914F91C6
:102A50003F912F910F900FBE0F901F9018951092DD
:102A6000210681E0809320061092FB0561E082E15F
:102A70000E94670861E083E10E946708E9EBF0E0EB
:102A800080818E7F808380818D7F808388E48093A6
:102A9000B80085E48093BC0008951F920F920FB692
:102AA0000F9211242F933F934F935F936F937F93D4
:102AB0008F939F93AF93BF93EF93FF93E091400465
:102AC000F09141040995FF91EF91BF91AF919F91D2
:102AD0008F917F916F915F914F913F912F910F90C7
:102AE0000FBE0F901F901895FC0190819C3080F5CF
:102AF000818128E830E0281B310987FD3395220FBA
:102B0000331F220F331F621773077CF0828128E581
:102B100032E0281B310987FD3395220F331F220F26
:102B2000331F621773070CF49B0122503109220FE7
:102B3000331F4FB7F894892F90E0FC01EE0FFF1F71
:102B40008E0F9F1FFC01E45EFB4F328321834FBF3A
:102B500008951F93CF93DF93EC01162F88818C305B
:102B600008F04EC061E0812F0E948D0B8881E82F14
:102B7000F0E09F01220F331FE20FF31FE45EFB4FD3
:102B80001F739081907C192B108319821A826CE03C
:102B90000E94BB209CE0899FB001112440E050E0DE
:102BA0009A01260F371FF901EE0FFF1F2E0F3F1F4F
:102BB000F901E45EFB4F908196FD16C04F5F5F4FB9
:102BC0004C30510569F781110FC01092800082E0EE
:102BD000809381001092850010928400B19A8091B8
:102BE0006F00826080936F00E881F0E0CF01880F72
:102BF000991FE80FF91FE45EFB4F8081806480839A
:102C00008881DF91CF911F910895FC0190911B0461
:102C10009C30A0F481E0890F80931B049083892F5E
:102C200090E0FC01EE0FFF1F8E0F9F1FFC01E45E82
:102C3000FB4F88EB9BE09283818308958FEF808325
:102C400008951F920F920FB60F9211242F933F9366
:102C50004F935F936F937F938F939F93AF93BF93A4
:102C6000EF93FF9380911A0487FF05C010928500AF
:102C7000109284001BC020911A04022E000C330B0A
:102C800080911B0490E02817390784F480911A047E
:102C9000082E000C990BFC01EE0FFF1F8E0F9F1FDB
:102CA000FC01E45EFB4F808186FD15C080911A0413
:102CB0008F5F80931A0420911A04022E000C330BAC
:102CC00080911B0490E028173907C4F480911A04FE
:102CD0008C3064F113C080911A04082E000C990BFB
:102CE000FC01EE0FFF1F8E0F9F1FFC01E45EFB4FE8
:102CF000808160E08F730E946708D8CF8091840044
:102D000090918500049680349C4918F480E49CE9F5
:102D100005C080918400909185000496909389006D
:102D2000809388008FEF80931A043BC02091840029
:102D30003091850080911A04082E000C990BFC013B
:102D4000EE0FFF1F8E0F9F1FFC01E45EFB4F818182
:102D50009281820F931F90938900809388008091C5
:102D60001A04082E000C990BFC01EE0FFF1F8E0FAA
:102D70009F1FFC01E45EFB4F808186FF12C08091A3
:102D80001A04082E000C990BFC01EE0FFF1F8E0F8A
:102D90009F1FFC01E45EFB4F808161E08F730E9406
:102DA0006708FF91EF91BF91AF919F918F917F91B4
:102DB0006F915F914F913F912F910F900FBE0F90A8
:102DC0001F9018950F931F93CF93DF938C01EB0106
:102DD00081E0809322068EE18093440610922306C0
:102DE0001092450661E086E496E00E9499126C2FED
:102DF00086E496E00E9499120E949C19F801D483FF
:102E0000C383C038D10509F45BC0DCF4C034D105FC
:102E1000A9F1C036D10509F442C0A09709F08AC0D3
:102E200080E090E8A9E8B4E48093190190931A0136
:102E3000A0931B01B0931C0180E090E0A5E7B4E4EF
:102E400071C0C03CD10509F44CC0C03ED10509F4A5
:102E500059C0C03AD10509F06DC080E090E0A8ECFF
:102E6000B3E48093190190931A01A0931B01B093CE
:102E70001C0180E090E8A1EBB3E454C080E090EC4A
:102E8000A5E5B4E48093190190931A01A0931B0166
:102E9000B0931C0180E090E0AEE3B4E443C080E076
:102EA00090E8A7E2B4E48093190190931A01A093EB
:102EB0001B01B0931C0180E090E0A6E1B4E432C0B5
:102EC00080E090E0A1EEB3E48093190190931A01A1
:102ED000A0931B01B0931C0180E090E0A8ECB3E448
:102EE00021C080E090E0A5EAB3E4809319019093BB
:102EF0001A01A0931B01B0931C0180E090E8A3E9A4
:102F0000B3E410C080E090E0A6E6B3E4809319013A
:102F100090931A01A0931B01B0931C0180E090E0F4
:102F2000ADE4B3E48093150190931601A0931701CB
:102F3000B0931801DF91CF911F910F9108952F92B7
:102F40003F924F925F926F927F928F929F92AF9239
:102F5000BF92CF92DF92EF92FF920F931F93CF9386
:102F6000DF93CDB7DEB728970FB6F894DEBF0FBE5C
:102F7000CDBF98878F838B0184E2FB0111928A95E4
:102F8000E9F789E00E94441A80FF66C1F1E0F093FE
:102F900022068EE180934406109223061092450685
:102FA00063E086E496E00E9499120E949C1966E014
:102FB0008EE10E94F9198091D90590E02091DA05FF
:102FC000821B910986309105ECF386E496E00E941D
:102FD0004D12A82E86E496E00E944D12B82E86E48B
:102FE00096E00E944D12E82E86E496E00E944D1273
:102FF000F82E86E496E00E944D12C82E86E496E0F4
:103000000E944D12D82EAA82198269817A816B2979
:10301000072E000C880B990B0E94DA252B013C012E
:10302000EF81F8856583768387839087CC821B82C6
:103030006B817C816D29072E000C880B990B0E94F7
:10304000DA254B015C01EF81F88561877287838700
:103050009487EE821D826D817E816F29072E000C80
:10306000880B990B0E94DA256B017C01EF81F885B2
:10307000658776878787908B8589882309F47AC04E
:103080002224239420E030E04FEF54ECC301B2013E
:103090000E94D32518160CF4212C3324339420E0FD
:1030A00030E04FEF54E4C301B2010E94E72287FDF4
:1030B000312C32287724739420E030E04FEF54E431
:1030C000C501B4010E94E72287FD712C37287724BF
:1030D000739420E030E04FEF54ECC501B4010E943E
:1030E000D32518160CF4712C7328BB24B39420E05C
:1030F00030E04FEF54E4C701B6010E94E72287FD9C
:10310000B12CB72851F420E030E04FEF54ECC70168
:10311000B6010E94D32518166CF1EF81F8858381E2
:10312000948180369105E1F04CF480329105D9F01C
:1031300080349105F9F460E670E017C0803A91059B
:1031400061F0803C910531F08038910599F460EA96
:1031500070E00BC060EE70E008C060EC70E005C08D
:1031600060E870E002C060E470E08F8198850E94A2
:10317000E21607CF84E290E0A0E0B0E0F80180839F
:103180009183A283B383EF81F88581899289A38992
:10319000B489F80184839583A683B78382E090E0A5
:1031A000A0E0B0E080879187A287B3870E944004A7
:1031B000F801608B718B828B938BC0901901D0903A
:1031C0001A01E0901B01F0901C01A7019601EF810C
:1031D000F88565817681878190850E94D92120E0DC
:1031E00030E048EC52E40E943926F801648B758B7C
:1031F000868B978BA7019601EF81F8856185728593
:10320000838594850E94D92120E030E048EC52E487
:103210000E943926F801608F718F828F938F2091E1
:103220001501309116014091170150911801EF815D
:10323000F88565857685878590890E94D92120E06B
:1032400030E048EC52E40E943926F801648F758F13
:10325000868F978F81E001C080E028960FB6F894A2
:10326000DEBF0FBECDBFDF91CF911F910F91FF90B9
:10327000EF90DF90CF90BF90AF909F908F907F9016
:103280006F905F904F903F902F900895BC0182E522
:1032900096E00C94C705CF92DF92EF92FF92BC01AB
:1032A000603282E078070CF03FC077FD06C0653BD6
:1032B00071052CF064EB70E002C060E070E080917A
:1032C0002C0728E830E06901C81AD10887FDD3949B
:1032D000CC0CDD1CCC0CDD1C0D2C000CEE08FF080A
:1032E00080912D0728E532E0281B310987FD3395B1
:1032F000220F331F220F331FC901330FAA0BBB0B41
:103300009C01AD012C193D094E095F09DB010E94AA
:10331000212724EB30E040E050E00E94F726C20E67
:10332000D31EE41EF51EB6018BE297E0FF90EF90EE
:10333000DF90CF900C94741520914506909144062F
:10334000213208F04AC0809121068111FCCF32E081
:103350003093210631E0309320063FEF30931F0673
:1033600010921E0620931D06A4E2B6E04DEF55E034
:10337000FA013E2F341B321718F43D913193F9CFE7
:103380001092FC052091FC05990F922B9093FC055F
:103390009091FB05913061F41092FB059091FC0532
:1033A0009093BB009091BC0093FDF8CF95EC01C0C9
:1033B00095EE9093BC00909121069230E1F39091AC
:1033C0001F069F3F79F080911F06803241F0809167
:1033D0001F06803331F084E005C081E003C082E045
:1033E00001C083E010922306109245061092220637
:1033F0000895909121069111FCCF613208F060E2AE
:1034000091E090932106909320062FEF20931F06C2
:1034100010921E06260F20931D069093FC05909196
:10342000FC05880F892B8093FC058091FB0581307A
:1034300061F41092FB058091FC058093BB008091A4
:10344000BC0083FDF8CF85EC01C085EE8093BC0005
:10345000809121068130E1F380911E06861710F4D9
:1034600060911E06ADEFB5E02BED35E0F9018E2F32
:10347000821B861718F48D918193F9CF1092DA058B
:103480006093D905862F0895CF9391E090932206FB
:103490009EE1909344061092230610924506682FF1
:1034A00086E496E00E9499120E949C1961E08EE1E8
:1034B0000E94F91986E496E00E944D12C82F0E94DE
:1034C0009C198C2FCF910895CF92DF92EF92FF92AB
:1034D000CF93DF93AB01BC0177FF23C06A017B016F
:1034E000E0915206F09153060190F081E02D6DE2DB
:1034F00082E596E00995EC0144275527BA014C195D
:103500005D096E097F092AE082E596E00E94DC05EC
:103510008C0F9D1FDF91CF91FF90EF90DF90CF90A8
:1035200008952AE082E596E0DF91CF91FF90EF9039
:10353000DF90CF900C94DC05CF93DF93BC01990F03
:10354000880B990B0E94641AEC0182E596E00E94B8
:1035500025068C0F9D1FDF91CF910895EF92FF926A
:103560001F93CF93DF93CDB7DEB765970FB6F8946F
:10357000DEBF0FBECDBFE091D705F091D805278102
:1035800030852230310519F02430310569F5653177
:1035900058F5162FBC01E12EF12CA701CE010296A1
:1035A0000E946B251E5F1093B70585E18093B805D7
:1035B00083E08093B905A701BE016E5F7F4F8AEB60
:1035C00095E00E946B2510929B0786EB95E065962F
:1035D0000FB6F894DEBF0FBECDBFDF91CF911F9124
:1035E000FF90EF900C94B30880E065960FB6F894C6
:1035F000DEBF0FBECDBFDF91CF911F91FF90EF9047
:1036000008950F931F93CF93DF93EC01F8941091DB
:103610009305009192057894E0919205809193052D
:10362000E81749F181E28E9FF0011124E657FB4F24
:10363000DE0101900D928A95E1F78091920590E06C
:103640000196877099278093920580918904882339
:1036500039F08EE392E00E944619CE010E943308B1
:10366000812F90E0019687709927081306C081E0AA
:103670000E940F0802C080E001C081E09A81983862
:10368000A9F0993851F19638D1F5EDEAF5E098E0D6
:103690009E0FDF0118971C9211929E13FACF109281
:1036A000B50590919B0590939E0529C0FE013B9620
:1036B000ADEAB5E0AE014D5E5F4F9F012850310984
:1036C000E90198819D0128503109E9019883919180
:1036D0009D93E417F50789F712C02B813C81309345
:1036E000A00520939F052D813E813093A205209354
:1036F000A1052F8138853093A4052093A305DF9180
:10370000CF911F910F910895EF92FF920F931F9306
:10371000CF93DF93F82E81E2689FE001112400E04F
:1037200010E0E12CEF1421F198012C0F3D1F609166
:10373000970570919805620F731FFB0131964491B4
:1037400050E04E5F5F4F8AE797E00E948A258AE744
:1037500097E00E94B3080F5D1F4F811107C064E519
:1037600074E082E596E00E94290619C0E394DACF5E
:10377000C0E088E597E00E94011B8823D1F3CF5F6A
:1037800080915A07843859F490915C078FEF890F24
:10379000823010F4FC12EDCF892F90E002C081E856
:1037A00090E0DF91CF911F910F91FF90EF900895DE
:1037B000CF93DF93482F50E060E070E020E182E596
:1037C00096E00E94DC05EC0182E596E00E94250669
:1037D0008C0F9D1FDF91CF9108950F931F93E09160
:1037E0001D07F0911E07908180911707892B808318
:1037F000E0911907F0911A07908180911707809541
:10380000892380838BE090E00197F1F7E09119071D
:10381000F0911A07908180911707892B808383E2AA
:1038200090E00197F1F7E0911907F0911A07908164
:1038300080911707809589238083E0911D07F0917F
:103840001E07908180911707809589238083E091DE
:103850001B07F0911C07908180911807892309F0BC
:1038600073C00E94E10320911F0730912007890156
:1038700020E030E00855194E2F4F3F4FDC01CB01BF
:10388000800F911FA21FB31F8093210790932207DF
:10389000A0932307B0932407E0911B07F0911C0726
:1038A000908180911807892381F40E94E10300919F
:1038B0002107109122072091230730912407061732
:1038C00017072807390740F73FC00E94E1032091FE
:1038D0001F0730912007DC01CB01820F931FA11D30
:1038E000B11D8093210790932207A0932307B093E3
:1038F0002407E0911B07F0911C0790818091180725
:10390000892381F00E94E103009121071091220791
:103910002091230730912407061717072807390736
:1039200040F712C00E94E10320911F073091200749
:10393000255031094091210750912207241B350B56
:10394000C901860F971F02C080E090E01F910F9180
:103950000895CF93DF9300D000D000D0CDB7DEB76D
:10396000789484B5826084BD84B5816084BD85B55A
:10397000826085BD85B5816085BD80916E00816066
:1039800080936E001092810080918100826080930C
:10399000810080918100816080938100809180000E
:1039A0008160809380008091B10084608093B10039
:1039B0008091B00081608093B00080917A00846033
:1039C00080937A0080917A00826080937A0080915F
:1039D0007A00816080937A0080917A008068809379
:1039E0007A001092C10061E088E00E94670883EDD0
:1039F0009EE09093100180930F0180916900837F76
:103A0000886080936900E99AE0916206F09163060C
:103A100082E08083E0915E06F0915F061082E09183
:103A20006006F09161068FEC808310926A06E09147
:103A30006606F091670686E08083E0916406F09167
:103A40006506808180618083E0916406F09165065F
:103A5000808188608083E0916406F09165068081B2
:103A600080688083E0916406F091650680818F7D97
:103A7000808360E088E00E9467086AE070E080E090
:103A800090E00E94060461E088E00E94670882E5F9
:103A900096E00E94250660E771E0CE0101960E9443
:103AA0004005CE0101960E94C311CE0101960E94ED
:103AB000030563E771E0CE0101960E944005CE0147
:103AC00001960E94C311CE0101960E94030560E099
:103AD00088E00E9467086AE070E080E090E00E9461
:103AE000060461E088E00E9467081092DA051092EF
:103AF000D90510922306109245060E942F1581E0E9
:103B0000809322068EE18093440610922306109241
:103B1000450662E086E496E00E94991260E086E441
:103B200096E00E9499120E949C1980E00E94441A1B
:103B3000803131F460E270E08EE297E00E94E2169C
:103B40001092DA051092D9051092230610924506BC
:103B50000E942F1501E00093220619E110934406FC
:103B6000109223061092450660E286E496E00E94D9
:103B7000991267E586E496E00E9499120E949C19CA
:103B800000932206109344061092230610924506D5
:103B900060E286E496E00E9499120E949C1961E01E
:103BA00089E10E94F91986E496E00E944D120E9474
:103BB0009C196BE771E0CE0101960E944005CE0191
:103BC00001960E94C311CE0101960E940305109236
:103BD00008071092070780E590E090930A0780930A
:103BE000090781E091E0909395058093940584E026
:103BF000809396058EEC90E09093980580939705BE
:103C000085E180939905ADEAB5E046E652E088E0AB
:103C1000840F9D0128503109F90110821D92FA018B
:103C20001192AF018E13F5CF1092650210926402CB
:103C300010926302109262028FEF80936102809370
:103C4000600280935F0210925E0210925D021092F9
:103C50005C0210925B0210925A021092590210926A
:103C6000580210925702109256028091940590913A
:103C700095059093D8058093D70584E080935502ED
:103C80008EEC90E0909354028093530285E18093F0
:103C9000520210927A021FB7F8948091510281115A
:103CA00027C0EBE8F4E08491EFE9F4E09491E82F89
:103CB000F0E0EE0FFF1FED59FB4FA591B491EC9191
:103CC000E92321F461E08AE00E94670861E08AE06C
:103CD0000E948D0B8CB580618CBD8CB580648CBDD1
:103CE00061E08DE00E948D0B61E08BE00E948D0B06
:103CF000809151028F5F809351021FBF10928904FF
:103D00001092A3031092A40380E090E0FC01E5561A
:103D1000FD4F1182128281968830F1E09F07B1F742
:103D2000109292051092930580E090E0FC01E55618
:103D3000FD4F118212828196883021E09207B1F7FF
:103D400061E08091F3060E948D0B62E08091F406A1
:103D50000E948D0B61E08091F5060E948D0B61E061
:103D60008091F3060E94670864E670E080E090E0CE
:103D70000E94060460E08091F3060E94670861E0FB
:103D80008091F3060E94670860E08DE00E9467085A
:103D900060E08BE00E94670861E08091F5060E9478
:103DA000670860E08DE00E9467088FEF80939A02B9
:103DB0008091F406082E000C990B8230910519F4BD
:103DC00010929A0205C0039719F481E080939A0239
:103DD0006EE170E080E090E00E94060480919A021B
:103DE0009FB7F894882349F0813011F482E006C02F
:103DF00082E08093780280E001C081E02091770228
:103E0000822B8093770280917802811103C081E038
:103E1000809378029FBF40E050E068E87AE08091AC
:103E20009A020E94960461E088E00E948D0B6CE883
:103E300071E0CE0101960E944005CE0101960E94DC
:103E4000C311CE0101960E94030564E070E088E290
:103E500097E00E94A91567E070E085E297E00E9474
:103E6000A91565E070E08BE297E00E94A91585E551
:103E700090E00E944B1960E088E00E9467086AE0C9
:103E800070E080E090E00E94060461E088E00E941B
:103E9000670865E971E0CE0101960E944005CE01F8
:103EA00001960E94C311CE0101960E94030587EA84
:103EB00091E00E94461968EE73E080E090E00E9475
:103EC000060460E088E00E9467086AE070E080E035
:103ED00090E00E94060461E088E00E94670860E0CC
:103EE00088E00E9467086AE070E080E090E00E944D
:103EF000060461E088E00E9467080E944B100E945F
:103F00006E03FBCFCF92DF92EF92FF92CF93DF93BE
:103F1000E6E4F6E01382128288EEC82E83E0D82E03
:103F2000E12CF12CC482D582E682F7828DE291E009
:103F300091838083E2E5F6E013821282C482D58207
:103F4000E682F7828DE391E09183808385EC90E0B7
:103F50009587848784EC90E09787868780EC90E053
:103F6000918B808B81EC90E0938B828B82EC90E044
:103F7000958B848B86EC90E0978B868B118E128EBE
:103F8000138E148EE4E4F7E087E691E0918380835A
:103F90008DE596E7A0E0B0E08787908BA18BB28B90
:103FA000EEE2F7E08DE591E0918380838EE596E780
:103FB000A0E0B0E0818B928BA38BB48B158A8BE24F
:103FC00097E00E94051688E297E00E94051685E2B8
:103FD00097E00E940516EBE9F4E08491A3E1B7E0D5
:103FE00014968C931497E4911596EC93159787E8A3
:103FF00094E0FC012491E22FF0E0EE0FFF1FE9585E
:10400000FB4F2591349117963C932E931697FC0104
:104010002491E22FF0E0EE0FFF1FE359FB4F2591B3
:10402000349119963C932E931897FC018491E82FB4
:10403000F0E0EE0FFF1FED59FB4F859194911B9619
:104040009C938E931A978DE89FE61D969C938E9372
:104050001C970E94400460930F0770931007809391
:10406000110790931207E6EFF6E013821282C482E2
:10407000D582E682F7828DE491E091838083108A75
:104080008AE08093F50682E08093F40689E08093CD
:10409000F3061786168615861486A0911D01B09129
:1040A0001E0188E0ED0119928A95E9F71092F20657
:1040B0001092F1061092F0061092EF0686E8858BBA
:1040C000DF91CF91FF90EF90DF90CF900895EF9226
:1040D000FF920F931F93CF93DF93CDB7DEB7659712
:1040E0000FB6F894DEBF0FBECDBFE091D705F091BB
:1040F000D80593E0899FE00DF11D1124339790813D
:10410000913059F5453148F5142F082FE42EF12C44
:10411000A701CE0102960E946B251E5F1093B70582
:104120008DE08093B8050093B905A701BE016E5FCD
:104130007F4F8AEB95E00E946B2586EB95E06596B4
:104140000FB6F894DEBF0FBECDBFDF91CF911F91A8
:104150000F91FF90EF900C94B30880E065960FB636
:10416000F894DEBF0FBECDBFDF91CF911F910F91AD
:10417000FF90EF900895991B79E004C0991F96175E
:1041800008F0961B881F7A95C9F780950895AA1B99
:10419000BB1B51E107C0AA1FBB1FA617B70710F032
:1041A000A61BB70B881F991F5A95A9F78095909564
:1041B000BC01CD01089597FB072E16F4009407D09B
:1041C00077FD09D00E94C72007FC05D03EF49095EA
:1041D00081959F4F0895709561957F4F0895EE0FDB
:1041E000FF1F0590F491E02D09945058BB27AA2792
:1041F0000E940D210C94BD260E94AF2638F00E942B
:10420000B62620F039F49F3F19F426F40C94AC261E
:104210000EF4E095E7FB0C94A626E92F0E94CE262B
:1042200058F3BA17620773078407950720F079F4EB
:10423000A6F50C94F0260EF4E0950B2EBA2FA02DC7
:104240000B01B90190010C01CA01A0011124FF2743
:10425000591B99F0593F50F4503E68F11A16F0403E
:10426000A22F232F342F4427585FF3CF469537953D
:104270002795A795F0405395C9F77EF41F16BA0B02
:10428000620B730B840BBAF09150A1F0FF0FBB1FB0
:10429000661F771F881FC2F70EC0BA0F621F731FF9
:1042A000841F48F4879577956795B795F7959E3F56
:1042B00008F0B0CF9395880F08F09927EE0F9795E7
:1042C000879508950E94AF2660F080E891E009F498
:1042D0009EEF0E94B62628F040E851E071F45EEFB0
:1042E0000CC00C94AC260C94F026E92FE0780E94C8
:1042F000CE2640F3092E052AB1F3261737074807C3
:10430000590738F00E2E07F8E02569F0E025E06443
:104310000AC0EF6307F8009407FADB01B9019D01B9
:10432000DC01CA01AD01EF930E94F0210E94BD267D
:104330000E94A5215F91552339F02BED3FE049E420
:1043400050FD49EC0C94F6200895DF93DD27B92F3A
:10435000BF7740E85FE31616170648075B0718F4B7
:10436000D92F0E94EC229F938F937F936F930E948B
:104370004223E2E8F0E00E9481220E94BD262F91B4
:104380003F914F915F910E944C26DD2351F0905850
:10439000A2EA2AED3FE049EC5FE3D0785D270E9476
:1043A0000D21DF910C94BD260E94AA22E3950C9466
:1043B000D3220E94ED210C94BD260E94B62658F00F
:1043C0000E94AF2640F029F45F3F29F00C94A62606
:1043D00051110C94F1260C94AC260E94CE2668F361
:1043E0009923B1F3552391F3951B550BBB27AA27AE
:1043F00062177307840738F09F5F5F4F220F331FE8
:10440000441FAA1FA9F335D00E2E3AF0E0E832D0AF
:1044100091505040E695001CCAF72BD0FE2F29D0B2
:10442000660F771F881FBB1F261737074807AB0784
:10443000B0E809F0BB0B802DBF01FF2793585F4FF9
:104440003AF09E3F510578F00C94A6260C94F12684
:104450005F3FE4F3983ED4F3869577956795B795DB
:10446000F7959F5FC9F7880F911D9695879597F9E6
:104470000895E1E0660F771F881FBB1F621773075F
:104480008407BA0720F0621B730B840BBA0BEE1F74
:1044900088F7E09508950E9452226894B1110C9417
:1044A000F12608950E94D62688F09F5798F0B92FDC
:1044B0009927B751B0F0E1F0660F771F881F991F59
:1044C0001AF0BA95C9F714C0B13091F00E94F026E5
:1044D000B1E008950C94F026672F782F8827B85FF5
:1044E00039F0B93FCCF3869577956795B395D9F7B1
:1044F0003EF490958095709561957F4F8F4F9F4FBB
:104500000895DF93CF931F930F93FF92EF92DF9263
:104510007B018C01689406C0DA2EEF010E944C26C4
:10452000FE01E894A5912591359145915591A6F309
:10453000EF010E940D21FE019701A801DA9469F7AD
:10454000DF90EF90FF900F911F91CF91DF91089531
:104550000C94AC260E94D626D8F3E894E0E0BB2762
:104560009F57F0F02AED3FE049EC06C0EE0FBB0F7D
:10457000661F771F881F28F0B23A62077307840707
:1045800028F0B25A620B730B840BE3959A9572F77D
:10459000803830F49A95BB0F661F771F881FD2F7BB
:1045A00090480C944823EF93E0FF07C0A2EA2AED5D
:1045B0003FE049EC5FEB0E940D210E94BD260F9069
:1045C000039401FC9058EFEAF0E00C945B230E9406
:1045D000152608F48FEF08959B01AC0160E070E0B0
:1045E00080E89FE30C94D9219F930E94AA220F9008
:1045F00007FCEE5F0C94D32219F416F40C94AC264D
:104600000C9446230E94D626B8F39923C9F3B6F337
:104610009F57550B87FF0E9454230024A0E640EAD1
:10462000900180585695979528F4805C660F771F07
:10463000881F20F026173707480730F4621B730BDA
:10464000840B202931294A2BA695179407942025FD
:1046500031254A2758F7660F771F881F20F0261745
:104660003707480730F4620B730B840B200D311DA4
:10467000411DA09581F7B901842F9158880F969517
:10468000879508959B01AC010C9439269F3F31F02A
:10469000915020F4879577956795B795880F911D70
:1046A0009695879597F9089591505040660F771F1A
:1046B000881FD2F708959F938F937F936F93FF93F3
:1046C000EF939B01AC010E943926EF91FF910E946C
:1046D00081222F913F914F915F910C943926CF9376
:1046E000DF938230910510F482E090E0E0919E0724
:1046F000F0919F0720E030E0C0E0D0E0309711F16A
:104700004081518148175907C0F04817590761F493
:1047100082819381209719F09B838A832BC0909389
:104720009F0780939E0726C02115310519F0421777
:10473000530718F49A01BE01DF01EF010280F381F3
:10474000E02DDCCF2115310509F1281B390B243070
:10475000310590F412968D919C9113976115710516
:1047600021F0FB019383828304C090939F07809381
:104770009E07FD01329644C0FD01E20FF31F8193B5
:104780009193225031092D933C933AC020919C077C
:1047900030919D07232B41F420912101309122017A
:1047A00030939D0720939C0720911F013091200199
:1047B0002115310541F42DB73EB7409123015091A9
:1047C0002401241B350BE0919C07F0919D07E21713
:1047D000F307A0F42E1B3F0B2817390778F0AC0124
:1047E0004E5F5F4F2417350748F04E0F5F1F509301
:1047F0009D0740939C078193919302C0E0E0F0E015
:10480000CF01DF91CF9108950F931F93CF93DF9343
:10481000009709F48CC0FC01329713821282009138
:104820009E0710919F070115110581F420813181A8
:10483000820F931F20919C0730919D0728173907FD
:1048400079F5F0939D07E0939C0771C0D80140E093
:1048500050E0AE17BF0750F412962D913C9113977C
:10486000AD012115310509F1D901F3CF9D01DA011F
:104870003383228360817181860F971F821793078C
:1048800069F4EC0128813981260F371F2E5F3F4FD5
:10489000318320838A819B8193838283452B29F4F2
:1048A000F0939F07E0939E0742C01396FC93EE930C
:1048B0001297ED01499159919E01240F351FE2177E
:1048C000F30771F480819181840F951F02961196F0
:1048D0009C938E938281938113969C938E931297CF
:1048E000E0E0F0E0D80112968D919C91139700972B
:1048F00019F0F8018C01F6CF8D919C9198012E5FF3
:104900003F4F820F931F20919C0730919D072817DE
:10491000390769F4309729F410929F0710929E0787
:1049200002C01382128210939D0700939C07DF91AF
:10493000CF911F910F910895A0E0B0E0E2EAF4E278
:104940000C942D27EC01009721F4CB010E946F23DA
:10495000B8C0FC01E60FF71F9C0122503109E21795
:10496000F30708F4ACC0D9010D911C9111970617FB
:104970001707B0F00530110508F49FC0C80104976F
:104980008617970708F499C002501109061B170BE8
:10499000019311936D937C93CF010E9404248DC0E9
:1049A0005B01A01AB10A4C01800E911EA0919E07D6
:1049B000B0919F0740E050E0E12CF12C109709F4F2
:1049C0004AC0A815B905D1F56D907C901197630187
:1049D00082E0C80ED11CCA14DB0480F1A3014A197D
:1049E0005B096A0182E0C80ED11C1296BC90129736
:1049F0001396AC91B5E0CB16D10440F0B282A383FC
:104A000051834083D9016D937C930AC00E5F1F4F81
:104A1000C301800F911FF90191838083EB2DFA2F41
:104A2000E114F10431F0D7011396FC93EE93129741
:104A300044C0F0939F07E0939E073FC08D919C91E7
:104A400011974817590708F4AC017D0112960D9093
:104A5000BC91A02DB3CF80919C0790919D078815A4
:104A60009905E1F446175707C8F480911F0190910A
:104A70002001009741F48DB79EB7409123015091DA
:104A80002401841B950BE817F907C8F4F0939D07E0
:104A9000E0939C07F901718360830FC0CB010E94F2
:104AA0006F237C01009759F0A801BE010E946B257D
:104AB000CE010E940424C70104C0CE0102C080E0E0
:104AC00090E0CDB7DEB7EEE00C94492781E090E0AE
:104AD000F8940C949127FB01DC0102C001900D9227
:104AE00041505040D8F70895FB01DC0101900D9230
:104AF0000020E1F70895FB01DC014150504048F0EF
:104B000001900D920020C9F701C01D924150504004
:104B1000E0F70895FB01DC0102C005900D924150C1
:104B20005040D8F708954532510520F4423010F036
:104B30000C949E25FB011082CB010895BB274A30BF
:104B400031F4992322F4BDE2909581959F4F0C9406
:104B5000AA25BB27FB015527AA27880F991FAA1F43
:104B6000A41710F0A41B83955051B9F7A05DAA3388
:104B700008F0A95DA193009779F7B111B193119253
:104B8000CB010C94C325DC01FC01672F71917723C5
:104B9000E1F7329704C07C916D9370836291AE17F8
:104BA000BF07C8F308950E94152608F481E0089510
:104BB000E89409C097FB3EF49095809570956195B7
:104BC0007F4F8F4F9F4F9923A9F0F92F96E9BB276D
:104BD0009395F695879577956795B795F111F8CFE9
:104BE000FAF4BB0F11F460FF1BC06F5F7F4F8F4F54
:104BF0009F4F16C0882311F096E911C0772321F04A
:104C00009EE8872F762F05C0662371F096E8862FE1
:104C100070E060E02AF09A95660F771F881FDAF738
:104C2000880F9695879597F90895990F0008550F65
:104C3000AA0BE0E8FEEF16161706E807F907C0F022
:104C400012161306E407F50798F0621B730B840B2A
:104C5000950B39F40A2661F0232B242B252B21F404
:104C600008950A2609F4A140A6958FEF811D811DA4
:104C700008950E944C260C94BD260E94AF2638F061
:104C80000E94B62620F0952311F00C94A6260C94D1
:104C9000AC2611240C94F1260E94CE2670F3959F29
:104CA000C1F3950F50E0551F629FF001729FBB2723
:104CB000F00DB11D639FAA27F00DB11DAA1F649FBF
:104CC0006627B00DA11D661F829F2227B00DA11D72
:104CD000621F739FB00DA11D621F839FA00D611DF8
:104CE000221F749F3327A00D611D231F849F600D19
:104CF000211D822F762F6A2F11249F5750409AF042
:104D0000F1F088234AF0EE0FFF1FBB1F661F771FCD
:104D1000881F91505040A9F79E3F510580F00C9498
:104D2000A6260C94F1265F3FE4F3983ED4F38695D3
:104D300077956795B795F795E7959F5FC1F7FE2B38
:104D4000880F911D9695879597F9089597F99F6714
:104D500080E870E060E008959FEF80EC0895002403
:104D60000A941616170618060906089500240A94D0
:104D700012161306140605060895092E0394000C56
:104D800011F4882352F0BB0F40F4BF2B11F460FFE5
:104D900004C06F5F7F4F8F4F9F4F089557FD90580E
:104DA000440F551F59F05F3F71F04795880F97FBEF
:104DB000991F61F09F3F79F08795089512161306A9
:104DC0001406551FF2CF4695F1DF08C016161706D8
:104DD0001806991FF1CF869571056105089408950D
:104DE000E894BB2766277727CB0197F90895052E0E
:104DF00097FB1EF400940E940E2757FD07D00E94D7
:104E0000602707FC03D04EF40C940E275095409574
:104E1000309521953F4F4F4F5F4F08959095809566
:104E2000709561957F4F8F4F9F4F08950E94822705
:104E3000A59F900DB49F900DA49F800D911D1124EE
:104E40000895B7FF0C9416270E941627821B930B18
:104E500008952F923F924F925F926F927F928F921E
:104E60009F92AF92BF92CF92DF92EF92FF920F93F9
:104E70001F93CF93DF93CDB7DEB7CA1BDB0B0FB603
:104E8000F894DEBF0FBECDBF09942A8839884888C0
:104E90005F846E847D848C849B84AA84B984C88456
:104EA000DF80EE80FD800C811B81AA81B981CE0F4D
:104EB000D11D0FB6F894DEBF0FBECDBFED01089532
:104EC000A1E21A2EAA1BBB1BFD010DC0AA1FBB1F0E
:104ED000EE1FFF1FA217B307E407F50720F0A21B80
:104EE000B30BE40BF50B661F771F881F991F1A94ED
:104EF00069F760957095809590959B01AC01BD0117
:104F0000CF010895A29FB001B39FC001A39F700D70
:104F1000811D1124911DB29F700D811D1124911DC1
:064F20000895F894FFCF94
:104F260086018000010800010200018000800280E5
:104F360002B80B000000007544008089444102005D
:104F460000A007800001000000000000009912691F
:104F56001261124D123E123D12000000000503813F
:104F660002CE02AC02C0024C0300000000460A81D9
:104F7600020307D806C106C00600000000C8129F3B
:104F860017CB1200000000BF0610070C130D0A0015
:104F96005570005377616767657200446F6F6D7374
:104FA6002044617920576561706F6E00456D6F749E
:104FB600696F6E730046616369616C205265636F49
:104FC6006E6974696F6E00446F6E652077697468E8
:104FD60020536574757000203A004300486561648B
:104FE600696E67733A207B002C20007D002C007DC3
:104FF6002000476F74204D657373616765004375C4
:105006007272656E7448656164696E673A20005411
:1050160075726E20436F6D706C6574652E2E2E2E24
:1050260048656164696E673A20003C33302042610E
:10503600636B696E67207570202D20005269676862
:10504600743A20004C6566743A2000426F6F7469AA
:105056006E6720002E2E004C534D33303300204512
:0C5066000054616E6B20526F7665720082
:00000001FF
