:1000000056C20000DDC6000008C7000078C200002C
:1000100076C2000074C2000072C2000070C200000C
:100020006EC200006CC200006AC200000C94B50CE5
:1000300066C2000064C2000062C2000060C200002C
:1000400019C700005CC200000C947C0A0C94AE0A34
:1000500056C2000054C2000052C2000050C200004C
:100060000C944B1B4CC20000650F1B101B10820F21
:10007000AA0FC80F1B10B80F1B10F50F1B10E20FB3
:10008000FB0F084AD73B3BCE016E84BCBFFDC12F9E
:100090003D6C74319ABD56833DDA3D00C77F11BE79
:1000A000D9E4BB4C3E916BAAAABE000000803F0081
:1000B000416461667275697420426C75656672751B
:1000C0006974204C6F7720456E65726779206E5297
:1000D0004638303031205072696E74206563686F25
:1000E0002064656D6F00000000080002010000033D
:1000F00004070000000000000000010204081020B6
:1001000040800102040810200102040810200404A9
:1001100004040404040402020202020203030303AF
:100120000303000000002300260029000000000057
:10013000250028002B0000000000240027002A00D2
:10014000202050697065204572726F7220436F6481
:10015000653A203078004143492045767420506943
:100160007065204572726F723A2050697065202365
:100170003A0045767420436D6420726573706F6E2B
:10018000653A204572726F722E2041726475696EF5
:100190006F20697320696E20616E207768696C65D5
:1001A0002831293B206C6F6F700041434920436F19
:1001B0006D6D616E6420004572726F7220696E20F1
:1001C0004143492053657475700009577269746919
:1001D0006E67206F6E65206279746520307800004C
:1001E00007060000030241D70000000000000000E5
:1001F00000000000000000000000000000000000FF
:10020000001F0610000000000000000400040101AF
:100210000000060000900000000000000000000048
:1002200000001F06101C010200000000000000007A
:100230000000000000000000001400000014039003
:100240000164001F06103802FF025800050000007C
:10025000000000000000000010000000000000008E
:10026000000000000506105400000000000000001F
:10027000000000000000000000000000000000007E
:1002800000000000001F06200004040202000128F4
:10029000000100180404050500022803010E0300F4
:1002A000002A041407001F06201C0400032A000172
:1002B0005541525469637304040505000428030181
:1002C000020500012A06001F06203804030200056B
:1002D0002A010100000404050500062803010207A5
:1002E00000042A06040908001F06205400072A04F7
:1002F000010600120000000A00040402020008289F
:100300000001011804041010001F062070000928C5
:1003100000019ECADC240EE5A9E093F3A3B5010019
:10032000406E04041313000A28001F06208C0301EA
:10033000040B009ECADC240EE5A9E093F3A3B502EA
:1003400000406E44101400000B00001F0620A8029D
:10035000020000000000000000000000000000009B
:10036000000000000004041313000C001F0620C44A
:10037000280301100D009ECADC240EE5A9E093F3CA
:10038000A3B50300406E14001400000D001F0620EA
:10039000E000030200000000000000000000000078
:1003A00000000000000000004614030200001F06C9
:1003B00020FC0E290201000004040202000F2800A4
:1003C000010A180404050500102803010211001990
:1003D00006211800272A0404090100112A27010A0E
:1003E000000000000000000000000000000000000D
:1003F0001F0640002A0001008004000300000002E4
:1004000002000804000B0000000302000204000DBB
:10041000000F06401C000E2A270100800400110076
:1004200000000000000000000000000000000000CC
:100430000000130650009ECADC240EE5A9E093F3E9
:10044000A3B50000406E00000000000000000000A6
:100450000000000F06600000000000000000000027
:10046000000000000000000000000000000000008C
:10047000000000000606F00003D388000000000022
:10048000000000000000000000000000000000006C
:1004900000000000436D6420517565756520467548
:1004A0006C6C00002C200000EE03DC0A6A1A112498
:1004B0001FBECFEFD8E0DEBFCDBF11E0A0E0B1E0BE
:1004C000E8E7FFE302C005900D92A63EB107D9F719
:1004D00027E0A6EEB1E001C01D92A831B207E1F716
:1004E00014E0CEEAD4E004C02297FE010E94D01CA2
:1004F000C83AD107C9F70E94A90C0C94BA1F80CD45
:1005000065E271E08EE492E00C94AC0B42E050E0C6
:1005100060E872E081E024D426E040E855E260E043
:1005200070E08EE492E086D760EB70E08EE492E0BB
:100530000E949C0B87E192E00E94281640E550E063
:1005400060E070E086EE91E00E94561061E088E085
:100550009ED564E070E081E192E00E94080E67E0C1
:1005600070E08EE092E00E94080E65E070E084E1A9
:1005700092E00E94080E65E570E084E192E00E943E
:10058000400E68EB7BE080E090E0EDD463E371E047
:100590008EE492E00C94820B61E086E078D560E016
:1005A00086E0AED582E090E003D561E086E0A8D594
:1005B00085E090E0FDD460E086E069D520E432E497
:1005C0004FE050E061E086E0D0D52AE330E040E043
:1005D00050E00E94B21CCA01B90108954F925F9287
:1005E0006F927F928F929F92AF92BF92CF92DF9243
:1005F000EF92FF92CF93DF9300D000D0CDB7DEB75C
:10060000CBDF69837A838B839C836CE271E080E02B
:1006100090E0A9D4C1DF2B013C016CE271E080E0E5
:1006200090E0A1D4B9DF4B015C016CE271E080E0A5
:1006300090E099D4B1DF6B017C016CE271E080E065
:1006400090E091D469817A818B819C81640D751DC4
:10065000861D971D680D791D8A1D9B1D6C0D7D1DC6
:100660008E1D9F1D24E030E040E050E00E94B21C4F
:10067000CA01B9010F900F900F900F90DF91CF91A9
:10068000FF90EF90DF90CF90BF90AF909F908F90B2
:100690007F906F905F904F900895CF92DF92EF928E
:1006A000FF9267EA70E084E192E00E94400E6CE203
:1006B00071E080E090E057D491DF6B017C0166E946
:1006C00070E080E090E04FD465E570E084E192E076
:1006D0000E94400EC701B601FF90EF90DF90CF90CF
:1006E0000895CF92DF92EF92FF9261E070E084E193
:1006F00092E00E94400E6CE271E080E090E033D422
:100700006DDF6B017C0166E970E080E090E02BD446
:1007100065E570E084E192E00E94400EC701B601F9
:10072000FF90EF90DF90CF9008958A55910997FF41
:1007300003C088599E4FFBCF0895865A9F4F883635
:1007400021E092071CF088569140F9CF0895CF938D
:10075000DF93EB01BC018EE092E00E940D0EBE0122
:1007600081E192E0DF91CF910C940D0E86EE91E045
:100770000E944C0F86EE91E00E941B0F90930D0299
:1007800080930C0220910F01309110018217930782
:1007900021F18538910589F4809104029091050238
:1007A000A0910602B091070280930002909301028B
:1007B000A0930202B093030208C08638910529F481
:1007C0006CED75E08CED95E0C2DF80910C029091AC
:1007D0000D029093100180930F01089580E492E040
:1007E0000E94C1184DE556E760E070E08DE292E0AE
:1007F0000E9428154EE556E760E070E087E192E040
:100800000E94321584E192E00E946F0D81E192E036
:100810000E946F0D8EE092E00E946F0D75D3609381
:10082000040270930502809306029093070229E068
:1008300042E06AE086EE91E00C941F0F0F931F9345
:100840008091040290910502A0910602B0910702E6
:1008500040910002509101026091020270910302E6
:100860008C019D01041B150B260B370B40910B01CE
:1008700050910C0160910D0170910E0140175107CC
:1008800062077307F0F48093000290930102A09333
:100890000202B093030288EB9BE0A0E0B0E08093FB
:1008A0000B0190930C01A0930D01B0930E0186E90A
:1008B00090E0909309028093080290930B0280933A
:1008C0000A0286EE91E00E94A40E029709F043C04E
:1008D00086EE91E00E94B10E909309028093080287
:1008E0008091040290910502A0910602B091070246
:1008F0008093000290930102A0930202B09303023E
:1009000086EE91E00E94B10E90930B0280930A0252
:100910004091040250910502609106027091070215
:10092000409300025093010260930202709303020D
:100930002AE0289FB001299F700D112480910802A0
:1009400090910902AC01249FC001259F900D1124B4
:100950001F910F91FCCE1F910F910895CF93DF93BC
:10096000CDB7DEB7E4970FB6F894DEBF0FBECDBFAC
:10097000BE016F5F7F4F87E192E00E94A9179E0141
:100980002B5D3F4FAE014F5F5F4F63E070E080E44F
:1009900092E00E94C218882341F06DA57EA58FA524
:1009A00098A90E94201ECB0102C08FEF9FEFE49612
:1009B0000FB6F894DEBF0FBECDBFDF91CF91089583
:1009C0006F927F928F929F92AF92BF92CF92DF925F
:1009D000EF92FF920F931F93CF93DF938C017B01D4
:1009E000C8ECD0E03C018AE0681A710868018AE02E
:1009F000C80ED11C580182E0A81AB108480182E053
:100A0000880E911C81E0E816F104A9F468E077E013
:100A100080EB94E09CDEBE01882777FD8095982FBF
:100A2000A2D26CED75E08CED95E091DE97DF80173A
:100A30009107B4F028C087EAE816F10421F560EBCD
:100A400074E088E097E083DEBE01882777FD80951B
:100A5000982F89D26CED75E08CED95E078DE05C0BD
:100A6000C436D10581F4C2E3D0E078DF0817190756
:100A70000CF048C0C436D10509F044C0C2E3D0E050
:100A8000EE24E394F12C6ADF8615970534F066DFD7
:100A9000C816D90614F0C4E6D0E06AE471E08EE42A
:100AA00092E030D65BDF4AE050E0BC018EE492E099
:100AB00002D761E571E08EE492E024D64AE050E08E
:100AC000B8018EE492E0F7D66CE271E080E090E04D
:100AD0004AD244DF8A159B050CF494CF3FDF881679
:100AE00099060CF48FCFDF91CF911F910F91FF905A
:100AF000EF90DF90CF90BF90AF909F908F907F90BE
:100B00006F90089587EAE82EF12CBDCF8F929F92C7
:100B1000AF92BF92CF92DF92EF92FF92BEDD4B0178
:100B20005C0169E671E08EE492E0ECD52AE030E009
:100B3000B501A4018EE492E0D4D664EF71E080E0C8
:100B400090E011D2CEDD6B017C0161E771E08EE4B3
:100B500092E0D8D52AE030E0B701A6018EE492E019
:100B6000C0D68FE1C816D104E104F1043CF48FE152
:100B700088169104A104B10474F10FC08C149D0473
:100B8000AE04BF042CF4EADED0DD61E070E009C001
:100B9000C814D904EA04FB046CF4E0DECEDD67EA95
:100BA00070E0FF90EF90DF90CF90BF90AF909F905C
:100BB0008F9006CF13DD6233710581059105ECF44A
:100BC00068E775E088E795E0C2DD6EE170E080E0FF
:100BD00090E0C9D1EFCF02DD623371058105910547
:100BE0000CF09CCF68E775E088E795E0B0DD6EE13A
:100BF00070E080E090E0B7D1EECFFF90EF90DF9013
:100C0000CF90BF90AF909F908F900895CF92DF923A
:100C1000EF92FF9279D16093040270930502809362
:100C2000060290930702B8DC6B017C0168E771E073
:100C30008EE492E067D52AE030E0B701A6018EE4A9
:100C400092E04FD68EE1C816D104E104F10424F5F8
:100C500061E088E055D2A0DC68327105810591051C
:100C600084F463E871E08EE492E076D564E175E0A7
:100C700084E195E06CDD6EE170E080E090E073D19E
:100C8000EACF6CED75E08CED95E061DD80910A01B5
:100C9000882371F03BDF0CC080910A01882329F082
:100CA00060E476E080E496E052DD60E088E028D2FF
:100CB0005DDD80910C0290910D028538910509F05F
:100CC00049C080910A01811105C0FF90EF90DF902B
:100CD000CF90B4CD86EE91E00E94A40E892BD1F185
:100CE00086EE91E00E94B10E909309028093080273
:100CF0008639910511F010920A01809104029091B9
:100D00000502A0910602B091070280930002909321
:100D10000102A0930202B093030286EE91E00E94CA
:100D2000B10E90930B0280930A028639910511F05F
:100D300010920A018091040290910502A09106028E
:100D4000B09107028093000290930102A0930202E7
:100D5000B0930302FF90EF90DF90CF90089556CFAD
:100D60008230E8F4E82FF0E0EE0FFF1FEF5BFD4F5D
:100D700071836083813041F0809169008C7F842B86
:100D800080936900E89A089580916900440F551F87
:100D9000440F551F837F842B80936900E99A08953F
:100DA000823068F4813011F0E89801C0E998E82FAA
:100DB000F0E0EE0FFF1FEF5BFD4F118210820895F0
:100DC0001F920F920FB60F9211242F933F934F93C0
:100DD0005F936F937F938F939F93AF93BF93EF93A3
:100DE000FF938091410290914202892B29F0E0917A
:100DF0004102F09142020995FF91EF91BF91AF91AD
:100E00009F918F917F916F915F914F913F912F9122
:100E10000F900FBE0F901F9018951F920F920FB654
:100E20000F9211242F933F934F935F936F937F9370
:100E30008F939F93AF93BF93EF93FF938091430260
:100E400090914402892B29F0E0914302F0914402F1
:100E50000995FF91EF91BF91AF919F918F917F91F4
:100E60006F915F914F913F912F910F900FBE0F9017
:100E70001F9018951F920F920FB60F9211242F9367
:100E80003F938F939F93AF93BF938091460290912E
:100E90004702A0914802B09149023091450223E0F7
:100EA000230F2D3720F40196A11DB11D05C026E8A2
:100EB000230F0296A11DB11D209345028093460287
:100EC00090934702A0934802B093490280914A024E
:100ED00090914B02A0914C02B0914D020196A11D40
:100EE000B11D80934A0290934B02A0934C02B093A1
:100EF0004D02BF91AF919F918F913F912F910F9094
:100F00000FBE0F901F9018952FB7F894609146026E
:100F10007091470280914802909149022FBF089535
:100F20003FB7F89480914A0290914B02A0914C02F5
:100F3000B0914D0226B5A89B05C02F3F19F0019630
:100F4000A11DB11D3FBF6627782F892F9A2F620FF1
:100F5000711D811D911D42E0660F771F881F991F2B
:100F60004A95D1F70895CF92DF92EF92FF92CF93F7
:100F7000DF936B017C01D4DFEB01C114D104E104E8
:100F8000F10479F0F1D4CCDF6C1B7D0B683E73402B
:100F9000A0F381E0C81AD108E108F108C851DC4F7C
:100FA000ECCFDF91CF91FF90EF90DF90CF9008953D
:100FB0000197009739F0880F991F880F991F0297A2
:100FC0000197F1F70895789484B5826084BD84B563
:100FD000816084BD85B5826085BD85B5816085BD34
:100FE000EEE6F0E0808181608083E1E8F0E010824D
:100FF000808182608083808181608083E0E8F0E08E
:10100000808181608083E1EBF0E080818460808377
:10101000E0EBF0E0808181608083EAE7F0E08081AE
:10102000846080838081826080838081816080830E
:101030008081806880831092C1000895833081F0A0
:1010400028F4813099F08230A1F008958730A9F01A
:101050008830B9F08430D1F4809180008F7D03C056
:10106000809180008F7780938000089584B58F777A
:1010700002C084B58F7D84BD08958091B0008F77C4
:1010800003C08091B0008F7D8093B0000895CF930E
:10109000DF9390E0FC01E650FF4F2491FC01E25FFA
:1010A000FE4F8491882349F190E0880F991FFC013D
:1010B000EA5CFE4FA591B491845D9E4FFC01C59101
:1010C000D4919FB7611108C0F8948C912095822328
:1010D0008C93888182230AC0623051F4F8948C91F9
:1010E000322F309583238C938881822B888304C090
:1010F000F8948C91822B8C939FBFDF91CF910895B0
:101100000F931F93CF93DF931F92CDB7DEB7282F96
:1011100030E0F901EA51FF4F8491F901E650FF4FA9
:101120001491F901E25FFE4F04910023C1F088237E
:1011300019F0698383DF6981E02FF0E0EE0FFF1F74
:10114000E45DFE4FA591B4919FB7F8948C91611125
:1011500003C01095812301C0812B8C939FBF0F90FA
:10116000DF91CF911F910F910895CF92DF92EF926F
:10117000FF920F931F93CF93DF9390E0FC01E65013
:10118000FF4FD491FC01E25FFE4F7491611102C0E8
:10119000C0E001C0CD2FDA01C901BF70672F70E038
:1011A000660F771F6E5D7E4F00E010E09801FB0137
:1011B000E590F490F70140814D234C131EC0680167
:1011C00079014FEFC41AD40AE40AF40A0817190780
:1011D0002A073B0709F442C097018601E8CF68015E
:1011E0007901FFEFCF1ADF0AEF0AFF0A0817190784
:1011F0002A073B0799F197018601FB01E590F490DE
:10120000F70140814D234C13EACF801B910BA20BB9
:10121000B30B20E030E0A901FB01E590F490F70169
:10122000F080FD22FC120AC0281739074A075B0725
:10123000A9F02F5F3F4F4F4F5F4FEECFA8E1B0E0D7
:101240000E94E31C605F7F4F8F4F9F4F24E0969575
:101250008795779567952A95D1F703C060E070E090
:10126000CB01DF91CF911F910F91FF90EF90DF9015
:10127000CF900895FC01818D228D90E0805C9F4F7E
:10128000821B91098F7399270895FC01918D828D9E
:10129000981731F0828DE80FF11D858D90E008954B
:1012A0008FEF9FEF0895FC01918D828D981761F06B
:1012B000828DDF01A80FB11D5D968C91928D9F5F8D
:1012C0009F73928F90E008958FEF9FEF089583EDC5
:1012D0009AE0892B41F080E090E0892B21F063D1E6
:1012E00081110C9400000895FC01848DDF01A80F8A
:1012F000B11DA35ABF4F2C91848D90E001968F733E
:101300009927848FA689B7892C93A089B1898C915C
:1013100080648C93938D848D981306C00288F38922
:10132000E02D80818F7D80830895CF93DF93EC0142
:10133000888D8823C1F0EA89FB89808185FD05C0FD
:10134000A889B9898C9186FD0EC00FB607FCF5CF30
:10135000808185FFF2CFA889B9898C9185FFEDCF77
:10136000CE01C2DFE8CFDF91CF910895CF92DF9217
:10137000FF920F931F93CF93DF931F92CDB7DEB7EA
:101380006C01DC015B969C915B975C968C915C9701
:10139000981307C05096ED91FC915197808185FD7F
:1013A00031C0F601038D10E00F5F1F4F0F7311273F
:1013B000F02EF601848DF81210C00FB607FCF9CF9D
:1013C000D6015096ED91FC915197808185FFF1CF28
:1013D000C601698389DF6981ECCF838DE80FF11D38
:1013E000E35AFF4F6083D6015B960C935B9752964E
:1013F000ED91FC91539780818062808381E05896C3
:101400008C930DC0D6015696ED91FC915797608351
:101410005096ED91FC91519780818064808381E0AA
:1014200090E00F90DF91CF911F910F91FF90DF908F
:10143000CF900895BF92CF92DF92EF92FF92CF9319
:10144000DF93EC016A017B01B22EE889F98982E021
:101450008083411581EE580761057105A1F060E0B8
:1014600079E08DE390E0A70196010E94901C215045
:101470003109410951095695479537952795211509
:1014800080E1380798F0E889F989108260E874E80B
:101490008EE190E0A70196010E94901C2150310935
:1014A000410951095695479537952795EC85FD8556
:1014B0003083EE85FF852083188EEC89FD89B0820C
:1014C000EA89FB89808180618083EA89FB89808148
:1014D00088608083EA89FB89808180688083EA89CB
:1014E000FB8980818F7D8083DF91CF91FF90EF908A
:1014F000DF90CF90BF9008951F920F920FB60F927A
:1015000011242F938F939F93EF93FF93E0915E02AB
:10151000F0915F028081E0916402F091650282FDAA
:1015200012C09081809167028F5F8F732091680253
:10153000821751F0E0916702F0E0E25BFD4F958F7A
:101540008093670201C08081FF91EF919F918F91FD
:101550002F910F900FBE0F901F9018951F920F9212
:101560000FB60F9211242F933F934F935F936F9376
:101570007F938F939F93AF93BF93EF93FF938EE4EB
:1015800092E0B2DEFF91EF91BF91AF919F918F9169
:101590007F916F915F914F913F912F910F900FBE6F
:1015A0000F901F9018958EE492E064DE21E0892B65
:1015B00009F420E0822F08951092510210925002F7
:1015C00088EE93E0A0E0B0E0809352029093530243
:1015D000A0935402B093550286E991E090934F0294
:1015E00080934E0285EC90E090935B0280935A02C8
:1015F00084EC90E090935D0280935C0280EC90E03C
:1016000090935F0280935E0281EC90E09093610280
:101610008093600282EC90E0909363028093620278
:1016200086EC90E0909365028093640210926702CA
:10163000109268021092690210926A020895CF9285
:10164000DF92EF92FF920F931F93CF93DF936C0182
:101650007A01EB01E60EF71E00E010E0CE15DF0583
:1016600061F06991D601ED91FC910190F081E02D3E
:10167000C6010995080F191FF1CFC801DF91CF915D
:101680001F910F91FF90EF90DF90CF90089561151B
:10169000710581F0DB010D900020E9F7AD014150AB
:1016A0005109461B570BDC01ED91FC910280F3813F
:1016B000E02D099480E090E00895EF92FF920F935F
:1016C0001F93CF93DF938C01FB01C0E0D0E06491C6
:1016D0007F018FEFE81AF80A662361F0D801ED91D7
:1016E000FC910190F081E02DC8010995C80FD91F28
:1016F000F701EDCFCE01DF91CF911F910F91FF90B8
:10170000EF900895C4CFDC01ED91FC910190F08140
:10171000E02D09940F931F93CF93DF93EC016DE0BD
:10172000F2DF8C016AE0CE01EEDF800F911FDF91C6
:10173000CF911F910F9108950F931F93CF93DF9334
:10174000EC01BBDF8C01CE01E5DF800F911FDF9143
:10175000CF911F910F9108950F931F93CF93DF9314
:10176000EC0195DF8C01CE01D5DF800F911FDF9159
:10177000CF911F910F9108958F929F92AF92BF9238
:10178000CF92DF92EF92FF920F931F93CF93DF934D
:10179000CDB7DEB7A1970FB6F894DEBF0FBECDBFB1
:1017A0007C01C42EE52FCB01D22E19A221E02D15EC
:1017B00010F02AE0D22E8E010F5D1F4F8D2C912C40
:1017C000A12CB12C6C2D7E2FA50194010E94901CA0
:1017D0008C2DD29E80191124015011098A3014F4E5
:1017E000805D01C0895CF8018083211531054105C8
:1017F000510521F0C22EE32FCA01E4CFB801C70181
:1018000046DFA1960FB6F894DEBF0FBECDBFDF91C5
:10181000CF911F910F91FF90EF90DF90CF90BF90ED
:10182000AF909F908F900895CF92DF92EF92FF92AA
:101830000F931F93CF93DF93EC016A017B01211576
:10184000310579F4E881F9810190F081E02D642F70
:10185000DF91CF911F910F91FF90EF90DF90CF908C
:1018600009942A303105D9F477FF18C06DE24BDFB7
:101870008C0144275527BA014C195D096E097F096F
:101880002AE0CE0179DF800F911FDF91CF911F9168
:101890000F91FF90EF90DF90CF9008952AE0B7016D
:1018A000A601CE01DF91CF911F910F91FF90EF9094
:1018B000DF90CF9061CF0F931F93CF93DF93EC0115
:1018C0009A01AB01662757FD6095762FADDF8C013D
:1018D000CE0120DF800F911FDF91CF911F910F91DB
:1018E00008950F931F93CF93DF93EC019DDF8C013D
:1018F000CE0110DF800F911FDF91CF911F910F91CB
:1019000008952115310541F4DC01ED91FC91019020
:10191000F081E02D642F09942FCF9A01462F50E0DB
:1019200060E070E0EECF0F931F93CF93DF93EC0155
:101930009A01462F50E060E070E0E3DF8C01CE01B9
:10194000E9DE800F911FDF91CF911F910F910895D4
:10195000089539DBFDDF0E948602C7E6D9E0FFD992
:101960002097E9F3B4DCFBCF08951F920F920FB6D6
:101970000F9211242F933F934F935F936F937F9315
:101980008F939F93AF93BF93EF93FF938091EC025C
:1019900087FF05C010928500109284001AC0209124
:1019A000EC02332727FD30958091EB0290E0281759
:1019B00039077CF48091EC02992787FD9095FC0112
:1019C000EE0FFF1FE80FF91FE351FD4F808186FDE9
:1019D00015C08091EC028F5F8093EC022091EC02A5
:1019E000332727FD30958091EB0290E028173907C7
:1019F000B4F48091EC028C3054F111C08091EC026F
:101A0000992787FD9095FC01EE0FFF1FE80FF91F46
:101A1000E351FD4F808160E08F7372DBDACF8091FC
:101A2000840090918500049680349C4918F480E4E9
:101A30009CE905C080918400909185000496909364
:101A40008900809388008FEF8093EC0237C020914B
:101A50008400309185008091EC02992787FD909554
:101A6000FC01EE0FFF1FE80FF91FE351FD4F8181CD
:101A70009281820F931F90938900809388008091B8
:101A8000EC02992787FD9095FC01EE0FFF1FE80FF0
:101A9000F91FE351FD4F808186FF10C08091EC0259
:101AA000992787FD9095FC01EE0FFF1FE80FF91FA6
:101AB000E351FD4F808161E08F7322DBFF91EF9155
:101AC000BF91AF919F918F917F916F915F914F9156
:101AD0003F912F910F900FBE0F901F90189520915E
:101AE000EB022C30A0F431E0320F3093EB02FC011A
:101AF0002083822F90E0FC01EE0FFF1FE80FF91FFB
:101B0000E351FD4F88EB9BE09283818308952FEF93
:101B1000FC0120830895DF92EF92FF920F931F93B1
:101B2000CF93DF93EC01D62E7A01890188818C3026
:101B300008F065C061E08D2DAADA8881A82FB0E099
:101B4000FD01EE0FFF1FEA0FFB1FE351FD4F2D2D8F
:101B50002F739081907C922B908360E272E06E19DB
:101B60007F0977FF02C06D5F7F4F7595679575950B
:101B70006795698340E659E0401B510B57FF02C04F
:101B80004D5F5F4F55954795559547954A836CE056
:101B90000E94841C9CE0899FB001112420E030E069
:101BA000A901460F571FFA01EE0FFF1FE40FF51FA3
:101BB000E351FD4F908196FD16C02F5F3F4F2C30B3
:101BC000310571F781110FC01092800082E080937F
:101BD00081001092850010928400B19A80916F006C
:101BE000826080936F00888190E0FC01EE0FFF1F00
:101BF000E80FF91FE351FD4F808180648083888165
:101C0000DF91CF911F910F91FF90EF90DF9008959A
:101C100020E639E040E252E07ECFFC0180818C304A
:101C200070F5918128E830E0291B310997FD339543
:101C3000220F331F220F331F621773077CF092812C
:101C400028E532E0291B310997FD3395220F331F18
:101C5000220F331F621773070CF49B0122503109C6
:101C6000220F331F4FB7F89490E0FC01EE0FFF1FD7
:101C7000E80FF91FE351FD4F328321834FBF0895D1
:101C80004F925F926F927F92AF92BF92CF92DF920C
:101C9000EF92FF920F931F93CF93DF93EC0160328B
:101CA00082E078070CF040C077FD06C0653B710507
:101CB0002CF064EB70E002C060E070E0898128E8FD
:101CC00030E0281B310987FD3395220F331F220F87
:101CD000331F5901CC24B7FCC094DC2C882777FD36
:101CE0008095982F2A8148E552E0421B510927FD33
:101CF0005395440F551F440F551F2A01662457FC66
:101D00006094762C7F926F925F924F9214EBE12E4B
:101D1000F12C00E010E020E030E0A9010E9425193C
:101D20000F900F900F900F90CE01DF91CF911F91E8
:101D30000F91FF90EF90DF90CF90BF90AF907F908A
:101D40006F905F904F9069CF809117039091180327
:101D50002091150330911603821B930B8F739927E3
:101D600008952091170330911803809115039091E5
:101D7000160328173907E9F0E0911503F0911603CF
:101D8000E75EFC4F808120911503309116032F5F91
:101D90003F4F309316032093150320911503309184
:101DA00016032F733327309316032093150390E007
:101DB00008958FEF9FEF0895209117033091180336
:101DC00080911503909116032817390749F0E09187
:101DD0001503F0911603E75EFC4F808190E00895B3
:101DE0008FEF9FEF0895089520E030E050E0241732
:101DF000350704F5809117039091180301968F73AE
:101E00009927E0911503F09116038E179F0779F03B
:101E1000E0911703F0911803DB01A20FB31FAC91FF
:101E2000E75EFC4FA08390931803809317032F5F06
:101E30003F4FDDCF0895FC018589968908950F9362
:101E40001F93FC01522F1382128208EE13E020E050
:101E500030E0048315832683378386EA91E09183FB
:101E6000808381E0808B609313034093120350932F
:101E70001403178616861586148610921603109280
:101E80001503109218031092170386E890E0968BC2
:101E9000858B1F910F910895CF93DF93EC016AE535
:101EA00073E08CE793E0BFD4882309F4C4C0409169
:101EB0005C0350E0FA01E158F109ED30F10508F05A
:101EC000BAC0EC5CFF4F0C94CE1C80915F038093F2
:101ED000830380915D03823021F0833009F461C077
:101EE000AAC08CE793E052D1029709F4A4C0888974
:101EF000882309F4A0C067EB71E08EE492E0DF91E3
:101F0000CF911ACC80915E038823B1F0888981112A
:101F100001C0FFCF6AEA71E08EE492E0CEDB40E1DF
:101F200050E060915D038EE492E0FDDC62E771E0D9
:101F30008EE492E001DCEDCF80915D03893009F001
:101F40007AC029E04FE553E064E08CE793E0DF914D
:101F5000CF91D1C38091830380938603C6D385E854
:101F600090E09E8B8D8BEC85FD85309709F009956F
:101F700063E08CE793E061D3882309F45CC080912F
:101F80005903811158C049D481E08093590353C04B
:101F900086E890E09E8B8D8BEC85FD85309709F06F
:101FA00009956B897C8989899A89DED381E890E0DB
:101FB0009E8B8D8BEC85FD85309709F43CC0DF91BD
:101FC000CF91099440915B0342506EE573E0CE01DE
:101FD0000BDFEE85FF85309771F160915B036250F6
:101FE0008EE593E0DF91CF91099480915D0390910C
:101FF0008603890F1EC088898823C1F066E571E0D9
:102000008EE492E05ADB4AE050E060915D038EE49A
:1020100092E083DC60E471E08EE492E04EDB40E12C
:1020200050E060915E038EE492E07DDC8091860357
:102030008F5F80938603DF91CF9108950F931F9355
:10204000CF93DF931F92CDB7DEB78C0169836AEC23
:1020500071E08EE492E031DB40E150E069818EE492
:1020600092E061DC63E08CE793E0E7D28823A1F0A3
:1020700041E0BE016F5F7F4F83E090D38091860384
:1020800081508093860363E270E080E090E00E94DC
:10209000B30781E090E004C0C801FEDE80E090E07C
:1020A0000F90DF91CF911F910F910895FC01728BDA
:1020B000618B548B438B81E191E090937D038093FE
:1020C0007C0384E080937E038FED91E09093800306
:1020D00080937F0385E1809381038CE793E0BED2F8
:1020E00081E00895CF92DF92EF92FF920F931F93BA
:1020F000CF93DF938C01C62E81E2489F700111249B
:10210000C0E0D0E0D12CDC1401F1CE018E0D9F1D7A
:10211000F80163817481680F791FFB013196449146
:1021200050E04E5F5F4F8EE993E00E94991F8EE969
:1021300093E06ED1A196811106C064E974E08EE44B
:1021400092E0FADA18C0D394DECFC0E06FEB73E010
:10215000C80169D38823D1F3CF5F8091C10384384C
:1021600051F48091C3039FEF980F923010F4CC127A
:10217000EDCF90E002C081E890E0DF91CF911F9118
:102180000F91FF90EF90DF90CF9008950F931F93E2
:10219000CF93DF93EC016D81693028F000E010E00F
:1021A00088E890E002C040E014C06D81262F26959B
:1021B00026952695121738F4402F68E0CE0192DF5D
:1021C0001F5F085FF2CF677051F0412F440F440F3B
:1021D000440FCE01DF91CF911F910F9183CFDF91FB
:1021E000CF911F910F9108951092F505FC01E85FC2
:1021F000FE4F108231961082EDEEF4E0DF01119770
:102200001C921082B19685E0E53FF807B9F7089572
:102210000F931F93CF93DF93EC0109814AE050E0C5
:10222000602F8EE492E079DB62EB71E08EE492E065
:1022300069DA10E0FE01E10FF11D40E150E061813B
:102240008EE492E06ADB64EA74E08EE492E035DAD0
:102250001F5F011778F763EA74E08EE492E0DF9184
:10226000CF911F910F9168CA8EBD00000DB407FE7B
:10227000FDCF8EB5089590911203923019F09330EE
:1022800019F01BC020E001C021E03DB3882351F0CC
:1022900081E090E0022E01C0880F0A94EAF7382B03
:1022A0003DBB089581E090E0022E01C0880F0A94A2
:1022B000EAF7809583238DBB0895FFCF0F931F937B
:1022C000CF93DF93EC01F8940091EA041091E904B4
:1022D0007894E091E9048091EA04E81749F191E2E9
:1022E0009E9FF0011124EF51FC4FDE0101900D92F1
:1022F0009A95E1F72091E90430E02F5F3F4F277076
:1023000033272093E9048091F505882339F065EBA4
:1023100071E08EE492E0F6D9CE017ADF802F90E072
:10232000019687709927181305C081E0A4DF02C0C9
:1023300080E001C081E0DF91CF911F910F9108955E
:102340001092F705C7D78CB580628CBD8CB58C7F99
:1023500081608CBD8DB581608DBD8CB5837F8CBD5A
:102360008BEE94E041DF81EE93E03EDF61E080910F
:1023700014030E94470862E0809112030E944708FC
:1023800061E0809113030E94470861E0809114038B
:102390000E94800864E670E080E090E00E94B3074D
:1023A00060E0809114030E94800861E08091140332
:1023B0000E94800860E08DE00E94800860E08BE071
:1023C0000E94800861E0809113030E94800860E011
:1023D0008DE00E9480088FEF80931103809112039B
:1023E000823019F41092110305C0833019F481E092
:1023F000809311036EE170E080E090E00E94B307EB
:1024000040E050E06BED72E1809111030C94B00656
:102410000F931F93CF93DF938C01FC0141814032D6
:10242000B0F52091F40530E0E9012196C770DD2771
:102430008091F3058C17C1F051E2529FC001539F68
:10244000900D1124FC01E551FB4F108250E04F5FCD
:102450005F4FB8016F5F7F4F84519B4F0E94A21F57
:10246000C093F405C1E001C0C0E08091F505882368
:1024700039F068EB71E08EE492E044D9C801C8DE1F
:1024800060E0809113030E9480088C2F01C080E0DF
:10249000DF91CF911F910F910895CF92DF92EF922C
:1024A000FF920F931F93CF93DF93CDB7DEB7A29721
:1024B0000FB6F894DEBF0FBECDBF60E0809113036E
:1024C0000E9480088091F3059091F405891709F422
:1024D0005FC090E021E2289FF001299FF00D1124B8
:1024E000E551FB4FDE01119601900D922A95E1F71F
:1024F0000196877099278093F3051A81812FB4DEA6
:102500008093F6058B81B0DE8093F705112349F0A7
:10251000412F50E0282F30E02417350714F48FEFB7
:10252000810F982F803208F09FE17E0184E0E80E51
:10253000F11C88EFC82E85E0D82E8601802F8C19DB
:10254000891750F4F70181917F019AA38DDEF8017C
:1025500081938F019AA1F2CF61E0809113030E94D1
:10256000800883B7816083BF40E050E06BED72E18B
:10257000809111030E94B0069091F3058091F405BB
:10258000981741F060E0809113030E94800802C018
:102590001A82B3CF86EF95E0A2960FB6F894DEBF0D
:1025A0000FBECDBFDF91CF911F910F91FF90EF90A4
:1025B000DF90CF900895CF93DF9383B78E7F83BF53
:1025C000809111030E94D00668DFFC014181442301
:1025D00089F16091EA0470E0EB012196C770DD2774
:1025E0002091E9042C1729F151E2569F9001579F41
:1025F000300D1124F901EF51FC4F108250E04F5F74
:102600005F4FBC016F5F7F4FC9018E519C4F0E948D
:10261000A21FC093EA04F8948091EA048F5F877048
:102620009091E9047894891305C080E0DF91CF91FF
:1026300022CEFFCFDF91CF910895262F26952695A4
:102640002695820F911DFC01818990E0677002C080
:10265000959587956A95E2F781700895CF93DF93FA
:10266000FC01A8E1B6E080E090E0EF01C80FD91FBF
:10267000198A198E1D92019688309105B1F7109232
:1026800025061092240610922306109222068FEF40
:1026900080932D0680932C0680932B06109229069A
:1026A00010922806109227061092260610922106F4
:1026B000109220061092170610922F0610922E06E6
:1026C00080819181909356068093550682818093F4
:1026D000540683819481909353068093520685819A
:1026E00080935106DF91CF912BCE81E396E0E5D028
:1026F00080E396E08DCECF93DF93CDB7DEB76697BC
:102700000FB6F894DEBF0FBECDBFCA01E0915506EB
:10271000F091560633E0639FE00DF11D11243397CD
:1027200030813130B9F42531A8F46983422F50E06B
:10273000BC01CE0102962E8B0E94A21F2E89422F31
:10274000BE016F5F7F4F81E396E0BDD080E396E0EE
:102750005FDE01C080E066960FB6F894DEBF0FBE64
:10276000CDBFDF91CF910895CF93DF9300D000D0FC
:10277000CDB7DEB79A8389837C836B83BE016F5F9D
:102780007F4F81E396E0B0D080E396E041DE0F908A
:102790000F900F900F90DF91CF9108951F93CF93DB
:1027A000DF93CDB7DEB765970FB6F894DEBF0FBEE7
:1027B000CDBF142FE0915506F091560693E0899F06
:1027C000E00DF11D11243397218132812230310532
:1027D00019F024303105B1F41531A0F48983412F6B
:1027E00050E0CE0102960E94A21F412FBE016F5FF2
:1027F0007F4F81E396E08CD010922A0680E396E02A
:1028000007DE01C080E065960FB6F894DEBF0FBE0C
:10281000CDBFDF91CF911F91089581E396E089D0DC
:1028200080E396E0F5CD0F931F93CF93DF93EC01F8
:102830008B01CB0143DDF8019281983839F099384A
:1028400051F19638A9F520E030E017C020E030E0E3
:102850000F5F1F4FD801A20FB31F12969C911297C2
:10286000FE01E20FF31F918B1A969C91918F2F5FBF
:102870003F4F2830310571F71BC0FE01E20FF31FF7
:10288000118A118E2F5F3F4F28303105B1F719A201
:102890009F819A870DC0F801238134813C872B8763
:1028A000258136813E872D8727813085388B2F877C
:1028B000DF91CF911F910F91089521E0FC012083BA
:1028C00029E02183089522E0240FDC012C932DE0E0
:1028D00011962C931197FB01219112962C9350E0A5
:1028E000BF0103960C94A21FFC01DB0185E08083ED
:1028F0008FE0818311968C91119783838C918283D1
:1029000013968C911397858312968C9184830895E6
:1029100022E0240FDC012C9325E111962C931197D2
:10292000FB01219112962C9350E0BF0103960C9469
:10293000A21F21E0FC01208323E121830895089553
:10294000FC01658B08950F931F93CF93DF938C0148
:10295000EB0188E2FB0111928A95E9F74BE050E028
:102960006AEB71E0CE010E94AB1F1B8641E050E094
:1029700060E070E04C875D876E877F87F801078590
:10298000108921893289088B198B2A8B3B8B4C8BC0
:102990005D8B6E8B7F8B1CA21DA21EA21FA2188EA8
:1029A000198E1A8E1B8E1C8E1D8E1E8E1F8E18A2C7
:1029B00019A21AA21BA2DF91CF911F910F91089526
:1029C0000F931F93CF93DF938C01EB0188E2FB0100
:1029D00011928A95E9F74BE050E06AEB71E0CE0185
:1029E0000E94AB1F1B8641E050E060E070E04C8726
:1029F0005D876E877F87F801418952896389748971
:102A0000488B598B6A8B7B8B42E050E060E070E032
:102A10004C8B5D8B6E8B7F8B1CA21DA21EA21FA2F6
:102A2000188E198E1A8E1B8E1C8E1D8E1E8E1F8E5A
:102A300018A219A21AA21BA2DF91CF911F910F9188
:102A40000895DC01ED91FC910190F081E02D099455
:102A500025EC31E0FC01318320834787508B618B6B
:102A6000728B0895FC018FEC91E091838083418B00
:102A7000528B638B748B158A0895CF93DF9300D0AC
:102A8000CDB7DEB788E596E02A83498305D549812D
:102A9000642F88E596E0ABD42A81622F88E596E022
:102AA000A6D488E596E00F900F90DF91CF9110C5E6
:102AB0000F931F93CF93DF938C01EB01262F41E0FF
:102AC0006EE1DBDFF801D483C383C038D10509F49C
:102AD0005BC0DCF4C034D105A9F1C036D10509F4DE
:102AE00042C0A09709F08AC080E090E8A9E8B4E469
:102AF0008093210190932201A0932301B09324019C
:102B000080E090E0A5E7B4E471C0C03CD10509F4D1
:102B10004CC0C03ED10509F459C0C03AD10509F0F6
:102B20006DC080E090E0A8ECB3E480932101909325
:102B30002201A0932301B093240180E090E8A1EB4F
:102B4000B3E454C080E090ECA5E5B4E480932101A7
:102B500090932201A0932301B093240180E090E0A0
:102B6000AEE3B4E443C080E090E8A7E2B4E480932D
:102B7000210190932201A0932301B093240180E0CE
:102B800090E0A6E1B4E432C080E090E0A1EEB3E4CE
:102B90008093210190932201A0932301B0932401FB
:102BA00080E090E0A8ECB3E421C080E090E0A5EAEA
:102BB000B3E48093210190932201A0932301B09369
:102BC000240180E090E8A3E9B3E410C080E090E045
:102BD000A6E6B3E48093210190932201A093230100
:102BE000B093240180E090E0ADE4B3E480931D0154
:102BF00090931E01A0931F01B0932001DF91CF910C
:102C00001F910F9108951F93CF93DF931F92CDB71C
:102C1000DEB7162F88E596E049833ED44981642FBC
:102C200088E596E0E4D388E596E052D441E0612F50
:102C300088E596E02FD488E596E08AD3182F88E5BA
:102C400096E046D4812F0F90DF91CF911F91089588
:102C5000CF93DF93EC0188E596E007D420E042E0D3
:102C60006EE1CE010ADF40E06EE1CE01CCDF8031C3
:102C700031F460E270E0CE011BDF81E001C080E052
:102C8000DF91CF9108956F927F928F929F92AF9232
:102C9000BF92CF92DF92EF92FF920F931F93CF9349
:102CA000DF93EC0169E188E596E0F6D368EA70E02D
:102CB00088E596E0C6DE88E596E00AD446E069E15C
:102CC00088E596E0E7D388E596E03AD30697DCF30B
:102CD00088E596E03DD3782E88E596E039D3682ED6
:102CE00088E596E035D3982E88E596E031D3882E96
:102CF00088E596E02DD3D82E88E596E029D3C82E16
:102D0000B62CA12CA72884E0B594A7948A95E1F766
:102D1000B501882777FD8095982FC5D76B837C8375
:102D20008D839E83F82CE12CE92894E0F594E794B8
:102D30009A95E1F7B701882777FD8095982FB3D74B
:102D40006F83788789879A871C2D00E00D2924E0FE
:102D5000159507952A95E1F7B801882777FD8095A5
:102D6000982FA1D76B877C878D879E87DF91CF9126
:102D70001F910F91FF90EF90DF90CF90BF90AF9099
:102D80009F908F907F906F9008950F931F93CF9394
:102D9000DF938C01EB0184E2FB0111928A95E9F744
:102DA000C80171DF84E290E0A0E0B0E088839983FD
:102DB000AA83BB83F80187859089A189B2898C8316
:102DC0009D83AE83BF8381E090E0A0E0B0E0888780
:102DD0009987AA87BB870E948407688B798B8A8B27
:102DE0009B8B2FE632E143E85AE3F801638174815B
:102DF000858196810E94331F2AE038EE4CE151E430
:102E00000E94331F6C8B7D8B8E8B9F8B2FE632E164
:102E100043E85AE3F80167817085818592850E94B5
:102E2000331F2AE038EE4CE151E40E94331F688FD3
:102E3000798F8A8F9B8F2FE632E143E85AE3F801BE
:102E400063857485858596850E94331F2AE038EE58
:102E50004CE151E40E94331F6C8F7D8F8E8F9F8FCA
:102E600081E0DF91CF911F910F9108956F927F9232
:102E70008F929F92AF92BF92CF92DF92EF92FF928A
:102E80000F931F93CF93DF93EC016EE188E596E0FB
:102E900003D363E070E088E596E0D3DD88E596E053
:102EA00017D346E06EE188E596E0F4D288E596E037
:102EB00047D20697DCF388E596E04AD2682E88E58B
:102EC00096E046D2782E88E596E042D2C82E88E574
:102ED00096E03ED2D82E88E596E03AD2882E88E554
:102EE00096E036D2982EB62CA12CA728B5018827BB
:102EF00077FD8095982FD7D66D837E838F839887B3
:102F0000F82CE12CE928B701882777FD8095982FC8
:102F1000CAD669877A878B879C871C2D00E00D298C
:102F2000B801882777FD8095982FBDD66D877E875D
:102F30008F87988BDF91CF911F910F91FF90EF902A
:102F4000DF90CF90BF90AF909F908F907F906F90C9
:102F500008952F923F924F925F926F927F928F923D
:102F60009F92AF92BF92CF92DF92EF92FF920F9318
:102F70001F93CF93DF93EC018B0184E2FB0111924D
:102F80008A95E9F749E06EE1CE013DDE80FFE5C0BC
:102F9000CE016CDF8D89882309F47CC04D805E8072
:102FA0006F80788489849A84AB84BC84CD84DE84E9
:102FB000EF84F8882224239420E030E04FEF54EC93
:102FC000C301B201D1D518160CF4212C332433944B
:102FD00020E030E04FEF54E4C301B20139D787FD60
:102FE000312C32286624639420E030E04FEF54E423
:102FF000C501B4012DD787FD612C63287724739414
:1030000020E030E04FEF54ECC501B401ADD5181607
:103010000CF4712C7628BB24B39420E030E04FEF01
:1030200054E4C701B60114D787FDB12C7B2849F4BD
:1030300020E030E04FEF54ECC701B60195D51816EB
:103040004CF18B819C8180369105E1F04CF480320B
:103050009105D9F080349105E9F460E670E017C07D
:10306000803A910561F0803C910531F080389105FE
:1030700089F460EA70E00BC060EE70E008C060ECBC
:1030800070E005C060E870E002C060E470E0CE016E
:103090000FDD78CF84E290E0A0E0B0E0F80180831B
:1030A0009183A283B38389899A89AB89BC898483FC
:1030B0009583A683B78382E090E0A0E0B0E08087AC
:1030C0009187A287B3870E948407F801608B718B78
:1030D000828B938BC0902101D0902201E09023013C
:1030E000F0902401A70196016D817E818F819885E2
:1030F0003FD520E030E048EC52E4B5D6F801648BCF
:10310000758B868B978BA701960169857A858B8550
:103110009C852ED520E030E048EC52E4A4D6F8019E
:10312000608F718F828F938F20911D0130911E01CE
:1031300040911F01509120016D857E858F85988972
:1031400017D520E030E048EC52E48DD6F801648FCA
:10315000758F868F978F81E001C080E0DF91CF91DE
:103160001F910F91FF90EF90DF90CF90BF90AF90A5
:103170009F908F907F906F905F904F903F902F9097
:1031800008950895CF92DF92EF92FF92CF93DF934D
:10319000FA01E901309709F44EC0209709F44BC0B9
:1031A0006230710581F063307105B1F061307105F5
:1031B00009F041C0208D318D428D538D648D758D08
:1031C000868D978D11C0248D358D468D578D6489E0
:1031D00075898689978908C02489358946895789E0
:1031E000608D718D828D938D6CD420E030E044E34E
:1031F00053E439D62BED3FE049E450E4B9D4688775
:1032000079878A879B87C884D984EA84FB8420E0F5
:1032100030E0A901C701B601A7D487FF0EC020E0A6
:1032200030E044EB53E4C701B601D8D3688779870F
:103230008A879B8702C080E001C081E0DF91CF9147
:10324000FF90EF90DF90CF9008954F925F926F9232
:103250007F92AF92BF92CF92DF92EF92FF920F9345
:103260001F93CF93DF93CDB7DEB729013A01621BDD
:10327000730B840B950B29893A894B895C892A1930
:103280003B094C095D09298B3A8B4B8B5C8B9B016D
:10329000AC0169897A898B899C8927D3E418F50860
:1032A00006091709A80197015DD32A0D3B1D4C1D86
:1032B0005D1DCA01B901DF91CF911F910F91FF9060
:1032C000EF90DF90CF90BF90AF907F906F905F9026
:1032D0004F900895CF93CFB7F894809157068111FE
:1032E00027C0E8E1F1E08491E4E0F1E09491E82F77
:1032F000F0E0EE0FFF1FEA5CFE4FA591B4918C91B8
:10330000892321F461E08AE00E94800861E08AE07C
:103310000E9447088CB580618CBD8CB580648CBDE3
:1033200061E08DE00E94470861E08BE00E94470861
:10333000809157068F5F80935706CFBFCF91089536
:103340008091880690E020918906821B910908955A
:103350002091890680918806281750F4E22FF0E02A
:10336000E657F94F808190E02F5F209389060895FA
:103370008FEF9FEF0895E091890680918806E81706
:1033800030F4F0E0E657F94F808190E008958FEF38
:103390009FEF08950895CF92DF92EF92FF920F93DF
:1033A0001F93CF93DF937C01CB018A0120916406A8
:1033B000222389F0EB016B01C40ED51ECC15DD056F
:1033C00061F06991D701ED91FC910190F081E02DC0
:1033D000C7010995F3CF642F35D1C801DF91CF9193
:1033E0001F910F91FF90EF90DF90CF900895CF93B2
:1033F000DF931F92CDB7DEB7698320916406222345
:10340000D1F020916506203240F021E030E0FC014F
:103410003383228380E090E014C080916606E82F19
:10342000F0E0E959F94F998190838F5F80936606A8
:103430008093650604C061E0CE01019603D181E06E
:1034400090E00F90DF91CF910895FC0113821282DA
:1034500048EE53E060E070E04483558366837783F1
:1034600089ED91E0918380830895109289061092EE
:10347000880610926606109265062FC0862F41328C
:1034800008F040E26AE876E046D010928906809320
:103490008806089521E0F2CF81E08093640660936E
:1034A0008706109266061092650608950F93062F00
:1034B00021E04091650667E676E0809187066FD04F
:1034C0001092660610926506109264060F91089598
:1034D00061E0ECCF88E596E0B8CF1092170781E065
:1034E000809315071092140761E082E10E94800822
:1034F00061E083E10E948008E9EBF0E080818E7F4B
:10350000808380818D7F808388E48093B80085E408
:103510008093BC000895413208F03FC09091170796
:103520009111FCCF91E090931707209315072FEF8F
:103530002093AA061092EF06240F2093EE06909394
:10354000160790911607880F892B80931607809194
:103550001407813041F4109214078091160780936C
:10356000BB0085EC01C085EE8093BC0080911707FD
:103570008130E1F38091EF06841710F44091EF065B
:1035800020EF36E0FB01D9018A2F821B841718F443
:103590008D918193F9CF842F089580E008950F9342
:1035A000413208F046C0909117079111FCCF92E08C
:1035B00090931707009315079FEF9093AA06109218
:1035C000EF064093EE06FB0160EF76E0DB019A2FF9
:1035D000961B941718F491919D93F9CF10921607AA
:1035E00090911607880F892B8093160780911407F6
:1035F000813041F410921407809116078093BB002C
:1036000085EC01C085EE8093BC00222321F08091DF
:1036100017078230E1F38091AA068F3F61F0809115
:10362000AA06803251F08091AA06803341F483E0EB
:1036300007C081E005C080E003C082E001C084E0F3
:103640000F910895613298F420911707243089F47E
:103650006093CC06FC018EEC96E0DC012A2F281B3F
:10366000261718F421912D93F9CF80E0089581E079
:10367000089582E0089585ED8093BC008091BC00A0
:1036800084FDFCCF10921707089585EC8093BC0051
:103690001092170708951F920F920FB60F921124E0
:1036A0002F933F934F935F936F937F938F939F934A
:1036B000AF93BF93EF93FF938091B900887F8036DB
:1036C00009F49CC068F5883209F45BC090F480313D
:1036D00009F454C038F4882309F4F3C0883009F49D
:1036E0004DC0F2C0883109F44CC0803209F45DC08D
:1036F000EBC0803409F468C048F4803309F455C045
:10370000883309F0E1C08093AA06A7C0803509F488
:103710004FC0883509F45DC0883409F0D5C0D3C0E6
:10372000883909F4C4C0A8F4883709F467C038F4AC
:10373000883609F463C0803709F460C0C5C0883892
:1037400009F4B5C0803909F45FC0803809F0BCC005
:103750005BC0803B09F483C038F4803A09F466C04A
:10376000883A09F47CC0B0C0803C09F4A4C0883C0D
:1037700009F4A1C0883B09F487C0A6C08091160750
:1037800010C09091EF068091EE06981770F5E091C9
:10379000EF0681E08E0F8093EF06F0E0E051F94FE5
:1037A00080818093BB0085EC83C08093AA068BC088
:1037B000E091EF0681E08E0F8093EF068091BB00D1
:1037C000F0E0E051F94F80839091EF068091EE0692
:1037D0006BC0E091EF0681E08E0F8093EF06809141
:1037E000BB00F0E0E051F94F808380911507811113
:1037F0006AC081E08093140784EA5EC083E080930E
:1038000017071092AB06CFCF8091AB06803208F03D
:103810004EC0E091AB0681E08E0F8093AB068091A5
:10382000BB00F0E0E455F94F8083BDCF8091AB063B
:10383000803230F4E091AB06F0E0E455F94F1082AD
:103840001ADF6091AB0670E0E0911007F09111076C
:103850008CEA96E009951092AB0617DF35C084E03C
:10386000809317071092CD061092CC06E0911207B4
:10387000F091130709958091CC06811105C081E074
:103880008093CC061092CE06E091CD0681E08E0F9B
:103890008093CD06F0E0E253F94F80818093BB0026
:1038A0009091CD068091CC06981708F47CCF85E8DE
:1038B0008093BC0009C085EC8093BC001092170770
:1038C00003C01092AA06D7DEFF91EF91BF91AF918E
:1038D0009F918F917F916F915F914F913F912F9128
:1038E0000F900FBE0F901F901895DB018F939F9341
:1038F0006AD0BF91AF91A29F800D911DA39F900DA3
:10390000B29F900D11240895991B79E004C0991F6E
:10391000961708F0961B881F7A95C9F78095089529
:10392000A1E21A2EAA1BBB1BFD010DC0AA1FBB1FC3
:10393000EE1FFF1FA217B307E407F50720F0A21B35
:10394000B30BE40BF50B661F771F881F991F1A94A2
:1039500069F760957095809590959B01AC01BD01CC
:10396000CF010895052E97FB16F400940FD057FD54
:1039700005D0D6DF07FC02D046F408C0509540952C
:10398000309521953F4F4F4F5F4F0895909580950B
:10399000709561957F4F8F4F9F4F0895EE0FFF1FDA
:1039A0000590F491E02D0994A29FB001B39FC0014E
:1039B000A39F700D811D1124911DB29F700D811D5B
:1039C0001124911D0895F0DFA59F900DB49F900DD7
:1039D000A49F800D911D112408955058BB27AA273C
:1039E0000ED0FCC1EDD130F0F2D120F031F49F3F88
:1039F00011F41EF4BDC10EF4E095E7FBB3C1E92F4D
:103A0000FED180F3BA17620773078407950718F091
:103A100071F49EF516C20EF4E0950B2EBA2FA02D70
:103A20000B01B90190010C01CA01A0011124FF276B
:103A3000591B99F0593F50F4503E68F11A16F04066
:103A4000A22F232F342F4427585FF3CF4695379565
:103A50002795A795F0405395C9F77EF41F16BA0B2A
:103A6000620B730B840BBAF09150A1F0FF0FBB1FD8
:103A7000661F771F881FC2F70EC0BA0F621F731F21
:103A8000841F48F4879577956795B795F7959E3F7E
:103A900008F0B3CF9395880F08F09927EE0F97950C
:103AA000879508958DD158F080E891E009F49EEF54
:103AB0008ED128F040E851E059F45EEF09C058C1BA
:103AC000C0C1E92FE0789BD168F3092E052AC1F324
:103AD000261737074807590738F00E2E07F8E02554
:103AE00069F0E025E0640AC0EF6307F8009407FA84
:103AF000DB01B9019D01DC01CA01AD01EF9347D0A3
:103B00006DD10AD05F91552331F02BED3FE049E4B0
:103B100050FD49EC63CF0895DF93DD27B92FBF77C0
:103B200040E85FE31616170648075B0710F4D92F25
:103B300093D19F938F937F936F93F8D1E2E8F0E056
:103B40001AD14CD12F913F914F915F9198D1DD23A4
:103B500049F09058A2EA2AED3FE049EC5FE3D078C3
:103B60005D274DDFDF913AC1D9D008F481E0089597
:103B70000CD034C12CD140F023D130F021F45F3F80
:103B800019F0F0C051115EC1F3C039D198F39923F7
:103B9000C9F35523B1F3951B550BBB27AA27621711
:103BA0007307840738F09F5F5F4F220F331F441F56
:103BB000AA1FA9F333D00E2E3AF0E0E830D091508E
:103BC0005040E695001CCAF729D0FE2F27D0660F7B
:103BD000771F881FBB1F261737074807AB07B0E8BA
:103BE00009F0BB0B802DBF01FF2793585F4F2AF0D0
:103BF0009E3F510568F0B6C025C15F3FECF3983E8B
:103C0000DCF3869577956795B795F7959F5FC9F72C
:103C1000880F911D9695879597F90895E1E0660FB5
:103C2000771F881FBB1F621773078407BA0720F02E
:103C3000621B730B840BBA0BEE1F88F7E095089597
:103C400004D06894B111FEC00895E1D088F09F5768
:103C500090F0B92F9927B751A0F0D1F0660F771FD8
:103C6000881F991F1AF0BA95C9F712C0B13081F0B8
:103C7000E8D0B1E00895E5C0672F782F8827B85FB6
:103C800039F0B93FCCF3869577956795B395D9F719
:103C90003EF490958095709561957F4F8F4F9F4F23
:103CA0000895E89409C097FB3EF49095809570952F
:103CB00061957F4F8F4F9F4F9923A9F0F92F96E978
:103CC000BB279395F695879577956795B795F111ED
:103CD000F8CFFAF4BB0F11F460FF1BC06F5F7F4F8A
:103CE0008F4F9F4F16C0882311F096E911C077239C
:103CF00021F09EE8872F762F05C0662371F096E8A5
:103D0000862F70E060E02AF09A95660F771F881F73
:103D1000DAF7880F9695879597F90895990F000817
:103D2000550FAA0BE0E8FEEF16161706E807F9078D
:103D3000C0F012161306E407F50798F0621B730B28
:103D4000840B950B39F40A2661F0232B242B252BA9
:103D500021F408950A2609F4A140A6958FEF811D4C
:103D6000811D089597F99F6780E870E060E00895ED
:103D70009FEF80EC0895DF93CF931F930F93FF92F3
:103D8000EF92DF927B018C01689405C0DA2EEF017F
:103D900076D0FE01E894A5912591359145915591F4
:103DA000AEF3EF012CDEFE019701A801DA9479F75A
:103DB000DF90EF90FF900F911F91CF91DF910895C9
:103DC00000240A94161617061806090608950024FA
:103DD0000A9412161306140605060895092E039474
:103DE000000C11F4882352F0BB0F40F4BF2B11F4E8
:103DF00060FF04C06F5F7F4F8F4F9F4F089557FD47
:103E00009058440F551F59F05F3F71F04795880F48
:103E100097FB991F61F09F3F79F0879508951216DF
:103E200013061406551FF2CF4695F1DF08C016168B
:103E300017061806991FF1CF86957105610508943C
:103E40000895E894BB2766277727CB0197F9089553
:103E500065DF08F48FEF08959B01AC0160E070E02E
:103E600080E89FE385CE0BD0B9CFAADF28F0AFDF83
:103E700018F0952309F076CF7BCF1124E3CFBFDF75
:103E8000A0F3959FD1F3950F50E0551F629FF0016D
:103E9000729FBB27F00DB11D639FAA27F00DB11DC6
:103EA000AA1F649F6627B00DA11D661F829F22274F
:103EB000B00DA11D621F739FB00DA11D621F839FD6
:103EC000A00D611D221F749F3327A00D611D231FAC
:103ED000849F600D211D822F762F6A2F11249F57FA
:103EE00050408AF0E1F088234AF0EE0FFF1FBB1F1D
:103EF000661F771F881F91505040A9F79E3F5105BC
:103F000070F030CF9FCF5F3FECF3983EDCF38695A7
:103F100077956795B795F795E7959F5FC1F7FE2B66
:103F2000880F911D9695879597F908959B01AC018F
:103F30009ACFFB01DC0102C005900D924150504028
:103F4000D8F70895FB01DC0102C001900D924150A9
:103F50005040D8F70895FB01DC014150504048F033
:103F600001900D920020C9F701C01D9241505040B0
:083F7000E0F70895F894FFCF7B
:103F78000000180720000100000001B80B000086AF
:103F880000018000010800010200018000000075A6
:103F98004400808944427574746F6E5072657373FF
:103FA800656400446F6E6520776974682053657492
:103FB8007570007B002C007D200043757272656E61
:103FC8007448656164696E673A20007475726E6939
:103FD8006E6720616761696E0052696768743A208C
:103FE800004C6566743A200044697374616E6365B9
:103FF8003A20003C3330204261636B696E6720755C
:10400800700000000000B6091F0B3A095309450962
:104018009509000000001E101F0BA40EB10EDC0E47
:10402800F30E203A0020450043004C534D33303303
:1040380000000000009F14C516A31400000000A093
:1040480014A917E01400000000F719CB19A019A84B
:0640580019BB19CA190092
:00000001FF
