:100000000C9466020C94581A0C94311A0C948E02BB
:100010000C948E020C948E020C948E020C940E188A
:100020000C948E020C948E020C948E020C94C321BC
:100030000C948E020C948E020C948E020C948E0200
:100040000C9428190C948E020C940C140C94E61346
:100050000C948E020C948E020C948E020C948E02E0
:100060000C94061E0C948E022B274C284C288227B9
:10007000A927C3274C28BE274C2813284C28DC2747
:100080001928036EDB363D9A9999993DABAAAA2AA5
:100090003E000000803F084AD73B3BCE016E84BC47
:1000A000BFFDC12F3D6C74319ABD56833DDA3D00D2
:1000B000C77F11BED9E4BB4C3E916BAAAABE00001B
:1000C00000803F072C7AA5BA6CC590DA3B9365FC9B
:1000D0008BBC53F810FD3C5692834DBD879D3AB6BC
:1000E0003DCBC9BF5BBE73DA0FC93F00203078003B
:1000F0000957726974696E67206F757420746F2078
:1001000042544C453A000007060000030241D70064
:1001100000000000000000000000000000000000DF
:1001200000000000000000001F061000000000009A
:10013000000004000401010000060000900000001F
:100140000000000000000000001F06101C0102005B
:10015000000000000000000000000000000000009F
:10016000140000001403900164001F06103802FF01
:100170000258000500000000000000000000001010
:100180000000000000000000000000050610540000
:10019000000000000000000000000000000000005F
:1001A0000000000000000000000000001F0620000A
:1001B00004040202000128000100180404050500DF
:1001C000022803010E0300002A041407001F062062
:1001D0001C0400032A00015541525469637304044E
:1001E00005050004280301020500012A06001F0678
:1001F000203804030200052A01010000040405055B
:100200000006280301020700042A06040908001F4B
:1002100006205400072A04010600120000000A000C
:100220000404020200082800010118040410100050
:100230001F06207000092800019ECADC240EE5A9D3
:10024000E093F3A3B50100406E04041313000A28E1
:10025000001F06208C0301040B009ECADC240EE55F
:10026000A9E093F3A3B50200406E44101400000B04
:1002700000001F0620A8020200000000000000008D
:100280000000000000000000000000000404131340
:10029000000C001F0620C4280301100D009ECADCBC
:1002A000240EE5A9E093F3A3B50300406E140014F7
:1002B00000000D001F0620E0000302000000000007
:1002C00000000000000000000000000000000046E8
:1002D00014030200001F0620FC0E29020100000486
:1002E000040202000F2800010A180404050500108A
:1002F0002803010211001906211800272A04040905
:100300000100112A27010A0000000000000000007F
:10031000000000000000001F0640002A00010080CD
:100320000400030000000202000804000B000000AB
:100330000302000204000D000F06401C000E2A27D5
:100340000100800400110000000000000000000017
:10035000000000000000000000130650009ECADCF0
:10036000240EE5A9E093F3A3B50000406E00000061
:10037000000000000000000000000F066000000008
:10038000000000000000000000000000000000006D
:1003900000000000000000000000000606F000035E
:1003A000D3880000000000000000000000000000F2
:1003B0000000000000000000000000000000080035
:1003C0000201000003040700000000000000000913
:1003D00057726974696E67206F6E65206279746503
:1003E00020307800202050697065204572726F724D
:1003F00020436F64653A20307800414349204576B8
:10040000742050697065204572726F723A2050698D
:10041000706520233A0045767420436D6420726530
:1004200073706F6E653A204572726F722E20417242
:100430006475696E6F20697320696E20616E207724
:1004400068696C652831293B206C6F6F70004143EF
:100450004920436F6D6D616E6420004572726F724A
:1004600020696E2041434920536574757000002C4B
:100470002000436D642051756575652046756C6C70
:100480000000000000240027002A000000000023D4
:10049000002600290000000000250028002B000491
:1004A000040404040404040202020202020303031B
:1004B0000303030102040810204080010204081015
:1004C0002001020408102000372F282C11241FBE01
:1004D000CFEFD8E0DEBFCDBF12E0A0E0B1E0E2E0B8
:1004E000FFE602C005900D92AC38B107D9F728E0BD
:1004F000ACE8B2E001C01D92A931B207E1F712E009
:10050000C5E6D2E004C02197FE010E94DE30C43669
:10051000D107C9F70E94292C0C9474370C94000061
:10052000CF92DF92EF92FF920F931F93CF93DF93BF
:100530006C017A018B01C0E0D0E0CE15DF0589F0B7
:10054000D8016D918D01D601ED91FC910190F08162
:10055000E02DC6010995892B11F47E0102C0219678
:10056000ECCFC701DF91CF911F910F91FF90EF90DA
:10057000DF90CF900895089580E090E00895FC0109
:10058000538D448D252F30E0842F90E0821B930BF8
:10059000541710F0CF96089501970895FC01918D9E
:1005A000828D981761F0828DDF01A80FB11D5D96D5
:1005B0008C91928D9F5F9F73928F90E008958FEF43
:1005C0009FEF0895FC01918D828D981731F0828DF7
:1005D000E80FF11D858D90E008958FEF9FEF08954E
:1005E000FC01918D228D892F90E0805C9F4F821BB2
:1005F00091098F739927089581E996E00E94F0028E
:1006000021E0892B09F420E0822F0895FC01848DDC
:10061000DF01A80FB11DA35ABF4F2C91848D90E02C
:1006200001968F739927848FA689B7892C93A08907
:10063000B1898C9180648C93938D848D981306C0BE
:100640000288F389E02D80818F7D80830895EF9269
:10065000FF920F931F93CF93DF93EC0181E0888F7C
:100660009B8D8C8D981305C0E889F989808185FD63
:1006700024C0F62E0B8D10E00F5F1F4F0F73112754
:10068000E02E8C8DE8120CC00FB607FCFACFE8897B
:10069000F989808185FFF5CFCE010E940603F1CF55
:1006A0008B8DFE01E80FF11DE35AFF4FF0820B8F97
:1006B000EA89FB898081806207C0EE89FF896083B7
:1006C000E889F98980818064808381E090E0DF910E
:1006D000CF911F910F91FF90EF900895CF93DF93EB
:1006E000EC01888D8823C9F0EA89FB89808185FD2A
:1006F00005C0A889B9898C9186FD0FC00FB607FC8B
:10070000F5CF808185FFF2CFA889B9898C9185FFCB
:10071000EDCFCE010E940603E7CFDF91CF91089580
:1007200080E090E0892B29F00E94FC0281110C945A
:10073000000008958617970734F4681B790B653B12
:1007400071054CF00EC06817790744F4861B970BAF
:10075000853B910534F087EA90E0089584E690E0C7
:10076000089581E090E0089508950C94E7330C9487
:10077000E7330C94E7330E946C2BBC0180E090E0DF
:1007800029E330E040E050E00E944337C90108957A
:100790004F925F926F927F928F929F92AF92BF9291
:1007A000CF92DF92EF92FF920F931F93CF93DF933D
:1007B000CDB7DEB768970FB6F894DEBF0FBECDBFDA
:1007C0008B018DB69EB640914E0750914F076091B8
:1007D000500770915107C0909402D0909502E0901C
:1007E0009602F09097022A013B014C185D086E08B2
:1007F0007F082DED421625E052066104710408F4CD
:10080000D9C06DB67EB64093940250939502609322
:100810009602709397024AE0BC01CE0143960E9473
:10082000E4194AE0B801CE010D960E94E41967E987
:1008300071E0CE0107960E941C1ABE01635F7F4FD4
:10084000CE0107960E94AB1969E971E00E949219E6
:10085000BE016D5E7F4F0E94AB196BE971E00E9493
:1008600092191A8219821C821B821E821D82FE012D
:1008700031965F01E817F90759F0FC016081718139
:100880006115710529F044815581C5010E94BE1989
:10089000CE0107960E94DF19CE010D960E94DF1946
:1008A000CE0143960E94DF190D811E817801F1E08F
:1008B000EF1AF1084DB65EB6401A510A0FB6F89419
:1008C0005EBE0FBE4DBE2DB73EB72F5F3F4F6901D5
:1008D0000115110581F0232B71F00E151F0508F489
:1008E000780169817A81A701C6010E945E35F6010F
:1008F000EE0DFF1D10828091DE0581110BC085E396
:1009000097E00E9410276AE070E080E090E00E948B
:10091000E218F1CF60EF70E081E996E00E94CC1A16
:100920001C2D76018E2D811B801790F46CEE70E0EB
:1009300081E996E00E94CC1AF70141917F0150E0D5
:1009400060E070E020E181E996E00E947F1AEACF42
:1009500081E996E00E94C81AF12C002349F08091A9
:10096000E50583FD0EC085E397E00E941027F5CFD3
:10097000C5010E94DF190FB6F8947EBE0FBE6DBE92
:1009800019C0102F053108F014E1612FC6018F0D39
:10099000911D0E942D2A8091DE0581508093DE05F5
:1009A00063E270E080E090E00E94E218011B01F336
:1009B000F10ED3CF0FB6F8949EBE0FBE8DBE6896D3
:1009C0000FB6F894DEBF0FBECDBFDF91CF911F9160
:1009D0000F91FF90EF90DF90CF90BF90AF909F90DE
:1009E0008F907F906F905F904F90089580919802C4
:1009F000882311F061E001C060E088E00C943518B4
:100A00000E941C190E941C1960939002709391021D
:100A100080939202909393020C94F60461157105F1
:100A200079F0FB0101900020E9F73197AF01461BF7
:100A3000570BDC01ED91FC910280F381E02D0994CC
:100A400080E090E008954F925F926F927F928F9234
:100A50009F92AF92BF92CF92DF92EF92FF92CF938D
:100A6000DF93CDB7DEB7C85CD1090FB6F894DEBF0F
:100A70000FBECDBFBE01675B7F4F82EA97E00E9449
:100A80008423BE016B5D7F4F82EC97E00E94401C87
:100A9000BE016F5F7F4F82EB97E00E94EA1F2DE35C
:100AA0003AE047E550E46D897E898F89988D0E94F0
:100AB000E4302B013C0128EB3EE141E551E4698D36
:100AC0007A8D8B8D9C8D0E94E5304B015C0120E07E
:100AD00030E040EA5FE36D8D7E8D8F8D98A10E949E
:100AE000E4306B017C0127E73EEB4FE75FE3C30196
:100AF000B2010E941C36E5966CAF7DAF8EAF9FAF02
:100B0000E5972FE632E143E85BE3C501B4010E94BB
:100B10001C369B01AC01E5966CAD7DAD8EAD9FADF5
:100B2000E5970E94E530E5966CAF7DAF8EAF9FAF45
:100B3000E5972CEB34E743E15CE3C701B6010E9483
:100B40001C369B01AC01E5966CAD7DAD8EAD9FADC5
:100B5000E5970E94E530CB56DF4F688379838A831F
:100B60009B83C559D0402FE632E143E85BE3C301E4
:100B7000B2010E941C36E5966CAF7DAF8EAF9FAF81
:100B8000E5972CE53FE842E85FE3C501B4010E9428
:100B90001C369B01AC01E5966CAD7DAD8EAD9FAD75
:100BA000E5970E94E530E5966CAF7DAF8EAF9FAFC5
:100BB000E59726EA3BE944E45BEBC701B6010E94F6
:100BC0001C369B01AC01E5966CAD7DAD8EAD9FAD45
:100BD000E5970E94E530CB57DF4F688379838A839E
:100BE0009B83C558D0402CEB34E743E15CE3C30161
:100BF000B2010E941C362B013C0126EA3BE944E489
:100C00005BEBC501B4010E941C369B01AC01C30122
:100C1000B2010E94E5304B015C012AE534E64BE766
:100C20005FE3C701B6010E941C369B01AC01C50100
:100C3000B4010E94E530C357DF4F688379838A830C
:100C40009B83CD58D04026EE3EE245E652E4A19685
:100C50006CAD7DAD8EAD9FADA1970E941C36E9961F
:100C60006CAF7DAF8EAF9FAFE99726EE3EE245E6D3
:100C700052E4A5966CAD7DAD8EAD9FADA5970E945B
:100C80001C36ED966CAF7DAF8EAF9FAFED9726EE25
:100C90003EE245E652E4A9966CAD7DAD8EAD9FADCA
:100CA000A9970E941C366B017C0125964CAC5DAC6B
:100CB0006EAC7FAC259721968CAC9DACAEACBFAC36
:100CC000219729AD3AAD4BAD5CADE1962CAF3DAF70
:100CD0004EAF5FAFE19720E030E0A901CB56DF4F88
:100CE000688179818A819B81C559D0400E94B6353F
:100CF00020917007309171074091720750917307EE
:100D0000C757DF4F288339834A835B83C958D04054
:100D1000209178073091790740917A0750917B07AD
:100D2000E5962CAF3DAF4EAF5FAFE59720916C07D6
:100D300030916D0740916E0750916F07C358DF4F98
:100D4000288339834A835B83CD57D0402091740731
:100D5000309175074091760750917707CF56DF4F56
:100D6000288339834A835B83C159D0408111EBC208
:100D700020E030E0A901CB57DF4F688179818A817B
:100D80009B81C558D0400E94B6358111DCC220E05D
:100D900030E0A901C357DF4F688179818A819B8147
:100DA000CD58D0400E94B6358111CDC229E33AEF2B
:100DB0004EE85CE3E9966CAD7DAD8EAD9FADE997F5
:100DC0000E941C36E9966CAF7DAF8EAF9FAFE9975E
:100DD00029E33AEF4EE85CE3ED966CAD7DAD8EAD68
:100DE0009FADED970E941C36ED966CAF7DAF8EAF38
:100DF0009FAFED9729E33AEF4EE85CE3C701B601F8
:100E00000E941C36CF57DF4F688379838A839B8388
:100E1000C158D04020E030E0A901E1966CAD7DAD35
:100E20008EAD9FADE1970E94B635811114C020E0D0
:100E300030E0A901C501B4010E94B63581110BC093
:100E400020E030E0A901C301B2010E94B635882339
:100E500011F40C942810E1962CAD3DAD4EAD5FAD74
:100E6000E197CA01B9010E941C366B017C01A50102
:100E70009401C501B4010E941C369B01AC01C7015D
:100E8000B6010E94E5306B017C01A3019201C30110
:100E9000B2010E941C369B01AC01C701B6010E9441
:100EA000E5300E94AF176B017C019B01AC01E1961C
:100EB0006CAD7DAD8EAD9FADE1970E941C36CB57DA
:100EC000DF4F688379838A839B83C558D040A7010D
:100ED0009601C501B4010E941C36C357DF4F6883D9
:100EE00079838A839B83CD58D040A7019601C301A3
:100EF000B2010E941C364B015C01E5962CAD3DAD64
:100F00004EAD5FADE597C757DF4F688179818A8124
:100F10009B81C958D0400E941C366B017C01CF5682
:100F2000DF4F288139814A815B81C159D040C35844
:100F3000DF4F688179818A819B81CD57D0400E94A3
:100F40001C369B01AC01C701B6010E94E4302B01A5
:100F50003C01C757DF4F288139814A815B81C958DD
:100F6000D040C358DF4F688179818A819B81CD57FA
:100F7000D0400E941C366B017C01E5962CAD3DAD46
:100F80004EAD5FADE597CF56DF4F688179818A819D
:100F90009B81C159D0400E941C369B01AC01C70106
:100FA000B6010E94E530C756DF4F688379838A8394
:100FB0009B83C959D040C358DF4F288139814A816A
:100FC0005B81CD57D040CA01B9010E941C3620E098
:100FD00030E040E05FE30E94E4306B017C01E59685
:100FE0002CAD3DAD4EAD5FADE597CA01B9010E9494
:100FF0001C369B01AC01C701B6010E94E5306B01B4
:101000007C019B01AC01C357DF4F688179818A81E4
:101010009B81CD58D0400E941C36E1966CAF7DAFCD
:101020008EAF9FAFE197C756DF4F288139814A8144
:101030005B81C959D040C501B4010E941C369B0197
:10104000AC01E1966CAD7DAD8EAD9FADE1970E9498
:10105000E430E1966CAF7DAF8EAF9FAFE197A30117
:101060009201C501B4010E941C364B015C01A7012D
:101070009601CB57DF4F688179818A819B81C55862
:10108000D0400E941C369B01AC01C501B4010E94F6
:10109000E430CB56DF4F688379838A839B83C559BD
:1010A000D040C756DF4F288139814A815B81C959B9
:1010B000D040CB57DF4F688179818A819B81C558A9
:1010C000D0400E941C366B017C01A3019201C357E2
:1010D000DF4F688179818A819B81CD58D0400E9401
:1010E0001C369B01AC01C701B6010E94E430CB570E
:1010F000DF4F688379838A839B83C558D040C09033
:101100006807D0906907E0906A07F0906B0720E0CD
:1011100030E0A901C701B6010E94E13218160CF0B7
:10112000B3C08090880790908907A0908A07B090FC
:101130008B07E1962CAD3DAD4EAD5FADE197C7019C
:10114000B6010E941C36A50194010E941C36209114
:101150007C0730917D0740917E0750917F070E9468
:10116000E530C357DF4F688379838A839B83CD58EB
:10117000D04060937C0770937D0780937E079093A7
:101180007F07CB56DF4F288139814A815B81C55962
:10119000D040C701B6010E941C36A50194010E94EF
:1011A0001C36209180073091810740918207509131
:1011B00083070E94E5302B013C0160938007709308
:1011C00081078093820790938307CB57DF4F288155
:1011D00039814A815B81C558D040C701B6010E9460
:1011E0001C36A50194010E941C3620918407309181
:1011F000850740918607509187070E94E5306B0173
:101200007C01609384077093850780938607909391
:101210008707C357DF4F288139814A815B81CD58C9
:10122000D040E9966CAD7DAD8EAD9FADE9970E9443
:10123000E530E9966CAF7DAF8EAF9FAFE997A30124
:101240009201ED966CAD7DAD8EAD9FADED970E9498
:10125000E530ED966CAF7DAF8EAF9FAFED97A701F8
:101260009601CF57DF4F688179818A819B81C15870
:10127000D0400E94E530CF57DF4F688379838A835F
:101280009B83C158D04018C010927C0710927D07F4
:1012900010927E0710927F071092800710928107AC
:1012A000109282071092830710928407109285078C
:1012B0001092860710928707C0906407D090650748
:1012C000E0906607F0906707E1962CAD3DAD4EAD1E
:1012D0005FADE197C701B6010E941C369B01AC01CE
:1012E000E9966CAD7DAD8EAD9FADE9970E94E5307E
:1012F000E9966CAF7DAF8EAF9FAFE997CB56DF4FCE
:10130000288139814A815B81C559D040C701B60126
:101310000E941C369B01AC01ED966CAD7DAD8EAD8F
:101320009FADED970E94E530ED966CAF7DAF8EAF2F
:101330009FAFED97CB57DF4F288139814A815B8181
:10134000C558D0406DC629E33AEF4EE85CE3E99614
:101350006CAD7DAD8EAD9FADE9970E941C36E996D0
:101360006CAF7DAF8EAF9FAFE99729E33AEF4EE8C0
:101370005CE3ED966CAD7DAD8EAD9FADED970E94BB
:101380001C36ED966CAF7DAF8EAF9FAFED9729E326
:101390003AEF4EE85CE3C701B6010E941C36CF5716
:1013A000DF4F688379838A839B83C158D04020E0D4
:1013B00030E0A901E1966CAD7DAD8EAD9FADE197BA
:1013C0000E94B635811113C020E030E0A901C501AB
:1013D000B4010E94B63581110AC020E030E0A901B5
:1013E000C301B2010E94B635882309F431C6E196E3
:1013F0002CAD3DAD4EAD5FADE197CA01B9010E9484
:101400001C366B017C01A5019401C501B4010E9449
:101410001C369B01AC01C701B6010E94E5306B018F
:101420007C01A3019201C301B2010E941C369B0101
:10143000AC01C701B6010E94E5300E94AF176B01F5
:101440007C019B01AC01E1966CAD7DAD8EAD9FAD95
:10145000E1970E941C36CF54DF4F688379838A83DB
:101460009B83C15BD040A7019601C501B4010E94D6
:101470001C36CB54DF4F688379838A839B83C55B9B
:10148000D040A7019601C301B2010E941C36C75487
:10149000DF4F688379838A839B83C95BD040CB56B7
:1014A000DF4F288139814A815B81C559D040CA010B
:1014B000B9010E941C366B017C01CB57DF4F28819C
:1014C00039814A815B81C558D040CA01B9010E9467
:1014D0001C369B01AC01C701B6010E94E5306B01CF
:1014E0007C01C357DF4F288139814A815B81CD5808
:1014F000D040CA01B9010E941C369B01AC01C70152
:10150000B6010E94E5300E94AF176B017C019B0180
:10151000AC01CB56DF4F688179818A819B81C559A7
:10152000D0400E941C36E1966CAF7DAF8EAF9FAF6E
:10153000E197A7019601CB57DF4F688179818A81B6
:101540009B81C558D0400E941C36CB56DF4F688324
:1015500079838A839B83C559D040A7019601C357DD
:10156000DF4F688179818A819B81CD58D0400E946C
:101570001C36CB57DF4F688379838A839B83C5589A
:10158000D040C757DF4F288139814A815B81C958D4
:10159000D040C358DF4F688179818A819B81CD57C4
:1015A000D0400E941C36C756DF4F688379838A83F8
:1015B0009B83C959D040CF56DF4F288139814A815A
:1015C0005B81C159D040C358DF4F688179818A81DE
:1015D0009B81CD57D0400E941C36C357DF4F688394
:1015E00079838A839B83CD58D040E5962CAD3DAD61
:1015F0004EAD5FADE597C358DF4F688179818A8131
:101600009B81CD57D0400E941C36CF55DF4F688359
:1016100079838A839B83C15AD040CF56DF4F28817C
:1016200039814A815B81C159D040C757DF4F6881FA
:1016300079818A819B81C958D0400E941C362B0138
:101640003C01E5962CAD3DAD4EAD5FADE597C7577E
:10165000DF4F688179818A819B81C958D0400E947F
:101660001C36CB55DF4F688379838A839B83C55AA9
:10167000D040CF56DF4F288139814A815B81C159E3
:10168000D040CA01B9010E941C36C755DF4F68839C
:1016900079838A839B83C95AD040E5962CAD3DADB2
:1016A0004EAD5FADE597CF56DF4F688179818A8176
:1016B0009B81C159D0400E941C36C355DF4F6883BF
:1016C00079838A839B83CD5AD040E5962CAD3DAD7E
:1016D0004EAD5FADE597CA01B9010E941C36C356F5
:1016E000DF4F688379838A839B83CD59D040C75568
:1016F000DF4F288139814A815B81C95AD04060E03F
:1017000070E080E09FE30E94E430C356DF4F288101
:1017100039814A815B81CD59D0400E94E430C35465
:10172000DF4F688379838A839B83CD5BD040CF551D
:10173000DF4F288139814A815B81C15AD040C30182
:10174000B2010E94E430CF53DF4F688379838A83EC
:101750009B83C15CD040C357DF4F288139814A81C8
:101760005B81CD58D040CB55DF4F688179818A812C
:101770009B81C55AD0400E94E530CB53DF4F688330
:1017800079838A839B83C55CD040C354DF4F288113
:1017900039814A815B81CD5BD040E1966CAD7DADF6
:1017A0008EAD9FADE1970E941C366B017C01CF533B
:1017B000DF4F288139814A815B81C15CD040CB56A3
:1017C000DF4F688179818A819B81C559D0400E9411
:1017D0001C369B01AC01C701B6010E94E5306B01CC
:1017E0007C01CB53DF4F288139814A815B81C55C05
:1017F000D040CB57DF4F688179818A819B81C55862
:10180000D0400E941C369B01AC01C701B6010E946A
:10181000E5309B01AC010E94E5304B015C01C757EC
:10182000DF4F288139814A815B81C958D040CA0184
:10183000B9010E941C369B01AC0160E070E080E0C1
:101840009FE30E94E4306B017C01CF55DF4F28817C
:1018500039814A815B81C15AD040C301B2010E94E3
:10186000E5309B01AC01E1966CAD7DAD8EAD9FADD9
:10187000E1970E941C362B013C01C356DF4F2881A3
:1018800039814A815B81CD59D040C701B6010E94A0
:10189000E4309B01AC01CB56DF4F688179818A81AE
:1018A0009B81C559D0400E941C369B01AC01C301ED
:1018B000B2010E94E5302B013C01C756DF4F288161
:1018C00039814A815B81C959D040C355DF4F688156
:1018D00079818A819B81CD5AD0400E94E4309B015E
:1018E000AC01CB57DF4F688179818A819B81C558D4
:1018F000D0400E941C369B01AC01C301B2010E9482
:10190000E5309B01AC010E94E5302B013C01A501B3
:101910009401C501B4010E941C364B015C01A30176
:101920009201C301B2010E941C369B01AC01C501AA
:10193000B4010E94E5300E94F4324B015C01C357B0
:10194000DF4F288139814A815B81CD58D040CB550A
:10195000DF4F688179818A819B81C55AD0400E947E
:10196000E430C357DF4F688379838A839B83CD58E4
:10197000D040C756DF4F288139814A815B81C959E0
:10198000D040C355DF4F688179818A819B81CD5AD0
:10199000D0400E94E530C756DF4F688379838A8341
:1019A0009B83C959D040C755DF4F288139814A816F
:1019B0005B81C95AD040C701B6010E94E430CF55BF
:1019C000DF4F688379838A839B83C15AD040C35792
:1019D000DF4F288139814A815B81CD58D040E19623
:1019E0006CAD7DAD8EAD9FADE1970E941C366B0155
:1019F0007C01C756DF4F288139814A815B81C959F3
:101A0000D040CB56DF4F688179818A819B81C5594F
:101A1000D0400E941C369B01AC01C701B6010E9458
:101A2000E5306B017C01CF55DF4F288139814A8138
:101A30005B81C15AD040CB57DF4F688179818A8161
:101A40009B81C558D0400E941C369B01AC01C70148
:101A5000B6010E94E5309B01AC010E94E5306B01AC
:101A60007C01C358DF4F288139814A815B81CD5782
:101A7000D040CA01B9010E941C3620E030E040E0AD
:101A80005FE30E94E430C356DF4F288139814A81E9
:101A90005B81CD59D0400E94E530CB55DF4F688344
:101AA00079838A839B83C55AD040C354DF4F2881F2
:101AB00039814A815B81CD5BD040C501B4010E9470
:101AC0001C362B013C01C357DF4F288139814A81E5
:101AD0005B81CD58D040C701B6010E941C369B01E6
:101AE000AC01C301B2010E94E530C755DF4F6883E6
:101AF00079838A839B83C95AD040CF53DF4F288193
:101B000039814A815B81C15CD040C501B4010E942A
:101B10001C362B013C01C756DF4F288139814A8191
:101B20005B81C959D040C701B6010E941C369B0198
:101B3000AC01C301B2010E94E530C355DF4F688399
:101B400079838A839B83CD5AD040CB53DF4F288142
:101B500039814A815B81C55CD040C501B4010E94D6
:101B60001C364B015C01CF55DF4F288139814A81FA
:101B70005B81C15AD040C701B6010E941C369B014F
:101B8000AC01C501B4010E94E5306B017C01CB556D
:101B9000DF4F288139814A815B81C55AD040CB54BF
:101BA000DF4F688179818A819B81C55BD0400E942B
:101BB0001C364B015C01C756DF4F288139814A81B1
:101BC0005B81C959D040C754DF4F688179818A81D0
:101BD0009B81C95BD0400E941C369B01AC01C501B2
:101BE000B4010E94E4304B015C01A7019601CB5681
:101BF000DF4F688179818A819B81C559D0400E94DD
:101C00001C362B013C01C355DF4F288139814A81A5
:101C10005B81CD5AD040CB57DF4F688179818A8173
:101C20009B81C558D0400E941C369B01AC01C3016A
:101C3000B2010E94E4309B01AC01C501B4010E94D5
:101C4000E530C356DF4F688379838A839B83CD5900
:101C5000D040C357DF4F288139814A815B81CD58FD
:101C6000D040C754DF4F688179818A819B81C95BED
:101C7000D0400E941C364B015C01CB55DF4F2881C0
:101C800039814A815B81C55AD040CF54DF4F68818A
:101C900079818A819B81C15BD0400E941C369B0167
:101CA000AC01C501B4010E94E4304B015C01C75591
:101CB000DF4F288139814A815B81C95AD040CB5797
:101CC000DF4F688179818A819B81C558D0400E940D
:101CD0001C362B013C01A7019601E1966CAD7DAD50
:101CE0008EAD9FADE1970E941C369B01AC01C301F4
:101CF000B2010E94E4309B01AC01C501B4010E9415
:101D0000E530CB57DF4F688379838A839B83C5583F
:101D1000D040C756DF4F288139814A815B81C9593C
:101D2000D040CF54DF4F688179818A819B81C15B2C
:101D3000D0400E941C366B017C01C357DF4F2881C5
:101D400039814A815B81CD58D040CB54DF4F6881C7
:101D500079818A819B81C55BD0400E941C369B01A2
:101D6000AC01C701B6010E94E4306B017C01C35590
:101D7000DF4F288139814A815B81CD5AD040E1967D
:101D80006CAD7DAD8EAD9FADE1970E941C364B01D1
:101D90005C01C755DF4F288139814A815B81C95A6F
:101DA000D040CB56DF4F688179818A819B81C559AC
:101DB000D0400E941C369B01AC01C501B4010E94B9
:101DC000E4309B01AC01C701B6010E94E530E19609
:101DD0006CAF7DAF8EAF9FAFE197C0906807D0909A
:101DE0006907E0906A07F0906B0720E030E0A901F6
:101DF000C701B6010E94E13218160CF0B3C0809002
:101E0000880790908907A0908A07B0908B07C356E7
:101E1000DF4F288139814A815B81CD59D040C7018C
:101E2000B6010E941C36A50194010E941C36209127
:101E30007C0730917D0740917E0750917F070E947B
:101E4000E530CB56DF4F688379838A839B83C559FE
:101E5000D04060937C0770937D0780937E079093BA
:101E60007F07CB57DF4F288139814A815B81C55875
:101E7000D040C701B6010E941C36A50194010E9402
:101E80001C36209180073091810740918207509144
:101E900083070E94E5302B013C016093800770931B
:101EA00081078093820790938307E1962CAD3DAD27
:101EB0004EAD5FADE197C701B6010E941C36A5018A
:101EC00094010E941C36209184073091850740912F
:101ED0008607509187070E94E5306B017C01609373
:101EE0008407709385078093860790938707CB5666
:101EF000DF4F288139814A815B81C559D040E996FD
:101F00006CAD7DAD8EAD9FADE9970E94E530E99651
:101F10006CAF7DAF8EAF9FAFE997A3019201ED96B5
:101F20006CAD7DAD8EAD9FADED970E94E530ED9629
:101F30006CAF7DAF8EAF9FAFED97A7019601CF57E6
:101F4000DF4F688179818A819B81C158D0400E948E
:101F5000E530CF57DF4F688379838A839B83C158ED
:101F6000D04018C010927C0710927D0710927E0717
:101F700010927F07109280071092810710928207BB
:101F8000109283071092840710928507109286079B
:101F900010928707C0906407D0906507E0906607AD
:101FA000F0906707C356DF4F288139814A815B81F2
:101FB000CD59D040C701B6010E941C369B01AC012F
:101FC000E9966CAD7DAD8EAD9FADE9970E94E53091
:101FD000E9966CAF7DAF8EAF9FAFE997CB57DF4FE0
:101FE000288139814A815B81C558D040C701B6013B
:101FF0000E941C369B01AC01ED966CAD7DAD8EADA3
:102000009FADED970E94E530ED966CAF7DAF8EAF42
:102010009FAFED97E1962CAD3DAD4EAD5FADE19735
:10202000C701B6010E941C369B01AC01CF57DF4FA0
:10203000688179818A819B81C158D0400E94E530B6
:10204000CF57DF4F688379838A839B83C158D04001
:1020500020E030E040E05FE36091880770918907FD
:1020600080918A0790918B070E941C366B017C013E
:102070009B01AC01E9966CAD7DAD8EAD9FADE9974E
:102080000E941C362B013C01A7019601ED966CAD18
:102090007DAD8EAD9FADED970E941C36E1966CAF85
:1020A0007DAF8EAF9FAFE197A7019601CF57DF4F6E
:1020B000688179818A819B81C158D0400E941C36F9
:1020C0004B015C01C757DF4F688179818A819B8111
:1020D000C958D0409058A30192010E941C366B0150
:1020E0007C01E1962CAD3DAD4EAD5FADE197CF5695
:1020F000DF4F688179818A819B81C159D0400E94DC
:102100001C369B01AC01C701B6010E94E4306B0193
:102110007C01A5019401E5966CAD7DAD8EAD9FADC2
:10212000E5970E941C369B01AC01C701B6010E94D5
:10213000E4309B01AC01C358DF4F688179818A810B
:102140009B81CD57D0400E94E530E9966CAF7DAFC2
:102150008EAF9FAFE997A3019201C358DF4F68810B
:1021600079818A819B81CD57D0400E941C366B01BA
:102170007C01A5019401CF56DF4F688179818A8166
:102180009B81C159D0400E941C369B01AC01C70104
:10219000B6010E94E5306B017C01E1962CAD3DADAE
:1021A0004EAD5FADE197E5966CAD7DAD8EAD9FAD6B
:1021B000E5970E941C369B01AC01C701B6010E9445
:1021C000E4309B01AC01C757DF4F688179818A8178
:1021D0009B81C958D0400E94E530ED966CAF7DAF31
:1021E0008EAF9FAFED97E1962CAD3DAD4EAD5FAD9F
:1021F000E197C358DF4F688179818A819B81CD57F0
:10220000D0400E941C366B017C01A5019401C75788
:10221000DF4F688179818A819B81C958D0400E94B3
:102220001C369B01AC01C701B6010E94E4306B0172
:102230007C01A3019201E5966CAD7DAD8EAD9FADA5
:10224000E5970E941C369B01AC01C701B6010E94B4
:10225000E5309B01AC01CF56DF4F688179818A81DF
:102260009B81C159D0400E94E530CF57DF4F688332
:1022700079838A839B83C158D040A5019401C358B8
:10228000DF4F688179818A819B81CD57D0400E9440
:102290001C366B017C01E1962CAD3DAD4EAD5FADC2
:1022A000E197C757DF4F688179818A819B81C9583F
:1022B000D0400E941C369B01AC01C701B6010E94B0
:1022C000E5306B017C01A3019201CF56DF4F68819D
:1022D00079818A819B81C159D0400E941C369B0123
:1022E000AC01C701B6010E94E4309B01AC01E59648
:1022F0006CAD7DAD8EAD9FADE5970E94E5304B0195
:102300005C01E9962CAD3DAD4EAD5FADE997CA01DC
:10231000B9010E941C366B017C01ED962CAD3DADE0
:102320004EAD5FADED97CA01B9010E941C369B010D
:10233000AC01C701B6010E94E5306B017C01CF57AB
:10234000DF4F288139814A815B81C158D040CA0161
:10235000B9010E941C369B01AC01C701B6010E9465
:10236000E5306B017C01A5019401C501B4010E9417
:102370001C369B01AC01C701B6010E94E5300E94EA
:10238000AF176B017C019B01AC01E9966CAD7DAD93
:102390008EAD9FADE9970E941C3660936C077093D9
:1023A0006D0780936E0790936F07A7019601ED96D6
:1023B0006CAD7DAD8EAD9FADED970E941C366093E8
:1023C0007007709371078093720790937307A7014A
:1023D0009601CF57DF4F688179818A819B81C158EF
:1023E000D0400E941C3660937407709375078093E9
:1023F000760790937707A7019601C501B4010E9463
:102400001C36609378077093790780937A079093CE
:102410007B078091700790917107A0917207B0912E
:102420007307E5968CAF9DAFAEAFBFAFE5978090D9
:10243000740790907507A0907607B0907707A50174
:102440009401C501B4010E941C36C757DF4F688351
:1024500079838A839B83C958D04020916C0730913F
:102460006D0740916E0750916F07C358DF4F288367
:1024700039834A835B83CD57D040C0907807D09092
:102480007907E0907A07F0907B07E5962CAD3DAD9B
:102490004EAD5FADE597CA01B9010E941C369B01A4
:1024A000AC0160E070E080E09FE30E94E430C75739
:1024B000DF4F288139814A815B81C958D0400E9411
:1024C000E430CF56DF4F688379838A839B83C15979
:1024D000D040E5962CAD3DAD4EAD5FADE597C35810
:1024E000DF4F688179818A819B81CD57D0400E94DE
:1024F0001C362B013C01A7019601C501B4010E94C5
:102500001C369B01AC01C301B2010E94E530CF56DD
:10251000DF4F288139814A815B81C159D0400E94B7
:102520007F3160938C0770938D0780938E07909313
:102530008F07A7019601E5966CAD7DAD8EAD9FAD81
:10254000E5970E941C362B013C01A5019401C3585C
:10255000DF4F688179818A819B81CD57D0400E946D
:102560001C369B01AC01C301B2010E94E43020E0A3
:1025700030E040E050EC0E941C360E9451316093E4
:102580009007709391078093920790939307C75792
:10259000DF4F288139814A815B81C958D04060E092
:1025A00070E080E09FE30E94E4302B013C01A70132
:1025B0009601C701B6010E941C369B01AC01C30104
:1025C000B2010E94E4302B013C01A5019401E59683
:1025D0006CAD7DAD8EAD9FADE5970E941C364B0175
:1025E0005C01A7019601C358DF4F688179818A8118
:1025F0009B81CD57D0400E941C369B01AC01C50188
:10260000B4010E94E530A30192010E947F316093E2
:10261000940770939507809396079093970721E00E
:102620002093980721EE3EE245E652E40E941C36D4
:1026300020E030E044E353E40E94E5306B017C018C
:102640008EE991E00E949328A7019601C701B60187
:102650000E943833882319F06FEA71E01AC04601EE
:102660005701E894B7F82FEF3FEF4FE75FE7C50159
:10267000B4010E943833811111C02FEF3FEF4FE7B3
:102680005FE7C501B4010E94B63518163CF463EB50
:1026900071E081E996E00E940E0579C02FEF3FEFCF
:1026A0004FE75FE4C701B6010E94E13218161CF43F
:1026B00067EB71E0EECF2FEF3FEF4FE75FECC70125
:1026C000B6010E94B63587FDF3CF20E030E0A901C6
:1026D000C701B6010E94B63587FF07C08DE20E9490
:1026E000E429C701B601905802C0C701B6012AE02B
:1026F00037ED43EA5BE30E94E5302B013C010E9489
:1027000057324B015C010E94BB359B01AC01C301F8
:10271000B2010E94E4302B013C012AE0B501A40182
:1027200081E996E00E947F1A8EE20E94E42920E06F
:1027300030E040E251E4C301B2010E941C362B019B
:102740003C010E9457324B01A12CB12C2AE0B5016B
:10275000A40181E996E00E947F1AC501B4010E949C
:10276000BB359B01AC01C301B2010E94E43020E003
:1027700030E040E251E40E941C360E945732AB0127
:1027800060E070E02AE081E996E00E947F1A81E92A
:1027900096E00E94C81AC701B6010E945032CB01D0
:1027A000C853DF4F0FB6F894DEBF0FBECDBFDF9129
:1027B000CF91FF90EF90DF90CF90BF90AF909F9020
:1027C0008F907F906F905F904F9008951F920F921F
:1027D0000FB60F9211242F933F934F935F936F93F4
:1027E0007F938F939F93AF93BF93EF93FF9381E971
:1027F00096E00E940603FF91EF91BF91AF919F91E8
:102800008F917F916F915F914F913F912F910F9099
:102810000FBE0F901F9018951F920F920FB60F9238
:1028200011242F938F939F93EF93FF93E091A10631
:10283000F091A2068081E091A706F091A80682FDA2
:1028400012C090818091AA068F5F8F732091AB0692
:10285000821751F0E091AA06F0E0EF56F94F958FFC
:102860008093AA0601C08081FF91EF919F918F9183
:102870002F910F900FBE0F901F90189508950895F7
:102880000895CF93DF93EB01BC0189E997E00E94A3
:102890001621BE018CE997E0DF91CF910C941621AF
:1028A000CF9385E397E00E941027C0914A07C09319
:1028B000A10280910401C817E9F0C53889F480911C
:1028C0004E0790914F07A0915007B0915107809308
:1028D0009D0290939E02A0939F02B093A00208C015
:1028E000C63831F46CED75E08CED95E00E94411432
:1028F000C0930401CF9108950F931F93CF93DF935B
:102900006BEB71E081E996E00E940E0581E996E0AB
:102910000E94C81A80914E0790914F07A0915007CE
:10292000B091510740919D0250919E0260919F028B
:102930007091A0028C019D01041B150B260B370B17
:1029400040910001509101016091020170910301D9
:102950004017510762077307F0F480939D0290932C
:102960009E02A0939F02B093A00288EB9BE0A0E0A0
:10297000B0E08093000190930101A0930201B09315
:10298000030186E990E090939A02809399029093D4
:102990009C0280939B0285E397E00E941923029793
:1029A000A1F585E397E00E94EE22EC0190939A0254
:1029B0008093990285E397E00E94EE229C01909318
:1029C0009C0280939B0280914E0790914F07A091AB
:1029D0005007B091510780939D0290939E02A0935F
:1029E0009F02B093A0028AE0829FB001839F700D86
:1029F0001124282F2C9FC0012D9F900D1124DF91B1
:102A0000CF911F910F910C944114DF91CF911F91A1
:102A10000F9108953F924F925F926F927F928F92A3
:102A20009F92AF92BF92CF92DF92EF92FF920F935D
:102A30001F93CF93DF938C010E942305B8010E945E
:102A40009A037C0198E5C92E92E0D92E28018AE0EC
:102A5000481A510838018AE0680E711C580182E05A
:102A6000A81AB108480182E0880E911C81E0E8169E
:102A7000F104A1F468E077E080EB94E00E94411457
:102A8000B6010D2C000C880B990B0E94E2186CED1E
:102A900075E08CED95E00E9441141AC087EAE816B3
:102AA000F104B1F460EB74E088E097E00E94411417
:102AB000B6010D2C000C880B990B0E94E2186CEDEE
:102AC00075E08CED95E00E9441143324339407C0E7
:102AD0003324339484E6E816F10409F4312C68EECB
:102AE00073E080E090E00E94E2180E942305EC0170
:102AF00087EC91E00E949328CE010E94EF2989EE95
:102B000091E00E949328C8010E94EF29B801CE01EC
:102B10000E949A037C01C415D50534F06C167D061D
:102B20001CF084E6C82ED12CCA15DB055CF08C168F
:102B30009D0644F088ED91E00E949328CE010E940A
:102B4000EF29312C80919802811101C0312C0E9413
:102B500050148091A102853829F40E94BB03BE0164
:102B60000E94C803311082CFDF91CF911F910F9146
:102B7000FF90EF90DF90CF90BF90AF909F908F909D
:102B80007F906F905F904F903F900895CF92DF922B
:102B9000EF92FF92CF93DF930E94F6040E941C19DC
:102BA00060934E0770934F0780935007909351079F
:102BB0000E94BB03EC016C01990FEE08FF088EE147
:102BC000C816D104E104F1041CF561E088E00E941C
:102BD00035180E94BB038897ACF483EF91E00E9404
:102BE0009328C701B6010E94CA1D64EA76E084EA10
:102BF00096E00E9441146EE170E080E090E00E9457
:102C0000E218E7CF6CED75E08CED95E00E94411481
:102C10000E9450148091A102853871F40E9423050E
:102C2000BC01CE010E94C803DF91CF91FF90EF90CD
:102C3000DF90CF900C947C14DF91CF91FF90EF90B8
:102C4000DF90CF9008958F929F92AF92BF92CF92D4
:102C5000DF92EF92FF920F931F93CF93DF9387EA58
:102C600090E00E9498286CE271E080E090E00E9481
:102C7000E2180E94201DCB0169E370E00E94CA3077
:102C8000EB0166E970E080E090E00E94E21885E5E3
:102C900090E00E94982880919802811102C00E94C1
:102CA000C6154E01A12CB12C85E092E00E9493281C
:102CB000C501B4010E94CA1D64EF71E080E090E09C
:102CC0000E94E21881E090E00E9498286CE271E096
:102CD00080E090E00E94E2180E94201DCB0169E391
:102CE00070E00E94CA308B0166E970E080E090E0FD
:102CF0000E94E21885E590E00E9498288091980251
:102D0000811102C00E94C6156801E12CF12C8DE0F2
:102D100092E00E949328C701B6010E94CA1D0F319C
:102D2000110518F46F9780F42AC08C149D04AE042A
:102D3000BF0454F40E942305EC01CA55D109D7FF02
:102D400014C0C859DE4FFBCFC814D904EA04FB04F1
:102D5000B4F40E942305EC01C65ADF4FC83681E067
:102D6000D8071CF0C856D140F9CF80919802811144
:102D700002C00E94C615CE010E940A1504C00E941E
:102D8000B81D0E9423168091980281110EC0DF9118
:102D9000CF911F910F91FF90EF90DF90CF90BF9058
:102DA000AF909F908F900C94C615DF91CF911F919B
:102DB0000F91FF90EF90DF90CF90BF90AF909F90DA
:102DC0008F9008950F931F93CF93DF9300D000D07F
:102DD00000D0CDB7DEB78C0164E172E0CE01019680
:102DE0000E941C1AB801CE0101960E94AB196DE138
:102DF00072E00E949219FC014481558160817181C9
:102E000081E996E00E949002CE0101960E94DF19AE
:102E1000F80104811581093111056CF48EE192E00D
:102E20000E9493286AEF70E080E090E00E94E21830
:102E30000F5F1F4FF0CF81E996E00E94C81A2696D7
:102E40000FB6F894DEBF0FBECDBFDF91CF911F91BB
:102E50000F91089508950E9449350F931F93CF93C2
:102E6000DF93EC0188819981009729F02A813B81C9
:102E70002617370788F48B016F5F7F4F0E947F34DE
:102E8000009761F0998388831B830A832C813D819D
:102E9000232B11F4FC01108281E001C080E0DF915E
:102EA000CF911F910F910895EF92FF920F931F936F
:102EB000CF93DF93FC01248135816115710511F4F5
:102EC00080E019C041155105A9F07B01EC018A0190
:102ED000020F131FB8010E942D17882389F3288140
:102EE00039818C819D81B701820F931F0E945735D4
:102EF0001D830C8381E0DF91CF911F910F91FF9093
:102F0000EF900895CF93DF93EC018881998100972A
:102F100011F00E94E733198218821D821C821B82E5
:102F20001A82DF91CF910895CF93DF9300D0CDB770
:102F3000DEB78BE64A8369830E944629698185E86A
:102F400096E00E94901B4A81642F85E896E00E94DB
:102F5000901B0F900F90DF91CF910C94E9288F92E6
:102F60009F92AF92BF92CF92DF92EF92FF926B014E
:102F70007C0120E030E040E05FE30E941C364B0122
:102F80005C01D701C601B595A795979587953FED4B
:102F9000C32E39E5D32E37E3E32E3FE5F32EC81ACF
:102FA000D90AEA0AFB0AA7019601C501B4010E94E9
:102FB0001C36A70196010E941C369B01AC0160E003
:102FC00070E080EC9FE30E94E4309B01AC01C701FC
:102FD000B6010E941C366B017C019B01AC01C5014E
:102FE000B4010E941C36A70196010E941C369B0169
:102FF000AC0160E070E080EC9FE30E94E4309B0154
:10300000AC01C701B6010E941C36FF90EF90DF9023
:10301000CF90BF90AF909F908F9008951F920F9286
:103020000FB60F9211242F933F934F935F936F939B
:103030007F938F939F93AF93BF93EF93FF93E09111
:10304000C802F091C9020995FF91EF91BF91AF912C
:103050009F918F917F916F915F914F913F912F91B0
:103060000F900FBE0F901F90189590E0FC01E55453
:10307000FC4F3491FC01ED54FB4F2491FC01E156CF
:10308000FB4FE491EE2309F43BC0332339F1333095
:1030900091F038F43130A9F0323001F584B58F7DEC
:1030A00012C0373091F03830A1F03430B9F480914B
:1030B00080008F7D03C0809180008F778093800097
:1030C0000DC084B58F7784BD09C08091B0008F7723
:1030D00003C08091B0008F7D8093B000F0E0EE0FD0
:1030E000FF1FEB56FB4FA591B4918FB7F894EC916D
:1030F000611103C020952E2301C02E2B2C938FBF6E
:103100000895CF93DF9390E0FC01ED54FB4F2491A1
:10311000FC01E156FB4F8491882361F190E0880F18
:10312000991FFC01EF57FB4FC591D491FC01EB5661
:10313000FB4FA591B491611109C09FB7F8948881A4
:10314000209582238883EC912E230BC0623061F49A
:103150009FB7F8943881822F809583238883EC91E0
:103160002E2B2C939FBF06C08FB7F894E8812E2B8F
:1031700028838FBFDF91CF9108953FB7F894809156
:10318000C4029091C502A091C602B091C70226B5B3
:10319000A89B05C02F3F19F00196A11DB11D3FBF8F
:1031A000BA2FA92F982F8827820F911DA11DB11D1D
:1031B000BC01CD0142E0660F771F881F991F4A9519
:1031C000D1F708958F929F92AF92BF92CF92DF92E4
:1031D000EF92FF926B017C010E94BD184B015C01D4
:1031E000C114D104E104F104F1F00E94BD18DC0126
:1031F000CB0188199909AA09BB09883E9340A1050A
:10320000B10570F321E0C21AD108E108F10888EE97
:10321000880E83E0981EA11CB11CC114D104E104E6
:10322000F10419F7DDCFFF90EF90DF90CF90BF90C2
:10323000AF909F908F9008952FB7F8946091C0023F
:103240007091C1028091C2029091C3022FBF089574
:103250001F920F920FB60F9211242F933F938F93CB
:103260009F93AF93BF938091C0029091C102A091B0
:10327000C202B091C3023091BF0223E0230F2D3769
:1032800020F40196A11DB11D05C026E8230F02966A
:10329000A11DB11D2093BF028093C0029093C10273
:1032A000A093C202B093C3028091C4029091C50260
:1032B000A091C602B091C7020196A11DB11D8093D5
:1032C000C4029093C502A093C602B093C702BF91F7
:1032D000AF919F918F913F912F910F900FBE0F90C3
:1032E0001F9018958230E8F4E82FF0E0EE0FFF1FF2
:1032F000E75EFE4F71836083813041F08091690009
:103300008C7F482B40936900E89A0895809169006A
:10331000440F551F440F551F837F482B409369006E
:10332000E99A0895CF93DF93EC016115710561F07F
:10333000FB0101900020E9F73197AF01461B570BC5
:103340000E945417811103C0CE010E948217CE0142
:10335000DF91CF910895CF93DF93EC01FB0144817E
:103360005581608171810E945417811103C0CE0183
:103370000E948217CE01DF91CF910895EF92FF92C4
:103380000F931F93CF93DF93EC017B018A01BA0166
:103390000E942D17811104C0CE010E94821707C020
:1033A0001D830C83B701888199810E945735CE0116
:1033B000DF91CF911F910F91FF90EF900895FC0145
:1033C000808191810C94E733EF92FF920F931F93CA
:1033D000CF93DF93CDB7DEB762970FB6F894DEBF19
:1033E0000FBECDBF8C01CB01F80111821082138278
:1033F00012821582148250E09E012F5F3F4F7901A7
:10340000B9010E947635F70101900020E9F7319764
:10341000AF014E195F09B701C8010E94BE1962963B
:103420000FB6F894DEBF0FBECDBFDF91CF911F91D5
:103430000F91FF90EF900895FC011182108213828A
:103440001282158214826115710551F0FB01019001
:103450000020E9F73197AF01461B570B0C94BE19BA
:1034600008951F920F920FB60F9211242F933F933E
:103470004F935F936F937F938F939F93AF93BF937C
:10348000EF93FF93E0911B01F0911C010995FF91CF
:10349000EF91BF91AF919F918F917F916F915F91CC
:1034A0004F913F912F910F900FBE0F901F90189545
:1034B0001F920F920FB60F9211242F933F934F93A9
:1034C0005F936F937F938F939F93AF93BF93EF938C
:1034D000FF93E0911901F0911A010995FF91EF9185
:1034E000BF91AF919F918F917F916F915F914F911C
:1034F0003F912F910F900FBE0F901F9018954F92F4
:103500005F926F927F92EF92FF920F931F93CF93F0
:10351000DF93CDB7DEB7A1970FB6F894DEBF0FBE2D
:10352000CDBF7C01FA01CB0119A2223008F42AE0B8
:103530008E010F5D1F4F422E512C612C712CBF014B
:10354000A30192010E944337F901CA0101501109F8
:103550006A3014F4605D01C0695CD8016C93232B60
:10356000242B252B61F7B801C7010E940E05A196F7
:103570000FB6F894DEBF0FBECDBFDF91CF911F9184
:103580000F91FF90EF907F906F905F904F90089514
:1035900060E272E00C940E05EF92FF920F931F937E
:1035A000CF93DF938C017B01C0E0D0E0F701EC0FFB
:1035B000FD1F6491662361F0D801ED91FC910190AB
:1035C000F081E02DC8010995892B11F02196EECFED
:1035D000CE01DF91CF911F910F91FF90EF90089551
:1035E0000F931F93CF93DF93EC010E94CC1A8C01B1
:1035F000CE010E94C81A800F911FDF91CF911F91B9
:103600000F91089585ED8093BC008091BC0084FDEE
:10361000FCCF10926106089540911C04262F30E0E3
:10362000240F311D21323105DCF420916106243054
:10363000C9F4FC0180E090E0861758F430911C0436
:103640002191DC01A650BC4FA30FB11D2C93019614
:10365000F3CF80911C04680F60931C0480E00895F0
:1036600081E0089582E008950895E0911A0680911E
:103670001906E81730F4F0E0E55EF94F808190E03C
:1036800008958FEF9FEF089590911A068091190683
:10369000981750F4E92FF0E0E55EF94F208130E013
:1036A0009F5F90931A0602C02FEF3FEFC901089564
:1036B0008091190690E020911A06821B91090895C5
:1036C000CF92DF92EF92FF920F931F93CF93DF93EE
:1036D0007C01262F972F8A0180916206882391F022
:1036E000C62FD72F6E01C40ED51ECC15DD0571F087
:1036F0006991D701ED91FC910190F081E02DC70116
:103700000995F3CF642F822F0E940C1BC801DF9113
:10371000CF911F910F91FF90EF90DF90CF90089580
:10372000CF93DF931F92CDB7DEB7698320916206F6
:103730002223D1F020918406203240F021E030E0B5
:10374000FC013383228380E090E015C08091630602
:10375000E82FF0E0EC59F94F998190838F5F8093C7
:1037600063068093840605C061E0CE0101960E9445
:103770000C1B81E090E00F90DF91CF910895FC0148
:10378000638708950F931F93CF93DF938C01EB0111
:1037900088E2FB0111928A95E9F74BE050E06AE676
:1037A00072E0CE010E945E351B8681E090E0A0E0D1
:1037B000B0E08C879D87AE87BF87F80184859585AB
:1037C000A685B785888B998BAA8BBB8B82E090E00E
:1037D000A0E0B0E08C8B9D8BAE8BBF8B1CA21DA29A
:1037E0001EA21FA2188E198E1A8E1B8E1C8E1D8E65
:1037F0001E8E1F8E18A219A21AA21BA2DF91CF91B2
:103800001F910F9108950F931F93CF93DF938C0116
:10381000EB0188E2FB0111928A95E9F74BE050E059
:103820006AE672E0CE010E945E351B8641E050E000
:1038300060E070E04C875D876E877F87F801818547
:103840009285A385B485888B998BAA8BBB8B4C8B77
:103850005D8B6E8B7F8B1CA21DA21EA21FA2188ED9
:10386000198E1A8E1B8E1C8E1D8E1E8E1F8E18A2F8
:1038700019A21AA21BA2DF91CF911F910F91089557
:103880007F928F929F92AF92BF92CF92DF92EF92F0
:10389000FF920F931F93CF93DF938C01EB0184E290
:1038A000FB0111928A95E9F789E10E94462968EAAD
:1038B00085E896E00E94901B0E94E92866E089E175
:1038C0000E9450298091190690E020911A06821BCF
:1038D000910986309105ECF385E896E00E94441B3F
:1038E000882E85E896E00E94441B782E85E896E0B5
:1038F0000E94441BA82E85E896E00E94441B982E47
:1039000085E896E00E94441BB82E85E896E00E9468
:10391000441BD72CC12CC82824E0D594C7942A95E1
:10392000E1F7F801D482C382F92CE12CEA2834E0D3
:10393000F594E7943A95E1F7F682E582982F882787
:103940008B2954E0959587955A95E1F79087878361
:1039500084E290E0A0E0B0E088839983AA83BB83EF
:1039600081859285A385B4858C839D83AE83BF8337
:1039700081E090E0A0E0B0E088879987AA87BB87C4
:103980000E941C19688B798B8A8B9B8BF801638151
:103990007481072E000C880B990B0E94BD352FE611
:1039A00032E143E85AE30E941C362AE038EE4CE14B
:1039B00051E40E941C366C8B7D8B8E8B9F8BF801A3
:1039C00065817681072E000C880B990B0E94BD350E
:1039D0002FE632E143E85AE30E941C362AE038EE33
:1039E0004CE151E40E941C36688F798F8A8F9B8F3F
:1039F000F80167817085072E000C880B990B0E94D7
:103A0000BD352FE632E143E85AE30E941C362AE036
:103A100038EE4CE151E40E941C366C8F7D8F8E8F06
:103A20009F8F81E0DF91CF911F910F91FF90EF90D9
:103A3000DF90CF90BF90AF909F908F907F90089530
:103A40008F929F92AF92BF92CF92DF92EF92FF92AE
:103A50000F931F93CF93DF93CDB7DEB72A970FB69F
:103A6000F894DEBF0FBECDBF1A82198215E000E0C8
:103A7000E8EE8E2EE3E09E2EA12CB12C0E94BD1804
:103A80006B017C010E946C2B009769F1011102C04F
:103A900060E01FC0602F462F50E0FA013197EE0F13
:103AA000FF1F21E030E02C0F3D1FE20FF31F2081AC
:103AB00031812817390768F4440F551FE1E0F0E021
:103AC000EC0FFD1FE40FF51F31832083615019F7C0
:103AD000DFCFFE013196E60FF11DE60FF11D918358
:103AE00080830F5F01C01150011738F50E94BD1887
:103AF000DC01CB018C199D09AE09BF0988349147BF
:103B0000A105B10508F0BACF0E94BD1848E4C40E63
:103B100041E7D41EE11CF11CA7019601261B370BBF
:103B2000480B590BCA01B901A50194010E94433702
:103B3000CA01B9010E94E218A1CF1E7FFE01E10F68
:103B4000F11D6181728180E090E02A960FB6F894B1
:103B5000DEBF0FBECDBFDF91CF911F910F91FF90C0
:103B6000EF90DF90CF90BF90AF909F908F9008958F
:103B700064EA76E084EA96E00E9441146CE271E027
:103B800080E090E00E94E2186CED75E08CED95E02D
:103B90000C9441140F931F93CF93DF9300D000D068
:103BA000CDB7DEB7AB01BC0177FF1BC08DE2498307
:103BB0005A836B837C830E94E4298C0149815A815A
:103BC0006B817C8170956095509541955F4F6F4FEB
:103BD0007F4F2AE081E996E00E947F1A080F191FA3
:103BE00006C02AE081E996E00E947F1A8C0181E9F3
:103BF00096E00E94C81A800F911F0F900F900F90AF
:103C00000F90DF91CF911F910F9108951F920F9206
:103C10000FB60F9211242F933F934F935F936F939F
:103C20007F938F939F93AF93BF93EF93FF93809175
:103C3000B900887F803609F49CC068F5883209F4A1
:103C40005BC090F4803109F454C038F4882309F43F
:103C5000F6C0883009F44DC0F6C0883109F44CC074
:103C6000803209F45DC0EFC0803409F468C048F4C4
:103C7000803309F455C0883309F0E5C080935F06AE
:103C8000D8C0803509F44FC0883509F45DC0883448
:103C900009F0D9C0D6C0883909F4C7C0A8F488375C
:103CA00009F467C038F4883609F463C0803709F432
:103CB00060C0C9C0883809F4B8C0803909F45FC051
:103CC000803809F0C0C05BC0803B09F486C038F47E
:103CD000803A09F466C0883A09F47FC0B4C0803CD9
:103CE00009F4A7C0883C09F4A4C0883B09F48AC041
:103CF000AAC080913C0610C090915E0680915D063E
:103D0000981770F5E0915E0681E08E0F80935E0655
:103D1000F0E0E35CF94F80818093BB0085EC86C0C6
:103D200080935F068EC0E0915E0681E08E0F8093E7
:103D30005E068091BB00F0E0E35CF94F80839091D8
:103D40005E0680915D066EC0E0915E0681E08E0F9A
:103D500080935E068091BB00F0E0E35CF94F8083C6
:103D60008091600681116DC081E080933B0684EAFA
:103D700061C083E08093610610924004CFCF8091B0
:103D80004004803208F051C0E091400481E08E0F81
:103D9000809340048091BB00F0E0E05EFB4F8083A5
:103DA000BDCF85EC8093BC001092610680914004E9
:103DB000803230F4E0914004F0E0E05EFB4F10828E
:103DC0006091400470E0E0911E04F0911F0480E2D5
:103DD00094E009951092400436C084E08093610617
:103DE00010921D0410921C04E0911A04F0911B041F
:103DF000099580911C04811105C081E080931C0409
:103E00001092FA03E0911D0481E08E0F80931D044F
:103E1000F0E0E650FC4F80818093BB0090911D0440
:103E200080911C04981708F479CF85E88093BC0032
:103E30000AC085EC8093BC001092610604C0109209
:103E40005F060E94021BFF91EF91BF91AF919F917E
:103E50008F917F916F915F914F913F912F910F9033
:103E60000FBE0F901F9018950F931F93CF93DF9362
:103E70008C01EB018EE10E94462961E085E896E025
:103E80000E94901B6C2F85E896E00E94901B0E9478
:103E9000E928F801D287C187C038D10509F45BC091
:103EA000DCF4C034D105A9F1C036D10509F442C013
:103EB000A09709F08AC080E090E8A9E8B4E4809374
:103EC000150190931601A0931701B093180180E09B
:103ED00090E0A5E7B4E471C0C03CD10509F44CC042
:103EE000C03ED10509F459C0C03AD10509F06DC0F2
:103EF00080E090E0A8ECB3E4809315019093160164
:103F0000A0931701B093180180E090E8A1EBB3E40F
:103F100054C080E090ECA5E5B4E480931501909343
:103F20001601A0931701B093180180E090E0AEE372
:103F3000B4E443C080E090E8A7E2B4E480931501C4
:103F400090931601A0931701B093180180E090E0C0
:103F5000A6E1B4E432C080E090E0A1EEB3E4809347
:103F6000150190931601A0931701B093180180E0FA
:103F700090E0A8ECB3E421C080E090E0A5EAB3E4CF
:103F80008093150190931601A0931701B093180127
:103F900080E090E8A3E9B3E410C080E090E0A6E6FA
:103FA000B3E48093150190931601A0931701B09389
:103FB000180180E090E0ADE4B3E4809311019093A8
:103FC0001201A0931301B0931401DF91CF911F91BF
:103FD0000F9108955F926F927F928F929F92AF920E
:103FE000BF92CF92DF92EF92FF920F931F93CF93E6
:103FF000DF93EC018B0184E2FB0111928A95E9F7D2
:1040000089E00E94C12980FF00C18EE10E944629FB
:1040100063E085E896E00E94901B0E94E92866E034
:104020008EE10E9450298091190690E020911A0695
:10403000821B910986309105ECF385E896E00E9499
:10404000441B582E85E896E00E94441B682E85E8A4
:1040500096E00E94441B882E85E896E00E94441B4F
:10406000982E85E896E00E94441B782E85E896E01D
:104070000E94441BF52CE12CA70146295C834B834D
:10408000D72CC12C9601282B3E832D83B82CA12C34
:10409000C501892998878F836B85662309F440C001
:1040A000B9016950784F31E06F3E7F4008F430E04D
:1040B0004950584F21E04F3E5F4008F420E0232B49
:1040C00029F48950984F8F3E9F4050F189859A85F9
:1040D00080369105E1F04CF480329105D9F08034BE
:1040E0009105F1F460E670E017C0803A910561F047
:1040F000803C910531F08038910591F460EA70E0E0
:104100000BC060EE70E008C060EC70E005C060E8D5
:1041100070E002C060E470E0CE010E94341F70CFF6
:1041200084E290E0A0E0B0E0F80180839183A28374
:10413000B3838C859D85AE85BF8584839583A68357
:10414000B78382E090E0A0E0B0E080879187A2870B
:10415000B3870E941C19F801608B718B828B938B43
:10416000C0901501D0901601E0901701F090180151
:104170006B817C81072E000C880B990B0E94BD354A
:10418000A70196010E94DE3120E030E048EC52E4C5
:104190000E941C36F801648B758B868B978B6D8122
:1041A0007E81072E000C880B990B0E94BD35A7015C
:1041B00096010E94DE3120E030E048EC52E40E949B
:1041C0001C36F801608F718F828F938F6F81788595
:1041D000072E000C880B990B0E94BD352091110110
:1041E0003091120140911301509114010E94DE316F
:1041F00020E030E048EC52E40E941C36F801648F65
:10420000758F868F978F81E001C080E0DF91CF911D
:104210001F910F91FF90EF90DF90CF90BF90AF90E4
:104220009F908F907F906F905F900895FC01908198
:104230009C3080F5818128E830E0281B310987FD1A
:104240003395220F331F220F331F621773077CF041
:10425000828128E532E0281B310987FD3395220F42
:10426000331F220F331F621773070CF49B01225078
:104270003109220F331F4FB7F894892F90E0FC01CA
:10428000EE0FFF1F8E0F9F1FFC01EA52FC4F32837F
:1042900021834FBF08951F93CF93DF93EC01162F17
:1042A00088818C3008F04EC061E0812F0E94811817
:1042B0008881E82FF0E09F01220F331FE20FF31FE8
:1042C000EA52FC4F1F739081907C192B1083198246
:1042D0001A826CE00E94BE309CE0899FB0011124DC
:1042E00040E050E09A01260F371FF901EE0FFF1F43
:1042F0002E0F3F1FF901EA52FC4F908196FD16C028
:104300004F5F5F4F4C30510569F781110FC010921C
:10431000800082E0809381001092850010928400DA
:10432000B19A80916F00826080936F00E881F0E025
:10433000CF01880F991FE80FF91FEA52FC4F8081C7
:10434000806480838881DF91CF911F910895FC0163
:104350009091D5039C30A0F481E0890F8093D50320
:104360009083892F90E0FC01EE0FFF1F8E0F9F1F9F
:10437000FC01EA52FC4F88EB9BE092838183089515
:104380008FEF808308951F920F920FB60F92112422
:104390002F933F934F935F936F937F938F939F934D
:1043A000AF93BF93EF93FF938091D40387FF05C032
:1043B00010928500109284001BC02091D403022E1D
:1043C000000C330B8091D50390E02817390784F453
:1043D0008091D403082E000C990BFC01EE0FFF1FF7
:1043E0008E0F9F1FFC01EA52FC4F808186FD15C095
:1043F0008091D4038F5F8093D4032091D403022E45
:10440000000C330B8091D50390E028173907C4F4D2
:104410008091D4038C3064F113C08091D403082EB2
:10442000000C990BFC01EE0FFF1F8E0F9F1FFC016C
:10443000EA52FC4F808160E08F730E943518D8CF1C
:104440008091840090918500049680349C4918F4F2
:1044500080E49CE905C080918400909185000496D9
:1044600090938900809388008FEF8093D4033BC0A2
:1044700020918400309185008091D403082E000C97
:10448000990BFC01EE0FFF1F8E0F9F1FFC01EA52DC
:10449000FC4F81819281820F931F909389008093BA
:1044A00088008091D403082E000C990BFC01EE0FBC
:1044B000FF1F8E0F9F1FFC01EA52FC4F808186FF79
:1044C00012C08091D403082E000C990BFC01EE0F52
:1044D000FF1F8E0F9F1FFC01EA52FC4F808161E09D
:1044E0008F730E943518FF91EF91BF91AF919F910B
:1044F0008F917F916F915F914F913F912F910F908D
:104500000FBE0F901F9018950F931F93CF93DF93BB
:10451000FC0141814032B8F58C012091D30330E099
:10452000E9012196C770DD278091D2038C17C1F075
:1045300051E2529FC001539F900D1124FC01E6539C
:10454000FD4F108250E04F5F5F4FB8016F5F7F4FAC
:1045500085539D4F0E944E35C093D303C1E001C0E7
:10456000C0E08091C904882339F081E792E00E947D
:104570009328C8010E94DC2660E0809134070E94E5
:1045800035188C2F01C080E0DF91CF911F910F91E2
:104590000895E6EFF5E025E021832FE02283948360
:1045A000838376836583CF010C94842208952091C0
:1045B0002E0730912F0780913007909131072817EF
:1045C000390749F0E0913007F0913107EB59FB4F83
:1045D000808190E008958FEF9FEF089520912E073E
:1045E00030912F07809130079091310728173907B4
:1045F000E9F0E0913007F0913107EB59FB4F8081F2
:1046000020913007309131072F5F3F4F30933107B2
:104610002093300720913007309131072F733327D3
:10462000309331072093300790E008958FEF9FEF8C
:10463000089580912E0790912F0720913007309197
:104640003107821B930B8F7399270895FC016787AD
:1046500008950F931F93CF93DF938C01EB0188E2B2
:10466000FB0111928A95E9F74BE050E063E772E0B5
:10467000CE010E945E351B8681E090E0A0E0B0E0B4
:104680008C879D87AE87BF87F80183859485A58534
:10469000B685888B998BAA8BBB8B84E090E0A0E0D9
:1046A000B0E08C8B9D8BAE8BBF8B1CA21DA21EA27B
:1046B0001FA201851285B80180E090E00E94BB3501
:1046C00025E33AEF4EE85CE30E941C36688F798F51
:1046D0008A8F9B8FB801110F880B990B0E94BD35F3
:1046E000905825E33AEF4EE85CE30E941C366C8F4D
:1046F0007D8F8E8F9F8F18A219A21AA21BA2DF9105
:10470000CF911F910F9108952F923F924F925F92F8
:104710006F927F928F929F92AF92BF92CF92DF92D1
:10472000EF92FF920F931F93CF93DF93CDB7DEB736
:104730002A970FB6F894DEBF0FBECDBF8C017A87E3
:10474000698784E2FB0111928A95E9F7F8011482E6
:104750001382168215821086178284E290E0A0E010
:10476000B0E0E985FA8580839183A283B383F80161
:1047700083859485A585B685E985FA8584839583A7
:10478000A683B78384E090E0A0E0B0E080879187C3
:10479000A287B3870E941C19E985FA85608B718B0B
:1047A000828B938B8BE60E94462968EA85E896E027
:1047B0000E94901B0E94E9288111ECCF66E08BE6F5
:1047C0000E94502985E896E00E94441BB82E85E897
:1047D00096E00E94441BA82E85E896E00E94441BA8
:1047E000D82E85E896E00E94441BC82E85E896E006
:1047F0000E94441BF82E85E896E00E94441BE82E98
:10480000AA82198289819A818B295C01B5010B2CBE
:10481000000C880B990B0E94BD35E985FA85648BE5
:10482000758B868B978BCC821B828B819C818D298B
:104830006C01B6010D2C000C880B990B0E94BD3544
:10484000E985FA85608F718F828F938FEE821D824A
:104850008D819E818F297C01B7010F2C000C880B64
:10486000990B0E94BD35E985FA85648F758F868F17
:10487000978FF801B482A382D682C582F086E78240
:10488000878521843284882309F491C0E985FA85DB
:104890004488558866887788808C918CA28CB38CEC
:1048A000C48CD58CE68CF78CF1E0FF8320E030EFF0
:1048B0004FEF56ECC301B2010E94B63518160CF446
:1048C0001F8281E0888720E030EF4FEF56E4C3017C
:1048D000B2010E94E13287FD188668849F81692AAF
:1048E0007724739420E030EF4FEF56E4C501B40114
:1048F0000E94E13287FD712C67287724739420E0B1
:1049000030EF4FEF56ECC501B4010E94B6351816D2
:104910000CF4712C7628BB24B39420E030EF4FEFD9
:1049200056E4C701B6010E94E13287FDB12C7B2815
:1049300051F420E030EF4FEF56ECC701B6010E9472
:10494000B6351816A4F1EAEF2E163104B1F0F4EFE3
:104950002F16F1E03F0659F580ED97E0F8019287B8
:10496000818740E060E2C8010E9494174FE060E256
:10497000C8010E94941740E210C084EF91E0F80152
:104980009287818740E060E2C8010E9494174FE05F
:1049900060E2C8010E94941740E163E2C8010E94EE
:1049A000941740E864E2C8010E949417F3CE94EF94
:1049B000291691E0390691F1E0ED2E16E7E03E066A
:1049C00009F453C0FAEF2F16310409F080C029E230
:1049D0003CE54FE05CE3E985FA8564897589868961
:1049E00097890E941C36E985FA85648B758B868BC6
:1049F000978B29E23CE54FE05CE3608D718D828D01
:104A0000938D0E941C36E985FA85608F718F828FA5
:104A1000938F29E23CE54FE05CE34DC029E23CE5A1
:104A20004FE85CE3E985FA85648975898689978909
:104A30000E941C36E985FA85648B758B868B978B73
:104A400029E23CE54FE85CE3608D718D828D938DAA
:104A50000E941C36E985FA85608F718F828F938F53
:104A600029E23CE54FE85CE326C029E23CE54FE85B
:104A70005DE3E985FA8564897589868997890E944D
:104A80001C36E985FA85648B758B868B978B29E2BA
:104A90003CE54FE85DE3608D718D828D938D0E94C2
:104AA0001C36E985FA85608F718F828F938F29E29A
:104AB0003CE54FE85DE3648D758D868D978D0E9492
:104AC0001C36E985FA85648F758F868F978F25E36D
:104AD0003AEF4EE85CE3E985FA8564897589868951
:104AE00097890E941C36E985FA85648B758B868BC5
:104AF000978B25E33AEF4EE85CE3608D718D828DF4
:104B0000938D0E941C36E985FA85608F718F828FA4
:104B1000938F25E33AEF4EE85CE3648D758D868DC7
:104B2000978D0E941C36E985FA85648F758F868F74
:104B3000978F81E02A960FB6F894DEBF0FBECDBFE7
:104B4000DF91CF911F910F91FF90EF90DF90CF9069
:104B5000BF90AF909F908F907F906F905F904F909D
:104B60003F902F90089520913307022E000C330BB5
:104B70002330310529F022303105C1F430E001C085
:104B800031E02DB3882341F081E090E001C0880F2F
:104B90003A95EAF7822B08C081E090E001C0880FC7
:104BA0003A95EAF7809582238DBB0895FFCF0F9346
:104BB0001F93CF93DF93CDB7DEB7A1970FB6F894CD
:104BC000DEBF0FBECDBF83B78E7F83BFE09164048D
:104BD000E23070F4E13011F0E89801C0E998F0E0BB
:104BE000EE0FFF1FE75EFE4F8AE297E1918380831D
:104BF00080914204882399F02FB7F8948091420461
:104C0000813059F48DB38093C8049DB380914104E1
:104C1000809589238DBB2FBF02C02093C80481E7F4
:104C20008CBD81E08DBD60E0809134070E94351815
:104C30008091D2039091D303891709F4B0C090E01A
:104C400021E2289FF001299FF00D1124E653FD4F2A
:104C5000DE01119601900D922A95E1F70196877079
:104C600099278093D2038A818EBD00000DB407FE80
:104C7000FDCF8EB5809343048B818EBD00000DB4B3
:104C800007FEFDCF8EB5809344049A81992349F0A5
:104C9000292F30E0482F50E04217530714F48FEFCC
:104CA000890F803208F08FE1A5E4B4E09E012C5F0B
:104CB0003F4FF9019E2F921B981748F491919EBD8A
:104CC00000000DB407FEFDCF9EB59D93F3CF61E0CC
:104CD000809134070E94351880914204882361F046
:104CE0009FB7F894209142048091C804213019F4B0
:104CF0008DBB9FBF01C08FBF83B7816083BF40E082
:104D000050E067ED75E2809164040E947219909101
:104D1000D2038091D303981729F060E08091340783
:104D20000E943518409144044423D9F12091D305C1
:104D300030E089010F5F1F4F077011278091D20566
:104D4000801761F151E2529FC001539F900D1124D1
:104D5000FC01E653FB4F108250E04F5F5F4F64E46D
:104D600074E085539B4F0E944E350093D305F89411
:104D70008091D3058F5F87709091D20578948913C5
:104D800010C080E0A1960FB6F894DEBF0FBECDBF75
:104D9000DF91CF911F910F910C94B325FFCF1A8211
:104DA00062CFA1960FB6F894DEBF0FBECDBFDF91E4
:104DB000CF911F910F9108950F931F93CF93DF937E
:104DC0008C01FC01D1814D2F50E060E070E02AE0C1
:104DD00081E996E00E947F1A8AE792E00E94932878
:104DE000C0E0F801EC0FF11D418150E060E070E09F
:104DF00020E181E996E00E947F1A6FE674E081E984
:104E000096E00E94CC1ACF5FDC1758F76EE674E08C
:104E100081E996E0DF91CF911F910F910C94F01AE8
:104E20000F931F93CF93DF93EC0186EA94E00E94E7
:104E3000802A882309F430C1E091A8048E2F90E0E5
:104E4000FC01E158F109ED30F10508F025C1EC5CF9
:104E5000FF4F0C94DE308091AB048093DB05809192
:104E6000A904823019F08330B9F116C18091D905B7
:104E7000893010F460E01BC000E010E028E830E06A
:104E80009091D905892F869586958695181740F4B7
:104E9000602F88E00E94032B9C011F5F085FF0CF0A
:104EA000892F877039F0612F660F660F660F0E9499
:104EB000032B9C012230310509F4EEC08889882338
:104EC00009F4EAC06BE574E081E996E0DF91CF91E7
:104ED0001F910F910C94F01AA0911D01B0911E0129
:104EE0008C91882309F456C0FD0101900020E9F758
:104EF0003197AF014A1B5B0B6DE171E081E00E94CD
:104F00006A3048C08091AA048823A1F08889882348
:104F100081F06EE474E081E996E00E94CC1A809101
:104F2000A9040E94572B66E174E081E996E00E9493
:104F3000F01AFFCF8091A904893009F0ADC049E093
:104F40006BEA74E084E0DF91CF911F910F910C9494
:104F50006A308091DB058093DE0581E08093F70560
:104F600089E08093F80586EF95E00E94842285E829
:104F70008D8BEC85FD85309709F009958091E505CD
:104F800083FF8AC079C086E88D8BEC85FD853097DC
:104F900009F009956B897C8989899A890E94C922BF
:104FA00081E88D8BEC85FD85309709F475C0DF9124
:104FB000CF911F910F9109946091A704625020E056
:104FC00030E0462F50E0241735070CF580912E076E
:104FD00090912F0701968F739927E0913007F091F8
:104FE00031078E179F0781F0E0912E07F0912F0770
:104FF000EB59FB4FD901AA55BB4F14967C91708396
:1050000090932F0780932E072F5F3F4FDCCFEE85C5
:10501000FF85309709F440C08AEA94E0DF91CF9190
:105020001F910F9109949091A9048091DE05890F39
:1050300020C088898823D1F06AEF73E081E996E087
:105040000E94CC1A4091A90450E060E070E02AE090
:1050500081E996E00E947F1A64EE73E081E996E0B0
:105060000E94CC1A8091AA040E94572B8091DE05E1
:105070008F5F8093DE0510C08091A50481110CC064
:10508000C1E0C093F70583E18093F80586EF95E0D2
:105090000E948422C093A504DF91CF911F910F91AC
:1050A00008950F931F93CF93DF931F92CDB7DEB771
:1050B0008C0169838091DE0581110AC0C8010E94BC
:1050C00010276AE070E080E090E00E94E218F2CFE2
:1050D0006FEC73E081E996E00E94CC1A89810E940E
:1050E000572B8091E50583FF13C061E0CE01019647
:1050F0000E942D2A8091DE0581508093DE0563E2B7
:1051000070E080E090E00E94E21881E090E005C04D
:10511000C8010E94102780E090E00F90DF91CF91AE
:105120001F910F910895BC0181E996E00C940E0542
:10513000CF92DF92EF92FF92BC01603282E078075B
:105140000CF03FC077FD06C0653B71052CF064EBA9
:1051500070E002C060E070E08091A00728E830E0D5
:105160006901C81AD10887FDD394CC0CDD1CCC0C86
:10517000DD1C0D2C000CEE08FF088091A10728E52E
:1051800032E0281B310987FD3395220F331F220F90
:10519000331FC901330FAA0BBB0B9C01AD012C19A6
:1051A0003D094E095F09DB010E94043724EB30E022
:1051B00040E050E00E94DA36C20ED31EE41EF51E17
:1051C000B6018FE997E0FF90EF90DF90CF900C94BD
:1051D00016212091840690911408213208F04AC0CB
:1051E000809161068111FCCF32E03093610631E09D
:1051F000309360063FEF30935F0610925E06209377
:105200005D06A4E6B6E04DE356E0FA013E2F341BFE
:10521000321718F43D913193F9CF10923C0620914A
:105220003C06990F922B90933C0690913B0691304F
:1052300061F410923B0690913C069093BB009091D4
:10524000BC0093FDF8CF95EC01C095EE9093BC00A7
:10525000909161069230E1F390915F069F3F79F063
:1052600080915F06803241F080915F06803331F09B
:1052700084E005C081E003C082E001C083E01092B9
:1052800063061092840610926206089591E090934E
:1052900062068093140810926306109284060895A3
:1052A000909161069111FCCF613208F060E291E0CB
:1052B00090936106909360062FEF20935F06109203
:1052C0005E06260F20935D0690933C0690913C0667
:1052D000880F892B80933C0680913B06813061F4D6
:1052E00010923B0680913C068093BB008091BC00ED
:1052F00083FDF8CF85EC01C085EE8093BC008091E2
:1053000061068130E1F380915E06861710F46091AA
:105310005E06ADE3B6E02BE136E0F9018E2F821B8D
:10532000861718F48D918193F9CF10921A06609325
:105330001906862F089510921A06109219061092D7
:105340006306109284061092610681E080936006E5
:1053500010923B0661E082E10E94351861E083E132
:105360000E943518E9EBF0E080818E7F8083808198
:105370008D7F808388E48093B80085E48093BC00AF
:1053800008951F93CF93DF931F92CDB7DEB7682F99
:105390008EE169830E944629698185E896E00E9432
:1053A000901B0E94E92861E08EE10E94502985E867
:1053B00096E00E94441B182F0E94E928812F0F902D
:1053C000DF91CF911F910895E0919106F09192069F
:1053D0000190F081E02D682F81E996E009940F9308
:1053E0001F93CF93DF9300D000D0CDB7DEB7AC01D1
:1053F000990F660B770B77FF1BC08DE249835A83A9
:105400006B837C830E94E4298C0149815A816B81E2
:105410007C8170956095509541955F4F6F4F7F4FA0
:105420002AE081E996E00E947F1A080F191F06C042
:105430002AE081E996E00E947F1A8C0181E996E0DA
:105440000E94C81A800F911F0F900F900F900F901D
:10545000DF91CF911F910F910895EF92FF921F93CB
:10546000CF93DF93CDB7DEB765970FB6F894DEBF65
:105470000FBECDBFE0911706F09118062781308549
:105480002230310519F02430310569F5653158F5C0
:10549000162FBC01E12EF12CA701CE0102960E942D
:1054A0004E351E5F1093F70585E18093F80583E084
:1054B0008093F905A701BE016E5F7F4F8AEF95E0EB
:1054C0000E944E351092130886EF95E065960FB650
:1054D000F894DEBF0FBECDBFDF91CF911F91FF903B
:1054E000EF900C94842280E065960FB6F894DEBFAE
:1054F0000FBECDBFDF91CF911F91FF90EF90089528
:105500000F931F93CF93DF93EC01F8941091D30581
:105510000091D2057894E091D2058091D305E817E7
:1055200049F181E28E9FF0011124E653FB4FDE0129
:1055300001900D928A95E1F78091D20590E0019655
:10554000877099278093D2058091C904882339F008
:105550008DE792E00E949328CE010E94DC26812FE5
:1055600090E0019687709927081306C081E00E9499
:10557000B32502C080E001C081E09A819838A9F08B
:10558000993851F19638D1F5EDEEF5E098E09E0F9F
:10559000DF0118971C9211929E13FACF1092F50515
:1055A0009091DB059093DE0529C0FE013B96ADEEA0
:1055B000B5E0AE014D5E5F4F9F0128503109E90112
:1055C00098819D0128503109E901988391919D931B
:1055D000E417F50789F712C02B813C813093E00571
:1055E0002093DF052D813E813093E2052093E10574
:1055F0002F8138853093E4052093E305DF91CF9127
:105600001F910F910895EF92FF920F931F93CF93E5
:10561000DF93F82E81E2689FE001112400E010E0A2
:10562000E12CEF1421F198012C0F3D1F6091D7055B
:105630007091D805620F731FFB013196449150E0C1
:105640004E5F5F4F82EF97E00E946D3582EF97E0EB
:105650000E9484220F5D1F4F811107C062E774E032
:1056600081E996E00E94F01A19C0E394DACFC0E015
:1056700080ED97E00E94802A8823D1F3CF5F80914C
:10568000D207843859F49091D4078FEF890F823074
:1056900010F4FC12EDCF892F90E002C081E890E079
:1056A000DF91CF911F910F91FF90EF900895CF93CD
:1056B000DF93482F50E060E070E020E181E996E060
:1056C0000E947F1AEC0181E996E00E94C81A8C0FB3
:1056D0009D1FDF91CF9108950F931F93E0915C0779
:1056E000F0915D07908180915607892B8083E0912E
:1056F0005807F0915907908180915607809589232A
:1057000080838BE090E00197F1F7E0915807F091EA
:105710005907908180915607892B808383E290E01E
:105720000197F1F7E0915807F09159079081809126
:105730005607809589238083E0915C07F0915D078F
:10574000908180915607809589238083E0915A0744
:10575000F0915B07908180915707892309F073C00E
:105760000E94BD1820915E0730915F07890120E0FB
:1057700030E00855194E2F4F3F4FDC01CB01800F11
:10578000911FA21FB31F8093600790936107A0939E
:105790006207B0936307E0915A07F0915B0790812D
:1057A00080915707892381F40E94BD1800916007FA
:1057B0001091610720916207309163070617170760
:1057C0002807390740F73FC00E94BD1820915E07A7
:1057D00030915F07DC01CB01820F931FA11DB11D2A
:1057E0008093600790936107A0936207B09363076B
:1057F000E0915A07F0915B079081809157078923C8
:1058000081F00E94BD1800916007109161072091FE
:10581000620730916307061717072807390740F713
:1058200012C00E94BD1820915E0730915F0725507D
:1058300031094091600750916107241B350BC90164
:10584000860F971F02C080E090E01F910F9108958E
:105850000895CF93DF9300D000D000D0CDB7DEB74E
:10586000789484B5826084BD84B5816084BD85B53B
:10587000826085BD85B5816085BD80916E00816047
:1058800080936E00109281008091810082608093ED
:1058900081008091810081608093810080918000EF
:1058A0008160809380008091B10084608093B1001A
:1058B0008091B00081608093B00080917A00846014
:1058C00080937A0080917A00826080937A00809140
:1058D0007A00816080937A0080917A00806880935A
:1058E0007A001092C10061E088E00E94351880E0E3
:1058F00095E090931C0180931B0180916900837F48
:10590000886080936900E99AE091A106F091A2066F
:1059100082E08083E0919D06F0919E061082E091E6
:105920009F06F091A0068FEC80831092A906E0916B
:10593000A506F091A60686E08083E091A306F0918B
:10594000A406808180618083E091A306F091A40683
:10595000808188608083E091A306F091A406808115
:1059600080688083E091A306F091A40680818F7DFA
:10597000808360E088E00E9435186AE070E080E093
:1059800090E00E94E21861E088E00E94351881E909
:1059900096E00E94C81A63E272E0CE0101960E946E
:1059A0001C1ACE0101960E94E216CE0101960E94B9
:1059B000DF1966E272E0CE0101960E941C1ACE0148
:1059C00001960E94E216CE0101960E94DF1960E066
:1059D00088E00E9435186AE070E080E090E00E9464
:1059E000E21861E088E00E9435180E949B298EE150
:1059F0000E94462962E085E896E00E94901B60E0E4
:105A000085E896E00E94901B0E94E92880E00E94B1
:105A1000C129803131F460E270E082EB97E00E94AE
:105A2000341F0E949B2989E10E94462960E285E893
:105A300096E00E94901B67E585E896E00E94901B27
:105A40000E94E92889E10E94462960E285E896E003
:105A50000E94901B0E94E92861E089E10E94502980
:105A600085E896E00E94441B0E94E9280E949B2939
:105A70008AEF90E09093AC078093AB071092A60753
:105A80001092A5071092A8071092A7071092AA07D4
:105A90001092A9078BE60E9446296FE085E896E000
:105AA0000E94901B0E94E92861E08BE60E94502929
:105AB0009091190680911A069817F1F385E896E0FF
:105AC0000E94441B182F0E94E928143D11F0173D35
:105AD00029F540E060E282EA97E00E9494174FE0E7
