:100000000C9452020C942E150C945B150C947A02ED
:100010000C947A020C947A020C947A020C947A0270
:100020000C947A020C947A020C947A020C941408C0
:100030000C947A020C947A020C947A020C947A0250
:100040000C942D030C947A020C94E6050C9418067B
:100050000C947A020C947A020C947A020C947A0230
:100060000C94B8170C947A02C60A8B0B8B0BE50A1A
:10007000110B320B8B0B200B8B0B610B8B0B4D0B76
:10008000670B084AD73B3BCE016E84BCBFFDC12F36
:100090003D6C74319ABD56833DDA3D00C77F11BE79
:1000A000D9E4BB4C3E916BAAAABE000000803F0081
:1000B000416461667275697420426C75656672751B
:1000C0006974204C6F7720456E65726779206E5297
:1000D0004638303031205072696E74206563686F25
:1000E0002064656D6F00000000080002010000033D
:1000F00004070000000000000000010204081020B6
:1001000040800102040810200102040810200404A9
:1001100004040404040402020202020203030303AF
:10012000030300000000250028002B000000000051
:10013000240027002A002020506970652045727233
:100140006F7220436F64653A203078004143492044
:100150004576742050697065204572726F723A203E
:100160005069706520233A0045767420436D642001
:10017000726573706F6E653A204572726F722E20D1
:1001800041726475696E6F20697320696E20616EBB
:10019000207768696C652831293B206C6F6F70008F
:1001A00041434920436F6D6D616E6420004572725A
:1001B0006F7220696E204143492053657475700049
:1001C0000957726974696E67206F6E652062797471
:1001D00065203078000007060000030241D70000C8
:1001E000000000000000000000000000000000000F
:1001F000000000000000001F0610000000000000CA
:10020000000400040101000006000090000000004E
:1002100000000000000000001F06101C010200008A
:1002200000000000000000000000000000000014BA
:100230000000001403900164001F06103802FF0242
:100240005800050000000000000000000000100041
:10025000000000000000000000000506105400002F
:10026000000000000000000000000000000000008E
:1002700000000000000000000000001F0620000435
:100280000402020001280001001804040505000210
:100290002803010E0300002A041407001F06201C77
:1002A0000400032A00015541525469637304040594
:1002B000050004280301020500012A06001F06208C
:1002C0003804030200052A010100000404050500AA
:1002D00006280301020700042A06040908001F0675
:1002E000205400072A04010600120000000A00043E
:1002F0000402020008280001011804041010001F65
:1003000006207000092800019ECADC240EE5A9E041
:1003100093F3A3B50100406E04041313000A2800F0
:100320001F06208C0301040B009ECADC240EE5A9E5
:10033000E093F3A3B50200406E44101400000B00DC
:10034000001F0620A80202000000000000000000BC
:10035000000000000000000000000004041313006F
:100360000C001F0620C4280301100D009ECADC24C7
:100370000EE5A9E093F3A3B50300406E140014004A
:10038000000D001F0620E000030200000000000036
:100390000000000000000000000000000000461403
:1003A000030200001F0620FC0E29020100000404C5
:1003B0000202000F2800010A180404050500102895
:1003C00003010211001906211800272A040409015B
:1003D00000112A27010A00000000000000000000B0
:1003E0000000000000001F0640002A0001008004F9
:1003F00000030000000202000804000B00000003DC
:1004000002000204000D000F06401C000E2A270106
:100410000080040011000000000000000000000047
:100420000000000000000000130650009ECADC24FB
:100430000EE5A9E093F3A3B50000406E00000000B4
:100440000000000000000000000F06600000000037
:10045000000000000000000000000000000000009C
:10046000000000000000000000000606F00003D3BA
:1004700088000000000000000000000000000000F4
:1004800000000000000000000000436D6420517572
:100490006575652046756C6C00002C200000BF025D
:1004A0004806D61611241FBECFEFD8E0DEBFCDBF61
:1004B00011E0A0E0B1E0E2E6F8E302C005900D92A1
:1004C000AC3FB107D9F727E0ACEFB1E001C01D9216
:1004D000A432B207E1F714E0C4EAD4E004C02297E2
:1004E000FE010E944419CE39D107C9F70E940408C1
:1004F0000C942F1C0C94000026E040E855E260E0CC
:1005000070E086E592E00E94840560EB70E086E58D
:1005100092E00E940B0783E292E00E94CC1140E53A
:1005200050E060E070E08CEF91E00E94CB0B61E066
:1005300088E00E94320464E070E08DE192E00E9465
:100540006A0967E070E08AE192E00E946A0965E06A
:1005500070E080E292E00E946A0965E570E080E266
:1005600092E00E94A30968EB7BE080E090E00E94AB
:10057000A60368E171E086E592E00C94EE068CE457
:1005800092E00E9495144DE556E760E070E089E343
:1005900092E00E94C1104EE556E760E070E083E211
:1005A00092E00E94CB1080E292E00E94D0088DE1A0
:1005B00092E00E94D0088AE192E00E94D0080E9456
:1005C000770360931602709317028093180290933A
:1005D000190229E042E06AE08CEF91E00C947F0A76
:1005E000CF93DF93CDB7DEB7E4970FB6F894DEBFB5
:1005F0000FBECDBFBE016F5F7F4F83E292E00E94CE
:100600006E139E012B5D3F4FAE014F5F5F4F63E066
:1006100070E08CE492E00E949614882341F06DA56E
:100620007EA58FA598A90E94951ACB0102C08FEFD5
:100630009FEFE4960FB6F894DEBF0FBECDBFDF91FB
:10064000CF9108950E94F0024AE050E0BC0186E597
:1006500092E00C94C0070C9422031F920F920FB6E5
:100660000F9211242F933F938F939F93AF93BF9338
:1006700080914E0290914F02A0915002B091510290
:1006800030914D0223E0230F2D3720F40196A11D58
:10069000B11D05C026E8230F0296A11DB11D2093B0
:1006A0004D0280934E0290934F02A0935002B0935C
:1006B00051028091520290915302A0915402B09144
:1006C00055020196A11DB11D8093520290935302D1
:1006D000A0935402B0935502BF91AF919F918F9117
:1006E0003F912F910F900FBE0F901F9018952FB72D
:1006F000F89460914E0270914F0280915002909157
:1007000051022FBF08953FB7F89480915202909103
:100710005302A0915402B091550226B5A89B05C082
:100720002F3F19F00196A11DB11D3FBF6627782FFD
:10073000892F9A2F620F711D811D911D42E0660F56
:10074000771F881F991F4A95D1F70895CF92DF929E
:10075000EF92FF92CF93DF936B017C010E948303A2
:10076000EB01C114D104E104F10489F00E941308E3
:100770000E9483036C1B7D0B683E734090F381E005
:10078000C81AD108E108F108C851DC4FEACFDF915F
:10079000CF91FF90EF90DF90CF900895789484B53B
:1007A000826084BD84B5816084BD85B5826085BD6D
:1007B00085B5816085BDEEE6F0E080818160808353
:1007C000E1E8F0E010828081826080838081816036
:1007D0008083E0E8F0E0808181608083E1EBF0E0FD
:1007E000808184608083E0EBF0E0808181608083A1
:1007F000EAE7F0E08081846080838081826080838A
:100800008081816080838081806880831092C100B4
:100810000895833081F028F4813099F08230A1F07E
:1008200008958730A9F08830B9F08430D1F48091F0
:1008300080008F7D03C0809180008F77809380003F
:10084000089584B58F7702C084B58F7D84BD0895E7
:100850008091B0008F7703C08091B0008F7D80932E
:10086000B0000895CF93DF9390E0FC01E650FF4F76
:100870002491FC01E25FFE4F8491882349F190E0CE
:10088000880F991FFC01E45DFE4FA591B4918E5D28
:100890009E4FFC01C591D4919FB7611108C0F89497
:1008A0008C91209582238C93888182230AC06230A8
:1008B00051F4F8948C91322F309583238C93888156
:1008C000822B888304C0F8948C91822B8C939FBFD9
:1008D000DF91CF9108950F931F93CF93DF931F92D2
:1008E000CDB7DEB7282F30E0F901EA51FF4F8491F0
:1008F000F901E650FF4F1491F901E25FFE4F0491B8
:100900000023C9F0882321F069830E9409046981CA
:10091000E02FF0E0EE0FFF1FEE5DFE4FA591B491CA
:100920009FB7F8948C91611103C01095812301C089
:10093000812B8C939FBF0F90DF91CF911F910F91CF
:100940000895FC01818D228D90E0805C9F4F821B79
:1009500091098F7399270895FC01918D828D9817C5
:1009600031F0828DE80FF11D858D90E008958FEFB5
:100970009FEF0895FC01918D828D981761F0828D13
:10098000DF01A80FB11D5D968C91928D9F5F9F73C3
:10099000928F90E008958FEF9FEF08958EE396E099
:1009A000892B49F080E090E0892B29F00E943E06D7
:1009B00081110C9400000895FC01848DDF01A80FC3
:1009C000B11DA35ABF4F2C91848D90E001968F7377
:1009D0009927848FA689B7892C93A089B1898C9196
:1009E00080648C93938D848D981306C00288F3895C
:1009F000E02D80818F7D80830895CF93DF93EC017C
:100A0000888D8823C9F0EA89FB89808185FD05C02E
:100A1000A889B9898C9186FD0FC00FB607FCF5CF68
:100A2000808185FFF2CFA889B9898C9185FFEDCFB0
:100A3000CE010E94DC04E7CFDF91CF910895CF92E1
:100A4000DF92FF920F931F93CF93DF931F92CDB747
:100A5000DEB76C01DC015B969C915B975C968C9198
:100A60005C97981307C05096ED91FC915197808147
:100A700085FD32C0F601038D10E00F5F1F4F0F732D
:100A80001127F02EF601848DF81211C00FB607FC65
:100A9000F9CFD6015096ED91FC915197808185FF59
:100AA000F1CFC60169830E94DC046981EBCF838D9D
:100AB000E80FF11DE35AFF4F6083D6015B960C935C
:100AC0005B975296ED91FC91539780818062808371
:100AD00081E058968C930DC0D6015696ED91FC910D
:100AE000579760835096ED91FC9151978081806477
:100AF000808381E090E00F90DF91CF911F910F9163
:100B0000FF90DF90CF900895BF92CF92DF92EF9247
:100B1000FF92CF93DF93EC016A017B01B22EE8894B
:100B2000F98982E08083411581EE580761057105DE
:100B3000A1F060E079E08DE390E0A70196010E94CA
:100B400001192150310941095109569547953795A9
:100B50002795211580E1380798F0E889F9891082F6
:100B600060E874E88EE190E0A70196010E94011907
:100B700021503109410951095695479537952795D7
:100B8000EC85FD853083EE85FF852083188EEC890A
:100B9000FD89B082EA89FB89808180618083EA894E
:100BA000FB89808188608083EA89FB8980818068F5
:100BB0008083EA89FB8980818F7D8083DF91CF915B
:100BC000FF90EF90DF90CF90BF9008951F920F920B
:100BD0000FB60F9211242F938F939F93EF93FF9350
:100BE000E0916602F09167028081E0916C02F091E1
:100BF0006D0282FD12C0908180916F028F5F8F73B2
:100C000020917002821751F0E0916F02F0E0EA5AF1
:100C1000FD4F958F80936F0201C08081FF91EF910E
:100C20009F918F912F910F900FBE0F901F9018954D
:100C30001F920F920FB60F9211242F933F934F9351
:100C40005F936F937F938F939F93AF93BF93EF9334
:100C5000FF9386E592E00E94DC04FF91EF91BF9143
:100C6000AF919F918F917F916F915F914F913F9144
:100C70002F910F900FBE0F901F90189586E592E070
:100C80000E94A10421E0892B09F420E0822F08951D
:100C9000109259021092580288EE93E0A0E0B0E062
:100CA00080935A0290935B02A0935C02B0935D0222
:100CB0008CEA91E0909357028093560285EC90E085
:100CC000909363028093620284EC90E090936502BB
:100CD0008093640280EC90E09093670280936602B8
:100CE00081EC90E0909369028093680282EC90E03E
:100CF00090936B0280936A0286EC90E090936D0271
:100D000080936C0210926F02109270021092710226
:100D1000109272020895CF92DF92EF92FF920F939A
:100D20001F93CF93DF936C017A01EB01E60EF71E60
:100D300000E010E0CE15DF0561F06991D601ED917C
:100D4000FC910190F081E02DC6010995080F191F53
:100D5000F1CFC801DF91CF911F910F91FF90EF90DC
:100D6000DF90CF9008956115710581F0DB010D9042
:100D70000020E9F7AD0141505109461B570BDC013A
:100D8000ED91FC910280F381E02D099480E090E0E8
:100D90000895EF92FF920F931F93CF93DF938C01EF
:100DA000FB01C0E0D0E064917F018FEFE81AF80A00
:100DB000662361F0D801ED91FC910190F081E02D66
:100DC000C8010995C80FD91FF701EDCFCE01DF91FA
:100DD000CF911F910F91FF90EF9008950C94B3065F
:100DE000DC01ED91FC910190F081E02D09940F93CD
:100DF0001F93CF93DF93EC016DE00E94F0068C010E
:100E00006AE0CE010E94F006800F911FDF91CF9122
:100E10001F910F9108950F931F93CF93DF93EC01D0
:100E20000E94C9068C01CE010E94F706800F911F17
:100E3000DF91CF911F910F9108958F929F92AF9262
:100E4000BF92CF92DF92EF92FF920F931F93CF93B7
:100E5000DF93CDB7DEB7A1970FB6F894DEBF0FBE14
:100E6000CDBF7C01C42EE52FCB01D22E19A221E0EB
:100E70002D1510F02AE0D22E8E010F5D1F4F8D2C04
:100E8000912CA12CB12C6C2D7E2FA50194010E94D8
:100E900001198C2DD29E80191124015011098A301C
:100EA00014F4805D01C0895CF8018083211531054F
:100EB0004105510521F0C22EE32FCA01E4CFB8014C
:100EC000C7010E94B306A1960FB6F894DEBF0FBE0D
:100ED000CDBFDF91CF911F910F91FF90EF90DF90E9
:100EE000CF90BF90AF909F908F900895CF92DF9258
:100EF000EF92FF920F931F93CF93DF93EC016A0160
:100F00007B012115310579F4E881F9810190F081A7
:100F1000E02D642FDF91CF911F910F91FF90EF9003
:100F2000DF90CF9009942A303105E9F477FF1AC099
:100F30006DE20E94F0068C0144275527BA014C1936
:100F40005D096E097F092AE0CE010E941D07800F0E
:100F5000911FDF91CF911F910F91FF90EF90DF9044
:100F6000CF9008952AE0B701A601CE01DF91CF917D
:100F70001F910F91FF90EF90DF90CF900C941D0781
:100F80000F931F93CF93DF93EC019A01AB01662778
:100F900057FD6095762F0E9476078C01CE010E9446
:100FA000F706800F911FDF91CF911F910F91089548
:100FB0002115310541F4DC01ED91FC910190F081A6
:100FC000E02D642F09940C941D079A01462F50E0E0
:100FD00060E070E00C94D8070F931F93CF93DF93DA
:100FE000EC019A01462F50E060E070E00E94D807C3
:100FF0008C01CE010E94F706800F911FDF91CF91E7
:101000001F910F91089508950E94CE030E94030836
:101010000E947C02CEECD4E00E942B032097E1F3E7
:101020000E94CE04F9CF08951F920F920FB60F922F
:1010300011242F933F934F935F936F937F938F93DD
:101040009F93AF93BF93EF93FF938091F40287FF39
:1010500005C010928500109284001AC02091F402FD
:10106000332727FD30958091F30290E02817390748
:101070007CF48091F402992787FD9095FC01EE0F96
:10108000FF1FE80FF91FEB50FD4F808186FD15C053
:101090008091F4028F5F8093F4022091F402332751
:1010A00027FD30958091F30290E028173907BCF4B2
:1010B0008091F4028C305CF112C08091F402992787
:1010C00087FD9095FC01EE0FFF1FE80FF91FEB5015
:1010D000FD4F808160E08F730E946B04D9CF8091B7
:1010E000840090918500049680349C4918F480E433
:1010F0009CE905C0809184009091850004969093AE
:101100008900809388008FEF8093F40238C020918B
:101110008400309185008091F402992787FD909595
:10112000FC01EE0FFF1FE80FF91FEB50FD4F81810F
:101130009281820F931F9093890080938800809101
:10114000F402992787FD9095FC01EE0FFF1FE80F31
:10115000F91FEB50FD4F808186FF11C08091F40292
:10116000992787FD9095FC01EE0FFF1FE80FF91FEF
:10117000EB50FD4F808161E08F730E946B04FF9103
:10118000EF91BF91AF919F918F917F916F915F91FF
:101190004F913F912F910F900FBE0F901F90189578
:1011A0002091F3022C30A0F431E0320F3093F3029F
:1011B000FC012083822F90E0FC01EE0FFF1FE80F5F
:1011C000F91FEB50FD4F88EB9BE0928381830895DC
:1011D0002FEFFC0120830895DF92EF92FF920F938F
:1011E0001F93CF93DF93EC01D62E7A01890188817A
:1011F0008C3008F066C061E08D2D0E943204888139
:10120000A82FB0E0FD01EE0FFF1FEA0FFB1FEB5010
:10121000FD4F2D2D2F739081907C922B908360E257
:1012200072E06E197F0977FF02C06D5F7F4F759581
:10123000679575956795698340E659E0401B510BAA
:1012400057FF02C04D5F5F4F5595479555954795A0
:101250004A836CE00E94F5189CE0899FB00111243C
:1012600020E030E0A901460F571FFA01EE0FFF1FE3
:10127000E40FF51FEB50FD4F908196FD16C02F5FD8
:101280003F4F2C30310571F781110FC01092800053
:1012900082E0809381001092850010928400B19AC0
:1012A00080916F00826080936F00888190E0FC01E4
:1012B000EE0FFF1FE80FF91FEB50FD4F8081806498
:1012C00080838881DF91CF911F910F91FF90EF90E4
:1012D000DF90089520E639E040E252E00C94EC08FB
:1012E000FC0180818C3070F5918128E830E0291B69
:1012F000310997FD3395220F331F220F331F6217D9
:1013000073077CF0928128E532E0291B310997FDB3
:101310003395220F331F220F331F621773070CF40C
:101320009B0122503109220F331F4FB7F89490E0F0
:10133000FC01EE0FFF1FE80FF91FEB50FD4F32834A
:1013400021834FBF08954F925F926F927F92AF9229
:10135000BF92CF92DF92EF92FF920F931F93CF93A2
:10136000DF93EC01603282E078070CF040C077FD3B
:1013700006C0653B71052CF064EB70E002C060E0D4
:1013800070E0898128E830E0281B310987FD33951A
:10139000220F331F220F331F5901CC24B7FCC094F6
:1013A000DC2C882777FD8095982F2A8148E552E02C
:1013B000421B510927FD5395440F551F440F551FDC
:1013C0002A01662457FC6094762C7F926F925F927C
:1013D0004F9214EBE12EF12C00E010E020E030E021
:1013E000A9010E9488150F900F900F900F90CE01C9
:1013F000DF91CF911F910F91FF90EF90DF90CF90F1
:10140000BF90AF907F906F905F904F900C94700959
:1014100080911F039091200320911D0330911E03A2
:10142000821B930B8F739927089520911F0330918E
:10143000200380911D0390911E0328173907E9F0BE
:10144000E0911D03F0911E03EF5DFC4F8081209120
:101450001D0330911E032F5F3F4F30931E032093D7
:101460001D0320911D0330911E032F7333273093EA
:101470001E0320931D0390E008958FEF9FEF0895C2
:1014800020911F033091200380911D0390911E0332
:101490002817390749F0E0911D03F0911E03EF5D15
:1014A000FC4F808190E008958FEF9FEF089508959D
:1014B00020E030E050E02417350704F580911F0349
:1014C0009091200301968F739927E0911D03F0916D
:1014D0001E038E179F0779F0E0911F03F091200300
:1014E000DB01A20FB31FAC91EF5DFC4FA083909383
:1014F000200380931F032F5F3F4FDDCF08950F938D
:101500001F93FC01522F1382128208EE13E020E099
:1015100030E004831583268337838CEB91E091833D
:10152000808381E0808B60931B0340931A03509368
:101530001C03178616861586148610921E031092B9
:101540001D031092200310921F0386E890E0968BF3
:10155000858B1F910F910895CF93DF93EC0162E685
:1015600073E084E893E00E94AB0F882309F4D3C0B2
:101570004091640350E0FA01E158F109ED30F105C2
:1015800008F0C9C0EC5CFF4F0C94421980916703CE
:1015900080938B0380916503823021F0833009F4BE
:1015A0006AC0B9C084E893E00E943F0C029709F436
:1015B000B2C08889882309F4AEC06DEA71E086E57F
:1015C00092E0DF91CF910C940B0780916603882302
:1015D000C9F08889811101C0FFCF60EA71E086E51A
:1015E00092E00E94C90640E150E06091650386E503
:1015F00092E00E94EC0768E671E086E592E00E94C6
:101600000B07EACF80916503893009F084C029E097
:1016100047E653E064E084E893E0DF91CF910C94D7
:101620000B0F80918B0380938E030E94030F85E83C
:1016300090E09E8B8D8BEC85FD85309709F00995A8
:1016400063E084E893E00E94AA0E882309F463C053
:101650008091610381115FC00E94A30F81E080939C
:10166000610359C086E890E09E8B8D8BEC85FD85EB
:10167000309709F009956B897C8989899A890E943C
:10168000460F81E890E09E8B8D8BEC85FD85309731
:1016900009F441C0DF91CF91099440916303425016
:1016A00066E673E0CE010E94580AEE85FF8530970A
:1016B00091F160916303625086E693E0DF91CF91F0
:1016C00009948091650390918E03890F22C08889C7
:1016D0008823E1F06CE471E086E592E00E94C9069F
:1016E0004AE050E06091650386E592E00E94E507DC
:1016F00066E371E086E592E00E94C90640E150E0B1
:101700006091660386E592E00E94EC0780918E036B
:101710008F5F80938E03DF91CF9108950F931F9376
:10172000CF93DF931F92CDB7DEB78C01698360EC56
:1017300071E086E592E00E94C90640E150E06981CF
:1017400086E592E00E94EC0763E084E893E00E9463
:10175000AA0E8823A9F041E0BE016F5F7F4F83E0AE
:101760000E94620F80918E03815080938E0363E20A
:1017700070E080E090E00E94A60381E090E005C068
:10178000C8010E94AC0A80E090E00F90DF91CF91F9
:101790001F910F910895FC01728B618B548B438BC9
:1017A00084E091E0909385038093840384E08093A8
:1017B000860385ED91E0909388038093870385E10C
:1017C0008093890384E893E00E94BB0E81E0089532
:1017D000CF92DF92EF92FF920F931F93CF93DF93FD
:1017E0008C01C62E81E2489F70011124C0E0D0E038
:1017F000D12CDC1411F1CE018E0D9F1DF8016381F7
:101800007481680F791FFB013196449150E04E5F5F
:101810005F4F86EA93E00E940E1C86EA93E00E94E6
:101820008E0DA196811107C06AE874E086E592E00A
:101830000E940B0719C0D394DCCFC0E067EC73E0C3
:10184000C8010E94AB0F8823C9F3CF5F8091C90301
:10185000843851F48091CB039FEF980F923010F4AD
:10186000CC12ECCF90E002C081E890E0DF91CF9104
:101870001F910F91FF90EF90DF90CF9008950F93FD
:101880001F93CF93DF93EC016D81693028F000E066
:1018900010E088E890E002C040E015C06D81262F7E
:1018A000269526952695121740F4402F68E0CE0124
:1018B0000E94E80B1F5F085FF1CF677059F0412F5E
:1018C000440F440F440FCE01DF91CF911F910F9130
:1018D0000C94E80BDF91CF911F910F910895109216
:1018E000FD05FC01E85FFE4F108231961082E5EFA6
:1018F000F4E0DF0111971C921082B19685E0ED3F74
:10190000F807B9F708950F931F93CF93DF93EC0176
:1019100009814AE050E0602F86E592E00E94E507E9
:1019200068EC71E086E592E00E94EE0610E0FE01B0
:10193000E10FF11D40E150E0618186E592E00E94F7
:10194000E5076AE974E086E592E00E94C9061F5F38
:10195000011768F769E974E086E592E0DF91CF91BD
:101960001F910F910C940B078EBD00000DB407FE64
:10197000FDCF8EB5089590911A03923019F09330EF
:1019800019F01BC020E001C021E03DB3882351F0D5
:1019900081E090E0022E01C0880F0A94EAF7382B0C
:1019A0003DBB089581E090E0022E01C0880F0A94AB
:1019B000EAF7809583238DBB0895FFCF0F931F9384
:1019C000CF93DF93EC01F8940091F2041091F104AD
:1019D0007894E091F1048091F204E81761F191E2CA
:1019E0009E9FF0011124E751FC4FDE0101900D9202
:1019F0009A95E1F72091F10430E02F5F3F4F277077
:101A000033272093F1048091FD05882349F06BEC86
:101A100071E086E592E00E94EE06CE010E94830C02
:101A2000802F90E0019687709927181306C081E0F7
:101A30000E94BB0C02C080E001C081E0DF91CF9129
:101A40001F910F9108951092FF050E94CF158CB53C
:101A500080628CBD8CB58C7F81608CBD8DB58160C2
:101A60008DBD8CB5837F8CBD83EF94E00E946F0C9D
:101A700089EE93E00E946F0C61E080911C030E944C
:101A8000320462E080911A030E94320461E0809186
:101A90001B030E94320461E080911C030E946B04CE
:101AA00064E670E080E090E00E94A60360E0809130
:101AB0001C030E946B0461E080911C030E946B0474
:101AC00060E08DE00E946B0460E08BE00E946B049C
:101AD00061E080911B030E946B0460E08DE00E9436
:101AE0006B048FEF8093190380911A03823019F4ED
:101AF0001092190305C0833019F481E08093190313
:101B00006EE170E080E090E00E94A60340E050E0CB
:101B100066E67EE0809119030C94FE140F931F93E8
:101B2000CF93DF938C01FC0141814032C0F52091BD
:101B3000FC0530E0E9012196C770DD278091FB05A7
:101B40008C17C1F051E2529FC001539F900D112498
:101B5000FC01ED50FB4F108250E04F5F5F4FB8012A
:101B60006F5F7F4F8C509B4F0E94171CC093FC05EA
:101B7000C1E001C0C0E08091FD05882349F06EEC12
:101B800071E086E592E00E94EE06C8010E94830C97
:101B900060E080911B030E946B048C2F01C080E0E9
:101BA000DF91CF911F910F910895CF92DF92EF9225
:101BB000FF920F931F93CF93DF93CDB7DEB7A2971A
:101BC0000FB6F894DEBF0FBECDBF60E080911B035F
:101BD0000E946B048091FB059091FC05891709F424
:101BE00062C090E021E2289FF001299FF00D1124AE
:101BF000ED50FB4FDE01119601900D922A95E1F711
:101C00000196877099278093FB051A81812F0E9486
:101C1000B40C8093FE058B810E94B40C8093FF0569
:101C2000112349F0412F50E0282F30E024173507C9
:101C300014F48FEF810F982F803208F09FE17E011E
:101C400084E0E80EF11C80E0C82E86E0D82E8601E4
:101C5000802F8C19891758F4F70181917F019AA37D
:101C60000E94B40CF80181938F019AA1F1CF61E039
:101C700080911B030E946B0483B7816083BF40E0A7
:101C800050E066E67EE0809119030E94FE14909178
:101C9000FB058091FC05981741F060E080911B03E3
:101CA0000E946B0402C01A82B0CF8EEF95E0A2961C
:101CB0000FB6F894DEBF0FBECDBFDF91CF911F915D
:101CC0000F91FF90EF90DF90CF900895CF93DF9327
:101CD00083B78E7F83BF809119030E941E150E94D7
:101CE000D50DFC014181442391F16091F20470E033
:101CF000EB012196C770DD272091F1042C1731F1FB
:101D000051E2569F9001579F300D1124F901E75180
:101D1000FC4F108250E04F5F5F4FBC016F5F7F4F01
:101D2000C90186519C4F0E94171CC093F204F8947D
:101D30008091F2048F5F87709091F10478948913F9
:101D400006C080E0DF91CF910C94BB0CFFCFDF91F8
:101D5000CF910895262F269526952695820F911DC1
:101D6000FC01818990E0677002C0959587956A951E
:101D7000E2F781700895CF93DF93FC01A0E2B6E013
:101D800080E090E0EF01C80FD91F198A198E1D92CB
:101D9000019688309105B1F710922D0610922C060D
:101DA00010922B0610922A068FEF809335068093AF
:101DB000340680933306109231061092300610924A
:101DC0002F0610922E0610922906109228061092C5
:101DD0001F061092370610923606808191819093EB
:101DE0005E0680935D06828180935C068381948188
:101DF00090935B0680935A06858180935906DF9104
:101E0000CF910C94230D89E396E00E94F60F88E3AE
:101E100096E00C948E0DCF93DF93CDB7DEB7669727
:101E20000FB6F894DEBF0FBECDBFCA01E0915D06CC
:101E3000F0915E0633E0639FE00DF11D11243397AE
:101E400030813130C9F42531B8F46983422F50E034
:101E5000BC01CE0102962E8B0E94171C2E89422FA8
:101E6000BE016F5F7F4F89E396E00E94FC0F88E31D
:101E700096E00E948E0D01C080E066960FB6F89441
:101E8000DEBF0FBECDBFDF91CF910895CF93DF931B
:101E900000D000D0CDB7DEB79A8389837C836B8373
:101EA000BE016F5F7F4F89E396E00E940D1088E3CB
:101EB00096E00E948E0D0F900F900F900F90DF9183
:101EC000CF9108951F93CF93DF93CDB7DEB765977A
:101ED0000FB6F894DEBF0FBECDBF142FE0915D06A4
:101EE000F0915E0693E0899FE00DF11D1124339778
:101EF000218132812230310519F024303105C1F4BD
:101F00001531B0F48983412F50E0CE0102960E9432
:101F1000171C412FBE016F5F7F4F89E396E00E943F
:101F200021101092320688E396E00E948E0D01C0C7
:101F300080E065960FB6F894DEBF0FBECDBFDF918F
:101F4000CF911F91089589E396E00E94321088E3B3
:101F500096E00C948E0D0F931F93CF93DF93EC01BB
:101F60008B01CB010E94DE0CF8019281983839F088
:101F7000993851F19638A9F520E030E017C020E0FB
:101F800030E00F5F1F4FD801A20FB31F12969C9134
:101F90001297FE01E20FF31F918B1A969C91918F7D
:101FA0002F5F3F4F2830310571F71BC0FE01E20F54
:101FB000F31F118A118E2F5F3F4F28303105B1F783
:101FC00019A29F819A870DC0F801238134813C8733
:101FD0002B87258136813E872D8727813085388B59
:101FE0002F87DF91CF911F910F91089521E0FC0180
:101FF000208329E02183089522E0240FDC012C9323
:102000002DE011962C931197FB01219112962C93A0
:1020100050E0BF0103960C94171CFC01DB0185E026
:1020200080838FE0818311968C91119783838C91AB
:10203000828313968C911397858312968C91848357
:10204000089522E0240FDC012C9325E111962C93B6
:102050001197FB01219112962C9350E0BF0103963A
:102060000C94171C21E0FC01208323E121830895B7
:102070000895FC01658B08950F931F93CF93DF9311
:102080008C01EB0188E2FB0111928A95E9F74BE0A4
:1020900050E060ED71E0CE010E94201C1B8641E003
:1020A00050E060E070E04C875D876E877F87F801C5
:1020B0000785108921893289088B198B2A8B3B8BE4
:1020C0004C8B5D8B6E8B7F8B1CA21DA21EA21FA250
:1020D000188E198E1A8E1B8E1C8E1D8E1E8E1F8EB4
:1020E00018A219A21AA21BA2DF91CF911F910F91E2
:1020F00008950F931F93CF93DF938C01EB0188E238
:10210000FB0111928A95E9F74BE050E060ED71E038
:10211000CE010E94201C1B8641E050E060E070E090
:102120004C875D876E877F87F80141895289638973
:102130007489488B598B6A8B7B8B42E050E060E05E
:1021400070E04C8B5D8B6E8B7F8B1CA21DA21EA240
:102150001FA2188E198E1A8E1B8E1C8E1D8E1E8E1F
:102160001F8E18A219A21AA21BA2DF91CF911F9154
:102170000F910895DC01ED91FC910190F081E02D2B
:1021800009942BED31E0FC01318320834787508B8C
:10219000618B728B0895FC0185EE91E091838083C1
:1021A000418B528B638B748B158A0895CF93DF9389
:1021B00000D0CDB7DEB784E696E02A8349830E943B
:1021C000B6164981642F84E696E00E945D162A8146
:1021D000622F84E696E00E945D1684E696E00F90FA
:1021E0000F90DF91CF910C94D3160F931F93CF9341
:1021F000DF938C01EB01262F41E06EE10E94D610A7
:10220000F801D483C383C038D10509F45BC0DCF482
:10221000C034D105A9F1C036D10509F442C0A09758
:1022200009F08AC080E090E8A9E8B4E48093140142
:1022300090931501A0931601B093170180E090E0F0
:10224000A5E7B4E471C0C03CD10509F44CC0C03E60
:10225000D10509F459C0C03AD10509F06DC080E03C
:1022600090E0A8ECB3E48093140190931501A0933F
:102270001601B093170180E090E8A1EBB3E454C0DD
:1022800080E090ECA5E5B4E48093140190931501EF
:10229000A0931601B093170180E090E0AEE3B4E4A0
:1022A00043C080E090E8A7E2B4E4809314019093E7
:1022B0001501A0931601B093170180E090E0A6E10C
:1022C000B4E432C080E090E0A1EEB3E48093140166
:1022D00090931501A0931601B093170180E090E050
:1022E000A8ECB3E421C080E090E0A5EAB3E48093D9
:1022F000140190931501A0931601B093170180E08B
:1023000090E8A3E9B3E410C080E090E0A6E6B3E46F
:102310008093140190931501A0931601B0931701B7
:1023200080E090E0ADE4B3E480931001909311015C
:10233000A0931201B0931301DF91CF911F910F91E0
:1023400008951F93CF93DF931F92CDB7DEB7162F5B
:1023500084E696E049830E94B6164981642F84E69C
:1023600096E00E945D1684E696E00E94D31641E056
:10237000612F84E696E00E94B31684E696E00E9400
:102380000D16182F84E696E00E94D316812F0F9029
:10239000DF91CF911F910895CF93DF93EC0184E6F5
:1023A00096E00E949C1620E042E06EE1CE010E9481
:1023B000D61040E06EE1CE010E94A111803139F4C7
:1023C00060E270E0CE010E94F51081E001C080E083
:1023D000DF91CF9108956F927F928F929F92AF92EB
:1023E000BF92CF92DF92EF92FF920F931F93CF9302
:1023F000DF93EC0169E184E696E00E94B61668EA94
:1024000070E084E696E00E94BA1084E696E00E94AE
:10241000D31646E069E184E696E00E94B31684E6AE
:1024200096E00E9405160697D4F384E696E00E9493
:102430000D16782E84E696E00E940D16682E84E62E
:1024400096E00E940D16982E84E696E00E940D16E6
:10245000882E84E696E00E940D16D82E84E696E03B
:102460000E940D16C82EB62CA12CA72884E0B59486
:10247000A7948A95E1F7B501882777FD8095982F75
:102480000E94C81A6B837C838D839E83F82CE12C79
:10249000E92894E0F594E7949A95E1F7B701882745
:1024A00077FD8095982F0E94C81A6F837887898757
:1024B0009A871C2D00E00D2924E0159507952A9593
:1024C000E1F7B801882777FD8095982F0E94C81AF8
:1024D0006B877C878D879E87DF91CF911F910F91AE
:1024E000FF90EF90DF90CF90BF90AF909F908F9034
:1024F0007F906F9008950F931F93CF93DF938C017C
:10250000EB0184E2FB0111928A95E9F7C8010E9470
:10251000EB1184E290E0A0E0B0E088839983AA8385
:10252000BB83F80187859089A189B2898C839D83BB
:10253000AE83BF8381E090E0A0E0B0E08887998718
:10254000AA87BB870E947703688B798B8A8B9B8BCA
:102550002FE632E143E85AE3F80163817481858113
:1025600096810E94A81B2AE038EE4CE151E40E94BB
:10257000A81B6C8B7D8B8E8B9F8B2FE632E143E803
:102580005AE3F80167817085818592850E94A81BB6
:102590002AE038EE4CE151E40E94A81B688F798F45
:1025A0008A8F9B8F2FE632E143E85AE3F801638577
:1025B0007485858596850E94A81B2AE038EE4CE13B
:1025C00051E40E94A81B6C8F7D8F8E8F9F8F81E0BE
:1025D000DF91CF911F910F9108956F927F928F920B
:1025E0009F92AF92BF92CF92DF92EF92FF920F93A2
:1025F0001F93CF93DF93EC016EE184E696E00E9497
:10260000B61663E070E084E696E00E94BA1084E6B5
:1026100096E00E94D31646E06EE184E696E00E94C2
:10262000B31684E696E00E9405160697D4F384E676
:1026300096E00E940D16682E84E696E00E940D1624
:10264000782E84E696E00E940D16C82E84E696E069
:102650000E940D16D82E84E696E00E940D16882E54
:1026600084E696E00E940D16982EB62CA12CA72881
:10267000B501882777FD8095982F0E94C81A6D8331
:102680007E838F839887F82CE12CE928B70188276F
:1026900077FD8095982F0E94C81A69877A878B8763
:1026A0009C871C2D00E00D29B801882777FD8095B7
:1026B000982F0E94C81A6D877E878F87988BDF912D
:1026C000CF911F910F91FF90EF90DF90CF90BF902F
:1026D000AF909F908F907F906F9008952F923F9230
:1026E0004F925F926F927F928F929F92AF92BF9222
:1026F000CF92DF92EF92FF920F931F93CF93DF93CE
:10270000EC018B0184E2FB0111928A95E9F749E023
:102710006EE1CE010E94A11180FFF3C0CE010E94A4
:10272000ED128D89882309F483C04D805E806F800F
:10273000788489849A84AB84BC84CD84DE84EF84DD
:10274000F8882224239420E030E04FEF54ECC301BA
:10275000B2010E94291A18160CF4212C3324339448
:1027600020E030E04FEF54E4C301B2010E949D1B12
:1027700087FD312C32286624639420E030E04FEF4F
:1027800054E4C501B4010E949D1B87FD612C6328A0
:102790007724739420E030E04FEF54ECC501B4018E
:1027A0000E94291A18160CF4712C7628BB24B394B5
:1027B00020E030E04FEF54E4C701B6010E949D1BBA
:1027C00087FDB12C7B2851F420E030E04FEF54EC32
:1027D000C701B6010E94291A181654F18B819C81F9
:1027E00080369105E1F04CF480329105D9F08034C7
:1027F0009105F1F460E670E017C0803A910561F050
:10280000803C910531F08038910591F460EA70E0E8
:102810000BC060EE70E008C060EC70E005C060E8DE
:1028200070E002C060E470E0CE010E94F5106FCF4E
:1028300084E290E0A0E0B0E0F80180839183A2837D
:10284000B38389899A89AB89BC8984839583A6835C
:10285000B78382E090E0A0E0B0E080879187A28714
:10286000B3870E947703F801608B718B828B938B07
:10287000C0901401D0901501E0901601F09017015E
:10288000A70196016D817E818F8198850E942D1A06
:1028900020E030E048EC52E40E94A81BF801648B71
:1028A000758B868B978BA701960169857A858B85B9
:1028B0009C850E942D1A20E030E048EC52E40E94F2
:1028C000A81BF801608F718F828F938F2091100168
:1028D0003091110140911201509113016D857E8557
:1028E0008F8598890E942D1A20E030E048EC52E450
:1028F0000E94A81BF801648F758F868F978F81E0E7
:1029000001C080E0DF91CF911F910F91FF90EF9078
:10291000DF90CF90BF90AF909F908F907F906F90FF
:102920005F904F903F902F9008950895CF92DF923F
:10293000EF92FF92CF93DF93FA01E901309709F408
:1029400053C0209709F450C06230710581F06330A4
:102950007105B1F06130710509F046C0208D318DEF
:10296000428D538D648D758D868D978D11C0248D0C
:10297000358D468D578D648975898689978908C0FC
:102980002489358946895789608D718D828D938D13
:102990000E94D61920E030E044E353E40E94A81BD3
:1029A0002BED3FE049E450E40E942D1A68877987B7
:1029B0008A879B87C884D984EA84FB8420E030E03E
:1029C000A901C701B6010E94291A87FF0FC020E0A4
:1029D00030E044EB53E4C701B6010E9463196887F5
:1029E00079878A879B8702C080E001C081E0DF9100
:1029F000CF91FF90EF90DF90CF9008958230E8F470
:102A0000E82FF0E0EE0FFF1FE15AF94F718360836A
:102A1000813041F0809169008C7F842B8093690024
:102A2000E89A089580916900440F551F440F551F7F
:102A3000837F842B80936900E99A0895823068F43B
:102A4000813011F0E89801C0E998E82FF0E0EE0F2E
:102A5000FF1FE15AF94F1182108208951F920F92C1
:102A60000FB60F9211242F933F934F935F936F9361
:102A70007F938F939F93AF93BF93EF93FF93809137
:102A80005F0690916006892B29F0E0915F06F09136
:102A900060060995FF91EF91BF91AF919F918F9142
:102AA0007F916F915F914F913F912F910F900FBE4A
:102AB0000F901F9018951F920F920FB60F9211242E
:102AC0002F933F934F935F936F937F938F939F9336
:102AD000AF93BF93EF93FF9380916106909162064D
:102AE000892B29F0E0916106F09162060995FF912A
:102AF000EF91BF91AF919F918F917F916F915F9176
:102B00004F913F912F910F900FBE0F901F901895EE
:102B10004F925F926F927F92AF92BF92CF92DF926D
:102B2000EF92FF920F931F93CF93DF93CDB7DEB752
:102B300029013A01621B730B840B950B29893A8991
:102B40004B895C892A193B094C095D09298B3A8B11
:102B50004B8B5C8B9B01AC0169897A898B899C8941
:102B60000E94E518E418F50806091709A80197015D
:102B70000E9423192A0D3B1D4C1D5D1DCA01B90180
:102B8000DF91CF911F910F91FF90EF90DF90CF9049
:102B9000BF90AF907F906F905F904F900895CF93CC
:102BA000CFB7F89480916306811127C0E8E1F1E086
:102BB0008491E4E0F1E09491E82FF0E0EE0FFF1F44
:102BC000E45DFE4FA591B4918C91892321F461E0DD
:102BD0008AE00E946B0461E08AE00E9432048CB5B6
:102BE00080618CBD8CB580648CBD61E08DE00E94FD
:102BF000320461E08BE00E943204809163068F5FB3
:102C000080936306CFBFCF9108958091940690E0A2
:102C100020919506821B9109089520919506809137
:102C20009406281750F4E22FF0E0EA56F94F80811D
:102C300090E02F5F2093950608958FEF9FEF089502
:102C4000E091950680919406E81730F4F0E0EA569A
:102C5000F94F808190E008958FEF9FEF08950895D8
:102C6000CF92DF92EF92FF920F931F93CF93DF9358
:102C70007C01CB018A0120917006222389F0EB01AF
:102C80006B01C40ED51ECC15DD0569F06991D70125
:102C9000ED91FC910190F081E02DC7010995F3CFF2
:102CA000642F0E948F17C801DF91CF911F910F9160
:102CB000FF90EF90DF90CF900895CF93DF931F9216
:102CC000CDB7DEB76983209170062223D1F0209121
:102CD0007106203240F021E030E0FC013383228392
:102CE00080E090E015C080917206E82FF0E0ED588A
:102CF000F94F998190838F5F80937206809371065C
:102D000005C061E0CE0101960E948F1781E090E03E
:102D10000F90DF91CF910895FC011382128248EE4B
:102D200053E060E070E044835583668377838FEEE1
:102D300091E09183808308951092950610929406F5
:102D400010927206109271060C94DA16862F413298
:102D500008F040E266E976E00E94F81610929506C7
:102D600080939406089521E00C94A61681E0809348
:102D70007006609393061092720610927106089581
:102D80000F93062F21E04091710663E776E0809172
:102D900093060E943C1710927206109271061092D0
:102DA00070060F91089561E00C94C01684E696E0D9
:102DB0000C948C161092230781E0809321071092C7
:102DC000200761E082E10E946B0461E083E10E94E0
:102DD0006B04E9EBF0E080818E7F808380818D7FC2
:102DE000808388E48093B80085E48093BC000895D4
:102DF000413208F03FC0909123079111FCCF91E040
:102E000090932307209321072FEF2093B60610926B
:102E1000FB06240F2093FA06909322079091220735
:102E2000880F892B8093220780912007813041F4FD
:102E300010922007809122078093BB0085EC01C08F
:102E400085EE8093BC00809123078130E1F380916F
:102E5000FB06841710F44091FB062CEF36E0FB01D3
:102E6000D9018A2F821B841718F48D918193F9CF91
:102E7000842F089580E008950F93413208F046C0F2
:102E8000909123079111FCCF92E090932307009338
:102E900021079FEF9093B6061092FB064093FA0627
:102EA000FB016CEF76E0DB019A2F961B941718F468
:102EB00091919D93F9CF1092220790912207880F4C
:102EC000892B8093220780912007813041F4109252
:102ED0002007809122078093BB0085EC01C085EE1E
:102EE0008093BC00222321F0809123078230E1F3FC
:102EF0008091B6068F3F61F08091B606803251F026
:102F00008091B606803341F483E007C081E005C0BC
:102F100080E003C082E001C084E00F910895613237
:102F200098F420912307243089F46093D806FC019B
:102F30008AED96E0DC012A2F281B261718F4219130
:102F40002D93F9CF80E0089581E0089582E00895FF
:102F500085ED8093BC008091BC0084FDFCCF109275
:102F60002307089585EC8093BC00109223070895F1
:102F70001F920F920FB60F9211242F933F934F93EE
:102F80005F936F937F938F939F93AF93BF93EF93D1
:102F9000FF938091B900887F803609F49CC068F562
:102FA000883209F45BC090F4803109F454C038F4DD
:102FB000882309F4F5C0883009F44DC0F5C0883184
:102FC00009F44CC0803209F45DC0EEC0803409F4CD
:102FD00068C048F4803309F455C0883309F0E4C070
:102FE0008093B606A8C0803509F44FC0883509F42F
:102FF0005DC0883409F0D8C0D5C0883909F4C6C08E
:10300000A8F4883709F467C038F4883609F463C037
:10301000803709F460C0C8C0883809F4B7C0803967
:1030200009F45FC0803809F0BFC05BC0803B09F481
:1030300085C038F4803A09F466C0883A09F47EC045
:10304000B3C0803C09F4A6C0883C09F4A3C0883B07
:1030500009F489C0A9C08091220710C09091FB0695
:103060008091FA06981770F5E091FB0681E08E0FCB
:103070008093FB06F0E0E450F94F80818093BB0021
:1030800085EC85C08093B6068DC0E091FB0681E09B
:103090008E0F8093FB068091BB00F0E0E450F94F67
:1030A00080839091FB068091FA066DC0E091FB064B
:1030B00081E08E0F8093FB068091BB00F0E0E4502E
:1030C000F94F80838091210781116CC081E080934A
:1030D000200784EA60C083E0809323071092B7063C
:1030E000CFCF8091B706803208F050C0E091B7068C
:1030F00081E08E0F8093B7068091BB00F0E0E8542A
:10310000F94F8083BDCF8091B706803230F4E091D3
:10311000B706F0E0E854F94F10820E94A8176091BA
:10312000B70670E0E0911C07F0911D0788EB96E070
:1031300009951092B7060E94B21736C084E08093BA
:1031400023071092D9061092D806E0911E07F0913D
:103150001F0709958091D806811105C081E08093F1
:10316000D8061092DA06E091D90681E08E0F80939E
:10317000D906F0E0E652F94F80818093BB00909130
:10318000D9068091D806981708F47ACF85E88093FD
:10319000BC000AC085EC8093BC001092230704C0D9
:1031A0001092B6060E94A817FF91EF91BF91AF91C0
:1031B0009F918F917F916F915F914F913F912F914F
:1031C0000F900FBE0F901F901895DB018F939F9368
:1031D0000E945719BF91AF91A29F800D911DA39F8F
:1031E000900DB29F900D11240895991B79E004C0B1
:1031F000991F961708F0961B881F7A95C9F7809536
:103200000895A1E21A2EAA1BBB1BFD010DC0AA1F27
:10321000BB1FEE1FFF1FA217B307E407F50720F03F
:10322000A21BB30BE40BF50B661F771F881F991FBA
:103230001A9469F760957095809590959B01AC0103
:10324000BD01CF010895052E97FB1EF400940E9446
:103250003A1957FD07D00E94011907FC03D04EF41C
:103260000C943A1950954095309521953F4F4F4F0A
:103270005F4F089590958095709561957F4F8F4F22
:103280009F4F0895EE0FFF1F0590F491E02D0994D4
:10329000A29FB001B39FC001A39F700D811D112497
:1032A000911DB29F700D811D1124911D08950E94E2
:1032B0004819A59F900DB49F900DA49F800D911D5E
:1032C000112408955058BB27AA270ED0FCC1EDD178
:1032D00030F0F2D120F031F49F3F11F41EF4BDC163
:1032E0000EF4E095E7FBB3C1E92FFED180F3BA17E6
:1032F000620773078407950718F071F49EF516C2EC
:103300000EF4E0950B2EBA2FA02D0B01B901900100
:103310000C01CA01A0011124FF27591B99F0593F44
:1033200050F4503E68F11A16F040A22F232F342F8C
:103330004427585FF3CF469537952795A795F040DA
:103340005395C9F77EF41F16BA0B620B730B840BEF
:10335000BAF09150A1F0FF0FBB1F661F771F881FA7
:10336000C2F70EC0BA0F621F731F841F48F48795FF
:1033700077956795B795F7959E3F08F0B3CF9395EE
:10338000880F08F09927EE0F9795879508958DD1AE
:1033900058F080E891E009F49EEF8ED128F040E8E3
:1033A00051E059F45EEF09C058C1C0C1E92FE0787F
:1033B0009BD168F3092E052AC1F326173707480762
:1033C000590738F00E2E07F8E02569F0E025E06493
:1033D0000AC0EF6307F8009407FADB01B9019D0109
:1033E000DC01CA01AD01EF9347D06DD10AD05F91E6
:1033F000552331F02BED3FE049E450FD49EC63CF1C
:103400000895DF93DD27B92FBF7740E85FE31616F5
:10341000170648075B0710F4D92F93D19F938F931A
:103420007F936F93F8D1E2E8F0E01AD14CD12F915D
:103430003F914F915F9198D1DD2349F09058A2EAD6
:103440002AED3FE049EC5FE3D0785D274DDFDF9167
:103450003AC1D9D008F481E008950CD034C12CD100
:1034600040F023D130F021F45F3F19F0F0C051114A
:103470005EC1F3C039D198F39923C9F35523B1F351
:10348000951B550BBB27AA2762177307840738F0D3
:103490009F5F5F4F220F331F441FAA1FA9F333D032
:1034A0000E2E3AF0E0E830D091505040E695001CE6
:1034B000CAF729D0FE2F27D0660F771F881FBB1FA2
:1034C000261737074807AB07B0E809F0BB0B802D7C
:1034D000BF01FF2793585F4F2AF09E3F510568F0C8
:1034E000B6C025C15F3FECF3983EDCF38695779537
:1034F0006795B795F7959F5FC9F7880F911D9695CA
:10350000879597F90895E1E0660F771F881FBB1F25
:10351000621773078407BA0720F0621B730B840BD2
:10352000BA0BEE1F88F7E095089504D06894B111A6
:10353000FEC00895E1D088F09F5790F0B92F9927E9
:10354000B751A0F0D1F0660F771F881F991F1AF0AE
:10355000BA95C9F712C0B13081F0E8D0B1E0089552
:10356000E5C0672F782F8827B85F39F0B93FCCF3D3
:10357000869577956795B395D9F73EF490958095A4
:10358000709561957F4F8F4F9F4F0895E89409C0C4
:1035900097FB3EF490958095709561957F4F8F4F86
:1035A0009F4F9923A9F0F92F96E9BB279395F6959C
:1035B000879577956795B795F111F8CFFAF4BB0F1A
:1035C00011F460FF1BC06F5F7F4F8F4F9F4F16C07E
:1035D000882311F096E911C0772321F09EE8872F08
:1035E000762F05C0662371F096E8862F70E060E0C4
:1035F0002AF09A95660F771F881FDAF7880F96953D
:10360000879597F90895990F0008550FAA0BE0E8E0
:10361000FEEF16161706E807F907C0F01216130694
:10362000E407F50798F0621B730B840B950B39F4D4
:103630000A2661F0232B242B252B21F408950A263A
:1036400009F4A140A6958FEF811D811D089597F97A
:103650009F6780E870E060E008959FEF80EC089538
:10366000DF93CF931F930F93FF92EF92DF927B0133
:103670008C01689405C0DA2EEF0176D0FE01E89443
:10368000A5912591359145915591AEF3EF012CDE31
:10369000FE019701A801DA9479F7DF90EF90FF908F
:1036A0000F911F91CF91DF91089500240A9416166F
:1036B000170618060906089500240A941216130620
:1036C000140605060895092E0394000C11F48823AE
:1036D00052F0BB0F40F4BF2B11F460FF04C06F5FCA
:1036E0007F4F8F4F9F4F089557FD9058440F551FA0
:1036F00059F05F3F71F04795880F97FB991F61F074
:103700009F3F79F087950895121613061406551FEA
:10371000F2CF4695F1DF08C0161617061806991F56
:10372000F1CF86957105610508940895E894BB274B
:1037300066277727CB0197F9089565DF08F48FEFA7
:1037400008959B01AC0160E070E080E89FE385CEC6
:103750000BD0B9CFAADF28F0AFDF18F0952309F01E
:1037600076CF7BCF1124E3CFBFDFA0F3959FD1F3BA
:10377000950F50E0551F629FF001729FBB27F00D1F
:10378000B11D639FAA27F00DB11DAA1F649F662774
:10379000B00DA11D661F829F2227B00DA11D621FC3
:1037A000739FB00DA11D621F839FA00D611D221F7D
:1037B000749F3327A00D611D231F849F600D211D61
:1037C000822F762F6A2F11249F5750408AF0E1F004
:1037D00088234AF0EE0FFF1FBB1F661F771F881F4D
:1037E00091505040A9F79E3F510570F030CF9FCFC8
:1037F0005F3FECF3983EDCF3869577956795B79538
:10380000F795E7959F5FC1F7FE2B880F911D969561
:10381000879597F908959B01AC019ACFFB01DC01D4
:1038200002C005900D9241505040D8F70895FB0119
:10383000DC0102C001900D9241505040D8F708952C
:10384000FB01DC014150504048F001900D920020F6
:10385000C9F701C01D9241505040E0F70895F89417
:02386000FFCF98
:103862000100000001800001080001020001800047
:103872000000754400808944446F6E652077697446
:10388200682053657475700043757272656E744872
:10389200656164696E673A20005475726E696E677D
:1038A200546F6F3A20005455524E494E4748656155
:1038B20064696E673A20005475726E4C656674488E
:1038C200656164696E673A20007475726E696E672D
:1038D20020616761696E005475726E52696768741F
:1038E20048656164696E673A200052696768743A94
:1038F20020004C6566743A20003C333020426163FC
:103902006B696E6720757000000000001F058B0652
:10391200A104BA04AC04FD04000000008E0B8B0667
:10392200080A150A400A570A203A002045004300B7
:103932004C534D333033000000000038107B123CF2
:10394200100000000039106E137910000000005DB5
:0C39520016301605160D1620162F160054
:00000001FF
